{
	"fairdex.sol": {
		"FairDEx": {
			"abi": [
				{
					"inputs": [],
					"stateMutability": "payable",
					"type": "constructor"
				},
				{
					"anonymous": false,
					"inputs": [],
					"name": "ExecutionCompleted",
					"type": "event"
				},
				{
					"anonymous": false,
					"inputs": [],
					"name": "PaidWithDescription",
					"type": "event"
				},
				{
					"anonymous": false,
					"inputs": [],
					"name": "PublishedMasterKey",
					"type": "event"
				},
				{
					"inputs": [
						{
							"internalType": "bytes32",
							"name": "_description",
							"type": "bytes32"
						}
					],
					"name": "PayWithDescription",
					"outputs": [],
					"stateMutability": "payable",
					"type": "function"
				},
				{
					"inputs": [
						{
							"internalType": "bytes32",
							"name": "_masterKey",
							"type": "bytes32"
						}
					],
					"name": "PublishMasterKey",
					"outputs": [],
					"stateMutability": "nonpayable",
					"type": "function"
				},
				{
					"inputs": [
						{
							"internalType": "uint256",
							"name": "_committed_ri",
							"type": "uint256"
						},
						{
							"internalType": "bytes32",
							"name": "_committedSubKey",
							"type": "bytes32"
						},
						{
							"internalType": "bytes32[]",
							"name": "_merkleTreePath",
							"type": "bytes32[]"
						}
					],
					"name": "RaiseObjection",
					"outputs": [],
					"stateMutability": "payable",
					"type": "function"
				},
				{
					"inputs": [],
					"name": "RefundToBuyer",
					"outputs": [],
					"stateMutability": "payable",
					"type": "function"
				},
				{
					"inputs": [],
					"name": "TransferToSeller",
					"outputs": [],
					"stateMutability": "nonpayable",
					"type": "function"
				},
				{
					"inputs": [],
					"name": "masterKey",
					"outputs": [
						{
							"internalType": "bytes32",
							"name": "",
							"type": "bytes32"
						}
					],
					"stateMutability": "view",
					"type": "function"
				},
				{
					"inputs": [],
					"name": "state",
					"outputs": [
						{
							"internalType": "enum FairDEx.State",
							"name": "",
							"type": "uint8"
						}
					],
					"stateMutability": "view",
					"type": "function"
				}
			],
			"devdoc": {
				"kind": "dev",
				"methods": {},
				"version": 1
			},
			"evm": {
				"assembly": "    /* \"fairdex.sol\":66:3549  contract FairDEx {\r... */\n  mstore(0x40, 0x80)\n    /* \"fairdex.sol\":635:645  msg.sender */\n  caller\n    /* \"fairdex.sol\":626:632  seller */\n  0x00\n  dup1\n    /* \"fairdex.sol\":626:645  seller = msg.sender */\n  0x0100\n  exp\n  dup2\n  sload\n  dup2\n  0xffffffffffffffffffffffffffffffffffffffff\n  mul\n  not\n  and\n  swap1\n  dup4\n  0xffffffffffffffffffffffffffffffffffffffff\n  and\n  mul\n  or\n  swap1\n  sstore\n  pop\n    /* \"fairdex.sol\":664:674  msg.sender */\n  caller\n    /* \"fairdex.sol\":656:661  buyer */\n  0x01\n  0x00\n    /* \"fairdex.sol\":656:674  buyer = msg.sender */\n  0x0100\n  exp\n  dup2\n  sload\n  dup2\n  0xffffffffffffffffffffffffffffffffffffffff\n  mul\n  not\n  and\n  swap1\n  dup4\n  0xffffffffffffffffffffffffffffffffffffffff\n  and\n  mul\n  or\n  swap1\n  sstore\n  pop\n    /* \"fairdex.sol\":66:3549  contract FairDEx {\r... */\n  dataSize(sub_0)\n  dup1\n  dataOffset(sub_0)\n  0x00\n  codecopy\n  0x00\n  return\nstop\n\nsub_0: assembly {\n        /* \"fairdex.sol\":66:3549  contract FairDEx {\r... */\n      mstore(0x40, 0x80)\n      jumpi(tag_1, lt(calldatasize, 0x04))\n      shr(0xe0, calldataload(0x00))\n      dup1\n      0xc19d93fb\n      gt\n      tag_9\n      jumpi\n      dup1\n      0xc19d93fb\n      eq\n      tag_5\n      jumpi\n      dup1\n      0xc4cd9f49\n      eq\n      tag_6\n      jumpi\n      dup1\n      0xd4ef6cb0\n      eq\n      tag_7\n      jumpi\n      dup1\n      0xd8309ae1\n      eq\n      tag_8\n      jumpi\n      jump(tag_1)\n    tag_9:\n      dup1\n      0x705dd281\n      eq\n      tag_2\n      jumpi\n      dup1\n      0x8afe35b9\n      eq\n      tag_3\n      jumpi\n      dup1\n      0x94952cc7\n      eq\n      tag_4\n      jumpi\n    tag_1:\n      0x00\n      dup1\n      revert\n        /* \"fairdex.sol\":3076:3287  function TransferToSeller()\r... */\n    tag_2:\n      callvalue\n      dup1\n      iszero\n      tag_10\n      jumpi\n      0x00\n      dup1\n      revert\n    tag_10:\n      pop\n      tag_11\n      tag_12\n      jump\t// in\n    tag_11:\n      stop\n        /* \"fairdex.sol\":320:344  bytes32 public masterKey */\n    tag_3:\n      callvalue\n      dup1\n      iszero\n      tag_13\n      jumpi\n      0x00\n      dup1\n      revert\n    tag_13:\n      pop\n      tag_14\n      tag_15\n      jump\t// in\n    tag_14:\n      mload(0x40)\n      dup1\n      dup3\n      dup2\n      mstore\n      0x20\n      add\n      swap2\n      pop\n      pop\n      mload(0x40)\n      dup1\n      swap2\n      sub\n      swap1\n      return\n        /* \"fairdex.sol\":1848:2979  function RaiseObjection(uint _committed_ri, bytes32 _committedSubKey, bytes32[] memory _merkleTreePath)\r... */\n    tag_4:\n      tag_16\n      0x04\n      dup1\n      calldatasize\n      sub\n      0x60\n      dup2\n      lt\n      iszero\n      tag_17\n      jumpi\n      0x00\n      dup1\n      revert\n    tag_17:\n      dup2\n      add\n      swap1\n      dup1\n      dup1\n      calldataload\n      swap1\n      0x20\n      add\n      swap1\n      swap3\n      swap2\n      swap1\n      dup1\n      calldataload\n      swap1\n      0x20\n      add\n      swap1\n      swap3\n      swap2\n      swap1\n      dup1\n      calldataload\n      swap1\n      0x20\n      add\n      swap1\n      0x0100000000\n      dup2\n      gt\n      iszero\n      tag_18\n      jumpi\n      0x00\n      dup1\n      revert\n    tag_18:\n      dup3\n      add\n      dup4\n      0x20\n      dup3\n      add\n      gt\n      iszero\n      tag_19\n      jumpi\n      0x00\n      dup1\n      revert\n    tag_19:\n      dup1\n      calldataload\n      swap1\n      0x20\n      add\n      swap2\n      dup5\n      0x20\n      dup4\n      mul\n      dup5\n      add\n      gt\n      0x0100000000\n      dup4\n      gt\n      or\n      iszero\n      tag_20\n      jumpi\n      0x00\n      dup1\n      revert\n    tag_20:\n      swap2\n      swap1\n      dup1\n      dup1\n      0x20\n      mul\n      0x20\n      add\n      mload(0x40)\n      swap1\n      dup2\n      add\n      0x40\n      mstore\n      dup1\n      swap4\n      swap3\n      swap2\n      swap1\n      dup2\n      dup2\n      mstore\n      0x20\n      add\n      dup4\n      dup4\n      0x20\n      mul\n      dup1\n      dup3\n      dup5\n      calldatacopy\n      0x00\n      dup2\n      dup5\n      add\n      mstore\n      not(0x1f)\n      0x1f\n      dup3\n      add\n      and\n      swap1\n      pop\n      dup1\n      dup4\n      add\n      swap3\n      pop\n      pop\n      pop\n      pop\n      pop\n      pop\n      pop\n      swap2\n      swap3\n      swap2\n      swap3\n      swap1\n      pop\n      pop\n      pop\n      tag_21\n      jump\t// in\n    tag_16:\n      stop\n        /* \"fairdex.sol\":457:475  State public state */\n    tag_5:\n      callvalue\n      dup1\n      iszero\n      tag_22\n      jumpi\n      0x00\n      dup1\n      revert\n    tag_22:\n      pop\n      tag_23\n      tag_24\n      jump\t// in\n    tag_23:\n      mload(0x40)\n      dup1\n      dup3\n      0x03\n      dup2\n      gt\n      iszero\n      tag_25\n      jumpi\n      invalid\n    tag_25:\n      dup2\n      mstore\n      0x20\n      add\n      swap2\n      pop\n      pop\n      mload(0x40)\n      dup1\n      swap2\n      sub\n      swap1\n      return\n        /* \"fairdex.sol\":747:1039  function PayWithDescription(bytes32 _description)\r... */\n    tag_6:\n      tag_26\n      0x04\n      dup1\n      calldatasize\n      sub\n      0x20\n      dup2\n      lt\n      iszero\n      tag_27\n      jumpi\n      0x00\n      dup1\n      revert\n    tag_27:\n      dup2\n      add\n      swap1\n      dup1\n      dup1\n      calldataload\n      swap1\n      0x20\n      add\n      swap1\n      swap3\n      swap2\n      swap1\n      pop\n      pop\n      pop\n      tag_28\n      jump\t// in\n    tag_26:\n      stop\n        /* \"fairdex.sol\":1118:1336  function RefundToBuyer()\r... */\n    tag_7:\n      tag_29\n      tag_30\n      jump\t// in\n    tag_29:\n      stop\n        /* \"fairdex.sol\":1376:1631  function PublishMasterKey(bytes32 _masterKey)\r... */\n    tag_8:\n      callvalue\n      dup1\n      iszero\n      tag_31\n      jumpi\n      0x00\n      dup1\n      revert\n    tag_31:\n      pop\n      tag_32\n      0x04\n      dup1\n      calldatasize\n      sub\n      0x20\n      dup2\n      lt\n      iszero\n      tag_33\n      jumpi\n      0x00\n      dup1\n      revert\n    tag_33:\n      dup2\n      add\n      swap1\n      dup1\n      dup1\n      calldataload\n      swap1\n      0x20\n      add\n      swap1\n      swap3\n      swap2\n      swap1\n      pop\n      pop\n      pop\n      tag_34\n      jump\t// in\n    tag_32:\n      stop\n        /* \"fairdex.sol\":3076:3287  function TransferToSeller()\r... */\n    tag_12:\n        /* \"fairdex.sol\":3134:3140  seller */\n      0x00\n      dup1\n      sload\n      swap1\n      0x0100\n      exp\n      swap1\n      div\n      0xffffffffffffffffffffffffffffffffffffffff\n      and\n        /* \"fairdex.sol\":3142:3157  State.Published */\n      0x02\n        /* \"fairdex.sol\":3165:3172  timeout */\n      dup1\n      sload\n        /* \"fairdex.sol\":3159:3162  now */\n      timestamp\n        /* \"fairdex.sol\":3159:3172  now > timeout */\n      gt\n        /* \"fairdex.sol\":3452:3460  _address */\n      dup3\n        /* \"fairdex.sol\":3438:3460  msg.sender == _address */\n      0xffffffffffffffffffffffffffffffffffffffff\n      and\n        /* \"fairdex.sol\":3438:3448  msg.sender */\n      caller\n        /* \"fairdex.sol\":3438:3460  msg.sender == _address */\n      0xffffffffffffffffffffffffffffffffffffffff\n      and\n      eq\n        /* \"fairdex.sol\":3430:3461  require(msg.sender == _address) */\n      tag_36\n      jumpi\n      0x00\n      dup1\n      revert\n    tag_36:\n        /* \"fairdex.sol\":3489:3495  _state */\n      dup2\n        /* \"fairdex.sol\":3480:3495  state == _state */\n      0x03\n      dup2\n      gt\n      iszero\n      tag_37\n      jumpi\n      invalid\n    tag_37:\n        /* \"fairdex.sol\":3480:3485  state */\n      0x05\n      0x00\n      swap1\n      sload\n      swap1\n      0x0100\n      exp\n      swap1\n      div\n      0xff\n      and\n        /* \"fairdex.sol\":3480:3495  state == _state */\n      0x03\n      dup2\n      gt\n      iszero\n      tag_38\n      jumpi\n      invalid\n    tag_38:\n      eq\n        /* \"fairdex.sol\":3472:3496  require(state == _state) */\n      tag_39\n      jumpi\n      0x00\n      dup1\n      revert\n    tag_39:\n        /* \"fairdex.sol\":3515:3525  _condition */\n      dup1\n        /* \"fairdex.sol\":3507:3526  require(_condition) */\n      tag_40\n      jumpi\n      0x00\n      dup1\n      revert\n    tag_40:\n        /* \"fairdex.sol\":3195:3215  ExecutionCompleted() */\n      0x82077b690643827ecfb7e762aee114562c2d66ee8a62d73a120543a2e93370f0\n      mload(0x40)\n      mload(0x40)\n      dup1\n      swap2\n      sub\n      swap1\n      log1\n        /* \"fairdex.sol\":3234:3248  State.Inactive */\n      0x03\n        /* \"fairdex.sol\":3226:3231  state */\n      0x05\n      0x00\n        /* \"fairdex.sol\":3226:3248  state = State.Inactive */\n      0x0100\n      exp\n      dup2\n      sload\n      dup2\n      0xff\n      mul\n      not\n      and\n      swap1\n      dup4\n      0x03\n      dup2\n      gt\n      iszero\n      tag_42\n      jumpi\n      invalid\n    tag_42:\n      mul\n      or\n      swap1\n      sstore\n      pop\n        /* \"fairdex.sol\":3272:3278  seller */\n      0x00\n      dup1\n      sload\n      swap1\n      0x0100\n      exp\n      swap1\n      div\n      0xffffffffffffffffffffffffffffffffffffffff\n      and\n        /* \"fairdex.sol\":3259:3279  selfdestruct(seller) */\n      0xffffffffffffffffffffffffffffffffffffffff\n      and\n      selfdestruct\n        /* \"fairdex.sol\":320:344  bytes32 public masterKey */\n    tag_15:\n      sload(0x04)\n      dup2\n      jump\t// out\n        /* \"fairdex.sol\":1848:2979  function RaiseObjection(uint _committed_ri, bytes32 _committedSubKey, bytes32[] memory _merkleTreePath)\r... */\n    tag_21:\n        /* \"fairdex.sol\":1982:1987  buyer */\n      0x01\n      0x00\n      swap1\n      sload\n      swap1\n      0x0100\n      exp\n      swap1\n      div\n      0xffffffffffffffffffffffffffffffffffffffff\n      and\n        /* \"fairdex.sol\":1989:2004  State.Published */\n      0x02\n        /* \"fairdex.sol\":2012:2019  timeout */\n      dup1\n      sload\n        /* \"fairdex.sol\":2006:2009  now */\n      timestamp\n        /* \"fairdex.sol\":2006:2019  now < timeout */\n      lt\n        /* \"fairdex.sol\":3452:3460  _address */\n      dup3\n        /* \"fairdex.sol\":3438:3460  msg.sender == _address */\n      0xffffffffffffffffffffffffffffffffffffffff\n      and\n        /* \"fairdex.sol\":3438:3448  msg.sender */\n      caller\n        /* \"fairdex.sol\":3438:3460  msg.sender == _address */\n      0xffffffffffffffffffffffffffffffffffffffff\n      and\n      eq\n        /* \"fairdex.sol\":3430:3461  require(msg.sender == _address) */\n      tag_44\n      jumpi\n      0x00\n      dup1\n      revert\n    tag_44:\n        /* \"fairdex.sol\":3489:3495  _state */\n      dup2\n        /* \"fairdex.sol\":3480:3495  state == _state */\n      0x03\n      dup2\n      gt\n      iszero\n      tag_45\n      jumpi\n      invalid\n    tag_45:\n        /* \"fairdex.sol\":3480:3485  state */\n      0x05\n      0x00\n      swap1\n      sload\n      swap1\n      0x0100\n      exp\n      swap1\n      div\n      0xff\n      and\n        /* \"fairdex.sol\":3480:3495  state == _state */\n      0x03\n      dup2\n      gt\n      iszero\n      tag_46\n      jumpi\n      invalid\n    tag_46:\n      eq\n        /* \"fairdex.sol\":3472:3496  require(state == _state) */\n      tag_47\n      jumpi\n      0x00\n      dup1\n      revert\n    tag_47:\n        /* \"fairdex.sol\":3515:3525  _condition */\n      dup1\n        /* \"fairdex.sol\":3507:3526  require(_condition) */\n      tag_48\n      jumpi\n      0x00\n      dup1\n      revert\n    tag_48:\n        /* \"fairdex.sol\":2054:2076  bytes32 computedSubkey */\n      0x00\n        /* \"fairdex.sol\":2100:2109  masterKey */\n      sload(0x04)\n        /* \"fairdex.sol\":2111:2124  _committed_ri */\n      dup8\n        /* \"fairdex.sol\":2089:2125  abi.encode(masterKey, _committed_ri) */\n      add(0x20, mload(0x40))\n      dup1\n      dup4\n      dup2\n      mstore\n      0x20\n      add\n      dup3\n      dup2\n      mstore\n      0x20\n      add\n      swap3\n      pop\n      pop\n      pop\n      mload(0x40)\n      0x20\n      dup2\n      dup4\n      sub\n      sub\n      dup2\n      mstore\n      swap1\n      0x40\n      mstore\n        /* \"fairdex.sol\":2079:2126  keccak256(abi.encode(masterKey, _committed_ri)) */\n      dup1\n      mload\n      swap1\n      0x20\n      add\n      keccak256\n        /* \"fairdex.sol\":2054:2126  bytes32 computedSubkey = keccak256(abi.encode(masterKey, _committed_ri)) */\n      swap1\n      pop\n        /* \"fairdex.sol\":2262:2278  _committedSubKey */\n      dup6\n        /* \"fairdex.sol\":2244:2258  computedSubkey */\n      dup2\n        /* \"fairdex.sol\":2244:2278  computedSubkey != _committedSubKey */\n      eq\n        /* \"fairdex.sol\":2240:2972  if (computedSubkey != _committedSubKey)\r... */\n      tag_50\n      jumpi\n        /* \"fairdex.sol\":2304:2325  bytes32 committedNode */\n      0x00\n        /* \"fairdex.sol\":2349:2365  _committedSubKey */\n      dup7\n        /* \"fairdex.sol\":2367:2380  _committed_ri */\n      dup9\n        /* \"fairdex.sol\":2338:2381  abi.encode(_committedSubKey, _committed_ri) */\n      add(0x20, mload(0x40))\n      dup1\n      dup4\n      dup2\n      mstore\n      0x20\n      add\n      dup3\n      dup2\n      mstore\n      0x20\n      add\n      swap3\n      pop\n      pop\n      pop\n      mload(0x40)\n      0x20\n      dup2\n      dup4\n      sub\n      sub\n      dup2\n      mstore\n      swap1\n      0x40\n      mstore\n        /* \"fairdex.sol\":2328:2382  keccak256(abi.encode(_committedSubKey, _committed_ri)) */\n      dup1\n      mload\n      swap1\n      0x20\n      add\n      keccak256\n        /* \"fairdex.sol\":2304:2382  bytes32 committedNode = keccak256(abi.encode(_committedSubKey, _committed_ri)) */\n      swap1\n      pop\n        /* \"fairdex.sol\":2502:2508  uint i */\n      0x00\n        /* \"fairdex.sol\":2497:2619  for (uint i = 0; i < depth; i++)\r... */\n    tag_51:\n        /* \"fairdex.sol\":251:252  3 */\n      0x03\n        /* \"fairdex.sol\":2514:2515  i */\n      dup2\n        /* \"fairdex.sol\":2514:2523  i < depth */\n      lt\n        /* \"fairdex.sol\":2497:2619  for (uint i = 0; i < depth; i++)\r... */\n      iszero\n      tag_52\n      jumpi\n        /* \"fairdex.sol\":2584:2597  committedNode */\n      dup2\n        /* \"fairdex.sol\":2599:2614  _merkleTreePath */\n      dup8\n        /* \"fairdex.sol\":2615:2616  i */\n      dup3\n        /* \"fairdex.sol\":2599:2617  _merkleTreePath[i] */\n      dup2\n      mload\n      dup2\n      lt\n      tag_54\n      jumpi\n      invalid\n    tag_54:\n      0x20\n      mul\n      0x20\n      add\n      add\n      mload\n        /* \"fairdex.sol\":2573:2618  abi.encode(committedNode, _merkleTreePath[i]) */\n      add(0x20, mload(0x40))\n      dup1\n      dup4\n      dup2\n      mstore\n      0x20\n      add\n      dup3\n      dup2\n      mstore\n      0x20\n      add\n      swap3\n      pop\n      pop\n      pop\n      mload(0x40)\n      0x20\n      dup2\n      dup4\n      sub\n      sub\n      dup2\n      mstore\n      swap1\n      0x40\n      mstore\n        /* \"fairdex.sol\":2563:2619  keccak256(abi.encode(committedNode, _merkleTreePath[i])) */\n      dup1\n      mload\n      swap1\n      0x20\n      add\n      keccak256\n        /* \"fairdex.sol\":2547:2619  committedNode = keccak256(abi.encode(committedNode, _merkleTreePath[i])) */\n      swap2\n      pop\n        /* \"fairdex.sol\":2525:2528  i++ */\n      dup1\n      dup1\n      0x01\n      add\n      swap2\n      pop\n      pop\n        /* \"fairdex.sol\":2497:2619  for (uint i = 0; i < depth; i++)\r... */\n      jump(tag_51)\n    tag_52:\n      pop\n        /* \"fairdex.sol\":2723:2734  description */\n      sload(0x03)\n        /* \"fairdex.sol\":2706:2719  committedNode */\n      dup2\n        /* \"fairdex.sol\":2706:2734  committedNode == description */\n      eq\n        /* \"fairdex.sol\":2702:2961  if (committedNode == description)\r... */\n      iszero\n      tag_55\n      jumpi\n        /* \"fairdex.sol\":2846:2866  ExecutionCompleted() */\n      0x82077b690643827ecfb7e762aee114562c2d66ee8a62d73a120543a2e93370f0\n      mload(0x40)\n      mload(0x40)\n      dup1\n      swap2\n      sub\n      swap1\n      log1\n        /* \"fairdex.sol\":2893:2907  State.Inactive */\n      0x03\n        /* \"fairdex.sol\":2885:2890  state */\n      0x05\n      0x00\n        /* \"fairdex.sol\":2885:2907  state = State.Inactive */\n      0x0100\n      exp\n      dup2\n      sload\n      dup2\n      0xff\n      mul\n      not\n      and\n      swap1\n      dup4\n      0x03\n      dup2\n      gt\n      iszero\n      tag_56\n      jumpi\n      invalid\n    tag_56:\n      mul\n      or\n      swap1\n      sstore\n      pop\n        /* \"fairdex.sol\":2939:2944  buyer */\n      0x01\n      0x00\n      swap1\n      sload\n      swap1\n      0x0100\n      exp\n      swap1\n      div\n      0xffffffffffffffffffffffffffffffffffffffff\n      and\n        /* \"fairdex.sol\":2926:2945  selfdestruct(buyer) */\n      0xffffffffffffffffffffffffffffffffffffffff\n      and\n      selfdestruct\n        /* \"fairdex.sol\":2702:2961  if (committedNode == description)\r... */\n    tag_55:\n        /* \"fairdex.sol\":2240:2972  if (computedSubkey != _committedSubKey)\r... */\n      pop\n    tag_50:\n        /* \"fairdex.sol\":3537:3538  _ */\n      pop\n        /* \"fairdex.sol\":1848:2979  function RaiseObjection(uint _committed_ri, bytes32 _committedSubKey, bytes32[] memory _merkleTreePath)\r... */\n      pop\n      pop\n      pop\n      pop\n      pop\n      pop\n      jump\t// out\n        /* \"fairdex.sol\":457:475  State public state */\n    tag_24:\n      0x05\n      0x00\n      swap1\n      sload\n      swap1\n      0x0100\n      exp\n      swap1\n      div\n      0xff\n      and\n      dup2\n      jump\t// out\n        /* \"fairdex.sol\":747:1039  function PayWithDescription(bytes32 _description)\r... */\n    tag_28:\n        /* \"fairdex.sol\":827:832  buyer */\n      0x01\n      0x00\n      swap1\n      sload\n      swap1\n      0x0100\n      exp\n      swap1\n      div\n      0xffffffffffffffffffffffffffffffffffffffff\n      and\n        /* \"fairdex.sol\":834:847  State.Created */\n      0x00\n        /* \"fairdex.sol\":281:285  1000 */\n      0x03e8\n        /* \"fairdex.sol\":849:858  msg.value */\n      callvalue\n        /* \"fairdex.sol\":849:867  msg.value == price */\n      eq\n        /* \"fairdex.sol\":3452:3460  _address */\n      dup3\n        /* \"fairdex.sol\":3438:3460  msg.sender == _address */\n      0xffffffffffffffffffffffffffffffffffffffff\n      and\n        /* \"fairdex.sol\":3438:3448  msg.sender */\n      caller\n        /* \"fairdex.sol\":3438:3460  msg.sender == _address */\n      0xffffffffffffffffffffffffffffffffffffffff\n      and\n      eq\n        /* \"fairdex.sol\":3430:3461  require(msg.sender == _address) */\n      tag_58\n      jumpi\n      0x00\n      dup1\n      revert\n    tag_58:\n        /* \"fairdex.sol\":3489:3495  _state */\n      dup2\n        /* \"fairdex.sol\":3480:3495  state == _state */\n      0x03\n      dup2\n      gt\n      iszero\n      tag_59\n      jumpi\n      invalid\n    tag_59:\n        /* \"fairdex.sol\":3480:3485  state */\n      0x05\n      0x00\n      swap1\n      sload\n      swap1\n      0x0100\n      exp\n      swap1\n      div\n      0xff\n      and\n        /* \"fairdex.sol\":3480:3495  state == _state */\n      0x03\n      dup2\n      gt\n      iszero\n      tag_60\n      jumpi\n      invalid\n    tag_60:\n      eq\n        /* \"fairdex.sol\":3472:3496  require(state == _state) */\n      tag_61\n      jumpi\n      0x00\n      dup1\n      revert\n    tag_61:\n        /* \"fairdex.sol\":3515:3525  _condition */\n      dup1\n        /* \"fairdex.sol\":3507:3526  require(_condition) */\n      tag_62\n      jumpi\n      0x00\n      dup1\n      revert\n    tag_62:\n        /* \"fairdex.sol\":907:928  PaidWithDescription() */\n      0x12ea17a123346d563a6b48a2be06caa60d891bf7825a2e7ed00c4be1c1c6f054\n      mload(0x40)\n      mload(0x40)\n      dup1\n      swap2\n      sub\n      swap1\n      log1\n        /* \"fairdex.sol\":947:957  State.Paid */\n      0x01\n        /* \"fairdex.sol\":939:944  state */\n      0x05\n      0x00\n        /* \"fairdex.sol\":939:957  state = State.Paid */\n      0x0100\n      exp\n      dup2\n      sload\n      dup2\n      0xff\n      mul\n      not\n      and\n      swap1\n      dup4\n      0x03\n      dup2\n      gt\n      iszero\n      tag_64\n      jumpi\n      invalid\n    tag_64:\n      mul\n      or\n      swap1\n      sstore\n      pop\n        /* \"fairdex.sol\":982:994  _description */\n      dup4\n        /* \"fairdex.sol\":968:979  description */\n      0x03\n        /* \"fairdex.sol\":968:994  description = _description */\n      dup2\n      swap1\n      sstore\n      pop\n        /* \"fairdex.sol\":1021:1031  10 minutes */\n      0x0258\n        /* \"fairdex.sol\":1015:1018  now */\n      timestamp\n        /* \"fairdex.sol\":1015:1031  now + 10 minutes */\n      add\n        /* \"fairdex.sol\":1005:1012  timeout */\n      0x02\n        /* \"fairdex.sol\":1005:1031  timeout = now + 10 minutes */\n      dup2\n      swap1\n      sstore\n      pop\n        /* \"fairdex.sol\":747:1039  function PayWithDescription(bytes32 _description)\r... */\n      pop\n      pop\n      pop\n      pop\n      jump\t// out\n        /* \"fairdex.sol\":1118:1336  function RefundToBuyer()\r... */\n    tag_30:\n        /* \"fairdex.sol\":1173:1178  buyer */\n      0x01\n      0x00\n      swap1\n      sload\n      swap1\n      0x0100\n      exp\n      swap1\n      div\n      0xffffffffffffffffffffffffffffffffffffffff\n      and\n        /* \"fairdex.sol\":1180:1190  State.Paid */\n      0x01\n        /* \"fairdex.sol\":1198:1205  timeout */\n      sload(0x02)\n        /* \"fairdex.sol\":1192:1195  now */\n      timestamp\n        /* \"fairdex.sol\":1192:1205  now > timeout */\n      gt\n        /* \"fairdex.sol\":3452:3460  _address */\n      dup3\n        /* \"fairdex.sol\":3438:3460  msg.sender == _address */\n      0xffffffffffffffffffffffffffffffffffffffff\n      and\n        /* \"fairdex.sol\":3438:3448  msg.sender */\n      caller\n        /* \"fairdex.sol\":3438:3460  msg.sender == _address */\n      0xffffffffffffffffffffffffffffffffffffffff\n      and\n      eq\n        /* \"fairdex.sol\":3430:3461  require(msg.sender == _address) */\n      tag_66\n      jumpi\n      0x00\n      dup1\n      revert\n    tag_66:\n        /* \"fairdex.sol\":3489:3495  _state */\n      dup2\n        /* \"fairdex.sol\":3480:3495  state == _state */\n      0x03\n      dup2\n      gt\n      iszero\n      tag_67\n      jumpi\n      invalid\n    tag_67:\n        /* \"fairdex.sol\":3480:3485  state */\n      0x05\n      0x00\n      swap1\n      sload\n      swap1\n      0x0100\n      exp\n      swap1\n      div\n      0xff\n      and\n        /* \"fairdex.sol\":3480:3495  state == _state */\n      0x03\n      dup2\n      gt\n      iszero\n      tag_68\n      jumpi\n      invalid\n    tag_68:\n      eq\n        /* \"fairdex.sol\":3472:3496  require(state == _state) */\n      tag_69\n      jumpi\n      0x00\n      dup1\n      revert\n    tag_69:\n        /* \"fairdex.sol\":3515:3525  _condition */\n      dup1\n        /* \"fairdex.sol\":3507:3526  require(_condition) */\n      tag_70\n      jumpi\n      0x00\n      dup1\n      revert\n    tag_70:\n        /* \"fairdex.sol\":1245:1265  ExecutionCompleted() */\n      0x82077b690643827ecfb7e762aee114562c2d66ee8a62d73a120543a2e93370f0\n      mload(0x40)\n      mload(0x40)\n      dup1\n      swap2\n      sub\n      swap1\n      log1\n        /* \"fairdex.sol\":1284:1298  State.Inactive */\n      0x03\n        /* \"fairdex.sol\":1276:1281  state */\n      0x05\n      0x00\n        /* \"fairdex.sol\":1276:1298  state = State.Inactive */\n      0x0100\n      exp\n      dup2\n      sload\n      dup2\n      0xff\n      mul\n      not\n      and\n      swap1\n      dup4\n      0x03\n      dup2\n      gt\n      iszero\n      tag_72\n      jumpi\n      invalid\n    tag_72:\n      mul\n      or\n      swap1\n      sstore\n      pop\n        /* \"fairdex.sol\":1322:1327  buyer */\n      0x01\n      0x00\n      swap1\n      sload\n      swap1\n      0x0100\n      exp\n      swap1\n      div\n      0xffffffffffffffffffffffffffffffffffffffff\n      and\n        /* \"fairdex.sol\":1309:1328  selfdestruct(buyer) */\n      0xffffffffffffffffffffffffffffffffffffffff\n      and\n      selfdestruct\n        /* \"fairdex.sol\":1376:1631  function PublishMasterKey(bytes32 _masterKey)\r... */\n    tag_34:\n        /* \"fairdex.sol\":1452:1458  seller */\n      0x00\n      dup1\n      sload\n      swap1\n      0x0100\n      exp\n      swap1\n      div\n      0xffffffffffffffffffffffffffffffffffffffff\n      and\n        /* \"fairdex.sol\":1460:1470  State.Paid */\n      0x01\n        /* \"fairdex.sol\":1472:1476  true */\n      dup1\n        /* \"fairdex.sol\":3452:3460  _address */\n      dup3\n        /* \"fairdex.sol\":3438:3460  msg.sender == _address */\n      0xffffffffffffffffffffffffffffffffffffffff\n      and\n        /* \"fairdex.sol\":3438:3448  msg.sender */\n      caller\n        /* \"fairdex.sol\":3438:3460  msg.sender == _address */\n      0xffffffffffffffffffffffffffffffffffffffff\n      and\n      eq\n        /* \"fairdex.sol\":3430:3461  require(msg.sender == _address) */\n      tag_74\n      jumpi\n      0x00\n      dup1\n      revert\n    tag_74:\n        /* \"fairdex.sol\":3489:3495  _state */\n      dup2\n        /* \"fairdex.sol\":3480:3495  state == _state */\n      0x03\n      dup2\n      gt\n      iszero\n      tag_75\n      jumpi\n      invalid\n    tag_75:\n        /* \"fairdex.sol\":3480:3485  state */\n      0x05\n      0x00\n      swap1\n      sload\n      swap1\n      0x0100\n      exp\n      swap1\n      div\n      0xff\n      and\n        /* \"fairdex.sol\":3480:3495  state == _state */\n      0x03\n      dup2\n      gt\n      iszero\n      tag_76\n      jumpi\n      invalid\n    tag_76:\n      eq\n        /* \"fairdex.sol\":3472:3496  require(state == _state) */\n      tag_77\n      jumpi\n      0x00\n      dup1\n      revert\n    tag_77:\n        /* \"fairdex.sol\":3515:3525  _condition */\n      dup1\n        /* \"fairdex.sol\":3507:3526  require(_condition) */\n      tag_78\n      jumpi\n      0x00\n      dup1\n      revert\n    tag_78:\n        /* \"fairdex.sol\":1499:1519  PublishedMasterKey() */\n      0x556e225502a432ba3e25dc77f99030b54af7244c03156dea7206e35377fe63c9\n      mload(0x40)\n      mload(0x40)\n      dup1\n      swap2\n      sub\n      swap1\n      log1\n        /* \"fairdex.sol\":1538:1553  State.Published */\n      0x02\n        /* \"fairdex.sol\":1530:1535  state */\n      0x05\n      0x00\n        /* \"fairdex.sol\":1530:1553  state = State.Published */\n      0x0100\n      exp\n      dup2\n      sload\n      dup2\n      0xff\n      mul\n      not\n      and\n      swap1\n      dup4\n      0x03\n      dup2\n      gt\n      iszero\n      tag_80\n      jumpi\n      invalid\n    tag_80:\n      mul\n      or\n      swap1\n      sstore\n      pop\n        /* \"fairdex.sol\":1576:1586  _masterKey */\n      dup4\n        /* \"fairdex.sol\":1564:1573  masterKey */\n      0x04\n        /* \"fairdex.sol\":1564:1586  masterKey = _masterKey */\n      dup2\n      swap1\n      sstore\n      pop\n        /* \"fairdex.sol\":1613:1623  10 minutes */\n      0x0258\n        /* \"fairdex.sol\":1607:1610  now */\n      timestamp\n        /* \"fairdex.sol\":1607:1623  now + 10 minutes */\n      add\n        /* \"fairdex.sol\":1597:1604  timeout */\n      0x02\n        /* \"fairdex.sol\":1597:1623  timeout = now + 10 minutes */\n      dup2\n      swap1\n      sstore\n      pop\n        /* \"fairdex.sol\":1376:1631  function PublishMasterKey(bytes32 _masterKey)\r... */\n      pop\n      pop\n      pop\n      pop\n      jump\t// out\n\n    auxdata: 0xa2646970667358221220e691a79ce800a5c51c3e5ed13dadf344f1111b242d61594d27f3a9cf4b7f874064736f6c634300060c0033\n}\n",
				"bytecode": {
					"linkReferences": {},
					"object": "6080604052336000806101000a81548173ffffffffffffffffffffffffffffffffffffffff021916908373ffffffffffffffffffffffffffffffffffffffff16021790555033600160006101000a81548173ffffffffffffffffffffffffffffffffffffffff021916908373ffffffffffffffffffffffffffffffffffffffff1602179055506108d3806100946000396000f3fe6080604052600436106100705760003560e01c8063c19d93fb1161004e578063c19d93fb14610183578063c4cd9f49146101b9578063d4ef6cb0146101e7578063d8309ae1146101f157610070565b8063705dd281146100755780638afe35b91461008c57806394952cc7146100b7575b600080fd5b34801561008157600080fd5b5061008a61022c565b005b34801561009857600080fd5b506100a161034f565b6040518082815260200191505060405180910390f35b610181600480360360608110156100cd57600080fd5b810190808035906020019092919080359060200190929190803590602001906401000000008111156100fe57600080fd5b82018360208201111561011057600080fd5b8035906020019184602083028401116401000000008311171561013257600080fd5b919080806020026020016040519081016040528093929190818152602001838360200280828437600081840152601f19601f820116905080830192505050505050509192919290505050610355565b005b34801561018f57600080fd5b5061019861055e565b604051808260038111156101a857fe5b815260200191505060405180910390f35b6101e5600480360360208110156101cf57600080fd5b8101908080359060200190929190505050610571565b005b6101ef610676565b005b3480156101fd57600080fd5b5061022a6004803603602081101561021457600080fd5b810190808035906020019092919050505061079e565b005b60008054906101000a900473ffffffffffffffffffffffffffffffffffffffff166002805442118273ffffffffffffffffffffffffffffffffffffffff163373ffffffffffffffffffffffffffffffffffffffff161461028b57600080fd5b81600381111561029757fe5b600560009054906101000a900460ff1660038111156102b257fe5b146102bc57600080fd5b806102c657600080fd5b7f82077b690643827ecfb7e762aee114562c2d66ee8a62d73a120543a2e93370f060405160405180910390a16003600560006101000a81548160ff0219169083600381111561031157fe5b021790555060008054906101000a900473ffffffffffffffffffffffffffffffffffffffff1673ffffffffffffffffffffffffffffffffffffffff16ff5b60045481565b600160009054906101000a900473ffffffffffffffffffffffffffffffffffffffff166002805442108273ffffffffffffffffffffffffffffffffffffffff163373ffffffffffffffffffffffffffffffffffffffff16146103b657600080fd5b8160038111156103c257fe5b600560009054906101000a900460ff1660038111156103dd57fe5b146103e757600080fd5b806103f157600080fd5b60006004548760405160200180838152602001828152602001925050506040516020818303038152906040528051906020012090508581146105555760008688604051602001808381526020018281526020019250505060405160208183030381529060405280519060200120905060005b60038110156104bd578187828151811061047957fe5b602002602001015160405160200180838152602001828152602001925050506040516020818303038152906040528051906020012091508080600101915050610463565b50600354811415610553577f82077b690643827ecfb7e762aee114562c2d66ee8a62d73a120543a2e93370f060405160405180910390a16003600560006101000a81548160ff0219169083600381111561051357fe5b0217905550600160009054906101000a900473ffffffffffffffffffffffffffffffffffffffff1673ffffffffffffffffffffffffffffffffffffffff16ff5b505b50505050505050565b600560009054906101000a900460ff1681565b600160009054906101000a900473ffffffffffffffffffffffffffffffffffffffff1660006103e834148273ffffffffffffffffffffffffffffffffffffffff163373ffffffffffffffffffffffffffffffffffffffff16146105d357600080fd5b8160038111156105df57fe5b600560009054906101000a900460ff1660038111156105fa57fe5b1461060457600080fd5b8061060e57600080fd5b7f12ea17a123346d563a6b48a2be06caa60d891bf7825a2e7ed00c4be1c1c6f05460405160405180910390a16001600560006101000a81548160ff0219169083600381111561065957fe5b021790555083600381905550610258420160028190555050505050565b600160009054906101000a900473ffffffffffffffffffffffffffffffffffffffff16600160025442118273ffffffffffffffffffffffffffffffffffffffff163373ffffffffffffffffffffffffffffffffffffffff16146106d857600080fd5b8160038111156106e457fe5b600560009054906101000a900460ff1660038111156106ff57fe5b1461070957600080fd5b8061071357600080fd5b7f82077b690643827ecfb7e762aee114562c2d66ee8a62d73a120543a2e93370f060405160405180910390a16003600560006101000a81548160ff0219169083600381111561075e57fe5b0217905550600160009054906101000a900473ffffffffffffffffffffffffffffffffffffffff1673ffffffffffffffffffffffffffffffffffffffff16ff5b60008054906101000a900473ffffffffffffffffffffffffffffffffffffffff166001808273ffffffffffffffffffffffffffffffffffffffff163373ffffffffffffffffffffffffffffffffffffffff16146107fa57600080fd5b81600381111561080657fe5b600560009054906101000a900460ff16600381111561082157fe5b1461082b57600080fd5b8061083557600080fd5b7f556e225502a432ba3e25dc77f99030b54af7244c03156dea7206e35377fe63c960405160405180910390a16002600560006101000a81548160ff0219169083600381111561088057fe5b02179055508360048190555061025842016002819055505050505056fea2646970667358221220e691a79ce800a5c51c3e5ed13dadf344f1111b242d61594d27f3a9cf4b7f874064736f6c634300060c0033",
					"opcodes": "PUSH1 0x80 PUSH1 0x40 MSTORE CALLER PUSH1 0x0 DUP1 PUSH2 0x100 EXP DUP2 SLOAD DUP2 PUSH20 0xFFFFFFFFFFFFFFFFFFFFFFFFFFFFFFFFFFFFFFFF MUL NOT AND SWAP1 DUP4 PUSH20 0xFFFFFFFFFFFFFFFFFFFFFFFFFFFFFFFFFFFFFFFF AND MUL OR SWAP1 SSTORE POP CALLER PUSH1 0x1 PUSH1 0x0 PUSH2 0x100 EXP DUP2 SLOAD DUP2 PUSH20 0xFFFFFFFFFFFFFFFFFFFFFFFFFFFFFFFFFFFFFFFF MUL NOT AND SWAP1 DUP4 PUSH20 0xFFFFFFFFFFFFFFFFFFFFFFFFFFFFFFFFFFFFFFFF AND MUL OR SWAP1 SSTORE POP PUSH2 0x8D3 DUP1 PUSH2 0x94 PUSH1 0x0 CODECOPY PUSH1 0x0 RETURN INVALID PUSH1 0x80 PUSH1 0x40 MSTORE PUSH1 0x4 CALLDATASIZE LT PUSH2 0x70 JUMPI PUSH1 0x0 CALLDATALOAD PUSH1 0xE0 SHR DUP1 PUSH4 0xC19D93FB GT PUSH2 0x4E JUMPI DUP1 PUSH4 0xC19D93FB EQ PUSH2 0x183 JUMPI DUP1 PUSH4 0xC4CD9F49 EQ PUSH2 0x1B9 JUMPI DUP1 PUSH4 0xD4EF6CB0 EQ PUSH2 0x1E7 JUMPI DUP1 PUSH4 0xD8309AE1 EQ PUSH2 0x1F1 JUMPI PUSH2 0x70 JUMP JUMPDEST DUP1 PUSH4 0x705DD281 EQ PUSH2 0x75 JUMPI DUP1 PUSH4 0x8AFE35B9 EQ PUSH2 0x8C JUMPI DUP1 PUSH4 0x94952CC7 EQ PUSH2 0xB7 JUMPI JUMPDEST PUSH1 0x0 DUP1 REVERT JUMPDEST CALLVALUE DUP1 ISZERO PUSH2 0x81 JUMPI PUSH1 0x0 DUP1 REVERT JUMPDEST POP PUSH2 0x8A PUSH2 0x22C JUMP JUMPDEST STOP JUMPDEST CALLVALUE DUP1 ISZERO PUSH2 0x98 JUMPI PUSH1 0x0 DUP1 REVERT JUMPDEST POP PUSH2 0xA1 PUSH2 0x34F JUMP JUMPDEST PUSH1 0x40 MLOAD DUP1 DUP3 DUP2 MSTORE PUSH1 0x20 ADD SWAP2 POP POP PUSH1 0x40 MLOAD DUP1 SWAP2 SUB SWAP1 RETURN JUMPDEST PUSH2 0x181 PUSH1 0x4 DUP1 CALLDATASIZE SUB PUSH1 0x60 DUP2 LT ISZERO PUSH2 0xCD JUMPI PUSH1 0x0 DUP1 REVERT JUMPDEST DUP2 ADD SWAP1 DUP1 DUP1 CALLDATALOAD SWAP1 PUSH1 0x20 ADD SWAP1 SWAP3 SWAP2 SWAP1 DUP1 CALLDATALOAD SWAP1 PUSH1 0x20 ADD SWAP1 SWAP3 SWAP2 SWAP1 DUP1 CALLDATALOAD SWAP1 PUSH1 0x20 ADD SWAP1 PUSH5 0x100000000 DUP2 GT ISZERO PUSH2 0xFE JUMPI PUSH1 0x0 DUP1 REVERT JUMPDEST DUP3 ADD DUP4 PUSH1 0x20 DUP3 ADD GT ISZERO PUSH2 0x110 JUMPI PUSH1 0x0 DUP1 REVERT JUMPDEST DUP1 CALLDATALOAD SWAP1 PUSH1 0x20 ADD SWAP2 DUP5 PUSH1 0x20 DUP4 MUL DUP5 ADD GT PUSH5 0x100000000 DUP4 GT OR ISZERO PUSH2 0x132 JUMPI PUSH1 0x0 DUP1 REVERT JUMPDEST SWAP2 SWAP1 DUP1 DUP1 PUSH1 0x20 MUL PUSH1 0x20 ADD PUSH1 0x40 MLOAD SWAP1 DUP2 ADD PUSH1 0x40 MSTORE DUP1 SWAP4 SWAP3 SWAP2 SWAP1 DUP2 DUP2 MSTORE PUSH1 0x20 ADD DUP4 DUP4 PUSH1 0x20 MUL DUP1 DUP3 DUP5 CALLDATACOPY PUSH1 0x0 DUP2 DUP5 ADD MSTORE PUSH1 0x1F NOT PUSH1 0x1F DUP3 ADD AND SWAP1 POP DUP1 DUP4 ADD SWAP3 POP POP POP POP POP POP POP SWAP2 SWAP3 SWAP2 SWAP3 SWAP1 POP POP POP PUSH2 0x355 JUMP JUMPDEST STOP JUMPDEST CALLVALUE DUP1 ISZERO PUSH2 0x18F JUMPI PUSH1 0x0 DUP1 REVERT JUMPDEST POP PUSH2 0x198 PUSH2 0x55E JUMP JUMPDEST PUSH1 0x40 MLOAD DUP1 DUP3 PUSH1 0x3 DUP2 GT ISZERO PUSH2 0x1A8 JUMPI INVALID JUMPDEST DUP2 MSTORE PUSH1 0x20 ADD SWAP2 POP POP PUSH1 0x40 MLOAD DUP1 SWAP2 SUB SWAP1 RETURN JUMPDEST PUSH2 0x1E5 PUSH1 0x4 DUP1 CALLDATASIZE SUB PUSH1 0x20 DUP2 LT ISZERO PUSH2 0x1CF JUMPI PUSH1 0x0 DUP1 REVERT JUMPDEST DUP2 ADD SWAP1 DUP1 DUP1 CALLDATALOAD SWAP1 PUSH1 0x20 ADD SWAP1 SWAP3 SWAP2 SWAP1 POP POP POP PUSH2 0x571 JUMP JUMPDEST STOP JUMPDEST PUSH2 0x1EF PUSH2 0x676 JUMP JUMPDEST STOP JUMPDEST CALLVALUE DUP1 ISZERO PUSH2 0x1FD JUMPI PUSH1 0x0 DUP1 REVERT JUMPDEST POP PUSH2 0x22A PUSH1 0x4 DUP1 CALLDATASIZE SUB PUSH1 0x20 DUP2 LT ISZERO PUSH2 0x214 JUMPI PUSH1 0x0 DUP1 REVERT JUMPDEST DUP2 ADD SWAP1 DUP1 DUP1 CALLDATALOAD SWAP1 PUSH1 0x20 ADD SWAP1 SWAP3 SWAP2 SWAP1 POP POP POP PUSH2 0x79E JUMP JUMPDEST STOP JUMPDEST PUSH1 0x0 DUP1 SLOAD SWAP1 PUSH2 0x100 EXP SWAP1 DIV PUSH20 0xFFFFFFFFFFFFFFFFFFFFFFFFFFFFFFFFFFFFFFFF AND PUSH1 0x2 DUP1 SLOAD TIMESTAMP GT DUP3 PUSH20 0xFFFFFFFFFFFFFFFFFFFFFFFFFFFFFFFFFFFFFFFF AND CALLER PUSH20 0xFFFFFFFFFFFFFFFFFFFFFFFFFFFFFFFFFFFFFFFF AND EQ PUSH2 0x28B JUMPI PUSH1 0x0 DUP1 REVERT JUMPDEST DUP2 PUSH1 0x3 DUP2 GT ISZERO PUSH2 0x297 JUMPI INVALID JUMPDEST PUSH1 0x5 PUSH1 0x0 SWAP1 SLOAD SWAP1 PUSH2 0x100 EXP SWAP1 DIV PUSH1 0xFF AND PUSH1 0x3 DUP2 GT ISZERO PUSH2 0x2B2 JUMPI INVALID JUMPDEST EQ PUSH2 0x2BC JUMPI PUSH1 0x0 DUP1 REVERT JUMPDEST DUP1 PUSH2 0x2C6 JUMPI PUSH1 0x0 DUP1 REVERT JUMPDEST PUSH32 0x82077B690643827ECFB7E762AEE114562C2D66EE8A62D73A120543A2E93370F0 PUSH1 0x40 MLOAD PUSH1 0x40 MLOAD DUP1 SWAP2 SUB SWAP1 LOG1 PUSH1 0x3 PUSH1 0x5 PUSH1 0x0 PUSH2 0x100 EXP DUP2 SLOAD DUP2 PUSH1 0xFF MUL NOT AND SWAP1 DUP4 PUSH1 0x3 DUP2 GT ISZERO PUSH2 0x311 JUMPI INVALID JUMPDEST MUL OR SWAP1 SSTORE POP PUSH1 0x0 DUP1 SLOAD SWAP1 PUSH2 0x100 EXP SWAP1 DIV PUSH20 0xFFFFFFFFFFFFFFFFFFFFFFFFFFFFFFFFFFFFFFFF AND PUSH20 0xFFFFFFFFFFFFFFFFFFFFFFFFFFFFFFFFFFFFFFFF AND SELFDESTRUCT JUMPDEST PUSH1 0x4 SLOAD DUP2 JUMP JUMPDEST PUSH1 0x1 PUSH1 0x0 SWAP1 SLOAD SWAP1 PUSH2 0x100 EXP SWAP1 DIV PUSH20 0xFFFFFFFFFFFFFFFFFFFFFFFFFFFFFFFFFFFFFFFF AND PUSH1 0x2 DUP1 SLOAD TIMESTAMP LT DUP3 PUSH20 0xFFFFFFFFFFFFFFFFFFFFFFFFFFFFFFFFFFFFFFFF AND CALLER PUSH20 0xFFFFFFFFFFFFFFFFFFFFFFFFFFFFFFFFFFFFFFFF AND EQ PUSH2 0x3B6 JUMPI PUSH1 0x0 DUP1 REVERT JUMPDEST DUP2 PUSH1 0x3 DUP2 GT ISZERO PUSH2 0x3C2 JUMPI INVALID JUMPDEST PUSH1 0x5 PUSH1 0x0 SWAP1 SLOAD SWAP1 PUSH2 0x100 EXP SWAP1 DIV PUSH1 0xFF AND PUSH1 0x3 DUP2 GT ISZERO PUSH2 0x3DD JUMPI INVALID JUMPDEST EQ PUSH2 0x3E7 JUMPI PUSH1 0x0 DUP1 REVERT JUMPDEST DUP1 PUSH2 0x3F1 JUMPI PUSH1 0x0 DUP1 REVERT JUMPDEST PUSH1 0x0 PUSH1 0x4 SLOAD DUP8 PUSH1 0x40 MLOAD PUSH1 0x20 ADD DUP1 DUP4 DUP2 MSTORE PUSH1 0x20 ADD DUP3 DUP2 MSTORE PUSH1 0x20 ADD SWAP3 POP POP POP PUSH1 0x40 MLOAD PUSH1 0x20 DUP2 DUP4 SUB SUB DUP2 MSTORE SWAP1 PUSH1 0x40 MSTORE DUP1 MLOAD SWAP1 PUSH1 0x20 ADD KECCAK256 SWAP1 POP DUP6 DUP2 EQ PUSH2 0x555 JUMPI PUSH1 0x0 DUP7 DUP9 PUSH1 0x40 MLOAD PUSH1 0x20 ADD DUP1 DUP4 DUP2 MSTORE PUSH1 0x20 ADD DUP3 DUP2 MSTORE PUSH1 0x20 ADD SWAP3 POP POP POP PUSH1 0x40 MLOAD PUSH1 0x20 DUP2 DUP4 SUB SUB DUP2 MSTORE SWAP1 PUSH1 0x40 MSTORE DUP1 MLOAD SWAP1 PUSH1 0x20 ADD KECCAK256 SWAP1 POP PUSH1 0x0 JUMPDEST PUSH1 0x3 DUP2 LT ISZERO PUSH2 0x4BD JUMPI DUP2 DUP8 DUP3 DUP2 MLOAD DUP2 LT PUSH2 0x479 JUMPI INVALID JUMPDEST PUSH1 0x20 MUL PUSH1 0x20 ADD ADD MLOAD PUSH1 0x40 MLOAD PUSH1 0x20 ADD DUP1 DUP4 DUP2 MSTORE PUSH1 0x20 ADD DUP3 DUP2 MSTORE PUSH1 0x20 ADD SWAP3 POP POP POP PUSH1 0x40 MLOAD PUSH1 0x20 DUP2 DUP4 SUB SUB DUP2 MSTORE SWAP1 PUSH1 0x40 MSTORE DUP1 MLOAD SWAP1 PUSH1 0x20 ADD KECCAK256 SWAP2 POP DUP1 DUP1 PUSH1 0x1 ADD SWAP2 POP POP PUSH2 0x463 JUMP JUMPDEST POP PUSH1 0x3 SLOAD DUP2 EQ ISZERO PUSH2 0x553 JUMPI PUSH32 0x82077B690643827ECFB7E762AEE114562C2D66EE8A62D73A120543A2E93370F0 PUSH1 0x40 MLOAD PUSH1 0x40 MLOAD DUP1 SWAP2 SUB SWAP1 LOG1 PUSH1 0x3 PUSH1 0x5 PUSH1 0x0 PUSH2 0x100 EXP DUP2 SLOAD DUP2 PUSH1 0xFF MUL NOT AND SWAP1 DUP4 PUSH1 0x3 DUP2 GT ISZERO PUSH2 0x513 JUMPI INVALID JUMPDEST MUL OR SWAP1 SSTORE POP PUSH1 0x1 PUSH1 0x0 SWAP1 SLOAD SWAP1 PUSH2 0x100 EXP SWAP1 DIV PUSH20 0xFFFFFFFFFFFFFFFFFFFFFFFFFFFFFFFFFFFFFFFF AND PUSH20 0xFFFFFFFFFFFFFFFFFFFFFFFFFFFFFFFFFFFFFFFF AND SELFDESTRUCT JUMPDEST POP JUMPDEST POP POP POP POP POP POP POP JUMP JUMPDEST PUSH1 0x5 PUSH1 0x0 SWAP1 SLOAD SWAP1 PUSH2 0x100 EXP SWAP1 DIV PUSH1 0xFF AND DUP2 JUMP JUMPDEST PUSH1 0x1 PUSH1 0x0 SWAP1 SLOAD SWAP1 PUSH2 0x100 EXP SWAP1 DIV PUSH20 0xFFFFFFFFFFFFFFFFFFFFFFFFFFFFFFFFFFFFFFFF AND PUSH1 0x0 PUSH2 0x3E8 CALLVALUE EQ DUP3 PUSH20 0xFFFFFFFFFFFFFFFFFFFFFFFFFFFFFFFFFFFFFFFF AND CALLER PUSH20 0xFFFFFFFFFFFFFFFFFFFFFFFFFFFFFFFFFFFFFFFF AND EQ PUSH2 0x5D3 JUMPI PUSH1 0x0 DUP1 REVERT JUMPDEST DUP2 PUSH1 0x3 DUP2 GT ISZERO PUSH2 0x5DF JUMPI INVALID JUMPDEST PUSH1 0x5 PUSH1 0x0 SWAP1 SLOAD SWAP1 PUSH2 0x100 EXP SWAP1 DIV PUSH1 0xFF AND PUSH1 0x3 DUP2 GT ISZERO PUSH2 0x5FA JUMPI INVALID JUMPDEST EQ PUSH2 0x604 JUMPI PUSH1 0x0 DUP1 REVERT JUMPDEST DUP1 PUSH2 0x60E JUMPI PUSH1 0x0 DUP1 REVERT JUMPDEST PUSH32 0x12EA17A123346D563A6B48A2BE06CAA60D891BF7825A2E7ED00C4BE1C1C6F054 PUSH1 0x40 MLOAD PUSH1 0x40 MLOAD DUP1 SWAP2 SUB SWAP1 LOG1 PUSH1 0x1 PUSH1 0x5 PUSH1 0x0 PUSH2 0x100 EXP DUP2 SLOAD DUP2 PUSH1 0xFF MUL NOT AND SWAP1 DUP4 PUSH1 0x3 DUP2 GT ISZERO PUSH2 0x659 JUMPI INVALID JUMPDEST MUL OR SWAP1 SSTORE POP DUP4 PUSH1 0x3 DUP2 SWAP1 SSTORE POP PUSH2 0x258 TIMESTAMP ADD PUSH1 0x2 DUP2 SWAP1 SSTORE POP POP POP POP POP JUMP JUMPDEST PUSH1 0x1 PUSH1 0x0 SWAP1 SLOAD SWAP1 PUSH2 0x100 EXP SWAP1 DIV PUSH20 0xFFFFFFFFFFFFFFFFFFFFFFFFFFFFFFFFFFFFFFFF AND PUSH1 0x1 PUSH1 0x2 SLOAD TIMESTAMP GT DUP3 PUSH20 0xFFFFFFFFFFFFFFFFFFFFFFFFFFFFFFFFFFFFFFFF AND CALLER PUSH20 0xFFFFFFFFFFFFFFFFFFFFFFFFFFFFFFFFFFFFFFFF AND EQ PUSH2 0x6D8 JUMPI PUSH1 0x0 DUP1 REVERT JUMPDEST DUP2 PUSH1 0x3 DUP2 GT ISZERO PUSH2 0x6E4 JUMPI INVALID JUMPDEST PUSH1 0x5 PUSH1 0x0 SWAP1 SLOAD SWAP1 PUSH2 0x100 EXP SWAP1 DIV PUSH1 0xFF AND PUSH1 0x3 DUP2 GT ISZERO PUSH2 0x6FF JUMPI INVALID JUMPDEST EQ PUSH2 0x709 JUMPI PUSH1 0x0 DUP1 REVERT JUMPDEST DUP1 PUSH2 0x713 JUMPI PUSH1 0x0 DUP1 REVERT JUMPDEST PUSH32 0x82077B690643827ECFB7E762AEE114562C2D66EE8A62D73A120543A2E93370F0 PUSH1 0x40 MLOAD PUSH1 0x40 MLOAD DUP1 SWAP2 SUB SWAP1 LOG1 PUSH1 0x3 PUSH1 0x5 PUSH1 0x0 PUSH2 0x100 EXP DUP2 SLOAD DUP2 PUSH1 0xFF MUL NOT AND SWAP1 DUP4 PUSH1 0x3 DUP2 GT ISZERO PUSH2 0x75E JUMPI INVALID JUMPDEST MUL OR SWAP1 SSTORE POP PUSH1 0x1 PUSH1 0x0 SWAP1 SLOAD SWAP1 PUSH2 0x100 EXP SWAP1 DIV PUSH20 0xFFFFFFFFFFFFFFFFFFFFFFFFFFFFFFFFFFFFFFFF AND PUSH20 0xFFFFFFFFFFFFFFFFFFFFFFFFFFFFFFFFFFFFFFFF AND SELFDESTRUCT JUMPDEST PUSH1 0x0 DUP1 SLOAD SWAP1 PUSH2 0x100 EXP SWAP1 DIV PUSH20 0xFFFFFFFFFFFFFFFFFFFFFFFFFFFFFFFFFFFFFFFF AND PUSH1 0x1 DUP1 DUP3 PUSH20 0xFFFFFFFFFFFFFFFFFFFFFFFFFFFFFFFFFFFFFFFF AND CALLER PUSH20 0xFFFFFFFFFFFFFFFFFFFFFFFFFFFFFFFFFFFFFFFF AND EQ PUSH2 0x7FA JUMPI PUSH1 0x0 DUP1 REVERT JUMPDEST DUP2 PUSH1 0x3 DUP2 GT ISZERO PUSH2 0x806 JUMPI INVALID JUMPDEST PUSH1 0x5 PUSH1 0x0 SWAP1 SLOAD SWAP1 PUSH2 0x100 EXP SWAP1 DIV PUSH1 0xFF AND PUSH1 0x3 DUP2 GT ISZERO PUSH2 0x821 JUMPI INVALID JUMPDEST EQ PUSH2 0x82B JUMPI PUSH1 0x0 DUP1 REVERT JUMPDEST DUP1 PUSH2 0x835 JUMPI PUSH1 0x0 DUP1 REVERT JUMPDEST PUSH32 0x556E225502A432BA3E25DC77F99030B54AF7244C03156DEA7206E35377FE63C9 PUSH1 0x40 MLOAD PUSH1 0x40 MLOAD DUP1 SWAP2 SUB SWAP1 LOG1 PUSH1 0x2 PUSH1 0x5 PUSH1 0x0 PUSH2 0x100 EXP DUP2 SLOAD DUP2 PUSH1 0xFF MUL NOT AND SWAP1 DUP4 PUSH1 0x3 DUP2 GT ISZERO PUSH2 0x880 JUMPI INVALID JUMPDEST MUL OR SWAP1 SSTORE POP DUP4 PUSH1 0x4 DUP2 SWAP1 SSTORE POP PUSH2 0x258 TIMESTAMP ADD PUSH1 0x2 DUP2 SWAP1 SSTORE POP POP POP POP POP JUMP INVALID LOG2 PUSH5 0x6970667358 0x22 SLT KECCAK256 0xE6 SWAP2 0xA7 SWAP13 0xE8 STOP 0xA5 0xC5 SHR RETURNDATACOPY 0x5E 0xD1 RETURNDATASIZE 0xAD RETURN DIFFICULTY CALL GT SHL 0x24 0x2D PUSH2 0x594D 0x27 RETURN 0xA9 0xCF 0x4B PUSH32 0x874064736F6C634300060C003300000000000000000000000000000000000000 "
				},
				"gasEstimates": {
					"creation": {
						"codeDepositCost": "451800",
						"executionCost": "42194",
						"totalCost": "493994"
					},
					"external": {
						"PayWithDescription(bytes32)": "63741",
						"PublishMasterKey(bytes32)": "63801",
						"RaiseObjection(uint256,bytes32,bytes32[])": "infinite",
						"RefundToBuyer()": "55276",
						"TransferToSeller()": "55251",
						"masterKey()": "1028",
						"state()": "1067"
					}
				},
				"methodIdentifiers": {
					"PayWithDescription(bytes32)": "c4cd9f49",
					"PublishMasterKey(bytes32)": "d8309ae1",
					"RaiseObjection(uint256,bytes32,bytes32[])": "94952cc7",
					"RefundToBuyer()": "d4ef6cb0",
					"TransferToSeller()": "705dd281",
					"masterKey()": "8afe35b9",
					"state()": "c19d93fb"
				}
			},
			"storageLayout": {
				"storage": [
					{
						"astId": 3,
						"contract": "fairdex.sol:FairDEx",
						"label": "seller",
						"offset": 0,
						"slot": "0",
						"type": "t_address_payable"
					},
					{
						"astId": 5,
						"contract": "fairdex.sol:FairDEx",
						"label": "buyer",
						"offset": 0,
						"slot": "1",
						"type": "t_address_payable"
					},
					{
						"astId": 7,
						"contract": "fairdex.sol:FairDEx",
						"label": "timeout",
						"offset": 0,
						"slot": "2",
						"type": "t_uint256"
					},
					{
						"astId": 15,
						"contract": "fairdex.sol:FairDEx",
						"label": "description",
						"offset": 0,
						"slot": "3",
						"type": "t_bytes32"
					},
					{
						"astId": 17,
						"contract": "fairdex.sol:FairDEx",
						"label": "masterKey",
						"offset": 0,
						"slot": "4",
						"type": "t_bytes32"
					},
					{
						"astId": 24,
						"contract": "fairdex.sol:FairDEx",
						"label": "state",
						"offset": 0,
						"slot": "5",
						"type": "t_enum(State)22"
					}
				],
				"types": {
					"t_address_payable": {
						"encoding": "inplace",
						"label": "address payable",
						"numberOfBytes": "20"
					},
					"t_bytes32": {
						"encoding": "inplace",
						"label": "bytes32",
						"numberOfBytes": "32"
					},
					"t_enum(State)22": {
						"encoding": "inplace",
						"label": "enum FairDEx.State",
						"numberOfBytes": "1"
					},
					"t_uint256": {
						"encoding": "inplace",
						"label": "uint256",
						"numberOfBytes": "32"
					}
				}
			},
			"userdoc": {
				"kind": "user",
				"methods": {},
				"version": 1
			}
		}
	}
}