{
	"trading.sol": {
		"trading": {
			"abi": [
				{
					"inputs": [],
					"stateMutability": "nonpayable",
					"type": "constructor"
				},
				{
					"anonymous": false,
					"inputs": [
						{
							"indexed": false,
							"internalType": "address",
							"name": "userAddr",
							"type": "address"
						}
					],
					"name": "buyerRefundEvent",
					"type": "event"
				},
				{
					"anonymous": false,
					"inputs": [
						{
							"indexed": false,
							"internalType": "bytes32",
							"name": "kc",
							"type": "bytes32"
						},
						{
							"indexed": false,
							"internalType": "uint256",
							"name": "p",
							"type": "uint256"
						},
						{
							"indexed": false,
							"internalType": "uint256",
							"name": "p1",
							"type": "uint256"
						}
					],
					"name": "challengeEvent",
					"type": "event"
				},
				{
					"anonymous": false,
					"inputs": [
						{
							"indexed": false,
							"internalType": "uint256",
							"name": "id",
							"type": "uint256"
						},
						{
							"indexed": false,
							"internalType": "bytes32",
							"name": "delta_1",
							"type": "bytes32"
						}
					],
					"name": "commitDataEvent",
					"type": "event"
				},
				{
					"anonymous": false,
					"inputs": [
						{
							"indexed": false,
							"internalType": "address",
							"name": "userAddr",
							"type": "address"
						}
					],
					"name": "initiationArbitrationEvent",
					"type": "event"
				},
				{
					"anonymous": false,
					"inputs": [
						{
							"indexed": false,
							"internalType": "uint256",
							"name": "status",
							"type": "uint256"
						}
					],
					"name": "onchianArbitrationEvent",
					"type": "event"
				},
				{
					"anonymous": false,
					"inputs": [
						{
							"indexed": false,
							"internalType": "address",
							"name": "userAddr",
							"type": "address"
						},
						{
							"indexed": false,
							"internalType": "uint256",
							"name": "value",
							"type": "uint256"
						}
					],
					"name": "payleftEvent",
					"type": "event"
				},
				{
					"anonymous": false,
					"inputs": [
						{
							"indexed": false,
							"internalType": "bytes32",
							"name": "masterkey",
							"type": "bytes32"
						}
					],
					"name": "releaseMasterkeyEvent",
					"type": "event"
				},
				{
					"anonymous": false,
					"inputs": [
						{
							"indexed": false,
							"internalType": "bytes32",
							"name": "_delta_2",
							"type": "bytes32"
						},
						{
							"indexed": false,
							"internalType": "uint256",
							"name": "_length2",
							"type": "uint256"
						}
					],
					"name": "respondeEvent",
					"type": "event"
				},
				{
					"anonymous": false,
					"inputs": [
						{
							"indexed": false,
							"internalType": "address",
							"name": "userAddr",
							"type": "address"
						},
						{
							"indexed": false,
							"internalType": "address",
							"name": "winner",
							"type": "address"
						}
					],
					"name": "verdictEvent",
					"type": "event"
				},
				{
					"inputs": [],
					"name": "RaiseOffChainArbitration",
					"outputs": [],
					"stateMutability": "nonpayable",
					"type": "function"
				},
				{
					"inputs": [
						{
							"internalType": "bytes32",
							"name": "index",
							"type": "bytes32"
						},
						{
							"internalType": "bytes32",
							"name": "_committedSubKey",
							"type": "bytes32"
						},
						{
							"internalType": "bytes32[]",
							"name": "_merkleTreePath",
							"type": "bytes32[]"
						}
					],
					"name": "RaiseOnChainArbitration",
					"outputs": [
						{
							"internalType": "string",
							"name": "",
							"type": "string"
						}
					],
					"stateMutability": "nonpayable",
					"type": "function"
				},
				{
					"inputs": [],
					"name": "arbitrator",
					"outputs": [
						{
							"internalType": "address",
							"name": "",
							"type": "address"
						}
					],
					"stateMutability": "view",
					"type": "function"
				},
				{
					"inputs": [],
					"name": "buyer",
					"outputs": [
						{
							"internalType": "address",
							"name": "",
							"type": "address"
						}
					],
					"stateMutability": "view",
					"type": "function"
				},
				{
					"inputs": [],
					"name": "buyerRefund",
					"outputs": [],
					"stateMutability": "nonpayable",
					"type": "function"
				},
				{
					"inputs": [
						{
							"internalType": "bytes32",
							"name": "_kc",
							"type": "bytes32"
						},
						{
							"internalType": "uint256",
							"name": "_p",
							"type": "uint256"
						},
						{
							"internalType": "uint256",
							"name": "_p1",
							"type": "uint256"
						}
					],
					"name": "challenge",
					"outputs": [],
					"stateMutability": "payable",
					"type": "function"
				},
				{
					"inputs": [
						{
							"internalType": "uint256",
							"name": "id",
							"type": "uint256"
						},
						{
							"internalType": "bytes32",
							"name": "_delta_1",
							"type": "bytes32"
						}
					],
					"name": "commitData",
					"outputs": [],
					"stateMutability": "nonpayable",
					"type": "function"
				},
				{
					"inputs": [],
					"name": "dataId",
					"outputs": [
						{
							"internalType": "uint256",
							"name": "",
							"type": "uint256"
						}
					],
					"stateMutability": "view",
					"type": "function"
				},
				{
					"inputs": [],
					"name": "delta_1",
					"outputs": [
						{
							"internalType": "bytes32",
							"name": "",
							"type": "bytes32"
						}
					],
					"stateMutability": "view",
					"type": "function"
				},
				{
					"inputs": [],
					"name": "delta_2",
					"outputs": [
						{
							"internalType": "bytes32",
							"name": "",
							"type": "bytes32"
						}
					],
					"stateMutability": "view",
					"type": "function"
				},
				{
					"inputs": [],
					"name": "depth_2",
					"outputs": [
						{
							"internalType": "uint256",
							"name": "",
							"type": "uint256"
						}
					],
					"stateMutability": "view",
					"type": "function"
				},
				{
					"inputs": [
						{
							"internalType": "bytes32",
							"name": "key",
							"type": "bytes32"
						},
						{
							"internalType": "bytes32",
							"name": "message",
							"type": "bytes32"
						}
					],
					"name": "hmac",
					"outputs": [
						{
							"internalType": "bytes32",
							"name": "",
							"type": "bytes32"
						}
					],
					"stateMutability": "pure",
					"type": "function"
				},
				{
					"inputs": [],
					"name": "kc",
					"outputs": [
						{
							"internalType": "bytes32",
							"name": "",
							"type": "bytes32"
						}
					],
					"stateMutability": "view",
					"type": "function"
				},
				{
					"inputs": [],
					"name": "mk",
					"outputs": [
						{
							"internalType": "bytes32",
							"name": "",
							"type": "bytes32"
						}
					],
					"stateMutability": "view",
					"type": "function"
				},
				{
					"inputs": [],
					"name": "opreationtime",
					"outputs": [
						{
							"internalType": "uint256",
							"name": "",
							"type": "uint256"
						}
					],
					"stateMutability": "view",
					"type": "function"
				},
				{
					"inputs": [],
					"name": "p",
					"outputs": [
						{
							"internalType": "uint256",
							"name": "",
							"type": "uint256"
						}
					],
					"stateMutability": "view",
					"type": "function"
				},
				{
					"inputs": [],
					"name": "p1",
					"outputs": [
						{
							"internalType": "uint256",
							"name": "",
							"type": "uint256"
						}
					],
					"stateMutability": "view",
					"type": "function"
				},
				{
					"inputs": [],
					"name": "payleft",
					"outputs": [],
					"stateMutability": "payable",
					"type": "function"
				},
				{
					"inputs": [
						{
							"internalType": "bytes32",
							"name": "_mk",
							"type": "bytes32"
						}
					],
					"name": "releaseMasterkey",
					"outputs": [],
					"stateMutability": "nonpayable",
					"type": "function"
				},
				{
					"inputs": [
						{
							"internalType": "bytes32",
							"name": "_delta_2",
							"type": "bytes32"
						},
						{
							"internalType": "uint256",
							"name": "_depth_2",
							"type": "uint256"
						}
					],
					"name": "response",
					"outputs": [],
					"stateMutability": "payable",
					"type": "function"
				},
				{
					"inputs": [],
					"name": "seller",
					"outputs": [
						{
							"internalType": "address",
							"name": "",
							"type": "address"
						}
					],
					"stateMutability": "view",
					"type": "function"
				},
				{
					"inputs": [
						{
							"internalType": "bytes32",
							"name": "key",
							"type": "bytes32"
						},
						{
							"internalType": "bytes32",
							"name": "message",
							"type": "bytes32"
						}
					],
					"name": "sha2562",
					"outputs": [
						{
							"internalType": "bytes32",
							"name": "",
							"type": "bytes32"
						}
					],
					"stateMutability": "pure",
					"type": "function"
				},
				{
					"inputs": [],
					"name": "state",
					"outputs": [
						{
							"internalType": "enum trading.State",
							"name": "",
							"type": "uint8"
						}
					],
					"stateMutability": "view",
					"type": "function"
				},
				{
					"inputs": [
						{
							"internalType": "bytes32",
							"name": "key",
							"type": "bytes32"
						}
					],
					"name": "test256",
					"outputs": [
						{
							"internalType": "bytes32",
							"name": "",
							"type": "bytes32"
						}
					],
					"stateMutability": "pure",
					"type": "function"
				},
				{
					"inputs": [],
					"name": "timeLimit",
					"outputs": [
						{
							"internalType": "uint256",
							"name": "",
							"type": "uint256"
						}
					],
					"stateMutability": "view",
					"type": "function"
				},
				{
					"inputs": [
						{
							"internalType": "address",
							"name": "userAddr",
							"type": "address"
						},
						{
							"internalType": "address",
							"name": "winner",
							"type": "address"
						}
					],
					"name": "verdict",
					"outputs": [],
					"stateMutability": "nonpayable",
					"type": "function"
				}
			],
			"devdoc": {
				"kind": "dev",
				"methods": {},
				"version": 1
			},
			"evm": {
				"assembly": "    /* \"trading.sol\":60:5681  contract trading {... */\n  mstore(0x40, 0x80)\n    /* \"trading.sol\":456:459  600 */\n  0x0258\n    /* \"trading.sol\":431:459  uint  public timeLimit = 600 */\n  0x0c\n  sstore\n    /* \"trading.sol\":1151:1296  constructor (){... */\n  callvalue\n  dup1\n  iszero\n  tag_1\n  jumpi\n  0x00\n  dup1\n  revert\ntag_1:\n  pop\n    /* \"trading.sol\":1189:1199  msg.sender */\n  caller\n    /* \"trading.sol\":1176:1186  arbitrator */\n  0x02\n  0x00\n    /* \"trading.sol\":1176:1199  arbitrator = msg.sender */\n  0x0100\n  exp\n  dup2\n  sload\n  dup2\n  0xffffffffffffffffffffffffffffffffffffffff\n  mul\n  not\n  and\n  swap1\n  dup4\n  0xffffffffffffffffffffffffffffffffffffffff\n  and\n  mul\n  or\n  swap1\n  sstore\n  pop\n    /* \"trading.sol\":1219:1229  msg.sender */\n  caller\n    /* \"trading.sol\":1210:1216  seller */\n  0x01\n  0x00\n    /* \"trading.sol\":1210:1229  seller = msg.sender */\n  0x0100\n  exp\n  dup2\n  sload\n  dup2\n  0xffffffffffffffffffffffffffffffffffffffff\n  mul\n  not\n  and\n  swap1\n  dup4\n  0xffffffffffffffffffffffffffffffffffffffff\n  and\n  mul\n  or\n  swap1\n  sstore\n  pop\n    /* \"trading.sol\":1248:1258  msg.sender */\n  caller\n    /* \"trading.sol\":1240:1245  buyer */\n  0x03\n  0x00\n    /* \"trading.sol\":1240:1258  buyer = msg.sender */\n  0x0100\n  exp\n  dup2\n  sload\n  dup2\n  0xffffffffffffffffffffffffffffffffffffffff\n  mul\n  not\n  and\n  swap1\n  dup4\n  0xffffffffffffffffffffffffffffffffffffffff\n  and\n  mul\n  or\n  swap1\n  sstore\n  pop\n    /* \"trading.sol\":1277:1288  State.start */\n  0x00\n    /* \"trading.sol\":1269:1274  state */\n  0x0d\n  0x00\n    /* \"trading.sol\":1269:1288  state = State.start */\n  0x0100\n  exp\n  dup2\n  sload\n  dup2\n  0xff\n  mul\n  not\n  and\n  swap1\n  dup4\n  0x09\n  dup2\n  gt\n  iszero\n  tag_4\n  jumpi\n  tag_5\n  tag_6\n  jump\t// in\ntag_5:\ntag_4:\n  mul\n  or\n  swap1\n  sstore\n  pop\n    /* \"trading.sol\":60:5681  contract trading {... */\n  jump(tag_7)\n    /* \"#utility.yul\":7:187   */\ntag_6:\n    /* \"#utility.yul\":55:132   */\n  0x4e487b7100000000000000000000000000000000000000000000000000000000\n    /* \"#utility.yul\":52:53   */\n  0x00\n    /* \"#utility.yul\":45:133   */\n  mstore\n    /* \"#utility.yul\":152:156   */\n  0x21\n    /* \"#utility.yul\":149:150   */\n  0x04\n    /* \"#utility.yul\":142:157   */\n  mstore\n    /* \"#utility.yul\":176:180   */\n  0x24\n    /* \"#utility.yul\":173:174   */\n  0x00\n    /* \"#utility.yul\":166:181   */\n  revert\n    /* \"trading.sol\":60:5681  contract trading {... */\ntag_7:\n  dataSize(sub_0)\n  dup1\n  dataOffset(sub_0)\n  0x00\n  codecopy\n  0x00\n  return\nstop\n\nsub_0: assembly {\n        /* \"trading.sol\":60:5681  contract trading {... */\n      mstore(0x40, 0x80)\n      jumpi(tag_1, lt(calldatasize, 0x04))\n      shr(0xe0, calldataload(0x00))\n      dup1\n      0x9ae67252\n      gt\n      tag_28\n      jumpi\n      dup1\n      0xc19d93fb\n      gt\n      tag_29\n      jumpi\n      dup1\n      0xe6299631\n      gt\n      tag_30\n      jumpi\n      dup1\n      0xe6299631\n      eq\n      tag_24\n      jumpi\n      dup1\n      0xee17b807\n      eq\n      tag_25\n      jumpi\n      dup1\n      0xf258d51e\n      eq\n      tag_26\n      jumpi\n      dup1\n      0xf4c1f07b\n      eq\n      tag_27\n      jumpi\n      jump(tag_1)\n    tag_30:\n      dup1\n      0xc19d93fb\n      eq\n      tag_21\n      jumpi\n      dup1\n      0xc2a2747b\n      eq\n      tag_22\n      jumpi\n      dup1\n      0xc8a663ec\n      eq\n      tag_23\n      jumpi\n      jump(tag_1)\n    tag_29:\n      dup1\n      0x9ae67252\n      eq\n      tag_15\n      jumpi\n      dup1\n      0x9ae8886a\n      eq\n      tag_16\n      jumpi\n      dup1\n      0xa2fc30af\n      eq\n      tag_17\n      jumpi\n      dup1\n      0xb66cfa41\n      eq\n      tag_18\n      jumpi\n      dup1\n      0xb93a86ce\n      eq\n      tag_19\n      jumpi\n      dup1\n      0xc08d1fe5\n      eq\n      tag_20\n      jumpi\n      jump(tag_1)\n    tag_28:\n      dup1\n      0x50339559\n      gt\n      tag_31\n      jumpi\n      dup1\n      0x7150d8ae\n      gt\n      tag_32\n      jumpi\n      dup1\n      0x7150d8ae\n      eq\n      tag_11\n      jumpi\n      dup1\n      0x78192063\n      eq\n      tag_12\n      jumpi\n      dup1\n      0x7a1a456a\n      eq\n      tag_13\n      jumpi\n      dup1\n      0x80aa2dae\n      eq\n      tag_14\n      jumpi\n      jump(tag_1)\n    tag_32:\n      dup1\n      0x50339559\n      eq\n      tag_8\n      jumpi\n      dup1\n      0x6cc6cde1\n      eq\n      tag_9\n      jumpi\n      dup1\n      0x706a0160\n      eq\n      tag_10\n      jumpi\n      jump(tag_1)\n    tag_31:\n      dup1\n      0x07c5fbe5\n      eq\n      tag_2\n      jumpi\n      dup1\n      0x07e4312e\n      eq\n      tag_3\n      jumpi\n      dup1\n      0x08551a53\n      eq\n      tag_4\n      jumpi\n      dup1\n      0x2f81b0a0\n      eq\n      tag_5\n      jumpi\n      dup1\n      0x3502e066\n      eq\n      tag_6\n      jumpi\n      dup1\n      0x4bbf6642\n      eq\n      tag_7\n      jumpi\n    tag_1:\n      0x00\n      dup1\n      revert\n        /* \"trading.sol\":3249:4095  function RaiseOnChainArbitration(bytes32 index, bytes32 _committedSubKey, bytes32[] memory _merkleTreePath) public  returns (string memory)   {... */\n    tag_2:\n      callvalue\n      dup1\n      iszero\n      tag_33\n      jumpi\n      0x00\n      dup1\n      revert\n    tag_33:\n      pop\n      tag_34\n      0x04\n      dup1\n      calldatasize\n      sub\n      dup2\n      add\n      swap1\n      tag_35\n      swap2\n      swap1\n      tag_36\n      jump\t// in\n    tag_35:\n      tag_37\n      jump\t// in\n    tag_34:\n      mload(0x40)\n      tag_38\n      swap2\n      swap1\n      tag_39\n      jump\t// in\n    tag_38:\n      mload(0x40)\n      dup1\n      swap2\n      sub\n      swap1\n      return\n        /* \"trading.sol\":1943:2292  function response (bytes32 _delta_2, uint256 _depth_2) payable public {... */\n    tag_3:\n      tag_40\n      0x04\n      dup1\n      calldatasize\n      sub\n      dup2\n      add\n      swap1\n      tag_41\n      swap2\n      swap1\n      tag_42\n      jump\t// in\n    tag_41:\n      tag_43\n      jump\t// in\n    tag_40:\n      stop\n        /* \"trading.sol\":127:148  address public seller */\n    tag_4:\n      callvalue\n      dup1\n      iszero\n      tag_44\n      jumpi\n      0x00\n      dup1\n      revert\n    tag_44:\n      pop\n      tag_45\n      tag_46\n      jump\t// in\n    tag_45:\n      mload(0x40)\n      tag_47\n      swap2\n      swap1\n      tag_48\n      jump\t// in\n    tag_47:\n      mload(0x40)\n      dup1\n      swap2\n      sub\n      swap1\n      return\n        /* \"trading.sol\":301:318  bytes32 public mk */\n    tag_5:\n      callvalue\n      dup1\n      iszero\n      tag_49\n      jumpi\n      0x00\n      dup1\n      revert\n    tag_49:\n      pop\n      tag_50\n      tag_51\n      jump\t// in\n    tag_50:\n      mload(0x40)\n      tag_52\n      swap2\n      swap1\n      tag_53\n      jump\t// in\n    tag_52:\n      mload(0x40)\n      dup1\n      swap2\n      sub\n      swap1\n      return\n        /* \"trading.sol\":2323:2672  function buyerRefund() public {... */\n    tag_6:\n      callvalue\n      dup1\n      iszero\n      tag_54\n      jumpi\n      0x00\n      dup1\n      revert\n    tag_54:\n      pop\n      tag_55\n      tag_56\n      jump\t// in\n    tag_55:\n      stop\n        /* \"trading.sol\":243:265  bytes32 public delta_2 */\n    tag_7:\n      callvalue\n      dup1\n      iszero\n      tag_57\n      jumpi\n      0x00\n      dup1\n      revert\n    tag_57:\n      pop\n      tag_58\n      tag_59\n      jump\t// in\n    tag_58:\n      mload(0x40)\n      tag_60\n      swap2\n      swap1\n      tag_53\n      jump\t// in\n    tag_60:\n      mload(0x40)\n      dup1\n      swap2\n      sub\n      swap1\n      return\n        /* \"trading.sol\":1308:1554  function commitData (uint256 id, bytes32 _delta_1) public onlySeller {... */\n    tag_8:\n      callvalue\n      dup1\n      iszero\n      tag_61\n      jumpi\n      0x00\n      dup1\n      revert\n    tag_61:\n      pop\n      tag_62\n      0x04\n      dup1\n      calldatasize\n      sub\n      dup2\n      add\n      swap1\n      tag_63\n      swap2\n      swap1\n      tag_64\n      jump\t// in\n    tag_63:\n      tag_65\n      jump\t// in\n    tag_62:\n      stop\n        /* \"trading.sol\":155:180  address public arbitrator */\n    tag_9:\n      callvalue\n      dup1\n      iszero\n      tag_66\n      jumpi\n      0x00\n      dup1\n      revert\n    tag_66:\n      pop\n      tag_67\n      tag_68\n      jump\t// in\n    tag_67:\n      mload(0x40)\n      tag_69\n      swap2\n      swap1\n      tag_48\n      jump\t// in\n    tag_69:\n      mload(0x40)\n      dup1\n      swap2\n      sub\n      swap1\n      return\n        /* \"trading.sol\":2977:3215  function releaseMasterkey(bytes32 _mk) public onlySeller {... */\n    tag_10:\n      callvalue\n      dup1\n      iszero\n      tag_70\n      jumpi\n      0x00\n      dup1\n      revert\n    tag_70:\n      pop\n      tag_71\n      0x04\n      dup1\n      calldatasize\n      sub\n      dup2\n      add\n      swap1\n      tag_72\n      swap2\n      swap1\n      tag_73\n      jump\t// in\n    tag_72:\n      tag_74\n      jump\t// in\n    tag_71:\n      stop\n        /* \"trading.sol\":187:207  address public buyer */\n    tag_11:\n      callvalue\n      dup1\n      iszero\n      tag_75\n      jumpi\n      0x00\n      dup1\n      revert\n    tag_75:\n      pop\n      tag_76\n      tag_77\n      jump\t// in\n    tag_76:\n      mload(0x40)\n      tag_78\n      swap2\n      swap1\n      tag_48\n      jump\t// in\n    tag_78:\n      mload(0x40)\n      dup1\n      swap2\n      sub\n      swap1\n      return\n        /* \"trading.sol\":4764:5131  function hmac(bytes32 key, bytes32 message) public pure returns (bytes32) {... */\n    tag_12:\n      callvalue\n      dup1\n      iszero\n      tag_79\n      jumpi\n      0x00\n      dup1\n      revert\n    tag_79:\n      pop\n      tag_80\n      0x04\n      dup1\n      calldatasize\n      sub\n      dup2\n      add\n      swap1\n      tag_81\n      swap2\n      swap1\n      tag_82\n      jump\t// in\n    tag_81:\n      tag_83\n      jump\t// in\n    tag_80:\n      mload(0x40)\n      tag_84\n      swap2\n      swap1\n      tag_53\n      jump\t// in\n    tag_84:\n      mload(0x40)\n      dup1\n      swap2\n      sub\n      swap1\n      return\n        /* \"trading.sol\":5149:5265  function test256(bytes32 key)public pure returns (bytes32) {... */\n    tag_13:\n      callvalue\n      dup1\n      iszero\n      tag_85\n      jumpi\n      0x00\n      dup1\n      revert\n    tag_85:\n      pop\n      tag_86\n      0x04\n      dup1\n      calldatasize\n      sub\n      dup2\n      add\n      swap1\n      tag_87\n      swap2\n      swap1\n      tag_73\n      jump\t// in\n    tag_87:\n      tag_88\n      jump\t// in\n    tag_86:\n      mload(0x40)\n      tag_89\n      swap2\n      swap1\n      tag_53\n      jump\t// in\n    tag_89:\n      mload(0x40)\n      dup1\n      swap2\n      sub\n      swap1\n      return\n        /* \"trading.sol\":272:294  uint256 public depth_2 */\n    tag_14:\n      callvalue\n      dup1\n      iszero\n      tag_90\n      jumpi\n      0x00\n      dup1\n      revert\n    tag_90:\n      pop\n      tag_91\n      tag_92\n      jump\t// in\n    tag_91:\n      mload(0x40)\n      tag_93\n      swap2\n      swap1\n      tag_94\n      jump\t// in\n    tag_93:\n      mload(0x40)\n      dup1\n      swap2\n      sub\n      swap1\n      return\n        /* \"trading.sol\":396:424  uint256 public opreationtime */\n    tag_15:\n      callvalue\n      dup1\n      iszero\n      tag_95\n      jumpi\n      0x00\n      dup1\n      revert\n    tag_95:\n      pop\n      tag_96\n      tag_97\n      jump\t// in\n    tag_96:\n      mload(0x40)\n      tag_98\n      swap2\n      swap1\n      tag_94\n      jump\t// in\n    tag_98:\n      mload(0x40)\n      dup1\n      swap2\n      sub\n      swap1\n      return\n        /* \"trading.sol\":325:341  uint256 public p */\n    tag_16:\n      callvalue\n      dup1\n      iszero\n      tag_99\n      jumpi\n      0x00\n      dup1\n      revert\n    tag_99:\n      pop\n      tag_100\n      tag_101\n      jump\t// in\n    tag_100:\n      mload(0x40)\n      tag_102\n      swap2\n      swap1\n      tag_94\n      jump\t// in\n    tag_102:\n      mload(0x40)\n      dup1\n      swap2\n      sub\n      swap1\n      return\n        /* \"trading.sol\":214:236  bytes32 public delta_1 */\n    tag_17:\n      callvalue\n      dup1\n      iszero\n      tag_103\n      jumpi\n      0x00\n      dup1\n      revert\n    tag_103:\n      pop\n      tag_104\n      tag_105\n      jump\t// in\n    tag_104:\n      mload(0x40)\n      tag_106\n      swap2\n      swap1\n      tag_53\n      jump\t// in\n    tag_106:\n      mload(0x40)\n      dup1\n      swap2\n      sub\n      swap1\n      return\n        /* \"trading.sol\":4103:4322  function RaiseOffChainArbitration() public {... */\n    tag_18:\n      callvalue\n      dup1\n      iszero\n      tag_107\n      jumpi\n      0x00\n      dup1\n      revert\n    tag_107:\n      pop\n      tag_108\n      tag_109\n      jump\t// in\n    tag_108:\n      stop\n        /* \"trading.sol\":1562:1933  function challenge (bytes32 _kc, uint256 _p, uint256 _p1) payable public onlyBuyer{... */\n    tag_19:\n      tag_110\n      0x04\n      dup1\n      calldatasize\n      sub\n      dup2\n      add\n      swap1\n      tag_111\n      swap2\n      swap1\n      tag_112\n      jump\t// in\n    tag_111:\n      tag_113\n      jump\t// in\n    tag_110:\n      stop\n        /* \"trading.sol\":431:459  uint  public timeLimit = 600 */\n    tag_20:\n      callvalue\n      dup1\n      iszero\n      tag_114\n      jumpi\n      0x00\n      dup1\n      revert\n    tag_114:\n      pop\n      tag_115\n      tag_116\n      jump\t// in\n    tag_115:\n      mload(0x40)\n      tag_117\n      swap2\n      swap1\n      tag_94\n      jump\t// in\n    tag_117:\n      mload(0x40)\n      dup1\n      swap2\n      sub\n      swap1\n      return\n        /* \"trading.sol\":467:485  State public state */\n    tag_21:\n      callvalue\n      dup1\n      iszero\n      tag_118\n      jumpi\n      0x00\n      dup1\n      revert\n    tag_118:\n      pop\n      tag_119\n      tag_120\n      jump\t// in\n    tag_119:\n      mload(0x40)\n      tag_121\n      swap2\n      swap1\n      tag_122\n      jump\t// in\n    tag_121:\n      mload(0x40)\n      dup1\n      swap2\n      sub\n      swap1\n      return\n        /* \"trading.sol\":348:365  uint256 public p1 */\n    tag_22:\n      callvalue\n      dup1\n      iszero\n      tag_123\n      jumpi\n      0x00\n      dup1\n      revert\n    tag_123:\n      pop\n      tag_124\n      tag_125\n      jump\t// in\n    tag_124:\n      mload(0x40)\n      tag_126\n      swap2\n      swap1\n      tag_94\n      jump\t// in\n    tag_126:\n      mload(0x40)\n      dup1\n      swap2\n      sub\n      swap1\n      return\n        /* \"trading.sol\":99:120  uint256 public dataId */\n    tag_23:\n      callvalue\n      dup1\n      iszero\n      tag_127\n      jumpi\n      0x00\n      dup1\n      revert\n    tag_127:\n      pop\n      tag_128\n      tag_129\n      jump\t// in\n    tag_128:\n      mload(0x40)\n      tag_130\n      swap2\n      swap1\n      tag_94\n      jump\t// in\n    tag_130:\n      mload(0x40)\n      dup1\n      swap2\n      sub\n      swap1\n      return\n        /* \"trading.sol\":372:389  bytes32 public kc */\n    tag_24:\n      callvalue\n      dup1\n      iszero\n      tag_131\n      jumpi\n      0x00\n      dup1\n      revert\n    tag_131:\n      pop\n      tag_132\n      tag_133\n      jump\t// in\n    tag_132:\n      mload(0x40)\n      tag_134\n      swap2\n      swap1\n      tag_53\n      jump\t// in\n    tag_134:\n      mload(0x40)\n      dup1\n      swap2\n      sub\n      swap1\n      return\n        /* \"trading.sol\":5271:5412  function sha2562(bytes32 key, bytes32 message) public pure returns (bytes32) {... */\n    tag_25:\n      callvalue\n      dup1\n      iszero\n      tag_135\n      jumpi\n      0x00\n      dup1\n      revert\n    tag_135:\n      pop\n      tag_136\n      0x04\n      dup1\n      calldatasize\n      sub\n      dup2\n      add\n      swap1\n      tag_137\n      swap2\n      swap1\n      tag_82\n      jump\t// in\n    tag_137:\n      tag_138\n      jump\t// in\n    tag_136:\n      mload(0x40)\n      tag_139\n      swap2\n      swap1\n      tag_53\n      jump\t// in\n    tag_139:\n      mload(0x40)\n      dup1\n      swap2\n      sub\n      swap1\n      return\n        /* \"trading.sol\":4330:4756  function verdict(address userAddr,address winner) public onlyArbitrator{... */\n    tag_26:\n      callvalue\n      dup1\n      iszero\n      tag_140\n      jumpi\n      0x00\n      dup1\n      revert\n    tag_140:\n      pop\n      tag_141\n      0x04\n      dup1\n      calldatasize\n      sub\n      dup2\n      add\n      swap1\n      tag_142\n      swap2\n      swap1\n      tag_143\n      jump\t// in\n    tag_142:\n      tag_144\n      jump\t// in\n    tag_141:\n      stop\n        /* \"trading.sol\":2688:2965  function payleft() public payable onlyBuyer{... */\n    tag_27:\n      tag_145\n      tag_146\n      jump\t// in\n    tag_145:\n      stop\n        /* \"trading.sol\":3249:4095  function RaiseOnChainArbitration(bytes32 index, bytes32 _committedSubKey, bytes32[] memory _merkleTreePath) public  returns (string memory)   {... */\n    tag_37:\n        /* \"trading.sol\":3374:3387  string memory */\n      0x60\n        /* \"trading.sol\":3402:3424  bytes32 computedSubkey */\n      0x00\n        /* \"trading.sol\":3427:3442  hmac(mk, index) */\n      tag_148\n        /* \"trading.sol\":3432:3434  mk */\n      sload(0x07)\n        /* \"trading.sol\":3436:3441  index */\n      dup7\n        /* \"trading.sol\":3427:3431  hmac */\n      tag_83\n        /* \"trading.sol\":3427:3442  hmac(mk, index) */\n      jump\t// in\n    tag_148:\n        /* \"trading.sol\":3402:3442  bytes32 computedSubkey = hmac(mk, index) */\n      swap1\n      pop\n        /* \"trading.sol\":3453:3474  bytes32 committedNode */\n      0x00\n        /* \"trading.sol\":3507:3523  _committedSubKey */\n      dup5\n        /* \"trading.sol\":3489:3503  computedSubkey */\n      dup3\n        /* \"trading.sol\":3489:3523  computedSubkey != _committedSubKey */\n      eq\n        /* \"trading.sol\":3485:4068  if (computedSubkey != _committedSubKey){... */\n      tag_149\n      jumpi\n        /* \"trading.sol\":3576:3592  _committedSubKey */\n      dup5\n        /* \"trading.sol\":3565:3593  abi.encode(_committedSubKey) */\n      add(0x20, mload(0x40))\n      tag_150\n      swap2\n      swap1\n      tag_53\n      jump\t// in\n    tag_150:\n      mload(0x40)\n      0x20\n      dup2\n      dup4\n      sub\n      sub\n      dup2\n      mstore\n      swap1\n      0x40\n      mstore\n        /* \"trading.sol\":3555:3594  keccak256(abi.encode(_committedSubKey)) */\n      dup1\n      mload\n      swap1\n      0x20\n      add\n      keccak256\n        /* \"trading.sol\":3539:3594  committedNode = keccak256(abi.encode(_committedSubKey)) */\n      swap1\n      pop\n        /* \"trading.sol\":3614:3620  uint i */\n      0x00\n        /* \"trading.sol\":3609:3733  for (uint i = 0; i < depth_2; i++)... */\n    tag_151:\n        /* \"trading.sol\":3630:3637  depth_2 */\n      sload(0x06)\n        /* \"trading.sol\":3626:3627  i */\n      dup2\n        /* \"trading.sol\":3626:3637  i < depth_2 */\n      lt\n        /* \"trading.sol\":3609:3733  for (uint i = 0; i < depth_2; i++)... */\n      iszero\n      tag_152\n      jumpi\n        /* \"trading.sol\":3698:3711  committedNode */\n      dup2\n        /* \"trading.sol\":3713:3728  _merkleTreePath */\n      dup6\n        /* \"trading.sol\":3729:3730  i */\n      dup3\n        /* \"trading.sol\":3713:3731  _merkleTreePath[i] */\n      dup2\n      mload\n      dup2\n      lt\n      tag_154\n      jumpi\n      tag_155\n      tag_156\n      jump\t// in\n    tag_155:\n    tag_154:\n      0x20\n      mul\n      0x20\n      add\n      add\n      mload\n        /* \"trading.sol\":3687:3732  abi.encode(committedNode, _merkleTreePath[i]) */\n      add(0x20, mload(0x40))\n      tag_157\n      swap3\n      swap2\n      swap1\n      tag_158\n      jump\t// in\n    tag_157:\n      mload(0x40)\n      0x20\n      dup2\n      dup4\n      sub\n      sub\n      dup2\n      mstore\n      swap1\n      0x40\n      mstore\n        /* \"trading.sol\":3677:3733  keccak256(abi.encode(committedNode, _merkleTreePath[i])) */\n      dup1\n      mload\n      swap1\n      0x20\n      add\n      keccak256\n        /* \"trading.sol\":3661:3733  committedNode = keccak256(abi.encode(committedNode, _merkleTreePath[i])) */\n      swap2\n      pop\n        /* \"trading.sol\":3639:3642  i++ */\n      dup1\n      dup1\n      tag_159\n      swap1\n      tag_160\n      jump\t// in\n    tag_159:\n      swap2\n      pop\n      pop\n        /* \"trading.sol\":3609:3733  for (uint i = 0; i < depth_2; i++)... */\n      jump(tag_151)\n    tag_152:\n      pop\n        /* \"trading.sol\":3769:3776  delta_2 */\n      sload(0x05)\n        /* \"trading.sol\":3752:3765  committedNode */\n      dup2\n        /* \"trading.sol\":3752:3776  committedNode == delta_2 */\n      sub\n        /* \"trading.sol\":3748:4058  if (committedNode == delta_2)... */\n      tag_161\n      jumpi\n        /* \"trading.sol\":3818:3828  msg.sender */\n      caller\n        /* \"trading.sol\":3810:3838  payable(msg.sender).transfer */\n      0xffffffffffffffffffffffffffffffffffffffff\n      and\n        /* \"trading.sol\":3810:3842  payable(msg.sender).transfer(10) */\n      0x08fc\n        /* \"trading.sol\":3839:3841  10 */\n      0x0a\n        /* \"trading.sol\":3810:3842  payable(msg.sender).transfer(10) */\n      swap1\n      dup2\n      iszero\n      mul\n      swap1\n      mload(0x40)\n      0x00\n      mload(0x40)\n      dup1\n      dup4\n      sub\n      dup2\n      dup6\n      dup9\n      dup9\n      call\n      swap4\n      pop\n      pop\n      pop\n      pop\n      iszero\n      dup1\n      iszero\n      tag_163\n      jumpi\n      returndatasize\n      0x00\n      dup1\n      returndatacopy\n      revert(0x00, returndatasize)\n    tag_163:\n      pop\n        /* \"trading.sol\":3869:3879  State.done */\n      0x09\n        /* \"trading.sol\":3861:3866  state */\n      0x0d\n      0x00\n        /* \"trading.sol\":3861:3879  state = State.done */\n      0x0100\n      exp\n      dup2\n      sload\n      dup2\n      0xff\n      mul\n      not\n      and\n      swap1\n      dup4\n      0x09\n      dup2\n      gt\n      iszero\n      tag_164\n      jumpi\n      tag_165\n      tag_166\n      jump\t// in\n    tag_165:\n    tag_164:\n      mul\n      or\n      swap1\n      sstore\n      pop\n        /* \"trading.sol\":3898:3908  return \"1\" */\n      mload(0x40)\n      dup1\n      0x40\n      add\n      0x40\n      mstore\n      dup1\n      0x01\n      dup2\n      mstore\n      0x20\n      add\n      0x3100000000000000000000000000000000000000000000000000000000000000\n      dup2\n      mstore\n      pop\n      swap3\n      pop\n      pop\n      pop\n      jump(tag_147)\n        /* \"trading.sol\":3748:4058  if (committedNode == delta_2)... */\n    tag_161:\n        /* \"trading.sol\":3956:3962  seller */\n      0x01\n      0x00\n      swap1\n      sload\n      swap1\n      0x0100\n      exp\n      swap1\n      div\n      0xffffffffffffffffffffffffffffffffffffffff\n      and\n        /* \"trading.sol\":3948:3972  payable(seller).transfer */\n      0xffffffffffffffffffffffffffffffffffffffff\n      and\n        /* \"trading.sol\":3948:3976  payable(seller).transfer(10) */\n      0x08fc\n        /* \"trading.sol\":3973:3975  10 */\n      0x0a\n        /* \"trading.sol\":3948:3976  payable(seller).transfer(10) */\n      swap1\n      dup2\n      iszero\n      mul\n      swap1\n      mload(0x40)\n      0x00\n      mload(0x40)\n      dup1\n      dup4\n      sub\n      dup2\n      dup6\n      dup9\n      dup9\n      call\n      swap4\n      pop\n      pop\n      pop\n      pop\n      iszero\n      dup1\n      iszero\n      tag_169\n      jumpi\n      returndatasize\n      0x00\n      dup1\n      returndatacopy\n      revert(0x00, returndatasize)\n    tag_169:\n      pop\n        /* \"trading.sol\":4003:4013  State.done */\n      0x09\n        /* \"trading.sol\":3995:4000  state */\n      0x0d\n      0x00\n        /* \"trading.sol\":3995:4013  state = State.done */\n      0x0100\n      exp\n      dup2\n      sload\n      dup2\n      0xff\n      mul\n      not\n      and\n      swap1\n      dup4\n      0x09\n      dup2\n      gt\n      iszero\n      tag_170\n      jumpi\n      tag_171\n      tag_166\n      jump\t// in\n    tag_171:\n    tag_170:\n      mul\n      or\n      swap1\n      sstore\n      pop\n        /* \"trading.sol\":4032:4042  return \"2\" */\n      mload(0x40)\n      dup1\n      0x40\n      add\n      0x40\n      mstore\n      dup1\n      0x01\n      dup2\n      mstore\n      0x20\n      add\n      0x3200000000000000000000000000000000000000000000000000000000000000\n      dup2\n      mstore\n      pop\n      swap3\n      pop\n      pop\n      pop\n      jump(tag_147)\n        /* \"trading.sol\":3485:4068  if (computedSubkey != _committedSubKey){... */\n    tag_149:\n        /* \"trading.sol\":4077:4087  return \"3\" */\n      mload(0x40)\n      dup1\n      0x40\n      add\n      0x40\n      mstore\n      dup1\n      0x01\n      dup2\n      mstore\n      0x20\n      add\n      0x3300000000000000000000000000000000000000000000000000000000000000\n      dup2\n      mstore\n      pop\n      swap3\n      pop\n      pop\n      pop\n        /* \"trading.sol\":3249:4095  function RaiseOnChainArbitration(bytes32 index, bytes32 _committedSubKey, bytes32[] memory _merkleTreePath) public  returns (string memory)   {... */\n    tag_147:\n      swap4\n      swap3\n      pop\n      pop\n      pop\n      jump\t// out\n        /* \"trading.sol\":1943:2292  function response (bytes32 _delta_2, uint256 _depth_2) payable public {... */\n    tag_43:\n        /* \"trading.sol\":2040:2055  State.challenge */\n      0x02\n        /* \"trading.sol\":2031:2055  state == State.challenge */\n      0x09\n      dup2\n      gt\n      iszero\n      tag_173\n      jumpi\n      tag_174\n      tag_166\n      jump\t// in\n    tag_174:\n    tag_173:\n        /* \"trading.sol\":2031:2036  state */\n      0x0d\n      0x00\n      swap1\n      sload\n      swap1\n      0x0100\n      exp\n      swap1\n      div\n      0xff\n      and\n        /* \"trading.sol\":2031:2055  state == State.challenge */\n      0x09\n      dup2\n      gt\n      iszero\n      tag_175\n      jumpi\n      tag_176\n      tag_166\n      jump\t// in\n    tag_176:\n    tag_175:\n      eq\n        /* \"trading.sol\":2023:2056  require(state == State.challenge) */\n      tag_177\n      jumpi\n      0x00\n      dup1\n      revert\n    tag_177:\n        /* \"trading.sol\":2102:2117  block.timestamp */\n      timestamp\n        /* \"trading.sol\":2090:2099  timeLimit */\n      sload(0x0c)\n        /* \"trading.sol\":2074:2087  opreationtime */\n      sload(0x0b)\n        /* \"trading.sol\":2074:2099  opreationtime + timeLimit */\n      tag_178\n      swap2\n      swap1\n      tag_179\n      jump\t// in\n    tag_178:\n        /* \"trading.sol\":2074:2117  opreationtime + timeLimit > block.timestamp */\n      gt\n        /* \"trading.sol\":2066:2144  require(opreationtime + timeLimit > block.timestamp, \"Responde time is over \") */\n      tag_180\n      jumpi\n      mload(0x40)\n      0x08c379a000000000000000000000000000000000000000000000000000000000\n      dup2\n      mstore\n      0x04\n      add\n      tag_181\n      swap1\n      tag_182\n      jump\t// in\n    tag_181:\n      mload(0x40)\n      dup1\n      swap2\n      sub\n      swap1\n      revert\n    tag_180:\n        /* \"trading.sol\":2165:2173  _delta_2 */\n      dup2\n        /* \"trading.sol\":2155:2162  delta_2 */\n      0x05\n        /* \"trading.sol\":2155:2173  delta_2 = _delta_2 */\n      dup2\n      swap1\n      sstore\n      pop\n        /* \"trading.sol\":2194:2202  _depth_2 */\n      dup1\n        /* \"trading.sol\":2184:2191  depth_2 */\n      0x06\n        /* \"trading.sol\":2184:2202  depth_2 = _depth_2 */\n      dup2\n      swap1\n      sstore\n      pop\n        /* \"trading.sol\":2221:2235  State.response */\n      0x03\n        /* \"trading.sol\":2213:2218  state */\n      0x0d\n      0x00\n        /* \"trading.sol\":2213:2235  state = State.response */\n      0x0100\n      exp\n      dup2\n      sload\n      dup2\n      0xff\n      mul\n      not\n      and\n      swap1\n      dup4\n      0x09\n      dup2\n      gt\n      iszero\n      tag_183\n      jumpi\n      tag_184\n      tag_166\n      jump\t// in\n    tag_184:\n    tag_183:\n      mul\n      or\n      swap1\n      sstore\n      pop\n        /* \"trading.sol\":2251:2284  respondeEvent(_delta_2, _depth_2) */\n      0x8367cc6ba01f36350b0d5f1caaa3afa155152dac000940ae82cd327bfa0bc827\n        /* \"trading.sol\":2265:2273  _delta_2 */\n      dup3\n        /* \"trading.sol\":2275:2283  _depth_2 */\n      dup3\n        /* \"trading.sol\":2251:2284  respondeEvent(_delta_2, _depth_2) */\n      mload(0x40)\n      tag_185\n      swap3\n      swap2\n      swap1\n      tag_186\n      jump\t// in\n    tag_185:\n      mload(0x40)\n      dup1\n      swap2\n      sub\n      swap1\n      log1\n        /* \"trading.sol\":1943:2292  function response (bytes32 _delta_2, uint256 _depth_2) payable public {... */\n      pop\n      pop\n      jump\t// out\n        /* \"trading.sol\":127:148  address public seller */\n    tag_46:\n      0x01\n      0x00\n      swap1\n      sload\n      swap1\n      0x0100\n      exp\n      swap1\n      div\n      0xffffffffffffffffffffffffffffffffffffffff\n      and\n      dup2\n      jump\t// out\n        /* \"trading.sol\":301:318  bytes32 public mk */\n    tag_51:\n      sload(0x07)\n      dup2\n      jump\t// out\n        /* \"trading.sol\":2323:2672  function buyerRefund() public {... */\n    tag_56:\n        /* \"trading.sol\":2410:2425  State.challenge */\n      0x02\n        /* \"trading.sol\":2401:2425  state == State.challenge */\n      0x09\n      dup2\n      gt\n      iszero\n      tag_188\n      jumpi\n      tag_189\n      tag_166\n      jump\t// in\n    tag_189:\n    tag_188:\n        /* \"trading.sol\":2401:2406  state */\n      0x0d\n      0x00\n      swap1\n      sload\n      swap1\n      0x0100\n      exp\n      swap1\n      div\n      0xff\n      and\n        /* \"trading.sol\":2401:2425  state == State.challenge */\n      0x09\n      dup2\n      gt\n      iszero\n      tag_190\n      jumpi\n      tag_191\n      tag_166\n      jump\t// in\n    tag_191:\n    tag_190:\n      eq\n        /* \"trading.sol\":2393:2426  require(state == State.challenge) */\n      tag_192\n      jumpi\n      0x00\n      dup1\n      revert\n    tag_192:\n        /* \"trading.sol\":2498:2513  block.timestamp */\n      timestamp\n        /* \"trading.sol\":2486:2495  timeLimit */\n      sload(0x0c)\n        /* \"trading.sol\":2470:2483  opreationtime */\n      sload(0x0b)\n        /* \"trading.sol\":2470:2495  opreationtime + timeLimit */\n      tag_193\n      swap2\n      swap1\n      tag_179\n      jump\t// in\n    tag_193:\n        /* \"trading.sol\":2470:2513  opreationtime + timeLimit > block.timestamp */\n      gt\n        /* \"trading.sol\":2462:2548  require(opreationtime + timeLimit > block.timestamp, \"Operation time is not over yet\") */\n      tag_194\n      jumpi\n      mload(0x40)\n      0x08c379a000000000000000000000000000000000000000000000000000000000\n      dup2\n      mstore\n      0x04\n      add\n      tag_195\n      swap1\n      tag_196\n      jump\t// in\n    tag_195:\n      mload(0x40)\n      dup1\n      swap2\n      sub\n      swap1\n      revert\n    tag_194:\n        /* \"trading.sol\":2567:2577  msg.sender */\n      caller\n        /* \"trading.sol\":2559:2587  payable(msg.sender).transfer */\n      0xffffffffffffffffffffffffffffffffffffffff\n      and\n        /* \"trading.sol\":2559:2591  payable(msg.sender).transfer(p1) */\n      0x08fc\n        /* \"trading.sol\":2588:2590  p1 */\n      sload(0x09)\n        /* \"trading.sol\":2559:2591  payable(msg.sender).transfer(p1) */\n      swap1\n      dup2\n      iszero\n      mul\n      swap1\n      mload(0x40)\n      0x00\n      mload(0x40)\n      dup1\n      dup4\n      sub\n      dup2\n      dup6\n      dup9\n      dup9\n      call\n      swap4\n      pop\n      pop\n      pop\n      pop\n      iszero\n      dup1\n      iszero\n      tag_198\n      jumpi\n      returndatasize\n      0x00\n      dup1\n      returndatacopy\n      revert(0x00, returndatasize)\n    tag_198:\n      pop\n        /* \"trading.sol\":2610:2620  State.done */\n      0x09\n        /* \"trading.sol\":2602:2607  state */\n      0x0d\n      0x00\n        /* \"trading.sol\":2602:2620  state = State.done */\n      0x0100\n      exp\n      dup2\n      sload\n      dup2\n      0xff\n      mul\n      not\n      and\n      swap1\n      dup4\n      0x09\n      dup2\n      gt\n      iszero\n      tag_199\n      jumpi\n      tag_200\n      tag_166\n      jump\t// in\n    tag_200:\n    tag_199:\n      mul\n      or\n      swap1\n      sstore\n      pop\n        /* \"trading.sol\":2636:2664  buyerRefundEvent(msg.sender) */\n      0xafc3b014386561494c2478b62a479f4a42dbcb4ef28845094d473410b972d6d5\n        /* \"trading.sol\":2653:2663  msg.sender */\n      caller\n        /* \"trading.sol\":2636:2664  buyerRefundEvent(msg.sender) */\n      mload(0x40)\n      tag_201\n      swap2\n      swap1\n      tag_48\n      jump\t// in\n    tag_201:\n      mload(0x40)\n      dup1\n      swap2\n      sub\n      swap1\n      log1\n        /* \"trading.sol\":2323:2672  function buyerRefund() public {... */\n      jump\t// out\n        /* \"trading.sol\":243:265  bytes32 public delta_2 */\n    tag_59:\n      sload(0x05)\n      dup2\n      jump\t// out\n        /* \"trading.sol\":1308:1554  function commitData (uint256 id, bytes32 _delta_1) public onlySeller {... */\n    tag_65:\n        /* \"trading.sol\":5471:5477  seller */\n      0x01\n      0x00\n      swap1\n      sload\n      swap1\n      0x0100\n      exp\n      swap1\n      div\n      0xffffffffffffffffffffffffffffffffffffffff\n      and\n        /* \"trading.sol\":5457:5477  msg.sender == seller */\n      0xffffffffffffffffffffffffffffffffffffffff\n      and\n        /* \"trading.sol\":5457:5467  msg.sender */\n      caller\n        /* \"trading.sol\":5457:5477  msg.sender == seller */\n      0xffffffffffffffffffffffffffffffffffffffff\n      and\n      eq\n        /* \"trading.sol\":5449:5478  require(msg.sender == seller) */\n      tag_203\n      jumpi\n      0x00\n      dup1\n      revert\n    tag_203:\n        /* \"trading.sol\":1404:1415  State.start */\n      0x00\n        /* \"trading.sol\":1395:1415  state == State.start */\n      0x09\n      dup2\n      gt\n      iszero\n      tag_205\n      jumpi\n      tag_206\n      tag_166\n      jump\t// in\n    tag_206:\n    tag_205:\n        /* \"trading.sol\":1395:1400  state */\n      0x0d\n      0x00\n      swap1\n      sload\n      swap1\n      0x0100\n      exp\n      swap1\n      div\n      0xff\n      and\n        /* \"trading.sol\":1395:1415  state == State.start */\n      0x09\n      dup2\n      gt\n      iszero\n      tag_207\n      jumpi\n      tag_208\n      tag_166\n      jump\t// in\n    tag_208:\n    tag_207:\n      eq\n        /* \"trading.sol\":1387:1416  require(state == State.start) */\n      tag_209\n      jumpi\n      0x00\n      dup1\n      revert\n    tag_209:\n        /* \"trading.sol\":1436:1438  id */\n      dup2\n        /* \"trading.sol\":1427:1433  dataId */\n      0x00\n        /* \"trading.sol\":1427:1438  dataId = id */\n      dup2\n      swap1\n      sstore\n      pop\n        /* \"trading.sol\":1459:1467  _delta_1 */\n      dup1\n        /* \"trading.sol\":1449:1456  delta_1 */\n      0x04\n        /* \"trading.sol\":1449:1467  delta_1 = _delta_1 */\n      dup2\n      swap1\n      sstore\n      pop\n        /* \"trading.sol\":1486:1502  State.commitData */\n      0x01\n        /* \"trading.sol\":1478:1483  state */\n      0x0d\n      0x00\n        /* \"trading.sol\":1478:1502  state = State.commitData */\n      0x0100\n      exp\n      dup2\n      sload\n      dup2\n      0xff\n      mul\n      not\n      and\n      swap1\n      dup4\n      0x09\n      dup2\n      gt\n      iszero\n      tag_210\n      jumpi\n      tag_211\n      tag_166\n      jump\t// in\n    tag_211:\n    tag_210:\n      mul\n      or\n      swap1\n      sstore\n      pop\n        /* \"trading.sol\":1518:1546  commitDataEvent(id, delta_1) */\n      0xcb894139878da1d74d95c1725159680c62225fbee97f6af6f79589b5b3115226\n        /* \"trading.sol\":1534:1536  id */\n      dup3\n        /* \"trading.sol\":1538:1545  delta_1 */\n      sload(0x04)\n        /* \"trading.sol\":1518:1546  commitDataEvent(id, delta_1) */\n      mload(0x40)\n      tag_212\n      swap3\n      swap2\n      swap1\n      tag_213\n      jump\t// in\n    tag_212:\n      mload(0x40)\n      dup1\n      swap2\n      sub\n      swap1\n      log1\n        /* \"trading.sol\":1308:1554  function commitData (uint256 id, bytes32 _delta_1) public onlySeller {... */\n      pop\n      pop\n      jump\t// out\n        /* \"trading.sol\":155:180  address public arbitrator */\n    tag_68:\n      0x02\n      0x00\n      swap1\n      sload\n      swap1\n      0x0100\n      exp\n      swap1\n      div\n      0xffffffffffffffffffffffffffffffffffffffff\n      and\n      dup2\n      jump\t// out\n        /* \"trading.sol\":2977:3215  function releaseMasterkey(bytes32 _mk) public onlySeller {... */\n    tag_74:\n        /* \"trading.sol\":5471:5477  seller */\n      0x01\n      0x00\n      swap1\n      sload\n      swap1\n      0x0100\n      exp\n      swap1\n      div\n      0xffffffffffffffffffffffffffffffffffffffff\n      and\n        /* \"trading.sol\":5457:5477  msg.sender == seller */\n      0xffffffffffffffffffffffffffffffffffffffff\n      and\n        /* \"trading.sol\":5457:5467  msg.sender */\n      caller\n        /* \"trading.sol\":5457:5477  msg.sender == seller */\n      0xffffffffffffffffffffffffffffffffffffffff\n      and\n      eq\n        /* \"trading.sol\":5449:5478  require(msg.sender == seller) */\n      tag_215\n      jumpi\n      0x00\n      dup1\n      revert\n    tag_215:\n        /* \"trading.sol\":3092:3105  State.payleft */\n      0x04\n        /* \"trading.sol\":3083:3105  state == State.payleft */\n      0x09\n      dup2\n      gt\n      iszero\n      tag_217\n      jumpi\n      tag_218\n      tag_166\n      jump\t// in\n    tag_218:\n    tag_217:\n        /* \"trading.sol\":3083:3088  state */\n      0x0d\n      0x00\n      swap1\n      sload\n      swap1\n      0x0100\n      exp\n      swap1\n      div\n      0xff\n      and\n        /* \"trading.sol\":3083:3105  state == State.payleft */\n      0x09\n      dup2\n      gt\n      iszero\n      tag_219\n      jumpi\n      tag_220\n      tag_166\n      jump\t// in\n    tag_220:\n    tag_219:\n      eq\n        /* \"trading.sol\":3075:3106  require(state == State.payleft) */\n      tag_221\n      jumpi\n      0x00\n      dup1\n      revert\n    tag_221:\n        /* \"trading.sol\":3122:3125  _mk */\n      dup1\n        /* \"trading.sol\":3117:3119  mk */\n      0x07\n        /* \"trading.sol\":3117:3125  mk = _mk */\n      dup2\n      swap1\n      sstore\n      pop\n        /* \"trading.sol\":3144:3166  State.releaseMasterkey */\n      0x07\n        /* \"trading.sol\":3136:3141  state */\n      0x0d\n      0x00\n        /* \"trading.sol\":3136:3166  state = State.releaseMasterkey */\n      0x0100\n      exp\n      dup2\n      sload\n      dup2\n      0xff\n      mul\n      not\n      and\n      swap1\n      dup4\n      0x09\n      dup2\n      gt\n      iszero\n      tag_222\n      jumpi\n      tag_223\n      tag_166\n      jump\t// in\n    tag_223:\n    tag_222:\n      mul\n      or\n      swap1\n      sstore\n      pop\n        /* \"trading.sol\":3182:3207  releaseMasterkeyEvent(mk) */\n      0x59e2b1bea451053289971062b187c027a0f841853f70e131a5a9f22b05cd44f8\n        /* \"trading.sol\":3204:3206  mk */\n      sload(0x07)\n        /* \"trading.sol\":3182:3207  releaseMasterkeyEvent(mk) */\n      mload(0x40)\n      tag_224\n      swap2\n      swap1\n      tag_53\n      jump\t// in\n    tag_224:\n      mload(0x40)\n      dup1\n      swap2\n      sub\n      swap1\n      log1\n        /* \"trading.sol\":2977:3215  function releaseMasterkey(bytes32 _mk) public onlySeller {... */\n      pop\n      jump\t// out\n        /* \"trading.sol\":187:207  address public buyer */\n    tag_77:\n      0x03\n      0x00\n      swap1\n      sload\n      swap1\n      0x0100\n      exp\n      swap1\n      div\n      0xffffffffffffffffffffffffffffffffffffffff\n      and\n      dup2\n      jump\t// out\n        /* \"trading.sol\":4764:5131  function hmac(bytes32 key, bytes32 message) public pure returns (bytes32) {... */\n    tag_83:\n        /* \"trading.sol\":4829:4836  bytes32 */\n      0x00\n        /* \"trading.sol\":4849:4862  bytes32  opad */\n      dup1\n        /* \"trading.sol\":4865:4931  0x5c5c5c5c5c5c5c5c5c5c5c5c5c5c5c5c5c5c5c5c5c5c5c5c5c5c5c5c5c5c5c5c */\n      0x5c5c5c5c5c5c5c5c5c5c5c5c5c5c5c5c5c5c5c5c5c5c5c5c5c5c5c5c5c5c5c5c\n        /* \"trading.sol\":4849:4931  bytes32  opad = 0x5c5c5c5c5c5c5c5c5c5c5c5c5c5c5c5c5c5c5c5c5c5c5c5c5c5c5c5c5c5c5c5c */\n      0x00\n      shl\n      swap1\n      pop\n        /* \"trading.sol\":4942:4955  bytes32  ipad */\n      0x00\n        /* \"trading.sol\":4958:5024  0x3636363636363636363636363636363636363636363636363636363636363636 */\n      0x3636363636363636363636363636363636363636363636363636363636363636\n        /* \"trading.sol\":4942:5024  bytes32  ipad = 0x3636363636363636363636363636363636363636363636363636363636363636 */\n      0x00\n      shl\n      swap1\n      pop\n        /* \"trading.sol\":5035:5048  bytes32 inner */\n      0x00\n        /* \"trading.sol\":5051:5079  sha2562(key ^ ipad, message) */\n      tag_226\n        /* \"trading.sol\":5065:5069  ipad */\n      dup3\n        /* \"trading.sol\":5059:5062  key */\n      dup8\n        /* \"trading.sol\":5059:5069  key ^ ipad */\n      xor\n        /* \"trading.sol\":5071:5078  message */\n      dup7\n        /* \"trading.sol\":5051:5058  sha2562 */\n      tag_138\n        /* \"trading.sol\":5051:5079  sha2562(key ^ ipad, message) */\n      jump\t// in\n    tag_226:\n        /* \"trading.sol\":5035:5079  bytes32 inner = sha2562(key ^ ipad, message) */\n      swap1\n      pop\n        /* \"trading.sol\":5097:5123  sha2562(key ^ opad, inner) */\n      tag_227\n        /* \"trading.sol\":5111:5115  opad */\n      dup4\n        /* \"trading.sol\":5105:5108  key */\n      dup8\n        /* \"trading.sol\":5105:5115  key ^ opad */\n      xor\n        /* \"trading.sol\":5117:5122  inner */\n      dup3\n        /* \"trading.sol\":5097:5104  sha2562 */\n      tag_138\n        /* \"trading.sol\":5097:5123  sha2562(key ^ opad, inner) */\n      jump\t// in\n    tag_227:\n        /* \"trading.sol\":5090:5123  return sha2562(key ^ opad, inner) */\n      swap4\n      pop\n      pop\n      pop\n      pop\n        /* \"trading.sol\":4764:5131  function hmac(bytes32 key, bytes32 message) public pure returns (bytes32) {... */\n      swap3\n      swap2\n      pop\n      pop\n      jump\t// out\n        /* \"trading.sol\":5149:5265  function test256(bytes32 key)public pure returns (bytes32) {... */\n    tag_88:\n        /* \"trading.sol\":5199:5206  bytes32 */\n      0x00\n        /* \"trading.sol\":5226:5255  sha256(abi.encodePacked(key)) */\n      0x02\n        /* \"trading.sol\":5250:5253  key */\n      dup3\n        /* \"trading.sol\":5233:5254  abi.encodePacked(key) */\n      add(0x20, mload(0x40))\n      tag_229\n      swap2\n      swap1\n      tag_230\n      jump\t// in\n    tag_229:\n      mload(0x40)\n      0x20\n      dup2\n      dup4\n      sub\n      sub\n      dup2\n      mstore\n      swap1\n      0x40\n      mstore\n        /* \"trading.sol\":5226:5255  sha256(abi.encodePacked(key)) */\n      mload(0x40)\n      tag_231\n      swap2\n      swap1\n      tag_232\n      jump\t// in\n    tag_231:\n      0x20\n      mload(0x40)\n      dup1\n      dup4\n      sub\n      dup2\n      dup6\n      gas\n      staticcall\n      iszero\n      dup1\n      iszero\n      tag_234\n      jumpi\n      returndatasize\n      0x00\n      dup1\n      returndatacopy\n      revert(0x00, returndatasize)\n    tag_234:\n      pop\n      pop\n      pop\n      mload(0x40)\n      returndatasize\n      not(0x1f)\n      0x1f\n      dup3\n      add\n      and\n      dup3\n      add\n      dup1\n      0x40\n      mstore\n      pop\n      dup2\n      add\n      swap1\n      tag_235\n      swap2\n      swap1\n      tag_236\n      jump\t// in\n    tag_235:\n        /* \"trading.sol\":5219:5255  return sha256(abi.encodePacked(key)) */\n      swap1\n      pop\n        /* \"trading.sol\":5149:5265  function test256(bytes32 key)public pure returns (bytes32) {... */\n      swap2\n      swap1\n      pop\n      jump\t// out\n        /* \"trading.sol\":272:294  uint256 public depth_2 */\n    tag_92:\n      sload(0x06)\n      dup2\n      jump\t// out\n        /* \"trading.sol\":396:424  uint256 public opreationtime */\n    tag_97:\n      sload(0x0b)\n      dup2\n      jump\t// out\n        /* \"trading.sol\":325:341  uint256 public p */\n    tag_101:\n      sload(0x08)\n      dup2\n      jump\t// out\n        /* \"trading.sol\":214:236  bytes32 public delta_1 */\n    tag_105:\n      sload(0x04)\n      dup2\n      jump\t// out\n        /* \"trading.sol\":4103:4322  function RaiseOffChainArbitration() public {... */\n    tag_109:\n        /* \"trading.sol\":4204:4226  State.ReleaseSampleKey */\n      0x05\n        /* \"trading.sol\":4195:4226  state != State.ReleaseSampleKey */\n      0x09\n      dup2\n      gt\n      iszero\n      tag_238\n      jumpi\n      tag_239\n      tag_166\n      jump\t// in\n    tag_239:\n    tag_238:\n        /* \"trading.sol\":4195:4200  state */\n      0x0d\n      0x00\n      swap1\n      sload\n      swap1\n      0x0100\n      exp\n      swap1\n      div\n      0xff\n      and\n        /* \"trading.sol\":4195:4226  state != State.ReleaseSampleKey */\n      0x09\n      dup2\n      gt\n      iszero\n      tag_240\n      jumpi\n      tag_241\n      tag_166\n      jump\t// in\n    tag_241:\n    tag_240:\n      sub\n        /* \"trading.sol\":4187:4227  require(state != State.ReleaseSampleKey) */\n      tag_242\n      jumpi\n      0x00\n      dup1\n      revert\n    tag_242:\n        /* \"trading.sol\":4246:4259  State.dispute */\n      0x08\n        /* \"trading.sol\":4238:4243  state */\n      0x0d\n      0x00\n        /* \"trading.sol\":4238:4259  state = State.dispute */\n      0x0100\n      exp\n      dup2\n      sload\n      dup2\n      0xff\n      mul\n      not\n      and\n      swap1\n      dup4\n      0x09\n      dup2\n      gt\n      iszero\n      tag_243\n      jumpi\n      tag_244\n      tag_166\n      jump\t// in\n    tag_244:\n    tag_243:\n      mul\n      or\n      swap1\n      sstore\n      pop\n        /* \"trading.sol\":4276:4314  initiationArbitrationEvent(msg.sender) */\n      0xeba0cf817c79f44ba4b1b99c7427f42d3a02d972d102ab5e5c0173eee44c3402\n        /* \"trading.sol\":4303:4313  msg.sender */\n      caller\n        /* \"trading.sol\":4276:4314  initiationArbitrationEvent(msg.sender) */\n      mload(0x40)\n      tag_245\n      swap2\n      swap1\n      tag_48\n      jump\t// in\n    tag_245:\n      mload(0x40)\n      dup1\n      swap2\n      sub\n      swap1\n      log1\n        /* \"trading.sol\":4103:4322  function RaiseOffChainArbitration() public {... */\n      jump\t// out\n        /* \"trading.sol\":1562:1933  function challenge (bytes32 _kc, uint256 _p, uint256 _p1) payable public onlyBuyer{... */\n    tag_113:\n        /* \"trading.sol\":5556:5561  buyer */\n      0x03\n      0x00\n      swap1\n      sload\n      swap1\n      0x0100\n      exp\n      swap1\n      div\n      0xffffffffffffffffffffffffffffffffffffffff\n      and\n        /* \"trading.sol\":5542:5561  msg.sender == buyer */\n      0xffffffffffffffffffffffffffffffffffffffff\n      and\n        /* \"trading.sol\":5542:5552  msg.sender */\n      caller\n        /* \"trading.sol\":5542:5561  msg.sender == buyer */\n      0xffffffffffffffffffffffffffffffffffffffff\n      and\n      eq\n        /* \"trading.sol\":5534:5562  require(msg.sender == buyer) */\n      tag_247\n      jumpi\n      0x00\n      dup1\n      revert\n    tag_247:\n        /* \"trading.sol\":1672:1688  State.commitData */\n      0x01\n        /* \"trading.sol\":1663:1688  state == State.commitData */\n      0x09\n      dup2\n      gt\n      iszero\n      tag_249\n      jumpi\n      tag_250\n      tag_166\n      jump\t// in\n    tag_250:\n    tag_249:\n        /* \"trading.sol\":1663:1668  state */\n      0x0d\n      0x00\n      swap1\n      sload\n      swap1\n      0x0100\n      exp\n      swap1\n      div\n      0xff\n      and\n        /* \"trading.sol\":1663:1688  state == State.commitData */\n      0x09\n      dup2\n      gt\n      iszero\n      tag_251\n      jumpi\n      tag_252\n      tag_166\n      jump\t// in\n    tag_252:\n    tag_251:\n      eq\n        /* \"trading.sol\":1655:1689  require(state == State.commitData) */\n      tag_253\n      jumpi\n      0x00\n      dup1\n      revert\n    tag_253:\n        /* \"trading.sol\":1746:1749  _p1 */\n      dup1\n        /* \"trading.sol\":1733:1742  msg.value */\n      callvalue\n        /* \"trading.sol\":1733:1749  msg.value == _p1 */\n      eq\n        /* \"trading.sol\":1725:1750  require(msg.value == _p1) */\n      tag_254\n      jumpi\n      0x00\n      dup1\n      revert\n    tag_254:\n        /* \"trading.sol\":1766:1769  _kc */\n      dup3\n        /* \"trading.sol\":1761:1763  kc */\n      0x0a\n        /* \"trading.sol\":1761:1769  kc = _kc */\n      dup2\n      swap1\n      sstore\n      pop\n        /* \"trading.sol\":1784:1786  _p */\n      dup2\n        /* \"trading.sol\":1780:1781  p */\n      0x08\n        /* \"trading.sol\":1780:1786  p = _p */\n      dup2\n      swap1\n      sstore\n      pop\n        /* \"trading.sol\":1802:1805  _p1 */\n      dup1\n        /* \"trading.sol\":1797:1799  p1 */\n      0x09\n        /* \"trading.sol\":1797:1805  p1 = _p1 */\n      dup2\n      swap1\n      sstore\n      pop\n        /* \"trading.sol\":1832:1847  block.timestamp */\n      timestamp\n        /* \"trading.sol\":1816:1829  opreationtime */\n      0x0b\n        /* \"trading.sol\":1816:1847  opreationtime = block.timestamp */\n      dup2\n      swap1\n      sstore\n      pop\n        /* \"trading.sol\":1866:1881  State.challenge */\n      0x02\n        /* \"trading.sol\":1858:1863  state */\n      0x0d\n      0x00\n        /* \"trading.sol\":1858:1881  state = State.challenge */\n      0x0100\n      exp\n      dup2\n      sload\n      dup2\n      0xff\n      mul\n      not\n      and\n      swap1\n      dup4\n      0x09\n      dup2\n      gt\n      iszero\n      tag_255\n      jumpi\n      tag_256\n      tag_166\n      jump\t// in\n    tag_256:\n    tag_255:\n      mul\n      or\n      swap1\n      sstore\n      pop\n        /* \"trading.sol\":1897:1925  challengeEvent(_kc, _p, _p1) */\n      0x038403778ce33b7bbdbd6c808eed8cacd1a5e8a78851fbcec058f610aef431ea\n        /* \"trading.sol\":1912:1915  _kc */\n      dup4\n        /* \"trading.sol\":1917:1919  _p */\n      dup4\n        /* \"trading.sol\":1921:1924  _p1 */\n      dup4\n        /* \"trading.sol\":1897:1925  challengeEvent(_kc, _p, _p1) */\n      mload(0x40)\n      tag_257\n      swap4\n      swap3\n      swap2\n      swap1\n      tag_258\n      jump\t// in\n    tag_257:\n      mload(0x40)\n      dup1\n      swap2\n      sub\n      swap1\n      log1\n        /* \"trading.sol\":1562:1933  function challenge (bytes32 _kc, uint256 _p, uint256 _p1) payable public onlyBuyer{... */\n      pop\n      pop\n      pop\n      jump\t// out\n        /* \"trading.sol\":431:459  uint  public timeLimit = 600 */\n    tag_116:\n      sload(0x0c)\n      dup2\n      jump\t// out\n        /* \"trading.sol\":467:485  State public state */\n    tag_120:\n      0x0d\n      0x00\n      swap1\n      sload\n      swap1\n      0x0100\n      exp\n      swap1\n      div\n      0xff\n      and\n      dup2\n      jump\t// out\n        /* \"trading.sol\":348:365  uint256 public p1 */\n    tag_125:\n      sload(0x09)\n      dup2\n      jump\t// out\n        /* \"trading.sol\":99:120  uint256 public dataId */\n    tag_129:\n      sload(0x00)\n      dup2\n      jump\t// out\n        /* \"trading.sol\":372:389  bytes32 public kc */\n    tag_133:\n      sload(0x0a)\n      dup2\n      jump\t// out\n        /* \"trading.sol\":5271:5412  function sha2562(bytes32 key, bytes32 message) public pure returns (bytes32) {... */\n    tag_138:\n        /* \"trading.sol\":5339:5346  bytes32 */\n      0x00\n        /* \"trading.sol\":5366:5404  sha256(abi.encodePacked(key, message)) */\n      0x02\n        /* \"trading.sol\":5390:5393  key */\n      dup4\n        /* \"trading.sol\":5395:5402  message */\n      dup4\n        /* \"trading.sol\":5373:5403  abi.encodePacked(key, message) */\n      add(0x20, mload(0x40))\n      tag_260\n      swap3\n      swap2\n      swap1\n      tag_261\n      jump\t// in\n    tag_260:\n      mload(0x40)\n      0x20\n      dup2\n      dup4\n      sub\n      sub\n      dup2\n      mstore\n      swap1\n      0x40\n      mstore\n        /* \"trading.sol\":5366:5404  sha256(abi.encodePacked(key, message)) */\n      mload(0x40)\n      tag_262\n      swap2\n      swap1\n      tag_232\n      jump\t// in\n    tag_262:\n      0x20\n      mload(0x40)\n      dup1\n      dup4\n      sub\n      dup2\n      dup6\n      gas\n      staticcall\n      iszero\n      dup1\n      iszero\n      tag_264\n      jumpi\n      returndatasize\n      0x00\n      dup1\n      returndatacopy\n      revert(0x00, returndatasize)\n    tag_264:\n      pop\n      pop\n      pop\n      mload(0x40)\n      returndatasize\n      not(0x1f)\n      0x1f\n      dup3\n      add\n      and\n      dup3\n      add\n      dup1\n      0x40\n      mstore\n      pop\n      dup2\n      add\n      swap1\n      tag_265\n      swap2\n      swap1\n      tag_236\n      jump\t// in\n    tag_265:\n        /* \"trading.sol\":5359:5404  return sha256(abi.encodePacked(key, message)) */\n      swap1\n      pop\n        /* \"trading.sol\":5271:5412  function sha2562(bytes32 key, bytes32 message) public pure returns (bytes32) {... */\n      swap3\n      swap2\n      pop\n      pop\n      jump\t// out\n        /* \"trading.sol\":4330:4756  function verdict(address userAddr,address winner) public onlyArbitrator{... */\n    tag_144:\n        /* \"trading.sol\":5645:5655  arbitrator */\n      0x02\n      0x00\n      swap1\n      sload\n      swap1\n      0x0100\n      exp\n      swap1\n      div\n      0xffffffffffffffffffffffffffffffffffffffff\n      and\n        /* \"trading.sol\":5631:5655  msg.sender == arbitrator */\n      0xffffffffffffffffffffffffffffffffffffffff\n      and\n        /* \"trading.sol\":5631:5641  msg.sender */\n      caller\n        /* \"trading.sol\":5631:5655  msg.sender == arbitrator */\n      0xffffffffffffffffffffffffffffffffffffffff\n      and\n      eq\n        /* \"trading.sol\":5623:5656  require(msg.sender == arbitrator) */\n      tag_267\n      jumpi\n      0x00\n      dup1\n      revert\n    tag_267:\n        /* \"trading.sol\":4459:4472  State.dispute */\n      0x08\n        /* \"trading.sol\":4450:4472  state == State.dispute */\n      0x09\n      dup2\n      gt\n      iszero\n      tag_269\n      jumpi\n      tag_270\n      tag_166\n      jump\t// in\n    tag_270:\n    tag_269:\n        /* \"trading.sol\":4450:4455  state */\n      0x0d\n      0x00\n      swap1\n      sload\n      swap1\n      0x0100\n      exp\n      swap1\n      div\n      0xff\n      and\n        /* \"trading.sol\":4450:4472  state == State.dispute */\n      0x09\n      dup2\n      gt\n      iszero\n      tag_271\n      jumpi\n      tag_272\n      tag_166\n      jump\t// in\n    tag_272:\n    tag_271:\n      eq\n        /* \"trading.sol\":4442:4473  require(state == State.dispute) */\n      tag_273\n      jumpi\n      0x00\n      dup1\n      revert\n    tag_273:\n        /* \"trading.sol\":4499:4505  winner */\n      dup1\n        /* \"trading.sol\":4487:4505  userAddr == winner */\n      0xffffffffffffffffffffffffffffffffffffffff\n      and\n        /* \"trading.sol\":4487:4495  userAddr */\n      dup3\n        /* \"trading.sol\":4487:4505  userAddr == winner */\n      0xffffffffffffffffffffffffffffffffffffffff\n      and\n      sub\n        /* \"trading.sol\":4484:4674  if(userAddr == winner){... */\n      tag_274\n      jumpi\n        /* \"trading.sol\":4554:4562  userAddr */\n      dup2\n        /* \"trading.sol\":4546:4572  payable(userAddr).transfer */\n      0xffffffffffffffffffffffffffffffffffffffff\n      and\n        /* \"trading.sol\":4546:4576  payable(userAddr).transfer(p1) */\n      0x08fc\n        /* \"trading.sol\":4573:4575  p1 */\n      sload(0x09)\n        /* \"trading.sol\":4546:4576  payable(userAddr).transfer(p1) */\n      swap1\n      dup2\n      iszero\n      mul\n      swap1\n      mload(0x40)\n      0x00\n      mload(0x40)\n      dup1\n      dup4\n      sub\n      dup2\n      dup6\n      dup9\n      dup9\n      call\n      swap4\n      pop\n      pop\n      pop\n      pop\n      iszero\n      dup1\n      iszero\n      tag_276\n      jumpi\n      returndatasize\n      0x00\n      dup1\n      returndatacopy\n      revert(0x00, returndatasize)\n    tag_276:\n      pop\n        /* \"trading.sol\":4484:4674  if(userAddr == winner){... */\n      jump(tag_277)\n    tag_274:\n        /* \"trading.sol\":4642:4648  seller */\n      0x01\n      0x00\n      swap1\n      sload\n      swap1\n      0x0100\n      exp\n      swap1\n      div\n      0xffffffffffffffffffffffffffffffffffffffff\n      and\n        /* \"trading.sol\":4634:4658  payable(seller).transfer */\n      0xffffffffffffffffffffffffffffffffffffffff\n      and\n        /* \"trading.sol\":4634:4662  payable(seller).transfer(p1) */\n      0x08fc\n        /* \"trading.sol\":4659:4661  p1 */\n      sload(0x09)\n        /* \"trading.sol\":4634:4662  payable(seller).transfer(p1) */\n      swap1\n      dup2\n      iszero\n      mul\n      swap1\n      mload(0x40)\n      0x00\n      mload(0x40)\n      dup1\n      dup4\n      sub\n      dup2\n      dup6\n      dup9\n      dup9\n      call\n      swap4\n      pop\n      pop\n      pop\n      pop\n      iszero\n      dup1\n      iszero\n      tag_279\n      jumpi\n      returndatasize\n      0x00\n      dup1\n      returndatacopy\n      revert(0x00, returndatasize)\n    tag_279:\n      pop\n        /* \"trading.sol\":4484:4674  if(userAddr == winner){... */\n    tag_277:\n        /* \"trading.sol\":4692:4702  State.done */\n      0x09\n        /* \"trading.sol\":4684:4689  state */\n      0x0d\n      0x00\n        /* \"trading.sol\":4684:4702  state = State.done */\n      0x0100\n      exp\n      dup2\n      sload\n      dup2\n      0xff\n      mul\n      not\n      and\n      swap1\n      dup4\n      0x09\n      dup2\n      gt\n      iszero\n      tag_280\n      jumpi\n      tag_281\n      tag_166\n      jump\t// in\n    tag_281:\n    tag_280:\n      mul\n      or\n      swap1\n      sstore\n      pop\n        /* \"trading.sol\":4718:4748  verdictEvent(userAddr, winner) */\n      0x5b6a2b2de4fa5ff7a980e48d8fe9471ff3ec4eeef693a29dae080e6a5a9c786f\n        /* \"trading.sol\":4731:4739  userAddr */\n      dup3\n        /* \"trading.sol\":4741:4747  winner */\n      dup3\n        /* \"trading.sol\":4718:4748  verdictEvent(userAddr, winner) */\n      mload(0x40)\n      tag_282\n      swap3\n      swap2\n      swap1\n      tag_283\n      jump\t// in\n    tag_282:\n      mload(0x40)\n      dup1\n      swap2\n      sub\n      swap1\n      log1\n        /* \"trading.sol\":4330:4756  function verdict(address userAddr,address winner) public onlyArbitrator{... */\n      pop\n      pop\n      jump\t// out\n        /* \"trading.sol\":2688:2965  function payleft() public payable onlyBuyer{... */\n    tag_146:\n        /* \"trading.sol\":5556:5561  buyer */\n      0x03\n      0x00\n      swap1\n      sload\n      swap1\n      0x0100\n      exp\n      swap1\n      div\n      0xffffffffffffffffffffffffffffffffffffffff\n      and\n        /* \"trading.sol\":5542:5561  msg.sender == buyer */\n      0xffffffffffffffffffffffffffffffffffffffff\n      and\n        /* \"trading.sol\":5542:5552  msg.sender */\n      caller\n        /* \"trading.sol\":5542:5561  msg.sender == buyer */\n      0xffffffffffffffffffffffffffffffffffffffff\n      and\n      eq\n        /* \"trading.sol\":5534:5562  require(msg.sender == buyer) */\n      tag_285\n      jumpi\n      0x00\n      dup1\n      revert\n    tag_285:\n        /* \"trading.sol\":2788:2802  State.response */\n      0x03\n        /* \"trading.sol\":2779:2802  state == State.response */\n      0x09\n      dup2\n      gt\n      iszero\n      tag_287\n      jumpi\n      tag_288\n      tag_166\n      jump\t// in\n    tag_288:\n    tag_287:\n        /* \"trading.sol\":2779:2784  state */\n      0x0d\n      0x00\n      swap1\n      sload\n      swap1\n      0x0100\n      exp\n      swap1\n      div\n      0xff\n      and\n        /* \"trading.sol\":2779:2802  state == State.response */\n      0x09\n      dup2\n      gt\n      iszero\n      tag_289\n      jumpi\n      tag_290\n      tag_166\n      jump\t// in\n    tag_290:\n    tag_289:\n      eq\n        /* \"trading.sol\":2771:2803  require(state == State.response) */\n      tag_291\n      jumpi\n      0x00\n      dup1\n      revert\n    tag_291:\n        /* \"trading.sol\":2840:2842  p1 */\n      sload(0x09)\n        /* \"trading.sol\":2836:2837  p */\n      sload(0x08)\n        /* \"trading.sol\":2836:2842  p - p1 */\n      tag_292\n      swap2\n      swap1\n      tag_293\n      jump\t// in\n    tag_292:\n        /* \"trading.sol\":2822:2831  msg.value */\n      callvalue\n        /* \"trading.sol\":2822:2843  msg.value == (p - p1) */\n      eq\n        /* \"trading.sol\":2814:2844  require(msg.value == (p - p1)) */\n      tag_294\n      jumpi\n      0x00\n      dup1\n      revert\n    tag_294:\n        /* \"trading.sol\":2893:2906  State.payleft */\n      0x04\n        /* \"trading.sol\":2885:2890  state */\n      0x0d\n      0x00\n        /* \"trading.sol\":2885:2906  state = State.payleft */\n      0x0100\n      exp\n      dup2\n      sload\n      dup2\n      0xff\n      mul\n      not\n      and\n      swap1\n      dup4\n      0x09\n      dup2\n      gt\n      iszero\n      tag_295\n      jumpi\n      tag_296\n      tag_166\n      jump\t// in\n    tag_296:\n    tag_295:\n      mul\n      or\n      swap1\n      sstore\n      pop\n        /* \"trading.sol\":2922:2957  payleftEvent(msg.sender, msg.value) */\n      0xe37b4d92bfb3a0f51b4632930020ab1670830e1c71576288d9b33f4671f09bb9\n        /* \"trading.sol\":2935:2945  msg.sender */\n      caller\n        /* \"trading.sol\":2947:2956  msg.value */\n      callvalue\n        /* \"trading.sol\":2922:2957  payleftEvent(msg.sender, msg.value) */\n      mload(0x40)\n      tag_297\n      swap3\n      swap2\n      swap1\n      tag_298\n      jump\t// in\n    tag_297:\n      mload(0x40)\n      dup1\n      swap2\n      sub\n      swap1\n      log1\n        /* \"trading.sol\":2688:2965  function payleft() public payable onlyBuyer{... */\n      jump\t// out\n        /* \"#utility.yul\":7:82   */\n    tag_299:\n        /* \"#utility.yul\":40:46   */\n      0x00\n        /* \"#utility.yul\":73:75   */\n      0x40\n        /* \"#utility.yul\":67:76   */\n      mload\n        /* \"#utility.yul\":57:76   */\n      swap1\n      pop\n        /* \"#utility.yul\":7:82   */\n      swap1\n      jump\t// out\n        /* \"#utility.yul\":88:205   */\n    tag_300:\n        /* \"#utility.yul\":197:198   */\n      0x00\n        /* \"#utility.yul\":194:195   */\n      dup1\n        /* \"#utility.yul\":187:199   */\n      revert\n        /* \"#utility.yul\":211:328   */\n    tag_301:\n        /* \"#utility.yul\":320:321   */\n      0x00\n        /* \"#utility.yul\":317:318   */\n      dup1\n        /* \"#utility.yul\":310:322   */\n      revert\n        /* \"#utility.yul\":334:411   */\n    tag_302:\n        /* \"#utility.yul\":371:378   */\n      0x00\n        /* \"#utility.yul\":400:405   */\n      dup2\n        /* \"#utility.yul\":389:405   */\n      swap1\n      pop\n        /* \"#utility.yul\":334:411   */\n      swap2\n      swap1\n      pop\n      jump\t// out\n        /* \"#utility.yul\":417:539   */\n    tag_303:\n        /* \"#utility.yul\":490:514   */\n      tag_349\n        /* \"#utility.yul\":508:513   */\n      dup2\n        /* \"#utility.yul\":490:514   */\n      tag_302\n      jump\t// in\n    tag_349:\n        /* \"#utility.yul\":483:488   */\n      dup2\n        /* \"#utility.yul\":480:515   */\n      eq\n        /* \"#utility.yul\":470:533   */\n      tag_350\n      jumpi\n        /* \"#utility.yul\":529:530   */\n      0x00\n        /* \"#utility.yul\":526:527   */\n      dup1\n        /* \"#utility.yul\":519:531   */\n      revert\n        /* \"#utility.yul\":470:533   */\n    tag_350:\n        /* \"#utility.yul\":417:539   */\n      pop\n      jump\t// out\n        /* \"#utility.yul\":545:684   */\n    tag_304:\n        /* \"#utility.yul\":591:596   */\n      0x00\n        /* \"#utility.yul\":629:635   */\n      dup2\n        /* \"#utility.yul\":616:636   */\n      calldataload\n        /* \"#utility.yul\":607:636   */\n      swap1\n      pop\n        /* \"#utility.yul\":645:678   */\n      tag_352\n        /* \"#utility.yul\":672:677   */\n      dup2\n        /* \"#utility.yul\":645:678   */\n      tag_303\n      jump\t// in\n    tag_352:\n        /* \"#utility.yul\":545:684   */\n      swap3\n      swap2\n      pop\n      pop\n      jump\t// out\n        /* \"#utility.yul\":690:807   */\n    tag_305:\n        /* \"#utility.yul\":799:800   */\n      0x00\n        /* \"#utility.yul\":796:797   */\n      dup1\n        /* \"#utility.yul\":789:801   */\n      revert\n        /* \"#utility.yul\":813:915   */\n    tag_306:\n        /* \"#utility.yul\":854:860   */\n      0x00\n        /* \"#utility.yul\":905:907   */\n      0x1f\n        /* \"#utility.yul\":901:908   */\n      not\n        /* \"#utility.yul\":896:898   */\n      0x1f\n        /* \"#utility.yul\":889:894   */\n      dup4\n        /* \"#utility.yul\":885:899   */\n      add\n        /* \"#utility.yul\":881:909   */\n      and\n        /* \"#utility.yul\":871:909   */\n      swap1\n      pop\n        /* \"#utility.yul\":813:915   */\n      swap2\n      swap1\n      pop\n      jump\t// out\n        /* \"#utility.yul\":921:1101   */\n    tag_307:\n        /* \"#utility.yul\":969:1046   */\n      0x4e487b7100000000000000000000000000000000000000000000000000000000\n        /* \"#utility.yul\":966:967   */\n      0x00\n        /* \"#utility.yul\":959:1047   */\n      mstore\n        /* \"#utility.yul\":1066:1070   */\n      0x41\n        /* \"#utility.yul\":1063:1064   */\n      0x04\n        /* \"#utility.yul\":1056:1071   */\n      mstore\n        /* \"#utility.yul\":1090:1094   */\n      0x24\n        /* \"#utility.yul\":1087:1088   */\n      0x00\n        /* \"#utility.yul\":1080:1095   */\n      revert\n        /* \"#utility.yul\":1107:1388   */\n    tag_308:\n        /* \"#utility.yul\":1190:1217   */\n      tag_357\n        /* \"#utility.yul\":1212:1216   */\n      dup3\n        /* \"#utility.yul\":1190:1217   */\n      tag_306\n      jump\t// in\n    tag_357:\n        /* \"#utility.yul\":1182:1188   */\n      dup2\n        /* \"#utility.yul\":1178:1218   */\n      add\n        /* \"#utility.yul\":1320:1326   */\n      dup2\n        /* \"#utility.yul\":1308:1318   */\n      dup2\n        /* \"#utility.yul\":1305:1327   */\n      lt\n        /* \"#utility.yul\":1284:1302   */\n      0xffffffffffffffff\n        /* \"#utility.yul\":1272:1282   */\n      dup3\n        /* \"#utility.yul\":1269:1303   */\n      gt\n        /* \"#utility.yul\":1266:1328   */\n      or\n        /* \"#utility.yul\":1263:1351   */\n      iszero\n      tag_358\n      jumpi\n        /* \"#utility.yul\":1331:1349   */\n      tag_359\n      tag_307\n      jump\t// in\n    tag_359:\n        /* \"#utility.yul\":1263:1351   */\n    tag_358:\n        /* \"#utility.yul\":1371:1381   */\n      dup1\n        /* \"#utility.yul\":1367:1369   */\n      0x40\n        /* \"#utility.yul\":1360:1382   */\n      mstore\n        /* \"#utility.yul\":1150:1388   */\n      pop\n        /* \"#utility.yul\":1107:1388   */\n      pop\n      pop\n      jump\t// out\n        /* \"#utility.yul\":1394:1523   */\n    tag_309:\n        /* \"#utility.yul\":1428:1434   */\n      0x00\n        /* \"#utility.yul\":1455:1475   */\n      tag_361\n      tag_299\n      jump\t// in\n    tag_361:\n        /* \"#utility.yul\":1445:1475   */\n      swap1\n      pop\n        /* \"#utility.yul\":1484:1517   */\n      tag_362\n        /* \"#utility.yul\":1512:1516   */\n      dup3\n        /* \"#utility.yul\":1504:1510   */\n      dup3\n        /* \"#utility.yul\":1484:1517   */\n      tag_308\n      jump\t// in\n    tag_362:\n        /* \"#utility.yul\":1394:1523   */\n      swap2\n      swap1\n      pop\n      jump\t// out\n        /* \"#utility.yul\":1529:1840   */\n    tag_310:\n        /* \"#utility.yul\":1606:1610   */\n      0x00\n        /* \"#utility.yul\":1696:1714   */\n      0xffffffffffffffff\n        /* \"#utility.yul\":1688:1694   */\n      dup3\n        /* \"#utility.yul\":1685:1715   */\n      gt\n        /* \"#utility.yul\":1682:1738   */\n      iszero\n      tag_364\n      jumpi\n        /* \"#utility.yul\":1718:1736   */\n      tag_365\n      tag_307\n      jump\t// in\n    tag_365:\n        /* \"#utility.yul\":1682:1738   */\n    tag_364:\n        /* \"#utility.yul\":1768:1772   */\n      0x20\n        /* \"#utility.yul\":1760:1766   */\n      dup3\n        /* \"#utility.yul\":1756:1773   */\n      mul\n        /* \"#utility.yul\":1748:1773   */\n      swap1\n      pop\n        /* \"#utility.yul\":1828:1832   */\n      0x20\n        /* \"#utility.yul\":1822:1826   */\n      dup2\n        /* \"#utility.yul\":1818:1833   */\n      add\n        /* \"#utility.yul\":1810:1833   */\n      swap1\n      pop\n        /* \"#utility.yul\":1529:1840   */\n      swap2\n      swap1\n      pop\n      jump\t// out\n        /* \"#utility.yul\":1846:1963   */\n    tag_311:\n        /* \"#utility.yul\":1955:1956   */\n      0x00\n        /* \"#utility.yul\":1952:1953   */\n      dup1\n        /* \"#utility.yul\":1945:1957   */\n      revert\n        /* \"#utility.yul\":1986:2696   */\n    tag_312:\n        /* \"#utility.yul\":2082:2087   */\n      0x00\n        /* \"#utility.yul\":2107:2188   */\n      tag_368\n        /* \"#utility.yul\":2123:2187   */\n      tag_369\n        /* \"#utility.yul\":2180:2186   */\n      dup5\n        /* \"#utility.yul\":2123:2187   */\n      tag_310\n      jump\t// in\n    tag_369:\n        /* \"#utility.yul\":2107:2188   */\n      tag_309\n      jump\t// in\n    tag_368:\n        /* \"#utility.yul\":2098:2188   */\n      swap1\n      pop\n        /* \"#utility.yul\":2208:2213   */\n      dup1\n        /* \"#utility.yul\":2237:2243   */\n      dup4\n        /* \"#utility.yul\":2230:2235   */\n      dup3\n        /* \"#utility.yul\":2223:2244   */\n      mstore\n        /* \"#utility.yul\":2271:2275   */\n      0x20\n        /* \"#utility.yul\":2264:2269   */\n      dup3\n        /* \"#utility.yul\":2260:2276   */\n      add\n        /* \"#utility.yul\":2253:2276   */\n      swap1\n      pop\n        /* \"#utility.yul\":2324:2328   */\n      0x20\n        /* \"#utility.yul\":2316:2322   */\n      dup5\n        /* \"#utility.yul\":2312:2329   */\n      mul\n        /* \"#utility.yul\":2304:2310   */\n      dup4\n        /* \"#utility.yul\":2300:2330   */\n      add\n        /* \"#utility.yul\":2353:2356   */\n      dup6\n        /* \"#utility.yul\":2345:2351   */\n      dup2\n        /* \"#utility.yul\":2342:2357   */\n      gt\n        /* \"#utility.yul\":2339:2461   */\n      iszero\n      tag_370\n      jumpi\n        /* \"#utility.yul\":2372:2451   */\n      tag_371\n      tag_311\n      jump\t// in\n    tag_371:\n        /* \"#utility.yul\":2339:2461   */\n    tag_370:\n        /* \"#utility.yul\":2487:2493   */\n      dup4\n        /* \"#utility.yul\":2470:2690   */\n    tag_372:\n        /* \"#utility.yul\":2504:2510   */\n      dup2\n        /* \"#utility.yul\":2499:2502   */\n      dup2\n        /* \"#utility.yul\":2496:2511   */\n      lt\n        /* \"#utility.yul\":2470:2690   */\n      iszero\n      tag_374\n      jumpi\n        /* \"#utility.yul\":2579:2582   */\n      dup1\n        /* \"#utility.yul\":2608:2645   */\n      tag_375\n        /* \"#utility.yul\":2641:2644   */\n      dup9\n        /* \"#utility.yul\":2629:2639   */\n      dup3\n        /* \"#utility.yul\":2608:2645   */\n      tag_304\n      jump\t// in\n    tag_375:\n        /* \"#utility.yul\":2603:2606   */\n      dup5\n        /* \"#utility.yul\":2596:2646   */\n      mstore\n        /* \"#utility.yul\":2675:2679   */\n      0x20\n        /* \"#utility.yul\":2670:2673   */\n      dup5\n        /* \"#utility.yul\":2666:2680   */\n      add\n        /* \"#utility.yul\":2659:2680   */\n      swap4\n      pop\n        /* \"#utility.yul\":2546:2690   */\n      pop\n        /* \"#utility.yul\":2530:2534   */\n      0x20\n        /* \"#utility.yul\":2525:2528   */\n      dup2\n        /* \"#utility.yul\":2521:2535   */\n      add\n        /* \"#utility.yul\":2514:2535   */\n      swap1\n      pop\n        /* \"#utility.yul\":2470:2690   */\n      jump(tag_372)\n    tag_374:\n        /* \"#utility.yul\":2474:2495   */\n      pop\n        /* \"#utility.yul\":2088:2696   */\n      pop\n      pop\n        /* \"#utility.yul\":1986:2696   */\n      swap4\n      swap3\n      pop\n      pop\n      pop\n      jump\t// out\n        /* \"#utility.yul\":2719:3089   */\n    tag_313:\n        /* \"#utility.yul\":2790:2795   */\n      0x00\n        /* \"#utility.yul\":2839:2842   */\n      dup3\n        /* \"#utility.yul\":2832:2836   */\n      0x1f\n        /* \"#utility.yul\":2824:2830   */\n      dup4\n        /* \"#utility.yul\":2820:2837   */\n      add\n        /* \"#utility.yul\":2816:2843   */\n      slt\n        /* \"#utility.yul\":2806:2928   */\n      tag_377\n      jumpi\n        /* \"#utility.yul\":2847:2926   */\n      tag_378\n      tag_305\n      jump\t// in\n    tag_378:\n        /* \"#utility.yul\":2806:2928   */\n    tag_377:\n        /* \"#utility.yul\":2964:2970   */\n      dup2\n        /* \"#utility.yul\":2951:2971   */\n      calldataload\n        /* \"#utility.yul\":2989:3083   */\n      tag_379\n        /* \"#utility.yul\":3079:3082   */\n      dup5\n        /* \"#utility.yul\":3071:3077   */\n      dup3\n        /* \"#utility.yul\":3064:3068   */\n      0x20\n        /* \"#utility.yul\":3056:3062   */\n      dup7\n        /* \"#utility.yul\":3052:3069   */\n      add\n        /* \"#utility.yul\":2989:3083   */\n      tag_312\n      jump\t// in\n    tag_379:\n        /* \"#utility.yul\":2980:3083   */\n      swap2\n      pop\n        /* \"#utility.yul\":2796:3089   */\n      pop\n        /* \"#utility.yul\":2719:3089   */\n      swap3\n      swap2\n      pop\n      pop\n      jump\t// out\n        /* \"#utility.yul\":3095:3924   */\n    tag_36:\n        /* \"#utility.yul\":3197:3203   */\n      0x00\n        /* \"#utility.yul\":3205:3211   */\n      dup1\n        /* \"#utility.yul\":3213:3219   */\n      0x00\n        /* \"#utility.yul\":3262:3264   */\n      0x60\n        /* \"#utility.yul\":3250:3259   */\n      dup5\n        /* \"#utility.yul\":3241:3248   */\n      dup7\n        /* \"#utility.yul\":3237:3260   */\n      sub\n        /* \"#utility.yul\":3233:3265   */\n      slt\n        /* \"#utility.yul\":3230:3349   */\n      iszero\n      tag_381\n      jumpi\n        /* \"#utility.yul\":3268:3347   */\n      tag_382\n      tag_300\n      jump\t// in\n    tag_382:\n        /* \"#utility.yul\":3230:3349   */\n    tag_381:\n        /* \"#utility.yul\":3388:3389   */\n      0x00\n        /* \"#utility.yul\":3413:3466   */\n      tag_383\n        /* \"#utility.yul\":3458:3465   */\n      dup7\n        /* \"#utility.yul\":3449:3455   */\n      dup3\n        /* \"#utility.yul\":3438:3447   */\n      dup8\n        /* \"#utility.yul\":3434:3456   */\n      add\n        /* \"#utility.yul\":3413:3466   */\n      tag_304\n      jump\t// in\n    tag_383:\n        /* \"#utility.yul\":3403:3466   */\n      swap4\n      pop\n        /* \"#utility.yul\":3359:3476   */\n      pop\n        /* \"#utility.yul\":3515:3517   */\n      0x20\n        /* \"#utility.yul\":3541:3594   */\n      tag_384\n        /* \"#utility.yul\":3586:3593   */\n      dup7\n        /* \"#utility.yul\":3577:3583   */\n      dup3\n        /* \"#utility.yul\":3566:3575   */\n      dup8\n        /* \"#utility.yul\":3562:3584   */\n      add\n        /* \"#utility.yul\":3541:3594   */\n      tag_304\n      jump\t// in\n    tag_384:\n        /* \"#utility.yul\":3531:3594   */\n      swap3\n      pop\n        /* \"#utility.yul\":3486:3604   */\n      pop\n        /* \"#utility.yul\":3671:3673   */\n      0x40\n        /* \"#utility.yul\":3660:3669   */\n      dup5\n        /* \"#utility.yul\":3656:3674   */\n      add\n        /* \"#utility.yul\":3643:3675   */\n      calldataload\n        /* \"#utility.yul\":3702:3720   */\n      0xffffffffffffffff\n        /* \"#utility.yul\":3694:3700   */\n      dup2\n        /* \"#utility.yul\":3691:3721   */\n      gt\n        /* \"#utility.yul\":3688:3805   */\n      iszero\n      tag_385\n      jumpi\n        /* \"#utility.yul\":3724:3803   */\n      tag_386\n      tag_301\n      jump\t// in\n    tag_386:\n        /* \"#utility.yul\":3688:3805   */\n    tag_385:\n        /* \"#utility.yul\":3829:3907   */\n      tag_387\n        /* \"#utility.yul\":3899:3906   */\n      dup7\n        /* \"#utility.yul\":3890:3896   */\n      dup3\n        /* \"#utility.yul\":3879:3888   */\n      dup8\n        /* \"#utility.yul\":3875:3897   */\n      add\n        /* \"#utility.yul\":3829:3907   */\n      tag_313\n      jump\t// in\n    tag_387:\n        /* \"#utility.yul\":3819:3907   */\n      swap2\n      pop\n        /* \"#utility.yul\":3614:3917   */\n      pop\n        /* \"#utility.yul\":3095:3924   */\n      swap3\n      pop\n      swap3\n      pop\n      swap3\n      jump\t// out\n        /* \"#utility.yul\":3930:4029   */\n    tag_314:\n        /* \"#utility.yul\":3982:3988   */\n      0x00\n        /* \"#utility.yul\":4016:4021   */\n      dup2\n        /* \"#utility.yul\":4010:4022   */\n      mload\n        /* \"#utility.yul\":4000:4022   */\n      swap1\n      pop\n        /* \"#utility.yul\":3930:4029   */\n      swap2\n      swap1\n      pop\n      jump\t// out\n        /* \"#utility.yul\":4035:4204   */\n    tag_315:\n        /* \"#utility.yul\":4119:4130   */\n      0x00\n        /* \"#utility.yul\":4153:4159   */\n      dup3\n        /* \"#utility.yul\":4148:4151   */\n      dup3\n        /* \"#utility.yul\":4141:4160   */\n      mstore\n        /* \"#utility.yul\":4193:4197   */\n      0x20\n        /* \"#utility.yul\":4188:4191   */\n      dup3\n        /* \"#utility.yul\":4184:4198   */\n      add\n        /* \"#utility.yul\":4169:4198   */\n      swap1\n      pop\n        /* \"#utility.yul\":4035:4204   */\n      swap3\n      swap2\n      pop\n      pop\n      jump\t// out\n        /* \"#utility.yul\":4210:4456   */\n    tag_316:\n        /* \"#utility.yul\":4291:4292   */\n      0x00\n        /* \"#utility.yul\":4301:4414   */\n    tag_391:\n        /* \"#utility.yul\":4315:4321   */\n      dup4\n        /* \"#utility.yul\":4312:4313   */\n      dup2\n        /* \"#utility.yul\":4309:4322   */\n      lt\n        /* \"#utility.yul\":4301:4414   */\n      iszero\n      tag_393\n      jumpi\n        /* \"#utility.yul\":4400:4401   */\n      dup1\n        /* \"#utility.yul\":4395:4398   */\n      dup3\n        /* \"#utility.yul\":4391:4402   */\n      add\n        /* \"#utility.yul\":4385:4403   */\n      mload\n        /* \"#utility.yul\":4381:4382   */\n      dup2\n        /* \"#utility.yul\":4376:4379   */\n      dup5\n        /* \"#utility.yul\":4372:4383   */\n      add\n        /* \"#utility.yul\":4365:4404   */\n      mstore\n        /* \"#utility.yul\":4337:4339   */\n      0x20\n        /* \"#utility.yul\":4334:4335   */\n      dup2\n        /* \"#utility.yul\":4330:4340   */\n      add\n        /* \"#utility.yul\":4325:4340   */\n      swap1\n      pop\n        /* \"#utility.yul\":4301:4414   */\n      jump(tag_391)\n    tag_393:\n        /* \"#utility.yul\":4448:4449   */\n      0x00\n        /* \"#utility.yul\":4439:4445   */\n      dup5\n        /* \"#utility.yul\":4434:4437   */\n      dup5\n        /* \"#utility.yul\":4430:4446   */\n      add\n        /* \"#utility.yul\":4423:4450   */\n      mstore\n        /* \"#utility.yul\":4272:4456   */\n      pop\n        /* \"#utility.yul\":4210:4456   */\n      pop\n      pop\n      pop\n      jump\t// out\n        /* \"#utility.yul\":4462:4839   */\n    tag_317:\n        /* \"#utility.yul\":4550:4553   */\n      0x00\n        /* \"#utility.yul\":4578:4617   */\n      tag_395\n        /* \"#utility.yul\":4611:4616   */\n      dup3\n        /* \"#utility.yul\":4578:4617   */\n      tag_314\n      jump\t// in\n    tag_395:\n        /* \"#utility.yul\":4633:4704   */\n      tag_396\n        /* \"#utility.yul\":4697:4703   */\n      dup2\n        /* \"#utility.yul\":4692:4695   */\n      dup6\n        /* \"#utility.yul\":4633:4704   */\n      tag_315\n      jump\t// in\n    tag_396:\n        /* \"#utility.yul\":4626:4704   */\n      swap4\n      pop\n        /* \"#utility.yul\":4713:4778   */\n      tag_397\n        /* \"#utility.yul\":4771:4777   */\n      dup2\n        /* \"#utility.yul\":4766:4769   */\n      dup6\n        /* \"#utility.yul\":4759:4763   */\n      0x20\n        /* \"#utility.yul\":4752:4757   */\n      dup7\n        /* \"#utility.yul\":4748:4764   */\n      add\n        /* \"#utility.yul\":4713:4778   */\n      tag_316\n      jump\t// in\n    tag_397:\n        /* \"#utility.yul\":4803:4832   */\n      tag_398\n        /* \"#utility.yul\":4825:4831   */\n      dup2\n        /* \"#utility.yul\":4803:4832   */\n      tag_306\n      jump\t// in\n    tag_398:\n        /* \"#utility.yul\":4798:4801   */\n      dup5\n        /* \"#utility.yul\":4794:4833   */\n      add\n        /* \"#utility.yul\":4787:4833   */\n      swap2\n      pop\n        /* \"#utility.yul\":4554:4839   */\n      pop\n        /* \"#utility.yul\":4462:4839   */\n      swap3\n      swap2\n      pop\n      pop\n      jump\t// out\n        /* \"#utility.yul\":4845:5158   */\n    tag_39:\n        /* \"#utility.yul\":4958:4962   */\n      0x00\n        /* \"#utility.yul\":4996:4998   */\n      0x20\n        /* \"#utility.yul\":4985:4994   */\n      dup3\n        /* \"#utility.yul\":4981:4999   */\n      add\n        /* \"#utility.yul\":4973:4999   */\n      swap1\n      pop\n        /* \"#utility.yul\":5045:5054   */\n      dup2\n        /* \"#utility.yul\":5039:5043   */\n      dup2\n        /* \"#utility.yul\":5035:5055   */\n      sub\n        /* \"#utility.yul\":5031:5032   */\n      0x00\n        /* \"#utility.yul\":5020:5029   */\n      dup4\n        /* \"#utility.yul\":5016:5033   */\n      add\n        /* \"#utility.yul\":5009:5056   */\n      mstore\n        /* \"#utility.yul\":5073:5151   */\n      tag_400\n        /* \"#utility.yul\":5146:5150   */\n      dup2\n        /* \"#utility.yul\":5137:5143   */\n      dup5\n        /* \"#utility.yul\":5073:5151   */\n      tag_317\n      jump\t// in\n    tag_400:\n        /* \"#utility.yul\":5065:5151   */\n      swap1\n      pop\n        /* \"#utility.yul\":4845:5158   */\n      swap3\n      swap2\n      pop\n      pop\n      jump\t// out\n        /* \"#utility.yul\":5164:5241   */\n    tag_318:\n        /* \"#utility.yul\":5201:5208   */\n      0x00\n        /* \"#utility.yul\":5230:5235   */\n      dup2\n        /* \"#utility.yul\":5219:5235   */\n      swap1\n      pop\n        /* \"#utility.yul\":5164:5241   */\n      swap2\n      swap1\n      pop\n      jump\t// out\n        /* \"#utility.yul\":5247:5369   */\n    tag_319:\n        /* \"#utility.yul\":5320:5344   */\n      tag_403\n        /* \"#utility.yul\":5338:5343   */\n      dup2\n        /* \"#utility.yul\":5320:5344   */\n      tag_318\n      jump\t// in\n    tag_403:\n        /* \"#utility.yul\":5313:5318   */\n      dup2\n        /* \"#utility.yul\":5310:5345   */\n      eq\n        /* \"#utility.yul\":5300:5363   */\n      tag_404\n      jumpi\n        /* \"#utility.yul\":5359:5360   */\n      0x00\n        /* \"#utility.yul\":5356:5357   */\n      dup1\n        /* \"#utility.yul\":5349:5361   */\n      revert\n        /* \"#utility.yul\":5300:5363   */\n    tag_404:\n        /* \"#utility.yul\":5247:5369   */\n      pop\n      jump\t// out\n        /* \"#utility.yul\":5375:5514   */\n    tag_320:\n        /* \"#utility.yul\":5421:5426   */\n      0x00\n        /* \"#utility.yul\":5459:5465   */\n      dup2\n        /* \"#utility.yul\":5446:5466   */\n      calldataload\n        /* \"#utility.yul\":5437:5466   */\n      swap1\n      pop\n        /* \"#utility.yul\":5475:5508   */\n      tag_406\n        /* \"#utility.yul\":5502:5507   */\n      dup2\n        /* \"#utility.yul\":5475:5508   */\n      tag_319\n      jump\t// in\n    tag_406:\n        /* \"#utility.yul\":5375:5514   */\n      swap3\n      swap2\n      pop\n      pop\n      jump\t// out\n        /* \"#utility.yul\":5520:5994   */\n    tag_42:\n        /* \"#utility.yul\":5588:5594   */\n      0x00\n        /* \"#utility.yul\":5596:5602   */\n      dup1\n        /* \"#utility.yul\":5645:5647   */\n      0x40\n        /* \"#utility.yul\":5633:5642   */\n      dup4\n        /* \"#utility.yul\":5624:5631   */\n      dup6\n        /* \"#utility.yul\":5620:5643   */\n      sub\n        /* \"#utility.yul\":5616:5648   */\n      slt\n        /* \"#utility.yul\":5613:5732   */\n      iszero\n      tag_408\n      jumpi\n        /* \"#utility.yul\":5651:5730   */\n      tag_409\n      tag_300\n      jump\t// in\n    tag_409:\n        /* \"#utility.yul\":5613:5732   */\n    tag_408:\n        /* \"#utility.yul\":5771:5772   */\n      0x00\n        /* \"#utility.yul\":5796:5849   */\n      tag_410\n        /* \"#utility.yul\":5841:5848   */\n      dup6\n        /* \"#utility.yul\":5832:5838   */\n      dup3\n        /* \"#utility.yul\":5821:5830   */\n      dup7\n        /* \"#utility.yul\":5817:5839   */\n      add\n        /* \"#utility.yul\":5796:5849   */\n      tag_304\n      jump\t// in\n    tag_410:\n        /* \"#utility.yul\":5786:5849   */\n      swap3\n      pop\n        /* \"#utility.yul\":5742:5859   */\n      pop\n        /* \"#utility.yul\":5898:5900   */\n      0x20\n        /* \"#utility.yul\":5924:5977   */\n      tag_411\n        /* \"#utility.yul\":5969:5976   */\n      dup6\n        /* \"#utility.yul\":5960:5966   */\n      dup3\n        /* \"#utility.yul\":5949:5958   */\n      dup7\n        /* \"#utility.yul\":5945:5967   */\n      add\n        /* \"#utility.yul\":5924:5977   */\n      tag_320\n      jump\t// in\n    tag_411:\n        /* \"#utility.yul\":5914:5977   */\n      swap2\n      pop\n        /* \"#utility.yul\":5869:5987   */\n      pop\n        /* \"#utility.yul\":5520:5994   */\n      swap3\n      pop\n      swap3\n      swap1\n      pop\n      jump\t// out\n        /* \"#utility.yul\":6000:6126   */\n    tag_321:\n        /* \"#utility.yul\":6037:6044   */\n      0x00\n        /* \"#utility.yul\":6077:6119   */\n      0xffffffffffffffffffffffffffffffffffffffff\n        /* \"#utility.yul\":6070:6075   */\n      dup3\n        /* \"#utility.yul\":6066:6120   */\n      and\n        /* \"#utility.yul\":6055:6120   */\n      swap1\n      pop\n        /* \"#utility.yul\":6000:6126   */\n      swap2\n      swap1\n      pop\n      jump\t// out\n        /* \"#utility.yul\":6132:6228   */\n    tag_322:\n        /* \"#utility.yul\":6169:6176   */\n      0x00\n        /* \"#utility.yul\":6198:6222   */\n      tag_414\n        /* \"#utility.yul\":6216:6221   */\n      dup3\n        /* \"#utility.yul\":6198:6222   */\n      tag_321\n      jump\t// in\n    tag_414:\n        /* \"#utility.yul\":6187:6222   */\n      swap1\n      pop\n        /* \"#utility.yul\":6132:6228   */\n      swap2\n      swap1\n      pop\n      jump\t// out\n        /* \"#utility.yul\":6234:6352   */\n    tag_323:\n        /* \"#utility.yul\":6321:6345   */\n      tag_416\n        /* \"#utility.yul\":6339:6344   */\n      dup2\n        /* \"#utility.yul\":6321:6345   */\n      tag_322\n      jump\t// in\n    tag_416:\n        /* \"#utility.yul\":6316:6319   */\n      dup3\n        /* \"#utility.yul\":6309:6346   */\n      mstore\n        /* \"#utility.yul\":6234:6352   */\n      pop\n      pop\n      jump\t// out\n        /* \"#utility.yul\":6358:6580   */\n    tag_48:\n        /* \"#utility.yul\":6451:6455   */\n      0x00\n        /* \"#utility.yul\":6489:6491   */\n      0x20\n        /* \"#utility.yul\":6478:6487   */\n      dup3\n        /* \"#utility.yul\":6474:6492   */\n      add\n        /* \"#utility.yul\":6466:6492   */\n      swap1\n      pop\n        /* \"#utility.yul\":6502:6573   */\n      tag_418\n        /* \"#utility.yul\":6570:6571   */\n      0x00\n        /* \"#utility.yul\":6559:6568   */\n      dup4\n        /* \"#utility.yul\":6555:6572   */\n      add\n        /* \"#utility.yul\":6546:6552   */\n      dup5\n        /* \"#utility.yul\":6502:6573   */\n      tag_323\n      jump\t// in\n    tag_418:\n        /* \"#utility.yul\":6358:6580   */\n      swap3\n      swap2\n      pop\n      pop\n      jump\t// out\n        /* \"#utility.yul\":6586:6704   */\n    tag_324:\n        /* \"#utility.yul\":6673:6697   */\n      tag_420\n        /* \"#utility.yul\":6691:6696   */\n      dup2\n        /* \"#utility.yul\":6673:6697   */\n      tag_302\n      jump\t// in\n    tag_420:\n        /* \"#utility.yul\":6668:6671   */\n      dup3\n        /* \"#utility.yul\":6661:6698   */\n      mstore\n        /* \"#utility.yul\":6586:6704   */\n      pop\n      pop\n      jump\t// out\n        /* \"#utility.yul\":6710:6932   */\n    tag_53:\n        /* \"#utility.yul\":6803:6807   */\n      0x00\n        /* \"#utility.yul\":6841:6843   */\n      0x20\n        /* \"#utility.yul\":6830:6839   */\n      dup3\n        /* \"#utility.yul\":6826:6844   */\n      add\n        /* \"#utility.yul\":6818:6844   */\n      swap1\n      pop\n        /* \"#utility.yul\":6854:6925   */\n      tag_422\n        /* \"#utility.yul\":6922:6923   */\n      0x00\n        /* \"#utility.yul\":6911:6920   */\n      dup4\n        /* \"#utility.yul\":6907:6924   */\n      add\n        /* \"#utility.yul\":6898:6904   */\n      dup5\n        /* \"#utility.yul\":6854:6925   */\n      tag_324\n      jump\t// in\n    tag_422:\n        /* \"#utility.yul\":6710:6932   */\n      swap3\n      swap2\n      pop\n      pop\n      jump\t// out\n        /* \"#utility.yul\":6938:7412   */\n    tag_64:\n        /* \"#utility.yul\":7006:7012   */\n      0x00\n        /* \"#utility.yul\":7014:7020   */\n      dup1\n        /* \"#utility.yul\":7063:7065   */\n      0x40\n        /* \"#utility.yul\":7051:7060   */\n      dup4\n        /* \"#utility.yul\":7042:7049   */\n      dup6\n        /* \"#utility.yul\":7038:7061   */\n      sub\n        /* \"#utility.yul\":7034:7066   */\n      slt\n        /* \"#utility.yul\":7031:7150   */\n      iszero\n      tag_424\n      jumpi\n        /* \"#utility.yul\":7069:7148   */\n      tag_425\n      tag_300\n      jump\t// in\n    tag_425:\n        /* \"#utility.yul\":7031:7150   */\n    tag_424:\n        /* \"#utility.yul\":7189:7190   */\n      0x00\n        /* \"#utility.yul\":7214:7267   */\n      tag_426\n        /* \"#utility.yul\":7259:7266   */\n      dup6\n        /* \"#utility.yul\":7250:7256   */\n      dup3\n        /* \"#utility.yul\":7239:7248   */\n      dup7\n        /* \"#utility.yul\":7235:7257   */\n      add\n        /* \"#utility.yul\":7214:7267   */\n      tag_320\n      jump\t// in\n    tag_426:\n        /* \"#utility.yul\":7204:7267   */\n      swap3\n      pop\n        /* \"#utility.yul\":7160:7277   */\n      pop\n        /* \"#utility.yul\":7316:7318   */\n      0x20\n        /* \"#utility.yul\":7342:7395   */\n      tag_427\n        /* \"#utility.yul\":7387:7394   */\n      dup6\n        /* \"#utility.yul\":7378:7384   */\n      dup3\n        /* \"#utility.yul\":7367:7376   */\n      dup7\n        /* \"#utility.yul\":7363:7385   */\n      add\n        /* \"#utility.yul\":7342:7395   */\n      tag_304\n      jump\t// in\n    tag_427:\n        /* \"#utility.yul\":7332:7395   */\n      swap2\n      pop\n        /* \"#utility.yul\":7287:7405   */\n      pop\n        /* \"#utility.yul\":6938:7412   */\n      swap3\n      pop\n      swap3\n      swap1\n      pop\n      jump\t// out\n        /* \"#utility.yul\":7418:7747   */\n    tag_73:\n        /* \"#utility.yul\":7477:7483   */\n      0x00\n        /* \"#utility.yul\":7526:7528   */\n      0x20\n        /* \"#utility.yul\":7514:7523   */\n      dup3\n        /* \"#utility.yul\":7505:7512   */\n      dup5\n        /* \"#utility.yul\":7501:7524   */\n      sub\n        /* \"#utility.yul\":7497:7529   */\n      slt\n        /* \"#utility.yul\":7494:7613   */\n      iszero\n      tag_429\n      jumpi\n        /* \"#utility.yul\":7532:7611   */\n      tag_430\n      tag_300\n      jump\t// in\n    tag_430:\n        /* \"#utility.yul\":7494:7613   */\n    tag_429:\n        /* \"#utility.yul\":7652:7653   */\n      0x00\n        /* \"#utility.yul\":7677:7730   */\n      tag_431\n        /* \"#utility.yul\":7722:7729   */\n      dup5\n        /* \"#utility.yul\":7713:7719   */\n      dup3\n        /* \"#utility.yul\":7702:7711   */\n      dup6\n        /* \"#utility.yul\":7698:7720   */\n      add\n        /* \"#utility.yul\":7677:7730   */\n      tag_304\n      jump\t// in\n    tag_431:\n        /* \"#utility.yul\":7667:7730   */\n      swap2\n      pop\n        /* \"#utility.yul\":7623:7740   */\n      pop\n        /* \"#utility.yul\":7418:7747   */\n      swap3\n      swap2\n      pop\n      pop\n      jump\t// out\n        /* \"#utility.yul\":7753:8227   */\n    tag_82:\n        /* \"#utility.yul\":7821:7827   */\n      0x00\n        /* \"#utility.yul\":7829:7835   */\n      dup1\n        /* \"#utility.yul\":7878:7880   */\n      0x40\n        /* \"#utility.yul\":7866:7875   */\n      dup4\n        /* \"#utility.yul\":7857:7864   */\n      dup6\n        /* \"#utility.yul\":7853:7876   */\n      sub\n        /* \"#utility.yul\":7849:7881   */\n      slt\n        /* \"#utility.yul\":7846:7965   */\n      iszero\n      tag_433\n      jumpi\n        /* \"#utility.yul\":7884:7963   */\n      tag_434\n      tag_300\n      jump\t// in\n    tag_434:\n        /* \"#utility.yul\":7846:7965   */\n    tag_433:\n        /* \"#utility.yul\":8004:8005   */\n      0x00\n        /* \"#utility.yul\":8029:8082   */\n      tag_435\n        /* \"#utility.yul\":8074:8081   */\n      dup6\n        /* \"#utility.yul\":8065:8071   */\n      dup3\n        /* \"#utility.yul\":8054:8063   */\n      dup7\n        /* \"#utility.yul\":8050:8072   */\n      add\n        /* \"#utility.yul\":8029:8082   */\n      tag_304\n      jump\t// in\n    tag_435:\n        /* \"#utility.yul\":8019:8082   */\n      swap3\n      pop\n        /* \"#utility.yul\":7975:8092   */\n      pop\n        /* \"#utility.yul\":8131:8133   */\n      0x20\n        /* \"#utility.yul\":8157:8210   */\n      tag_436\n        /* \"#utility.yul\":8202:8209   */\n      dup6\n        /* \"#utility.yul\":8193:8199   */\n      dup3\n        /* \"#utility.yul\":8182:8191   */\n      dup7\n        /* \"#utility.yul\":8178:8200   */\n      add\n        /* \"#utility.yul\":8157:8210   */\n      tag_304\n      jump\t// in\n    tag_436:\n        /* \"#utility.yul\":8147:8210   */\n      swap2\n      pop\n        /* \"#utility.yul\":8102:8220   */\n      pop\n        /* \"#utility.yul\":7753:8227   */\n      swap3\n      pop\n      swap3\n      swap1\n      pop\n      jump\t// out\n        /* \"#utility.yul\":8233:8351   */\n    tag_325:\n        /* \"#utility.yul\":8320:8344   */\n      tag_438\n        /* \"#utility.yul\":8338:8343   */\n      dup2\n        /* \"#utility.yul\":8320:8344   */\n      tag_318\n      jump\t// in\n    tag_438:\n        /* \"#utility.yul\":8315:8318   */\n      dup3\n        /* \"#utility.yul\":8308:8345   */\n      mstore\n        /* \"#utility.yul\":8233:8351   */\n      pop\n      pop\n      jump\t// out\n        /* \"#utility.yul\":8357:8579   */\n    tag_94:\n        /* \"#utility.yul\":8450:8454   */\n      0x00\n        /* \"#utility.yul\":8488:8490   */\n      0x20\n        /* \"#utility.yul\":8477:8486   */\n      dup3\n        /* \"#utility.yul\":8473:8491   */\n      add\n        /* \"#utility.yul\":8465:8491   */\n      swap1\n      pop\n        /* \"#utility.yul\":8501:8572   */\n      tag_440\n        /* \"#utility.yul\":8569:8570   */\n      0x00\n        /* \"#utility.yul\":8558:8567   */\n      dup4\n        /* \"#utility.yul\":8554:8571   */\n      add\n        /* \"#utility.yul\":8545:8551   */\n      dup5\n        /* \"#utility.yul\":8501:8572   */\n      tag_325\n      jump\t// in\n    tag_440:\n        /* \"#utility.yul\":8357:8579   */\n      swap3\n      swap2\n      pop\n      pop\n      jump\t// out\n        /* \"#utility.yul\":8585:9204   */\n    tag_112:\n        /* \"#utility.yul\":8662:8668   */\n      0x00\n        /* \"#utility.yul\":8670:8676   */\n      dup1\n        /* \"#utility.yul\":8678:8684   */\n      0x00\n        /* \"#utility.yul\":8727:8729   */\n      0x60\n        /* \"#utility.yul\":8715:8724   */\n      dup5\n        /* \"#utility.yul\":8706:8713   */\n      dup7\n        /* \"#utility.yul\":8702:8725   */\n      sub\n        /* \"#utility.yul\":8698:8730   */\n      slt\n        /* \"#utility.yul\":8695:8814   */\n      iszero\n      tag_442\n      jumpi\n        /* \"#utility.yul\":8733:8812   */\n      tag_443\n      tag_300\n      jump\t// in\n    tag_443:\n        /* \"#utility.yul\":8695:8814   */\n    tag_442:\n        /* \"#utility.yul\":8853:8854   */\n      0x00\n        /* \"#utility.yul\":8878:8931   */\n      tag_444\n        /* \"#utility.yul\":8923:8930   */\n      dup7\n        /* \"#utility.yul\":8914:8920   */\n      dup3\n        /* \"#utility.yul\":8903:8912   */\n      dup8\n        /* \"#utility.yul\":8899:8921   */\n      add\n        /* \"#utility.yul\":8878:8931   */\n      tag_304\n      jump\t// in\n    tag_444:\n        /* \"#utility.yul\":8868:8931   */\n      swap4\n      pop\n        /* \"#utility.yul\":8824:8941   */\n      pop\n        /* \"#utility.yul\":8980:8982   */\n      0x20\n        /* \"#utility.yul\":9006:9059   */\n      tag_445\n        /* \"#utility.yul\":9051:9058   */\n      dup7\n        /* \"#utility.yul\":9042:9048   */\n      dup3\n        /* \"#utility.yul\":9031:9040   */\n      dup8\n        /* \"#utility.yul\":9027:9049   */\n      add\n        /* \"#utility.yul\":9006:9059   */\n      tag_320\n      jump\t// in\n    tag_445:\n        /* \"#utility.yul\":8996:9059   */\n      swap3\n      pop\n        /* \"#utility.yul\":8951:9069   */\n      pop\n        /* \"#utility.yul\":9108:9110   */\n      0x40\n        /* \"#utility.yul\":9134:9187   */\n      tag_446\n        /* \"#utility.yul\":9179:9186   */\n      dup7\n        /* \"#utility.yul\":9170:9176   */\n      dup3\n        /* \"#utility.yul\":9159:9168   */\n      dup8\n        /* \"#utility.yul\":9155:9177   */\n      add\n        /* \"#utility.yul\":9134:9187   */\n      tag_320\n      jump\t// in\n    tag_446:\n        /* \"#utility.yul\":9124:9187   */\n      swap2\n      pop\n        /* \"#utility.yul\":9079:9197   */\n      pop\n        /* \"#utility.yul\":8585:9204   */\n      swap3\n      pop\n      swap3\n      pop\n      swap3\n      jump\t// out\n        /* \"#utility.yul\":9210:9390   */\n    tag_166:\n        /* \"#utility.yul\":9258:9335   */\n      0x4e487b7100000000000000000000000000000000000000000000000000000000\n        /* \"#utility.yul\":9255:9256   */\n      0x00\n        /* \"#utility.yul\":9248:9336   */\n      mstore\n        /* \"#utility.yul\":9355:9359   */\n      0x21\n        /* \"#utility.yul\":9352:9353   */\n      0x04\n        /* \"#utility.yul\":9345:9360   */\n      mstore\n        /* \"#utility.yul\":9379:9383   */\n      0x24\n        /* \"#utility.yul\":9376:9377   */\n      0x00\n        /* \"#utility.yul\":9369:9384   */\n      revert\n        /* \"#utility.yul\":9396:9510   */\n    tag_326:\n        /* \"#utility.yul\":9477:9479   */\n      0x0a\n        /* \"#utility.yul\":9470:9475   */\n      dup2\n        /* \"#utility.yul\":9467:9480   */\n      lt\n        /* \"#utility.yul\":9457:9504   */\n      tag_449\n      jumpi\n        /* \"#utility.yul\":9484:9502   */\n      tag_450\n      tag_166\n      jump\t// in\n    tag_450:\n        /* \"#utility.yul\":9457:9504   */\n    tag_449:\n        /* \"#utility.yul\":9396:9510   */\n      pop\n      jump\t// out\n        /* \"#utility.yul\":9516:9643   */\n    tag_327:\n        /* \"#utility.yul\":9561:9568   */\n      0x00\n        /* \"#utility.yul\":9590:9595   */\n      dup2\n        /* \"#utility.yul\":9579:9595   */\n      swap1\n      pop\n        /* \"#utility.yul\":9596:9637   */\n      tag_452\n        /* \"#utility.yul\":9631:9636   */\n      dup3\n        /* \"#utility.yul\":9596:9637   */\n      tag_326\n      jump\t// in\n    tag_452:\n        /* \"#utility.yul\":9516:9643   */\n      swap2\n      swap1\n      pop\n      jump\t// out\n        /* \"#utility.yul\":9649:9776   */\n    tag_328:\n        /* \"#utility.yul\":9705:9714   */\n      0x00\n        /* \"#utility.yul\":9738:9770   */\n      tag_454\n        /* \"#utility.yul\":9764:9769   */\n      dup3\n        /* \"#utility.yul\":9738:9770   */\n      tag_327\n      jump\t// in\n    tag_454:\n        /* \"#utility.yul\":9725:9770   */\n      swap1\n      pop\n        /* \"#utility.yul\":9649:9776   */\n      swap2\n      swap1\n      pop\n      jump\t// out\n        /* \"#utility.yul\":9782:9925   */\n    tag_329:\n        /* \"#utility.yul\":9875:9918   */\n      tag_456\n        /* \"#utility.yul\":9912:9917   */\n      dup2\n        /* \"#utility.yul\":9875:9918   */\n      tag_328\n      jump\t// in\n    tag_456:\n        /* \"#utility.yul\":9870:9873   */\n      dup3\n        /* \"#utility.yul\":9863:9919   */\n      mstore\n        /* \"#utility.yul\":9782:9925   */\n      pop\n      pop\n      jump\t// out\n        /* \"#utility.yul\":9931:10165   */\n    tag_122:\n        /* \"#utility.yul\":10030:10034   */\n      0x00\n        /* \"#utility.yul\":10068:10070   */\n      0x20\n        /* \"#utility.yul\":10057:10066   */\n      dup3\n        /* \"#utility.yul\":10053:10071   */\n      add\n        /* \"#utility.yul\":10045:10071   */\n      swap1\n      pop\n        /* \"#utility.yul\":10081:10158   */\n      tag_458\n        /* \"#utility.yul\":10155:10156   */\n      0x00\n        /* \"#utility.yul\":10144:10153   */\n      dup4\n        /* \"#utility.yul\":10140:10157   */\n      add\n        /* \"#utility.yul\":10131:10137   */\n      dup5\n        /* \"#utility.yul\":10081:10158   */\n      tag_329\n      jump\t// in\n    tag_458:\n        /* \"#utility.yul\":9931:10165   */\n      swap3\n      swap2\n      pop\n      pop\n      jump\t// out\n        /* \"#utility.yul\":10171:10293   */\n    tag_330:\n        /* \"#utility.yul\":10244:10268   */\n      tag_460\n        /* \"#utility.yul\":10262:10267   */\n      dup2\n        /* \"#utility.yul\":10244:10268   */\n      tag_322\n      jump\t// in\n    tag_460:\n        /* \"#utility.yul\":10237:10242   */\n      dup2\n        /* \"#utility.yul\":10234:10269   */\n      eq\n        /* \"#utility.yul\":10224:10287   */\n      tag_461\n      jumpi\n        /* \"#utility.yul\":10283:10284   */\n      0x00\n        /* \"#utility.yul\":10280:10281   */\n      dup1\n        /* \"#utility.yul\":10273:10285   */\n      revert\n        /* \"#utility.yul\":10224:10287   */\n    tag_461:\n        /* \"#utility.yul\":10171:10293   */\n      pop\n      jump\t// out\n        /* \"#utility.yul\":10299:10438   */\n    tag_331:\n        /* \"#utility.yul\":10345:10350   */\n      0x00\n        /* \"#utility.yul\":10383:10389   */\n      dup2\n        /* \"#utility.yul\":10370:10390   */\n      calldataload\n        /* \"#utility.yul\":10361:10390   */\n      swap1\n      pop\n        /* \"#utility.yul\":10399:10432   */\n      tag_463\n        /* \"#utility.yul\":10426:10431   */\n      dup2\n        /* \"#utility.yul\":10399:10432   */\n      tag_330\n      jump\t// in\n    tag_463:\n        /* \"#utility.yul\":10299:10438   */\n      swap3\n      swap2\n      pop\n      pop\n      jump\t// out\n        /* \"#utility.yul\":10444:10918   */\n    tag_143:\n        /* \"#utility.yul\":10512:10518   */\n      0x00\n        /* \"#utility.yul\":10520:10526   */\n      dup1\n        /* \"#utility.yul\":10569:10571   */\n      0x40\n        /* \"#utility.yul\":10557:10566   */\n      dup4\n        /* \"#utility.yul\":10548:10555   */\n      dup6\n        /* \"#utility.yul\":10544:10567   */\n      sub\n        /* \"#utility.yul\":10540:10572   */\n      slt\n        /* \"#utility.yul\":10537:10656   */\n      iszero\n      tag_465\n      jumpi\n        /* \"#utility.yul\":10575:10654   */\n      tag_466\n      tag_300\n      jump\t// in\n    tag_466:\n        /* \"#utility.yul\":10537:10656   */\n    tag_465:\n        /* \"#utility.yul\":10695:10696   */\n      0x00\n        /* \"#utility.yul\":10720:10773   */\n      tag_467\n        /* \"#utility.yul\":10765:10772   */\n      dup6\n        /* \"#utility.yul\":10756:10762   */\n      dup3\n        /* \"#utility.yul\":10745:10754   */\n      dup7\n        /* \"#utility.yul\":10741:10763   */\n      add\n        /* \"#utility.yul\":10720:10773   */\n      tag_331\n      jump\t// in\n    tag_467:\n        /* \"#utility.yul\":10710:10773   */\n      swap3\n      pop\n        /* \"#utility.yul\":10666:10783   */\n      pop\n        /* \"#utility.yul\":10822:10824   */\n      0x20\n        /* \"#utility.yul\":10848:10901   */\n      tag_468\n        /* \"#utility.yul\":10893:10900   */\n      dup6\n        /* \"#utility.yul\":10884:10890   */\n      dup3\n        /* \"#utility.yul\":10873:10882   */\n      dup7\n        /* \"#utility.yul\":10869:10891   */\n      add\n        /* \"#utility.yul\":10848:10901   */\n      tag_331\n      jump\t// in\n    tag_468:\n        /* \"#utility.yul\":10838:10901   */\n      swap2\n      pop\n        /* \"#utility.yul\":10793:10911   */\n      pop\n        /* \"#utility.yul\":10444:10918   */\n      swap3\n      pop\n      swap3\n      swap1\n      pop\n      jump\t// out\n        /* \"#utility.yul\":10924:11104   */\n    tag_156:\n        /* \"#utility.yul\":10972:11049   */\n      0x4e487b7100000000000000000000000000000000000000000000000000000000\n        /* \"#utility.yul\":10969:10970   */\n      0x00\n        /* \"#utility.yul\":10962:11050   */\n      mstore\n        /* \"#utility.yul\":11069:11073   */\n      0x32\n        /* \"#utility.yul\":11066:11067   */\n      0x04\n        /* \"#utility.yul\":11059:11074   */\n      mstore\n        /* \"#utility.yul\":11093:11097   */\n      0x24\n        /* \"#utility.yul\":11090:11091   */\n      0x00\n        /* \"#utility.yul\":11083:11098   */\n      revert\n        /* \"#utility.yul\":11110:11442   */\n    tag_158:\n        /* \"#utility.yul\":11231:11235   */\n      0x00\n        /* \"#utility.yul\":11269:11271   */\n      0x40\n        /* \"#utility.yul\":11258:11267   */\n      dup3\n        /* \"#utility.yul\":11254:11272   */\n      add\n        /* \"#utility.yul\":11246:11272   */\n      swap1\n      pop\n        /* \"#utility.yul\":11282:11353   */\n      tag_471\n        /* \"#utility.yul\":11350:11351   */\n      0x00\n        /* \"#utility.yul\":11339:11348   */\n      dup4\n        /* \"#utility.yul\":11335:11352   */\n      add\n        /* \"#utility.yul\":11326:11332   */\n      dup6\n        /* \"#utility.yul\":11282:11353   */\n      tag_324\n      jump\t// in\n    tag_471:\n        /* \"#utility.yul\":11363:11435   */\n      tag_472\n        /* \"#utility.yul\":11431:11433   */\n      0x20\n        /* \"#utility.yul\":11420:11429   */\n      dup4\n        /* \"#utility.yul\":11416:11434   */\n      add\n        /* \"#utility.yul\":11407:11413   */\n      dup5\n        /* \"#utility.yul\":11363:11435   */\n      tag_324\n      jump\t// in\n    tag_472:\n        /* \"#utility.yul\":11110:11442   */\n      swap4\n      swap3\n      pop\n      pop\n      pop\n      jump\t// out\n        /* \"#utility.yul\":11448:11628   */\n    tag_332:\n        /* \"#utility.yul\":11496:11573   */\n      0x4e487b7100000000000000000000000000000000000000000000000000000000\n        /* \"#utility.yul\":11493:11494   */\n      0x00\n        /* \"#utility.yul\":11486:11574   */\n      mstore\n        /* \"#utility.yul\":11593:11597   */\n      0x11\n        /* \"#utility.yul\":11590:11591   */\n      0x04\n        /* \"#utility.yul\":11583:11598   */\n      mstore\n        /* \"#utility.yul\":11617:11621   */\n      0x24\n        /* \"#utility.yul\":11614:11615   */\n      0x00\n        /* \"#utility.yul\":11607:11622   */\n      revert\n        /* \"#utility.yul\":11634:11867   */\n    tag_160:\n        /* \"#utility.yul\":11673:11676   */\n      0x00\n        /* \"#utility.yul\":11696:11720   */\n      tag_475\n        /* \"#utility.yul\":11714:11719   */\n      dup3\n        /* \"#utility.yul\":11696:11720   */\n      tag_318\n      jump\t// in\n    tag_475:\n        /* \"#utility.yul\":11687:11720   */\n      swap2\n      pop\n        /* \"#utility.yul\":11742:11808   */\n      0xffffffffffffffffffffffffffffffffffffffffffffffffffffffffffffffff\n        /* \"#utility.yul\":11735:11740   */\n      dup3\n        /* \"#utility.yul\":11732:11809   */\n      sub\n        /* \"#utility.yul\":11729:11832   */\n      tag_476\n      jumpi\n        /* \"#utility.yul\":11812:11830   */\n      tag_477\n      tag_332\n      jump\t// in\n    tag_477:\n        /* \"#utility.yul\":11729:11832   */\n    tag_476:\n        /* \"#utility.yul\":11859:11860   */\n      0x01\n        /* \"#utility.yul\":11852:11857   */\n      dup3\n        /* \"#utility.yul\":11848:11861   */\n      add\n        /* \"#utility.yul\":11841:11861   */\n      swap1\n      pop\n        /* \"#utility.yul\":11634:11867   */\n      swap2\n      swap1\n      pop\n      jump\t// out\n        /* \"#utility.yul\":11873:12064   */\n    tag_179:\n        /* \"#utility.yul\":11913:11916   */\n      0x00\n        /* \"#utility.yul\":11932:11952   */\n      tag_479\n        /* \"#utility.yul\":11950:11951   */\n      dup3\n        /* \"#utility.yul\":11932:11952   */\n      tag_318\n      jump\t// in\n    tag_479:\n        /* \"#utility.yul\":11927:11952   */\n      swap2\n      pop\n        /* \"#utility.yul\":11966:11986   */\n      tag_480\n        /* \"#utility.yul\":11984:11985   */\n      dup4\n        /* \"#utility.yul\":11966:11986   */\n      tag_318\n      jump\t// in\n    tag_480:\n        /* \"#utility.yul\":11961:11986   */\n      swap3\n      pop\n        /* \"#utility.yul\":12009:12010   */\n      dup3\n        /* \"#utility.yul\":12006:12007   */\n      dup3\n        /* \"#utility.yul\":12002:12011   */\n      add\n        /* \"#utility.yul\":11995:12011   */\n      swap1\n      pop\n        /* \"#utility.yul\":12030:12033   */\n      dup1\n        /* \"#utility.yul\":12027:12028   */\n      dup3\n        /* \"#utility.yul\":12024:12034   */\n      gt\n        /* \"#utility.yul\":12021:12057   */\n      iszero\n      tag_481\n      jumpi\n        /* \"#utility.yul\":12037:12055   */\n      tag_482\n      tag_332\n      jump\t// in\n    tag_482:\n        /* \"#utility.yul\":12021:12057   */\n    tag_481:\n        /* \"#utility.yul\":11873:12064   */\n      swap3\n      swap2\n      pop\n      pop\n      jump\t// out\n        /* \"#utility.yul\":12070:12242   */\n    tag_333:\n        /* \"#utility.yul\":12210:12234   */\n      0x526573706f6e64652074696d65206973206f7665722000000000000000000000\n        /* \"#utility.yul\":12206:12207   */\n      0x00\n        /* \"#utility.yul\":12198:12204   */\n      dup3\n        /* \"#utility.yul\":12194:12208   */\n      add\n        /* \"#utility.yul\":12187:12235   */\n      mstore\n        /* \"#utility.yul\":12070:12242   */\n      pop\n      jump\t// out\n        /* \"#utility.yul\":12248:12614   */\n    tag_334:\n        /* \"#utility.yul\":12390:12393   */\n      0x00\n        /* \"#utility.yul\":12411:12478   */\n      tag_485\n        /* \"#utility.yul\":12475:12477   */\n      0x16\n        /* \"#utility.yul\":12470:12473   */\n      dup4\n        /* \"#utility.yul\":12411:12478   */\n      tag_315\n      jump\t// in\n    tag_485:\n        /* \"#utility.yul\":12404:12478   */\n      swap2\n      pop\n        /* \"#utility.yul\":12487:12580   */\n      tag_486\n        /* \"#utility.yul\":12576:12579   */\n      dup3\n        /* \"#utility.yul\":12487:12580   */\n      tag_333\n      jump\t// in\n    tag_486:\n        /* \"#utility.yul\":12605:12607   */\n      0x20\n        /* \"#utility.yul\":12600:12603   */\n      dup3\n        /* \"#utility.yul\":12596:12608   */\n      add\n        /* \"#utility.yul\":12589:12608   */\n      swap1\n      pop\n        /* \"#utility.yul\":12248:12614   */\n      swap2\n      swap1\n      pop\n      jump\t// out\n        /* \"#utility.yul\":12620:13039   */\n    tag_182:\n        /* \"#utility.yul\":12786:12790   */\n      0x00\n        /* \"#utility.yul\":12824:12826   */\n      0x20\n        /* \"#utility.yul\":12813:12822   */\n      dup3\n        /* \"#utility.yul\":12809:12827   */\n      add\n        /* \"#utility.yul\":12801:12827   */\n      swap1\n      pop\n        /* \"#utility.yul\":12873:12882   */\n      dup2\n        /* \"#utility.yul\":12867:12871   */\n      dup2\n        /* \"#utility.yul\":12863:12883   */\n      sub\n        /* \"#utility.yul\":12859:12860   */\n      0x00\n        /* \"#utility.yul\":12848:12857   */\n      dup4\n        /* \"#utility.yul\":12844:12861   */\n      add\n        /* \"#utility.yul\":12837:12884   */\n      mstore\n        /* \"#utility.yul\":12901:13032   */\n      tag_488\n        /* \"#utility.yul\":13027:13031   */\n      dup2\n        /* \"#utility.yul\":12901:13032   */\n      tag_334\n      jump\t// in\n    tag_488:\n        /* \"#utility.yul\":12893:13032   */\n      swap1\n      pop\n        /* \"#utility.yul\":12620:13039   */\n      swap2\n      swap1\n      pop\n      jump\t// out\n        /* \"#utility.yul\":13045:13377   */\n    tag_186:\n        /* \"#utility.yul\":13166:13170   */\n      0x00\n        /* \"#utility.yul\":13204:13206   */\n      0x40\n        /* \"#utility.yul\":13193:13202   */\n      dup3\n        /* \"#utility.yul\":13189:13207   */\n      add\n        /* \"#utility.yul\":13181:13207   */\n      swap1\n      pop\n        /* \"#utility.yul\":13217:13288   */\n      tag_490\n        /* \"#utility.yul\":13285:13286   */\n      0x00\n        /* \"#utility.yul\":13274:13283   */\n      dup4\n        /* \"#utility.yul\":13270:13287   */\n      add\n        /* \"#utility.yul\":13261:13267   */\n      dup6\n        /* \"#utility.yul\":13217:13288   */\n      tag_324\n      jump\t// in\n    tag_490:\n        /* \"#utility.yul\":13298:13370   */\n      tag_491\n        /* \"#utility.yul\":13366:13368   */\n      0x20\n        /* \"#utility.yul\":13355:13364   */\n      dup4\n        /* \"#utility.yul\":13351:13369   */\n      add\n        /* \"#utility.yul\":13342:13348   */\n      dup5\n        /* \"#utility.yul\":13298:13370   */\n      tag_325\n      jump\t// in\n    tag_491:\n        /* \"#utility.yul\":13045:13377   */\n      swap4\n      swap3\n      pop\n      pop\n      pop\n      jump\t// out\n        /* \"#utility.yul\":13383:13563   */\n    tag_335:\n        /* \"#utility.yul\":13523:13555   */\n      0x4f7065726174696f6e2074696d65206973206e6f74206f766572207965740000\n        /* \"#utility.yul\":13519:13520   */\n      0x00\n        /* \"#utility.yul\":13511:13517   */\n      dup3\n        /* \"#utility.yul\":13507:13521   */\n      add\n        /* \"#utility.yul\":13500:13556   */\n      mstore\n        /* \"#utility.yul\":13383:13563   */\n      pop\n      jump\t// out\n        /* \"#utility.yul\":13569:13935   */\n    tag_336:\n        /* \"#utility.yul\":13711:13714   */\n      0x00\n        /* \"#utility.yul\":13732:13799   */\n      tag_494\n        /* \"#utility.yul\":13796:13798   */\n      0x1e\n        /* \"#utility.yul\":13791:13794   */\n      dup4\n        /* \"#utility.yul\":13732:13799   */\n      tag_315\n      jump\t// in\n    tag_494:\n        /* \"#utility.yul\":13725:13799   */\n      swap2\n      pop\n        /* \"#utility.yul\":13808:13901   */\n      tag_495\n        /* \"#utility.yul\":13897:13900   */\n      dup3\n        /* \"#utility.yul\":13808:13901   */\n      tag_335\n      jump\t// in\n    tag_495:\n        /* \"#utility.yul\":13926:13928   */\n      0x20\n        /* \"#utility.yul\":13921:13924   */\n      dup3\n        /* \"#utility.yul\":13917:13929   */\n      add\n        /* \"#utility.yul\":13910:13929   */\n      swap1\n      pop\n        /* \"#utility.yul\":13569:13935   */\n      swap2\n      swap1\n      pop\n      jump\t// out\n        /* \"#utility.yul\":13941:14360   */\n    tag_196:\n        /* \"#utility.yul\":14107:14111   */\n      0x00\n        /* \"#utility.yul\":14145:14147   */\n      0x20\n        /* \"#utility.yul\":14134:14143   */\n      dup3\n        /* \"#utility.yul\":14130:14148   */\n      add\n        /* \"#utility.yul\":14122:14148   */\n      swap1\n      pop\n        /* \"#utility.yul\":14194:14203   */\n      dup2\n        /* \"#utility.yul\":14188:14192   */\n      dup2\n        /* \"#utility.yul\":14184:14204   */\n      sub\n        /* \"#utility.yul\":14180:14181   */\n      0x00\n        /* \"#utility.yul\":14169:14178   */\n      dup4\n        /* \"#utility.yul\":14165:14182   */\n      add\n        /* \"#utility.yul\":14158:14205   */\n      mstore\n        /* \"#utility.yul\":14222:14353   */\n      tag_497\n        /* \"#utility.yul\":14348:14352   */\n      dup2\n        /* \"#utility.yul\":14222:14353   */\n      tag_336\n      jump\t// in\n    tag_497:\n        /* \"#utility.yul\":14214:14353   */\n      swap1\n      pop\n        /* \"#utility.yul\":13941:14360   */\n      swap2\n      swap1\n      pop\n      jump\t// out\n        /* \"#utility.yul\":14366:14698   */\n    tag_213:\n        /* \"#utility.yul\":14487:14491   */\n      0x00\n        /* \"#utility.yul\":14525:14527   */\n      0x40\n        /* \"#utility.yul\":14514:14523   */\n      dup3\n        /* \"#utility.yul\":14510:14528   */\n      add\n        /* \"#utility.yul\":14502:14528   */\n      swap1\n      pop\n        /* \"#utility.yul\":14538:14609   */\n      tag_499\n        /* \"#utility.yul\":14606:14607   */\n      0x00\n        /* \"#utility.yul\":14595:14604   */\n      dup4\n        /* \"#utility.yul\":14591:14608   */\n      add\n        /* \"#utility.yul\":14582:14588   */\n      dup6\n        /* \"#utility.yul\":14538:14609   */\n      tag_325\n      jump\t// in\n    tag_499:\n        /* \"#utility.yul\":14619:14691   */\n      tag_500\n        /* \"#utility.yul\":14687:14689   */\n      0x20\n        /* \"#utility.yul\":14676:14685   */\n      dup4\n        /* \"#utility.yul\":14672:14690   */\n      add\n        /* \"#utility.yul\":14663:14669   */\n      dup5\n        /* \"#utility.yul\":14619:14691   */\n      tag_324\n      jump\t// in\n    tag_500:\n        /* \"#utility.yul\":14366:14698   */\n      swap4\n      swap3\n      pop\n      pop\n      pop\n      jump\t// out\n        /* \"#utility.yul\":14704:14783   */\n    tag_337:\n        /* \"#utility.yul\":14743:14750   */\n      0x00\n        /* \"#utility.yul\":14772:14777   */\n      dup2\n        /* \"#utility.yul\":14761:14777   */\n      swap1\n      pop\n        /* \"#utility.yul\":14704:14783   */\n      swap2\n      swap1\n      pop\n      jump\t// out\n        /* \"#utility.yul\":14789:14946   */\n    tag_338:\n        /* \"#utility.yul\":14894:14939   */\n      tag_503\n        /* \"#utility.yul\":14914:14938   */\n      tag_504\n        /* \"#utility.yul\":14932:14937   */\n      dup3\n        /* \"#utility.yul\":14914:14938   */\n      tag_302\n      jump\t// in\n    tag_504:\n        /* \"#utility.yul\":14894:14939   */\n      tag_337\n      jump\t// in\n    tag_503:\n        /* \"#utility.yul\":14889:14892   */\n      dup3\n        /* \"#utility.yul\":14882:14940   */\n      mstore\n        /* \"#utility.yul\":14789:14946   */\n      pop\n      pop\n      jump\t// out\n        /* \"#utility.yul\":14952:15208   */\n    tag_230:\n        /* \"#utility.yul\":15064:15067   */\n      0x00\n        /* \"#utility.yul\":15079:15154   */\n      tag_506\n        /* \"#utility.yul\":15150:15153   */\n      dup3\n        /* \"#utility.yul\":15141:15147   */\n      dup5\n        /* \"#utility.yul\":15079:15154   */\n      tag_338\n      jump\t// in\n    tag_506:\n        /* \"#utility.yul\":15179:15181   */\n      0x20\n        /* \"#utility.yul\":15174:15177   */\n      dup3\n        /* \"#utility.yul\":15170:15182   */\n      add\n        /* \"#utility.yul\":15163:15182   */\n      swap2\n      pop\n        /* \"#utility.yul\":15199:15202   */\n      dup2\n        /* \"#utility.yul\":15192:15202   */\n      swap1\n      pop\n        /* \"#utility.yul\":14952:15208   */\n      swap3\n      swap2\n      pop\n      pop\n      jump\t// out\n        /* \"#utility.yul\":15214:15312   */\n    tag_339:\n        /* \"#utility.yul\":15265:15271   */\n      0x00\n        /* \"#utility.yul\":15299:15304   */\n      dup2\n        /* \"#utility.yul\":15293:15305   */\n      mload\n        /* \"#utility.yul\":15283:15305   */\n      swap1\n      pop\n        /* \"#utility.yul\":15214:15312   */\n      swap2\n      swap1\n      pop\n      jump\t// out\n        /* \"#utility.yul\":15318:15465   */\n    tag_340:\n        /* \"#utility.yul\":15419:15430   */\n      0x00\n        /* \"#utility.yul\":15456:15459   */\n      dup2\n        /* \"#utility.yul\":15441:15459   */\n      swap1\n      pop\n        /* \"#utility.yul\":15318:15465   */\n      swap3\n      swap2\n      pop\n      pop\n      jump\t// out\n        /* \"#utility.yul\":15471:15857   */\n    tag_341:\n        /* \"#utility.yul\":15575:15578   */\n      0x00\n        /* \"#utility.yul\":15603:15641   */\n      tag_510\n        /* \"#utility.yul\":15635:15640   */\n      dup3\n        /* \"#utility.yul\":15603:15641   */\n      tag_339\n      jump\t// in\n    tag_510:\n        /* \"#utility.yul\":15657:15745   */\n      tag_511\n        /* \"#utility.yul\":15738:15744   */\n      dup2\n        /* \"#utility.yul\":15733:15736   */\n      dup6\n        /* \"#utility.yul\":15657:15745   */\n      tag_340\n      jump\t// in\n    tag_511:\n        /* \"#utility.yul\":15650:15745   */\n      swap4\n      pop\n        /* \"#utility.yul\":15754:15819   */\n      tag_512\n        /* \"#utility.yul\":15812:15818   */\n      dup2\n        /* \"#utility.yul\":15807:15810   */\n      dup6\n        /* \"#utility.yul\":15800:15804   */\n      0x20\n        /* \"#utility.yul\":15793:15798   */\n      dup7\n        /* \"#utility.yul\":15789:15805   */\n      add\n        /* \"#utility.yul\":15754:15819   */\n      tag_316\n      jump\t// in\n    tag_512:\n        /* \"#utility.yul\":15844:15850   */\n      dup1\n        /* \"#utility.yul\":15839:15842   */\n      dup5\n        /* \"#utility.yul\":15835:15851   */\n      add\n        /* \"#utility.yul\":15828:15851   */\n      swap2\n      pop\n        /* \"#utility.yul\":15579:15857   */\n      pop\n        /* \"#utility.yul\":15471:15857   */\n      swap3\n      swap2\n      pop\n      pop\n      jump\t// out\n        /* \"#utility.yul\":15863:16134   */\n    tag_232:\n        /* \"#utility.yul\":15993:15996   */\n      0x00\n        /* \"#utility.yul\":16015:16108   */\n      tag_514\n        /* \"#utility.yul\":16104:16107   */\n      dup3\n        /* \"#utility.yul\":16095:16101   */\n      dup5\n        /* \"#utility.yul\":16015:16108   */\n      tag_341\n      jump\t// in\n    tag_514:\n        /* \"#utility.yul\":16008:16108   */\n      swap2\n      pop\n        /* \"#utility.yul\":16125:16128   */\n      dup2\n        /* \"#utility.yul\":16118:16128   */\n      swap1\n      pop\n        /* \"#utility.yul\":15863:16134   */\n      swap3\n      swap2\n      pop\n      pop\n      jump\t// out\n        /* \"#utility.yul\":16140:16283   */\n    tag_342:\n        /* \"#utility.yul\":16197:16202   */\n      0x00\n        /* \"#utility.yul\":16228:16234   */\n      dup2\n        /* \"#utility.yul\":16222:16235   */\n      mload\n        /* \"#utility.yul\":16213:16235   */\n      swap1\n      pop\n        /* \"#utility.yul\":16244:16277   */\n      tag_516\n        /* \"#utility.yul\":16271:16276   */\n      dup2\n        /* \"#utility.yul\":16244:16277   */\n      tag_303\n      jump\t// in\n    tag_516:\n        /* \"#utility.yul\":16140:16283   */\n      swap3\n      swap2\n      pop\n      pop\n      jump\t// out\n        /* \"#utility.yul\":16289:16640   */\n    tag_236:\n        /* \"#utility.yul\":16359:16365   */\n      0x00\n        /* \"#utility.yul\":16408:16410   */\n      0x20\n        /* \"#utility.yul\":16396:16405   */\n      dup3\n        /* \"#utility.yul\":16387:16394   */\n      dup5\n        /* \"#utility.yul\":16383:16406   */\n      sub\n        /* \"#utility.yul\":16379:16411   */\n      slt\n        /* \"#utility.yul\":16376:16495   */\n      iszero\n      tag_518\n      jumpi\n        /* \"#utility.yul\":16414:16493   */\n      tag_519\n      tag_300\n      jump\t// in\n    tag_519:\n        /* \"#utility.yul\":16376:16495   */\n    tag_518:\n        /* \"#utility.yul\":16534:16535   */\n      0x00\n        /* \"#utility.yul\":16559:16623   */\n      tag_520\n        /* \"#utility.yul\":16615:16622   */\n      dup5\n        /* \"#utility.yul\":16606:16612   */\n      dup3\n        /* \"#utility.yul\":16595:16604   */\n      dup6\n        /* \"#utility.yul\":16591:16613   */\n      add\n        /* \"#utility.yul\":16559:16623   */\n      tag_342\n      jump\t// in\n    tag_520:\n        /* \"#utility.yul\":16549:16623   */\n      swap2\n      pop\n        /* \"#utility.yul\":16505:16633   */\n      pop\n        /* \"#utility.yul\":16289:16640   */\n      swap3\n      swap2\n      pop\n      pop\n      jump\t// out\n        /* \"#utility.yul\":16646:17088   */\n    tag_258:\n        /* \"#utility.yul\":16795:16799   */\n      0x00\n        /* \"#utility.yul\":16833:16835   */\n      0x60\n        /* \"#utility.yul\":16822:16831   */\n      dup3\n        /* \"#utility.yul\":16818:16836   */\n      add\n        /* \"#utility.yul\":16810:16836   */\n      swap1\n      pop\n        /* \"#utility.yul\":16846:16917   */\n      tag_522\n        /* \"#utility.yul\":16914:16915   */\n      0x00\n        /* \"#utility.yul\":16903:16912   */\n      dup4\n        /* \"#utility.yul\":16899:16916   */\n      add\n        /* \"#utility.yul\":16890:16896   */\n      dup7\n        /* \"#utility.yul\":16846:16917   */\n      tag_324\n      jump\t// in\n    tag_522:\n        /* \"#utility.yul\":16927:16999   */\n      tag_523\n        /* \"#utility.yul\":16995:16997   */\n      0x20\n        /* \"#utility.yul\":16984:16993   */\n      dup4\n        /* \"#utility.yul\":16980:16998   */\n      add\n        /* \"#utility.yul\":16971:16977   */\n      dup6\n        /* \"#utility.yul\":16927:16999   */\n      tag_325\n      jump\t// in\n    tag_523:\n        /* \"#utility.yul\":17009:17081   */\n      tag_524\n        /* \"#utility.yul\":17077:17079   */\n      0x40\n        /* \"#utility.yul\":17066:17075   */\n      dup4\n        /* \"#utility.yul\":17062:17080   */\n      add\n        /* \"#utility.yul\":17053:17059   */\n      dup5\n        /* \"#utility.yul\":17009:17081   */\n      tag_325\n      jump\t// in\n    tag_524:\n        /* \"#utility.yul\":16646:17088   */\n      swap5\n      swap4\n      pop\n      pop\n      pop\n      pop\n      jump\t// out\n        /* \"#utility.yul\":17094:17491   */\n    tag_261:\n        /* \"#utility.yul\":17234:17237   */\n      0x00\n        /* \"#utility.yul\":17249:17324   */\n      tag_526\n        /* \"#utility.yul\":17320:17323   */\n      dup3\n        /* \"#utility.yul\":17311:17317   */\n      dup6\n        /* \"#utility.yul\":17249:17324   */\n      tag_338\n      jump\t// in\n    tag_526:\n        /* \"#utility.yul\":17349:17351   */\n      0x20\n        /* \"#utility.yul\":17344:17347   */\n      dup3\n        /* \"#utility.yul\":17340:17352   */\n      add\n        /* \"#utility.yul\":17333:17352   */\n      swap2\n      pop\n        /* \"#utility.yul\":17362:17437   */\n      tag_527\n        /* \"#utility.yul\":17433:17436   */\n      dup3\n        /* \"#utility.yul\":17424:17430   */\n      dup5\n        /* \"#utility.yul\":17362:17437   */\n      tag_338\n      jump\t// in\n    tag_527:\n        /* \"#utility.yul\":17462:17464   */\n      0x20\n        /* \"#utility.yul\":17457:17460   */\n      dup3\n        /* \"#utility.yul\":17453:17465   */\n      add\n        /* \"#utility.yul\":17446:17465   */\n      swap2\n      pop\n        /* \"#utility.yul\":17482:17485   */\n      dup2\n        /* \"#utility.yul\":17475:17485   */\n      swap1\n      pop\n        /* \"#utility.yul\":17094:17491   */\n      swap4\n      swap3\n      pop\n      pop\n      pop\n      jump\t// out\n        /* \"#utility.yul\":17497:17829   */\n    tag_283:\n        /* \"#utility.yul\":17618:17622   */\n      0x00\n        /* \"#utility.yul\":17656:17658   */\n      0x40\n        /* \"#utility.yul\":17645:17654   */\n      dup3\n        /* \"#utility.yul\":17641:17659   */\n      add\n        /* \"#utility.yul\":17633:17659   */\n      swap1\n      pop\n        /* \"#utility.yul\":17669:17740   */\n      tag_529\n        /* \"#utility.yul\":17737:17738   */\n      0x00\n        /* \"#utility.yul\":17726:17735   */\n      dup4\n        /* \"#utility.yul\":17722:17739   */\n      add\n        /* \"#utility.yul\":17713:17719   */\n      dup6\n        /* \"#utility.yul\":17669:17740   */\n      tag_323\n      jump\t// in\n    tag_529:\n        /* \"#utility.yul\":17750:17822   */\n      tag_530\n        /* \"#utility.yul\":17818:17820   */\n      0x20\n        /* \"#utility.yul\":17807:17816   */\n      dup4\n        /* \"#utility.yul\":17803:17821   */\n      add\n        /* \"#utility.yul\":17794:17800   */\n      dup5\n        /* \"#utility.yul\":17750:17822   */\n      tag_323\n      jump\t// in\n    tag_530:\n        /* \"#utility.yul\":17497:17829   */\n      swap4\n      swap3\n      pop\n      pop\n      pop\n      jump\t// out\n        /* \"#utility.yul\":17835:18029   */\n    tag_293:\n        /* \"#utility.yul\":17875:17879   */\n      0x00\n        /* \"#utility.yul\":17895:17915   */\n      tag_532\n        /* \"#utility.yul\":17913:17914   */\n      dup3\n        /* \"#utility.yul\":17895:17915   */\n      tag_318\n      jump\t// in\n    tag_532:\n        /* \"#utility.yul\":17890:17915   */\n      swap2\n      pop\n        /* \"#utility.yul\":17929:17949   */\n      tag_533\n        /* \"#utility.yul\":17947:17948   */\n      dup4\n        /* \"#utility.yul\":17929:17949   */\n      tag_318\n      jump\t// in\n    tag_533:\n        /* \"#utility.yul\":17924:17949   */\n      swap3\n      pop\n        /* \"#utility.yul\":17973:17974   */\n      dup3\n        /* \"#utility.yul\":17970:17971   */\n      dup3\n        /* \"#utility.yul\":17966:17975   */\n      sub\n        /* \"#utility.yul\":17958:17975   */\n      swap1\n      pop\n        /* \"#utility.yul\":17997:17998   */\n      dup2\n        /* \"#utility.yul\":17991:17995   */\n      dup2\n        /* \"#utility.yul\":17988:17999   */\n      gt\n        /* \"#utility.yul\":17985:18022   */\n      iszero\n      tag_534\n      jumpi\n        /* \"#utility.yul\":18002:18020   */\n      tag_535\n      tag_332\n      jump\t// in\n    tag_535:\n        /* \"#utility.yul\":17985:18022   */\n    tag_534:\n        /* \"#utility.yul\":17835:18029   */\n      swap3\n      swap2\n      pop\n      pop\n      jump\t// out\n        /* \"#utility.yul\":18035:18367   */\n    tag_298:\n        /* \"#utility.yul\":18156:18160   */\n      0x00\n        /* \"#utility.yul\":18194:18196   */\n      0x40\n        /* \"#utility.yul\":18183:18192   */\n      dup3\n        /* \"#utility.yul\":18179:18197   */\n      add\n        /* \"#utility.yul\":18171:18197   */\n      swap1\n      pop\n        /* \"#utility.yul\":18207:18278   */\n      tag_537\n        /* \"#utility.yul\":18275:18276   */\n      0x00\n        /* \"#utility.yul\":18264:18273   */\n      dup4\n        /* \"#utility.yul\":18260:18277   */\n      add\n        /* \"#utility.yul\":18251:18257   */\n      dup6\n        /* \"#utility.yul\":18207:18278   */\n      tag_323\n      jump\t// in\n    tag_537:\n        /* \"#utility.yul\":18288:18360   */\n      tag_538\n        /* \"#utility.yul\":18356:18358   */\n      0x20\n        /* \"#utility.yul\":18345:18354   */\n      dup4\n        /* \"#utility.yul\":18341:18359   */\n      add\n        /* \"#utility.yul\":18332:18338   */\n      dup5\n        /* \"#utility.yul\":18288:18360   */\n      tag_325\n      jump\t// in\n    tag_538:\n        /* \"#utility.yul\":18035:18367   */\n      swap4\n      swap3\n      pop\n      pop\n      pop\n      jump\t// out\n\n    auxdata: 0xa2646970667358221220b25b359fe62307405dc1f9cf4512f17c86a23c4bfc599125f79198a1ea7caebf64736f6c63430008120033\n}\n",
				"bytecode": {
					"linkReferences": {},
					"object": "6080604052610258600c5534801561001657600080fd5b5033600260006101000a81548173ffffffffffffffffffffffffffffffffffffffff021916908373ffffffffffffffffffffffffffffffffffffffff16021790555033600160006101000a81548173ffffffffffffffffffffffffffffffffffffffff021916908373ffffffffffffffffffffffffffffffffffffffff16021790555033600360006101000a81548173ffffffffffffffffffffffffffffffffffffffff021916908373ffffffffffffffffffffffffffffffffffffffff1602179055506000600d60006101000a81548160ff02191690836009811115610100576100ff61010a565b5b0217905550610139565b7f4e487b7100000000000000000000000000000000000000000000000000000000600052602160045260246000fd5b611d9f806101486000396000f3fe6080604052600436106101815760003560e01c80639ae67252116100d1578063c19d93fb1161008a578063e629963111610064578063e629963114610524578063ee17b8071461054f578063f258d51e1461058c578063f4c1f07b146105b557610181565b8063c19d93fb146104a3578063c2a2747b146104ce578063c8a663ec146104f957610181565b80639ae67252146103c45780639ae8886a146103ef578063a2fc30af1461041a578063b66cfa4114610445578063b93a86ce1461045c578063c08d1fe51461047857610181565b8063503395591161013e5780637150d8ae116101185780637150d8ae146102f4578063781920631461031f5780637a1a456a1461035c57806380aa2dae1461039957610181565b806350339559146102775780636cc6cde1146102a0578063706a0160146102cb57610181565b806307c5fbe51461018657806307e4312e146101c357806308551a53146101df5780632f81b0a01461020a5780633502e066146102355780634bbf66421461024c575b600080fd5b34801561019257600080fd5b506101ad60048036038101906101a89190611543565b6105bf565b6040516101ba9190611631565b60405180910390f35b6101dd60048036038101906101d89190611689565b61083a565b005b3480156101eb57600080fd5b506101f4610941565b604051610201919061170a565b60405180910390f35b34801561021657600080fd5b5061021f610967565b60405161022c9190611734565b60405180910390f35b34801561024157600080fd5b5061024a61096d565b005b34801561025857600080fd5b50610261610aab565b60405161026e9190611734565b60405180910390f35b34801561028357600080fd5b5061029e6004803603810190610299919061174f565b610ab1565b005b3480156102ac57600080fd5b506102b5610bc3565b6040516102c2919061170a565b60405180910390f35b3480156102d757600080fd5b506102f260048036038101906102ed919061178f565b610be9565b005b34801561030057600080fd5b50610309610cf1565b604051610316919061170a565b60405180910390f35b34801561032b57600080fd5b50610346600480360381019061034191906117bc565b610d17565b6040516103539190611734565b60405180910390f35b34801561036857600080fd5b50610383600480360381019061037e919061178f565b610d8f565b6040516103909190611734565b60405180910390f35b3480156103a557600080fd5b506103ae610e07565b6040516103bb919061180b565b60405180910390f35b3480156103d057600080fd5b506103d9610e0d565b6040516103e6919061180b565b60405180910390f35b3480156103fb57600080fd5b50610404610e13565b604051610411919061180b565b60405180910390f35b34801561042657600080fd5b5061042f610e19565b60405161043c9190611734565b60405180910390f35b34801561045157600080fd5b5061045a610e1f565b005b61047660048036038101906104719190611826565b610ec3565b005b34801561048457600080fd5b5061048d610ff0565b60405161049a919061180b565b60405180910390f35b3480156104af57600080fd5b506104b8610ff6565b6040516104c591906118f0565b60405180910390f35b3480156104da57600080fd5b506104e3611009565b6040516104f0919061180b565b60405180910390f35b34801561050557600080fd5b5061050e61100f565b60405161051b919061180b565b60405180910390f35b34801561053057600080fd5b50610539611015565b6040516105469190611734565b60405180910390f35b34801561055b57600080fd5b50610576600480360381019061057191906117bc565b61101b565b6040516105839190611734565b60405180910390f35b34801561059857600080fd5b506105b360048036038101906105ae9190611937565b611096565b005b6105bd611285565b005b606060006105cf60075486610d17565b905060008482146107f857846040516020016105eb9190611734565b60405160208183030381529060405280519060200120905060005b600654811015610668578185828151811061062457610623611977565b5b602002602001015160405160200161063d9291906119a6565b6040516020818303038152906040528051906020012091508080610660906119fe565b915050610606565b506005548103610724573373ffffffffffffffffffffffffffffffffffffffff166108fc600a9081150290604051600060405180830381858888f193505050501580156106b9573d6000803e3d6000fd5b506009600d60006101000a81548160ff021916908360098111156106e0576106df611879565b5b02179055506040518060400160405280600181526020017f310000000000000000000000000000000000000000000000000000000000000081525092505050610833565b600160009054906101000a900473ffffffffffffffffffffffffffffffffffffffff1673ffffffffffffffffffffffffffffffffffffffff166108fc600a9081150290604051600060405180830381858888f1935050505015801561078d573d6000803e3d6000fd5b506009600d60006101000a81548160ff021916908360098111156107b4576107b3611879565b5b02179055506040518060400160405280600181526020017f320000000000000000000000000000000000000000000000000000000000000081525092505050610833565b6040518060400160405280600181526020017f3300000000000000000000000000000000000000000000000000000000000000815250925050505b9392505050565b6002600981111561084e5761084d611879565b5b600d60009054906101000a900460ff1660098111156108705761086f611879565b5b1461087a57600080fd5b42600c54600b5461088b9190611a46565b116108cb576040517f08c379a00000000000000000000000000000000000000000000000000000000081526004016108c290611ac6565b60405180910390fd5b81600581905550806006819055506003600d60006101000a81548160ff021916908360098111156108ff576108fe611879565b5b02179055507f8367cc6ba01f36350b0d5f1caaa3afa155152dac000940ae82cd327bfa0bc8278282604051610935929190611ae6565b60405180910390a15050565b600160009054906101000a900473ffffffffffffffffffffffffffffffffffffffff1681565b60075481565b6002600981111561098157610980611879565b5b600d60009054906101000a900460ff1660098111156109a3576109a2611879565b5b146109ad57600080fd5b42600c54600b546109be9190611a46565b116109fe576040517f08c379a00000000000000000000000000000000000000000000000000000000081526004016109f590611b5b565b60405180910390fd5b3373ffffffffffffffffffffffffffffffffffffffff166108fc6009549081150290604051600060405180830381858888f19350505050158015610a46573d6000803e3d6000fd5b506009600d60006101000a81548160ff02191690836009811115610a6d57610a6c611879565b5b02179055507fafc3b014386561494c2478b62a479f4a42dbcb4ef28845094d473410b972d6d533604051610aa1919061170a565b60405180910390a1565b60055481565b600160009054906101000a900473ffffffffffffffffffffffffffffffffffffffff1673ffffffffffffffffffffffffffffffffffffffff163373ffffffffffffffffffffffffffffffffffffffff1614610b0b57600080fd5b60006009811115610b1f57610b1e611879565b5b600d60009054906101000a900460ff166009811115610b4157610b40611879565b5b14610b4b57600080fd5b81600081905550806004819055506001600d60006101000a81548160ff02191690836009811115610b7f57610b7e611879565b5b02179055507fcb894139878da1d74d95c1725159680c62225fbee97f6af6f79589b5b311522682600454604051610bb7929190611b7b565b60405180910390a15050565b600260009054906101000a900473ffffffffffffffffffffffffffffffffffffffff1681565b600160009054906101000a900473ffffffffffffffffffffffffffffffffffffffff1673ffffffffffffffffffffffffffffffffffffffff163373ffffffffffffffffffffffffffffffffffffffff1614610c4357600080fd5b60046009811115610c5757610c56611879565b5b600d60009054906101000a900460ff166009811115610c7957610c78611879565b5b14610c8357600080fd5b806007819055506007600d60006101000a81548160ff02191690836009811115610cb057610caf611879565b5b02179055507f59e2b1bea451053289971062b187c027a0f841853f70e131a5a9f22b05cd44f8600754604051610ce69190611734565b60405180910390a150565b600360009054906101000a900473ffffffffffffffffffffffffffffffffffffffff1681565b6000807f5c5c5c5c5c5c5c5c5c5c5c5c5c5c5c5c5c5c5c5c5c5c5c5c5c5c5c5c5c5c5c5c60001b905060007f363636363636363636363636363636363636363636363636363636363636363660001b90506000610d768287188661101b565b9050610d848387188261101b565b935050505092915050565b6000600282604051602001610da49190611bc5565b604051602081830303815290604052604051610dc09190611c27565b602060405180830381855afa158015610ddd573d6000803e3d6000fd5b5050506040513d601f19601f82011682018060405250810190610e009190611c53565b9050919050565b60065481565b600b5481565b60085481565b60045481565b60056009811115610e3357610e32611879565b5b600d60009054906101000a900460ff166009811115610e5557610e54611879565b5b03610e5f57600080fd5b6008600d60006101000a81548160ff02191690836009811115610e8557610e84611879565b5b02179055507feba0cf817c79f44ba4b1b99c7427f42d3a02d972d102ab5e5c0173eee44c340233604051610eb9919061170a565b60405180910390a1565b600360009054906101000a900473ffffffffffffffffffffffffffffffffffffffff1673ffffffffffffffffffffffffffffffffffffffff163373ffffffffffffffffffffffffffffffffffffffff1614610f1d57600080fd5b60016009811115610f3157610f30611879565b5b600d60009054906101000a900460ff166009811115610f5357610f52611879565b5b14610f5d57600080fd5b803414610f6957600080fd5b82600a81905550816008819055508060098190555042600b819055506002600d60006101000a81548160ff02191690836009811115610fab57610faa611879565b5b02179055507f038403778ce33b7bbdbd6c808eed8cacd1a5e8a78851fbcec058f610aef431ea838383604051610fe393929190611c80565b60405180910390a1505050565b600c5481565b600d60009054906101000a900460ff1681565b60095481565b60005481565b600a5481565b600060028383604051602001611032929190611cb7565b60405160208183030381529060405260405161104e9190611c27565b602060405180830381855afa15801561106b573d6000803e3d6000fd5b5050506040513d601f19601f8201168201806040525081019061108e9190611c53565b905092915050565b600260009054906101000a900473ffffffffffffffffffffffffffffffffffffffff1673ffffffffffffffffffffffffffffffffffffffff163373ffffffffffffffffffffffffffffffffffffffff16146110f057600080fd5b6008600981111561110457611103611879565b5b600d60009054906101000a900460ff16600981111561112657611125611879565b5b1461113057600080fd5b8073ffffffffffffffffffffffffffffffffffffffff168273ffffffffffffffffffffffffffffffffffffffff16036111b1578173ffffffffffffffffffffffffffffffffffffffff166108fc6009549081150290604051600060405180830381858888f193505050501580156111ab573d6000803e3d6000fd5b5061121d565b600160009054906101000a900473ffffffffffffffffffffffffffffffffffffffff1673ffffffffffffffffffffffffffffffffffffffff166108fc6009549081150290604051600060405180830381858888f1935050505015801561121b573d6000803e3d6000fd5b505b6009600d60006101000a81548160ff0219169083600981111561124357611242611879565b5b02179055507f5b6a2b2de4fa5ff7a980e48d8fe9471ff3ec4eeef693a29dae080e6a5a9c786f8282604051611279929190611ce3565b60405180910390a15050565b600360009054906101000a900473ffffffffffffffffffffffffffffffffffffffff1673ffffffffffffffffffffffffffffffffffffffff163373ffffffffffffffffffffffffffffffffffffffff16146112df57600080fd5b600360098111156112f3576112f2611879565b5b600d60009054906101000a900460ff16600981111561131557611314611879565b5b1461131f57600080fd5b60095460085461132f9190611d0c565b341461133a57600080fd5b6004600d60006101000a81548160ff021916908360098111156113605761135f611879565b5b02179055507fe37b4d92bfb3a0f51b4632930020ab1670830e1c71576288d9b33f4671f09bb93334604051611396929190611d40565b60405180910390a1565b6000604051905090565b600080fd5b600080fd5b6000819050919050565b6113c7816113b4565b81146113d257600080fd5b50565b6000813590506113e4816113be565b92915050565b600080fd5b6000601f19601f8301169050919050565b7f4e487b7100000000000000000000000000000000000000000000000000000000600052604160045260246000fd5b611438826113ef565b810181811067ffffffffffffffff8211171561145757611456611400565b5b80604052505050565b600061146a6113a0565b9050611476828261142f565b919050565b600067ffffffffffffffff82111561149657611495611400565b5b602082029050602081019050919050565b600080fd5b60006114bf6114ba8461147b565b611460565b905080838252602082019050602084028301858111156114e2576114e16114a7565b5b835b8181101561150b57806114f788826113d5565b8452602084019350506020810190506114e4565b5050509392505050565b600082601f83011261152a576115296113ea565b5b813561153a8482602086016114ac565b91505092915050565b60008060006060848603121561155c5761155b6113aa565b5b600061156a868287016113d5565b935050602061157b868287016113d5565b925050604084013567ffffffffffffffff81111561159c5761159b6113af565b5b6115a886828701611515565b9150509250925092565b600081519050919050565b600082825260208201905092915050565b60005b838110156115ec5780820151818401526020810190506115d1565b60008484015250505050565b6000611603826115b2565b61160d81856115bd565b935061161d8185602086016115ce565b611626816113ef565b840191505092915050565b6000602082019050818103600083015261164b81846115f8565b905092915050565b6000819050919050565b61166681611653565b811461167157600080fd5b50565b6000813590506116838161165d565b92915050565b600080604083850312156116a05761169f6113aa565b5b60006116ae858286016113d5565b92505060206116bf85828601611674565b9150509250929050565b600073ffffffffffffffffffffffffffffffffffffffff82169050919050565b60006116f4826116c9565b9050919050565b611704816116e9565b82525050565b600060208201905061171f60008301846116fb565b92915050565b61172e816113b4565b82525050565b60006020820190506117496000830184611725565b92915050565b60008060408385031215611766576117656113aa565b5b600061177485828601611674565b9250506020611785858286016113d5565b9150509250929050565b6000602082840312156117a5576117a46113aa565b5b60006117b3848285016113d5565b91505092915050565b600080604083850312156117d3576117d26113aa565b5b60006117e1858286016113d5565b92505060206117f2858286016113d5565b9150509250929050565b61180581611653565b82525050565b600060208201905061182060008301846117fc565b92915050565b60008060006060848603121561183f5761183e6113aa565b5b600061184d868287016113d5565b935050602061185e86828701611674565b925050604061186f86828701611674565b9150509250925092565b7f4e487b7100000000000000000000000000000000000000000000000000000000600052602160045260246000fd5b600a81106118b9576118b8611879565b5b50565b60008190506118ca826118a8565b919050565b60006118da826118bc565b9050919050565b6118ea816118cf565b82525050565b600060208201905061190560008301846118e1565b92915050565b611914816116e9565b811461191f57600080fd5b50565b6000813590506119318161190b565b92915050565b6000806040838503121561194e5761194d6113aa565b5b600061195c85828601611922565b925050602061196d85828601611922565b9150509250929050565b7f4e487b7100000000000000000000000000000000000000000000000000000000600052603260045260246000fd5b60006040820190506119bb6000830185611725565b6119c86020830184611725565b9392505050565b7f4e487b7100000000000000000000000000000000000000000000000000000000600052601160045260246000fd5b6000611a0982611653565b91507fffffffffffffffffffffffffffffffffffffffffffffffffffffffffffffffff8203611a3b57611a3a6119cf565b5b600182019050919050565b6000611a5182611653565b9150611a5c83611653565b9250828201905080821115611a7457611a736119cf565b5b92915050565b7f526573706f6e64652074696d65206973206f7665722000000000000000000000600082015250565b6000611ab06016836115bd565b9150611abb82611a7a565b602082019050919050565b60006020820190508181036000830152611adf81611aa3565b9050919050565b6000604082019050611afb6000830185611725565b611b0860208301846117fc565b9392505050565b7f4f7065726174696f6e2074696d65206973206e6f74206f766572207965740000600082015250565b6000611b45601e836115bd565b9150611b5082611b0f565b602082019050919050565b60006020820190508181036000830152611b7481611b38565b9050919050565b6000604082019050611b9060008301856117fc565b611b9d6020830184611725565b9392505050565b6000819050919050565b611bbf611bba826113b4565b611ba4565b82525050565b6000611bd18284611bae565b60208201915081905092915050565b600081519050919050565b600081905092915050565b6000611c0182611be0565b611c0b8185611beb565b9350611c1b8185602086016115ce565b80840191505092915050565b6000611c338284611bf6565b915081905092915050565b600081519050611c4d816113be565b92915050565b600060208284031215611c6957611c686113aa565b5b6000611c7784828501611c3e565b91505092915050565b6000606082019050611c956000830186611725565b611ca260208301856117fc565b611caf60408301846117fc565b949350505050565b6000611cc38285611bae565b602082019150611cd38284611bae565b6020820191508190509392505050565b6000604082019050611cf860008301856116fb565b611d0560208301846116fb565b9392505050565b6000611d1782611653565b9150611d2283611653565b9250828203905081811115611d3a57611d396119cf565b5b92915050565b6000604082019050611d5560008301856116fb565b611d6260208301846117fc565b939250505056fea2646970667358221220b25b359fe62307405dc1f9cf4512f17c86a23c4bfc599125f79198a1ea7caebf64736f6c63430008120033",
					"opcodes": "PUSH1 0x80 PUSH1 0x40 MSTORE PUSH2 0x258 PUSH1 0xC SSTORE CALLVALUE DUP1 ISZERO PUSH2 0x16 JUMPI PUSH1 0x0 DUP1 REVERT JUMPDEST POP CALLER PUSH1 0x2 PUSH1 0x0 PUSH2 0x100 EXP DUP2 SLOAD DUP2 PUSH20 0xFFFFFFFFFFFFFFFFFFFFFFFFFFFFFFFFFFFFFFFF MUL NOT AND SWAP1 DUP4 PUSH20 0xFFFFFFFFFFFFFFFFFFFFFFFFFFFFFFFFFFFFFFFF AND MUL OR SWAP1 SSTORE POP CALLER PUSH1 0x1 PUSH1 0x0 PUSH2 0x100 EXP DUP2 SLOAD DUP2 PUSH20 0xFFFFFFFFFFFFFFFFFFFFFFFFFFFFFFFFFFFFFFFF MUL NOT AND SWAP1 DUP4 PUSH20 0xFFFFFFFFFFFFFFFFFFFFFFFFFFFFFFFFFFFFFFFF AND MUL OR SWAP1 SSTORE POP CALLER PUSH1 0x3 PUSH1 0x0 PUSH2 0x100 EXP DUP2 SLOAD DUP2 PUSH20 0xFFFFFFFFFFFFFFFFFFFFFFFFFFFFFFFFFFFFFFFF MUL NOT AND SWAP1 DUP4 PUSH20 0xFFFFFFFFFFFFFFFFFFFFFFFFFFFFFFFFFFFFFFFF AND MUL OR SWAP1 SSTORE POP PUSH1 0x0 PUSH1 0xD PUSH1 0x0 PUSH2 0x100 EXP DUP2 SLOAD DUP2 PUSH1 0xFF MUL NOT AND SWAP1 DUP4 PUSH1 0x9 DUP2 GT ISZERO PUSH2 0x100 JUMPI PUSH2 0xFF PUSH2 0x10A JUMP JUMPDEST JUMPDEST MUL OR SWAP1 SSTORE POP PUSH2 0x139 JUMP JUMPDEST PUSH32 0x4E487B7100000000000000000000000000000000000000000000000000000000 PUSH1 0x0 MSTORE PUSH1 0x21 PUSH1 0x4 MSTORE PUSH1 0x24 PUSH1 0x0 REVERT JUMPDEST PUSH2 0x1D9F DUP1 PUSH2 0x148 PUSH1 0x0 CODECOPY PUSH1 0x0 RETURN INVALID PUSH1 0x80 PUSH1 0x40 MSTORE PUSH1 0x4 CALLDATASIZE LT PUSH2 0x181 JUMPI PUSH1 0x0 CALLDATALOAD PUSH1 0xE0 SHR DUP1 PUSH4 0x9AE67252 GT PUSH2 0xD1 JUMPI DUP1 PUSH4 0xC19D93FB GT PUSH2 0x8A JUMPI DUP1 PUSH4 0xE6299631 GT PUSH2 0x64 JUMPI DUP1 PUSH4 0xE6299631 EQ PUSH2 0x524 JUMPI DUP1 PUSH4 0xEE17B807 EQ PUSH2 0x54F JUMPI DUP1 PUSH4 0xF258D51E EQ PUSH2 0x58C JUMPI DUP1 PUSH4 0xF4C1F07B EQ PUSH2 0x5B5 JUMPI PUSH2 0x181 JUMP JUMPDEST DUP1 PUSH4 0xC19D93FB EQ PUSH2 0x4A3 JUMPI DUP1 PUSH4 0xC2A2747B EQ PUSH2 0x4CE JUMPI DUP1 PUSH4 0xC8A663EC EQ PUSH2 0x4F9 JUMPI PUSH2 0x181 JUMP JUMPDEST DUP1 PUSH4 0x9AE67252 EQ PUSH2 0x3C4 JUMPI DUP1 PUSH4 0x9AE8886A EQ PUSH2 0x3EF JUMPI DUP1 PUSH4 0xA2FC30AF EQ PUSH2 0x41A JUMPI DUP1 PUSH4 0xB66CFA41 EQ PUSH2 0x445 JUMPI DUP1 PUSH4 0xB93A86CE EQ PUSH2 0x45C JUMPI DUP1 PUSH4 0xC08D1FE5 EQ PUSH2 0x478 JUMPI PUSH2 0x181 JUMP JUMPDEST DUP1 PUSH4 0x50339559 GT PUSH2 0x13E JUMPI DUP1 PUSH4 0x7150D8AE GT PUSH2 0x118 JUMPI DUP1 PUSH4 0x7150D8AE EQ PUSH2 0x2F4 JUMPI DUP1 PUSH4 0x78192063 EQ PUSH2 0x31F JUMPI DUP1 PUSH4 0x7A1A456A EQ PUSH2 0x35C JUMPI DUP1 PUSH4 0x80AA2DAE EQ PUSH2 0x399 JUMPI PUSH2 0x181 JUMP JUMPDEST DUP1 PUSH4 0x50339559 EQ PUSH2 0x277 JUMPI DUP1 PUSH4 0x6CC6CDE1 EQ PUSH2 0x2A0 JUMPI DUP1 PUSH4 0x706A0160 EQ PUSH2 0x2CB JUMPI PUSH2 0x181 JUMP JUMPDEST DUP1 PUSH4 0x7C5FBE5 EQ PUSH2 0x186 JUMPI DUP1 PUSH4 0x7E4312E EQ PUSH2 0x1C3 JUMPI DUP1 PUSH4 0x8551A53 EQ PUSH2 0x1DF JUMPI DUP1 PUSH4 0x2F81B0A0 EQ PUSH2 0x20A JUMPI DUP1 PUSH4 0x3502E066 EQ PUSH2 0x235 JUMPI DUP1 PUSH4 0x4BBF6642 EQ PUSH2 0x24C JUMPI JUMPDEST PUSH1 0x0 DUP1 REVERT JUMPDEST CALLVALUE DUP1 ISZERO PUSH2 0x192 JUMPI PUSH1 0x0 DUP1 REVERT JUMPDEST POP PUSH2 0x1AD PUSH1 0x4 DUP1 CALLDATASIZE SUB DUP2 ADD SWAP1 PUSH2 0x1A8 SWAP2 SWAP1 PUSH2 0x1543 JUMP JUMPDEST PUSH2 0x5BF JUMP JUMPDEST PUSH1 0x40 MLOAD PUSH2 0x1BA SWAP2 SWAP1 PUSH2 0x1631 JUMP JUMPDEST PUSH1 0x40 MLOAD DUP1 SWAP2 SUB SWAP1 RETURN JUMPDEST PUSH2 0x1DD PUSH1 0x4 DUP1 CALLDATASIZE SUB DUP2 ADD SWAP1 PUSH2 0x1D8 SWAP2 SWAP1 PUSH2 0x1689 JUMP JUMPDEST PUSH2 0x83A JUMP JUMPDEST STOP JUMPDEST CALLVALUE DUP1 ISZERO PUSH2 0x1EB JUMPI PUSH1 0x0 DUP1 REVERT JUMPDEST POP PUSH2 0x1F4 PUSH2 0x941 JUMP JUMPDEST PUSH1 0x40 MLOAD PUSH2 0x201 SWAP2 SWAP1 PUSH2 0x170A JUMP JUMPDEST PUSH1 0x40 MLOAD DUP1 SWAP2 SUB SWAP1 RETURN JUMPDEST CALLVALUE DUP1 ISZERO PUSH2 0x216 JUMPI PUSH1 0x0 DUP1 REVERT JUMPDEST POP PUSH2 0x21F PUSH2 0x967 JUMP JUMPDEST PUSH1 0x40 MLOAD PUSH2 0x22C SWAP2 SWAP1 PUSH2 0x1734 JUMP JUMPDEST PUSH1 0x40 MLOAD DUP1 SWAP2 SUB SWAP1 RETURN JUMPDEST CALLVALUE DUP1 ISZERO PUSH2 0x241 JUMPI PUSH1 0x0 DUP1 REVERT JUMPDEST POP PUSH2 0x24A PUSH2 0x96D JUMP JUMPDEST STOP JUMPDEST CALLVALUE DUP1 ISZERO PUSH2 0x258 JUMPI PUSH1 0x0 DUP1 REVERT JUMPDEST POP PUSH2 0x261 PUSH2 0xAAB JUMP JUMPDEST PUSH1 0x40 MLOAD PUSH2 0x26E SWAP2 SWAP1 PUSH2 0x1734 JUMP JUMPDEST PUSH1 0x40 MLOAD DUP1 SWAP2 SUB SWAP1 RETURN JUMPDEST CALLVALUE DUP1 ISZERO PUSH2 0x283 JUMPI PUSH1 0x0 DUP1 REVERT JUMPDEST POP PUSH2 0x29E PUSH1 0x4 DUP1 CALLDATASIZE SUB DUP2 ADD SWAP1 PUSH2 0x299 SWAP2 SWAP1 PUSH2 0x174F JUMP JUMPDEST PUSH2 0xAB1 JUMP JUMPDEST STOP JUMPDEST CALLVALUE DUP1 ISZERO PUSH2 0x2AC JUMPI PUSH1 0x0 DUP1 REVERT JUMPDEST POP PUSH2 0x2B5 PUSH2 0xBC3 JUMP JUMPDEST PUSH1 0x40 MLOAD PUSH2 0x2C2 SWAP2 SWAP1 PUSH2 0x170A JUMP JUMPDEST PUSH1 0x40 MLOAD DUP1 SWAP2 SUB SWAP1 RETURN JUMPDEST CALLVALUE DUP1 ISZERO PUSH2 0x2D7 JUMPI PUSH1 0x0 DUP1 REVERT JUMPDEST POP PUSH2 0x2F2 PUSH1 0x4 DUP1 CALLDATASIZE SUB DUP2 ADD SWAP1 PUSH2 0x2ED SWAP2 SWAP1 PUSH2 0x178F JUMP JUMPDEST PUSH2 0xBE9 JUMP JUMPDEST STOP JUMPDEST CALLVALUE DUP1 ISZERO PUSH2 0x300 JUMPI PUSH1 0x0 DUP1 REVERT JUMPDEST POP PUSH2 0x309 PUSH2 0xCF1 JUMP JUMPDEST PUSH1 0x40 MLOAD PUSH2 0x316 SWAP2 SWAP1 PUSH2 0x170A JUMP JUMPDEST PUSH1 0x40 MLOAD DUP1 SWAP2 SUB SWAP1 RETURN JUMPDEST CALLVALUE DUP1 ISZERO PUSH2 0x32B JUMPI PUSH1 0x0 DUP1 REVERT JUMPDEST POP PUSH2 0x346 PUSH1 0x4 DUP1 CALLDATASIZE SUB DUP2 ADD SWAP1 PUSH2 0x341 SWAP2 SWAP1 PUSH2 0x17BC JUMP JUMPDEST PUSH2 0xD17 JUMP JUMPDEST PUSH1 0x40 MLOAD PUSH2 0x353 SWAP2 SWAP1 PUSH2 0x1734 JUMP JUMPDEST PUSH1 0x40 MLOAD DUP1 SWAP2 SUB SWAP1 RETURN JUMPDEST CALLVALUE DUP1 ISZERO PUSH2 0x368 JUMPI PUSH1 0x0 DUP1 REVERT JUMPDEST POP PUSH2 0x383 PUSH1 0x4 DUP1 CALLDATASIZE SUB DUP2 ADD SWAP1 PUSH2 0x37E SWAP2 SWAP1 PUSH2 0x178F JUMP JUMPDEST PUSH2 0xD8F JUMP JUMPDEST PUSH1 0x40 MLOAD PUSH2 0x390 SWAP2 SWAP1 PUSH2 0x1734 JUMP JUMPDEST PUSH1 0x40 MLOAD DUP1 SWAP2 SUB SWAP1 RETURN JUMPDEST CALLVALUE DUP1 ISZERO PUSH2 0x3A5 JUMPI PUSH1 0x0 DUP1 REVERT JUMPDEST POP PUSH2 0x3AE PUSH2 0xE07 JUMP JUMPDEST PUSH1 0x40 MLOAD PUSH2 0x3BB SWAP2 SWAP1 PUSH2 0x180B JUMP JUMPDEST PUSH1 0x40 MLOAD DUP1 SWAP2 SUB SWAP1 RETURN JUMPDEST CALLVALUE DUP1 ISZERO PUSH2 0x3D0 JUMPI PUSH1 0x0 DUP1 REVERT JUMPDEST POP PUSH2 0x3D9 PUSH2 0xE0D JUMP JUMPDEST PUSH1 0x40 MLOAD PUSH2 0x3E6 SWAP2 SWAP1 PUSH2 0x180B JUMP JUMPDEST PUSH1 0x40 MLOAD DUP1 SWAP2 SUB SWAP1 RETURN JUMPDEST CALLVALUE DUP1 ISZERO PUSH2 0x3FB JUMPI PUSH1 0x0 DUP1 REVERT JUMPDEST POP PUSH2 0x404 PUSH2 0xE13 JUMP JUMPDEST PUSH1 0x40 MLOAD PUSH2 0x411 SWAP2 SWAP1 PUSH2 0x180B JUMP JUMPDEST PUSH1 0x40 MLOAD DUP1 SWAP2 SUB SWAP1 RETURN JUMPDEST CALLVALUE DUP1 ISZERO PUSH2 0x426 JUMPI PUSH1 0x0 DUP1 REVERT JUMPDEST POP PUSH2 0x42F PUSH2 0xE19 JUMP JUMPDEST PUSH1 0x40 MLOAD PUSH2 0x43C SWAP2 SWAP1 PUSH2 0x1734 JUMP JUMPDEST PUSH1 0x40 MLOAD DUP1 SWAP2 SUB SWAP1 RETURN JUMPDEST CALLVALUE DUP1 ISZERO PUSH2 0x451 JUMPI PUSH1 0x0 DUP1 REVERT JUMPDEST POP PUSH2 0x45A PUSH2 0xE1F JUMP JUMPDEST STOP JUMPDEST PUSH2 0x476 PUSH1 0x4 DUP1 CALLDATASIZE SUB DUP2 ADD SWAP1 PUSH2 0x471 SWAP2 SWAP1 PUSH2 0x1826 JUMP JUMPDEST PUSH2 0xEC3 JUMP JUMPDEST STOP JUMPDEST CALLVALUE DUP1 ISZERO PUSH2 0x484 JUMPI PUSH1 0x0 DUP1 REVERT JUMPDEST POP PUSH2 0x48D PUSH2 0xFF0 JUMP JUMPDEST PUSH1 0x40 MLOAD PUSH2 0x49A SWAP2 SWAP1 PUSH2 0x180B JUMP JUMPDEST PUSH1 0x40 MLOAD DUP1 SWAP2 SUB SWAP1 RETURN JUMPDEST CALLVALUE DUP1 ISZERO PUSH2 0x4AF JUMPI PUSH1 0x0 DUP1 REVERT JUMPDEST POP PUSH2 0x4B8 PUSH2 0xFF6 JUMP JUMPDEST PUSH1 0x40 MLOAD PUSH2 0x4C5 SWAP2 SWAP1 PUSH2 0x18F0 JUMP JUMPDEST PUSH1 0x40 MLOAD DUP1 SWAP2 SUB SWAP1 RETURN JUMPDEST CALLVALUE DUP1 ISZERO PUSH2 0x4DA JUMPI PUSH1 0x0 DUP1 REVERT JUMPDEST POP PUSH2 0x4E3 PUSH2 0x1009 JUMP JUMPDEST PUSH1 0x40 MLOAD PUSH2 0x4F0 SWAP2 SWAP1 PUSH2 0x180B JUMP JUMPDEST PUSH1 0x40 MLOAD DUP1 SWAP2 SUB SWAP1 RETURN JUMPDEST CALLVALUE DUP1 ISZERO PUSH2 0x505 JUMPI PUSH1 0x0 DUP1 REVERT JUMPDEST POP PUSH2 0x50E PUSH2 0x100F JUMP JUMPDEST PUSH1 0x40 MLOAD PUSH2 0x51B SWAP2 SWAP1 PUSH2 0x180B JUMP JUMPDEST PUSH1 0x40 MLOAD DUP1 SWAP2 SUB SWAP1 RETURN JUMPDEST CALLVALUE DUP1 ISZERO PUSH2 0x530 JUMPI PUSH1 0x0 DUP1 REVERT JUMPDEST POP PUSH2 0x539 PUSH2 0x1015 JUMP JUMPDEST PUSH1 0x40 MLOAD PUSH2 0x546 SWAP2 SWAP1 PUSH2 0x1734 JUMP JUMPDEST PUSH1 0x40 MLOAD DUP1 SWAP2 SUB SWAP1 RETURN JUMPDEST CALLVALUE DUP1 ISZERO PUSH2 0x55B JUMPI PUSH1 0x0 DUP1 REVERT JUMPDEST POP PUSH2 0x576 PUSH1 0x4 DUP1 CALLDATASIZE SUB DUP2 ADD SWAP1 PUSH2 0x571 SWAP2 SWAP1 PUSH2 0x17BC JUMP JUMPDEST PUSH2 0x101B JUMP JUMPDEST PUSH1 0x40 MLOAD PUSH2 0x583 SWAP2 SWAP1 PUSH2 0x1734 JUMP JUMPDEST PUSH1 0x40 MLOAD DUP1 SWAP2 SUB SWAP1 RETURN JUMPDEST CALLVALUE DUP1 ISZERO PUSH2 0x598 JUMPI PUSH1 0x0 DUP1 REVERT JUMPDEST POP PUSH2 0x5B3 PUSH1 0x4 DUP1 CALLDATASIZE SUB DUP2 ADD SWAP1 PUSH2 0x5AE SWAP2 SWAP1 PUSH2 0x1937 JUMP JUMPDEST PUSH2 0x1096 JUMP JUMPDEST STOP JUMPDEST PUSH2 0x5BD PUSH2 0x1285 JUMP JUMPDEST STOP JUMPDEST PUSH1 0x60 PUSH1 0x0 PUSH2 0x5CF PUSH1 0x7 SLOAD DUP7 PUSH2 0xD17 JUMP JUMPDEST SWAP1 POP PUSH1 0x0 DUP5 DUP3 EQ PUSH2 0x7F8 JUMPI DUP5 PUSH1 0x40 MLOAD PUSH1 0x20 ADD PUSH2 0x5EB SWAP2 SWAP1 PUSH2 0x1734 JUMP JUMPDEST PUSH1 0x40 MLOAD PUSH1 0x20 DUP2 DUP4 SUB SUB DUP2 MSTORE SWAP1 PUSH1 0x40 MSTORE DUP1 MLOAD SWAP1 PUSH1 0x20 ADD KECCAK256 SWAP1 POP PUSH1 0x0 JUMPDEST PUSH1 0x6 SLOAD DUP2 LT ISZERO PUSH2 0x668 JUMPI DUP2 DUP6 DUP3 DUP2 MLOAD DUP2 LT PUSH2 0x624 JUMPI PUSH2 0x623 PUSH2 0x1977 JUMP JUMPDEST JUMPDEST PUSH1 0x20 MUL PUSH1 0x20 ADD ADD MLOAD PUSH1 0x40 MLOAD PUSH1 0x20 ADD PUSH2 0x63D SWAP3 SWAP2 SWAP1 PUSH2 0x19A6 JUMP JUMPDEST PUSH1 0x40 MLOAD PUSH1 0x20 DUP2 DUP4 SUB SUB DUP2 MSTORE SWAP1 PUSH1 0x40 MSTORE DUP1 MLOAD SWAP1 PUSH1 0x20 ADD KECCAK256 SWAP2 POP DUP1 DUP1 PUSH2 0x660 SWAP1 PUSH2 0x19FE JUMP JUMPDEST SWAP2 POP POP PUSH2 0x606 JUMP JUMPDEST POP PUSH1 0x5 SLOAD DUP2 SUB PUSH2 0x724 JUMPI CALLER PUSH20 0xFFFFFFFFFFFFFFFFFFFFFFFFFFFFFFFFFFFFFFFF AND PUSH2 0x8FC PUSH1 0xA SWAP1 DUP2 ISZERO MUL SWAP1 PUSH1 0x40 MLOAD PUSH1 0x0 PUSH1 0x40 MLOAD DUP1 DUP4 SUB DUP2 DUP6 DUP9 DUP9 CALL SWAP4 POP POP POP POP ISZERO DUP1 ISZERO PUSH2 0x6B9 JUMPI RETURNDATASIZE PUSH1 0x0 DUP1 RETURNDATACOPY RETURNDATASIZE PUSH1 0x0 REVERT JUMPDEST POP PUSH1 0x9 PUSH1 0xD PUSH1 0x0 PUSH2 0x100 EXP DUP2 SLOAD DUP2 PUSH1 0xFF MUL NOT AND SWAP1 DUP4 PUSH1 0x9 DUP2 GT ISZERO PUSH2 0x6E0 JUMPI PUSH2 0x6DF PUSH2 0x1879 JUMP JUMPDEST JUMPDEST MUL OR SWAP1 SSTORE POP PUSH1 0x40 MLOAD DUP1 PUSH1 0x40 ADD PUSH1 0x40 MSTORE DUP1 PUSH1 0x1 DUP2 MSTORE PUSH1 0x20 ADD PUSH32 0x3100000000000000000000000000000000000000000000000000000000000000 DUP2 MSTORE POP SWAP3 POP POP POP PUSH2 0x833 JUMP JUMPDEST PUSH1 0x1 PUSH1 0x0 SWAP1 SLOAD SWAP1 PUSH2 0x100 EXP SWAP1 DIV PUSH20 0xFFFFFFFFFFFFFFFFFFFFFFFFFFFFFFFFFFFFFFFF AND PUSH20 0xFFFFFFFFFFFFFFFFFFFFFFFFFFFFFFFFFFFFFFFF AND PUSH2 0x8FC PUSH1 0xA SWAP1 DUP2 ISZERO MUL SWAP1 PUSH1 0x40 MLOAD PUSH1 0x0 PUSH1 0x40 MLOAD DUP1 DUP4 SUB DUP2 DUP6 DUP9 DUP9 CALL SWAP4 POP POP POP POP ISZERO DUP1 ISZERO PUSH2 0x78D JUMPI RETURNDATASIZE PUSH1 0x0 DUP1 RETURNDATACOPY RETURNDATASIZE PUSH1 0x0 REVERT JUMPDEST POP PUSH1 0x9 PUSH1 0xD PUSH1 0x0 PUSH2 0x100 EXP DUP2 SLOAD DUP2 PUSH1 0xFF MUL NOT AND SWAP1 DUP4 PUSH1 0x9 DUP2 GT ISZERO PUSH2 0x7B4 JUMPI PUSH2 0x7B3 PUSH2 0x1879 JUMP JUMPDEST JUMPDEST MUL OR SWAP1 SSTORE POP PUSH1 0x40 MLOAD DUP1 PUSH1 0x40 ADD PUSH1 0x40 MSTORE DUP1 PUSH1 0x1 DUP2 MSTORE PUSH1 0x20 ADD PUSH32 0x3200000000000000000000000000000000000000000000000000000000000000 DUP2 MSTORE POP SWAP3 POP POP POP PUSH2 0x833 JUMP JUMPDEST PUSH1 0x40 MLOAD DUP1 PUSH1 0x40 ADD PUSH1 0x40 MSTORE DUP1 PUSH1 0x1 DUP2 MSTORE PUSH1 0x20 ADD PUSH32 0x3300000000000000000000000000000000000000000000000000000000000000 DUP2 MSTORE POP SWAP3 POP POP POP JUMPDEST SWAP4 SWAP3 POP POP POP JUMP JUMPDEST PUSH1 0x2 PUSH1 0x9 DUP2 GT ISZERO PUSH2 0x84E JUMPI PUSH2 0x84D PUSH2 0x1879 JUMP JUMPDEST JUMPDEST PUSH1 0xD PUSH1 0x0 SWAP1 SLOAD SWAP1 PUSH2 0x100 EXP SWAP1 DIV PUSH1 0xFF AND PUSH1 0x9 DUP2 GT ISZERO PUSH2 0x870 JUMPI PUSH2 0x86F PUSH2 0x1879 JUMP JUMPDEST JUMPDEST EQ PUSH2 0x87A JUMPI PUSH1 0x0 DUP1 REVERT JUMPDEST TIMESTAMP PUSH1 0xC SLOAD PUSH1 0xB SLOAD PUSH2 0x88B SWAP2 SWAP1 PUSH2 0x1A46 JUMP JUMPDEST GT PUSH2 0x8CB JUMPI PUSH1 0x40 MLOAD PUSH32 0x8C379A000000000000000000000000000000000000000000000000000000000 DUP2 MSTORE PUSH1 0x4 ADD PUSH2 0x8C2 SWAP1 PUSH2 0x1AC6 JUMP JUMPDEST PUSH1 0x40 MLOAD DUP1 SWAP2 SUB SWAP1 REVERT JUMPDEST DUP2 PUSH1 0x5 DUP2 SWAP1 SSTORE POP DUP1 PUSH1 0x6 DUP2 SWAP1 SSTORE POP PUSH1 0x3 PUSH1 0xD PUSH1 0x0 PUSH2 0x100 EXP DUP2 SLOAD DUP2 PUSH1 0xFF MUL NOT AND SWAP1 DUP4 PUSH1 0x9 DUP2 GT ISZERO PUSH2 0x8FF JUMPI PUSH2 0x8FE PUSH2 0x1879 JUMP JUMPDEST JUMPDEST MUL OR SWAP1 SSTORE POP PUSH32 0x8367CC6BA01F36350B0D5F1CAAA3AFA155152DAC000940AE82CD327BFA0BC827 DUP3 DUP3 PUSH1 0x40 MLOAD PUSH2 0x935 SWAP3 SWAP2 SWAP1 PUSH2 0x1AE6 JUMP JUMPDEST PUSH1 0x40 MLOAD DUP1 SWAP2 SUB SWAP1 LOG1 POP POP JUMP JUMPDEST PUSH1 0x1 PUSH1 0x0 SWAP1 SLOAD SWAP1 PUSH2 0x100 EXP SWAP1 DIV PUSH20 0xFFFFFFFFFFFFFFFFFFFFFFFFFFFFFFFFFFFFFFFF AND DUP2 JUMP JUMPDEST PUSH1 0x7 SLOAD DUP2 JUMP JUMPDEST PUSH1 0x2 PUSH1 0x9 DUP2 GT ISZERO PUSH2 0x981 JUMPI PUSH2 0x980 PUSH2 0x1879 JUMP JUMPDEST JUMPDEST PUSH1 0xD PUSH1 0x0 SWAP1 SLOAD SWAP1 PUSH2 0x100 EXP SWAP1 DIV PUSH1 0xFF AND PUSH1 0x9 DUP2 GT ISZERO PUSH2 0x9A3 JUMPI PUSH2 0x9A2 PUSH2 0x1879 JUMP JUMPDEST JUMPDEST EQ PUSH2 0x9AD JUMPI PUSH1 0x0 DUP1 REVERT JUMPDEST TIMESTAMP PUSH1 0xC SLOAD PUSH1 0xB SLOAD PUSH2 0x9BE SWAP2 SWAP1 PUSH2 0x1A46 JUMP JUMPDEST GT PUSH2 0x9FE JUMPI PUSH1 0x40 MLOAD PUSH32 0x8C379A000000000000000000000000000000000000000000000000000000000 DUP2 MSTORE PUSH1 0x4 ADD PUSH2 0x9F5 SWAP1 PUSH2 0x1B5B JUMP JUMPDEST PUSH1 0x40 MLOAD DUP1 SWAP2 SUB SWAP1 REVERT JUMPDEST CALLER PUSH20 0xFFFFFFFFFFFFFFFFFFFFFFFFFFFFFFFFFFFFFFFF AND PUSH2 0x8FC PUSH1 0x9 SLOAD SWAP1 DUP2 ISZERO MUL SWAP1 PUSH1 0x40 MLOAD PUSH1 0x0 PUSH1 0x40 MLOAD DUP1 DUP4 SUB DUP2 DUP6 DUP9 DUP9 CALL SWAP4 POP POP POP POP ISZERO DUP1 ISZERO PUSH2 0xA46 JUMPI RETURNDATASIZE PUSH1 0x0 DUP1 RETURNDATACOPY RETURNDATASIZE PUSH1 0x0 REVERT JUMPDEST POP PUSH1 0x9 PUSH1 0xD PUSH1 0x0 PUSH2 0x100 EXP DUP2 SLOAD DUP2 PUSH1 0xFF MUL NOT AND SWAP1 DUP4 PUSH1 0x9 DUP2 GT ISZERO PUSH2 0xA6D JUMPI PUSH2 0xA6C PUSH2 0x1879 JUMP JUMPDEST JUMPDEST MUL OR SWAP1 SSTORE POP PUSH32 0xAFC3B014386561494C2478B62A479F4A42DBCB4EF28845094D473410B972D6D5 CALLER PUSH1 0x40 MLOAD PUSH2 0xAA1 SWAP2 SWAP1 PUSH2 0x170A JUMP JUMPDEST PUSH1 0x40 MLOAD DUP1 SWAP2 SUB SWAP1 LOG1 JUMP JUMPDEST PUSH1 0x5 SLOAD DUP2 JUMP JUMPDEST PUSH1 0x1 PUSH1 0x0 SWAP1 SLOAD SWAP1 PUSH2 0x100 EXP SWAP1 DIV PUSH20 0xFFFFFFFFFFFFFFFFFFFFFFFFFFFFFFFFFFFFFFFF AND PUSH20 0xFFFFFFFFFFFFFFFFFFFFFFFFFFFFFFFFFFFFFFFF AND CALLER PUSH20 0xFFFFFFFFFFFFFFFFFFFFFFFFFFFFFFFFFFFFFFFF AND EQ PUSH2 0xB0B JUMPI PUSH1 0x0 DUP1 REVERT JUMPDEST PUSH1 0x0 PUSH1 0x9 DUP2 GT ISZERO PUSH2 0xB1F JUMPI PUSH2 0xB1E PUSH2 0x1879 JUMP JUMPDEST JUMPDEST PUSH1 0xD PUSH1 0x0 SWAP1 SLOAD SWAP1 PUSH2 0x100 EXP SWAP1 DIV PUSH1 0xFF AND PUSH1 0x9 DUP2 GT ISZERO PUSH2 0xB41 JUMPI PUSH2 0xB40 PUSH2 0x1879 JUMP JUMPDEST JUMPDEST EQ PUSH2 0xB4B JUMPI PUSH1 0x0 DUP1 REVERT JUMPDEST DUP2 PUSH1 0x0 DUP2 SWAP1 SSTORE POP DUP1 PUSH1 0x4 DUP2 SWAP1 SSTORE POP PUSH1 0x1 PUSH1 0xD PUSH1 0x0 PUSH2 0x100 EXP DUP2 SLOAD DUP2 PUSH1 0xFF MUL NOT AND SWAP1 DUP4 PUSH1 0x9 DUP2 GT ISZERO PUSH2 0xB7F JUMPI PUSH2 0xB7E PUSH2 0x1879 JUMP JUMPDEST JUMPDEST MUL OR SWAP1 SSTORE POP PUSH32 0xCB894139878DA1D74D95C1725159680C62225FBEE97F6AF6F79589B5B3115226 DUP3 PUSH1 0x4 SLOAD PUSH1 0x40 MLOAD PUSH2 0xBB7 SWAP3 SWAP2 SWAP1 PUSH2 0x1B7B JUMP JUMPDEST PUSH1 0x40 MLOAD DUP1 SWAP2 SUB SWAP1 LOG1 POP POP JUMP JUMPDEST PUSH1 0x2 PUSH1 0x0 SWAP1 SLOAD SWAP1 PUSH2 0x100 EXP SWAP1 DIV PUSH20 0xFFFFFFFFFFFFFFFFFFFFFFFFFFFFFFFFFFFFFFFF AND DUP2 JUMP JUMPDEST PUSH1 0x1 PUSH1 0x0 SWAP1 SLOAD SWAP1 PUSH2 0x100 EXP SWAP1 DIV PUSH20 0xFFFFFFFFFFFFFFFFFFFFFFFFFFFFFFFFFFFFFFFF AND PUSH20 0xFFFFFFFFFFFFFFFFFFFFFFFFFFFFFFFFFFFFFFFF AND CALLER PUSH20 0xFFFFFFFFFFFFFFFFFFFFFFFFFFFFFFFFFFFFFFFF AND EQ PUSH2 0xC43 JUMPI PUSH1 0x0 DUP1 REVERT JUMPDEST PUSH1 0x4 PUSH1 0x9 DUP2 GT ISZERO PUSH2 0xC57 JUMPI PUSH2 0xC56 PUSH2 0x1879 JUMP JUMPDEST JUMPDEST PUSH1 0xD PUSH1 0x0 SWAP1 SLOAD SWAP1 PUSH2 0x100 EXP SWAP1 DIV PUSH1 0xFF AND PUSH1 0x9 DUP2 GT ISZERO PUSH2 0xC79 JUMPI PUSH2 0xC78 PUSH2 0x1879 JUMP JUMPDEST JUMPDEST EQ PUSH2 0xC83 JUMPI PUSH1 0x0 DUP1 REVERT JUMPDEST DUP1 PUSH1 0x7 DUP2 SWAP1 SSTORE POP PUSH1 0x7 PUSH1 0xD PUSH1 0x0 PUSH2 0x100 EXP DUP2 SLOAD DUP2 PUSH1 0xFF MUL NOT AND SWAP1 DUP4 PUSH1 0x9 DUP2 GT ISZERO PUSH2 0xCB0 JUMPI PUSH2 0xCAF PUSH2 0x1879 JUMP JUMPDEST JUMPDEST MUL OR SWAP1 SSTORE POP PUSH32 0x59E2B1BEA451053289971062B187C027A0F841853F70E131A5A9F22B05CD44F8 PUSH1 0x7 SLOAD PUSH1 0x40 MLOAD PUSH2 0xCE6 SWAP2 SWAP1 PUSH2 0x1734 JUMP JUMPDEST PUSH1 0x40 MLOAD DUP1 SWAP2 SUB SWAP1 LOG1 POP JUMP JUMPDEST PUSH1 0x3 PUSH1 0x0 SWAP1 SLOAD SWAP1 PUSH2 0x100 EXP SWAP1 DIV PUSH20 0xFFFFFFFFFFFFFFFFFFFFFFFFFFFFFFFFFFFFFFFF AND DUP2 JUMP JUMPDEST PUSH1 0x0 DUP1 PUSH32 0x5C5C5C5C5C5C5C5C5C5C5C5C5C5C5C5C5C5C5C5C5C5C5C5C5C5C5C5C5C5C5C5C PUSH1 0x0 SHL SWAP1 POP PUSH1 0x0 PUSH32 0x3636363636363636363636363636363636363636363636363636363636363636 PUSH1 0x0 SHL SWAP1 POP PUSH1 0x0 PUSH2 0xD76 DUP3 DUP8 XOR DUP7 PUSH2 0x101B JUMP JUMPDEST SWAP1 POP PUSH2 0xD84 DUP4 DUP8 XOR DUP3 PUSH2 0x101B JUMP JUMPDEST SWAP4 POP POP POP POP SWAP3 SWAP2 POP POP JUMP JUMPDEST PUSH1 0x0 PUSH1 0x2 DUP3 PUSH1 0x40 MLOAD PUSH1 0x20 ADD PUSH2 0xDA4 SWAP2 SWAP1 PUSH2 0x1BC5 JUMP JUMPDEST PUSH1 0x40 MLOAD PUSH1 0x20 DUP2 DUP4 SUB SUB DUP2 MSTORE SWAP1 PUSH1 0x40 MSTORE PUSH1 0x40 MLOAD PUSH2 0xDC0 SWAP2 SWAP1 PUSH2 0x1C27 JUMP JUMPDEST PUSH1 0x20 PUSH1 0x40 MLOAD DUP1 DUP4 SUB DUP2 DUP6 GAS STATICCALL ISZERO DUP1 ISZERO PUSH2 0xDDD JUMPI RETURNDATASIZE PUSH1 0x0 DUP1 RETURNDATACOPY RETURNDATASIZE PUSH1 0x0 REVERT JUMPDEST POP POP POP PUSH1 0x40 MLOAD RETURNDATASIZE PUSH1 0x1F NOT PUSH1 0x1F DUP3 ADD AND DUP3 ADD DUP1 PUSH1 0x40 MSTORE POP DUP2 ADD SWAP1 PUSH2 0xE00 SWAP2 SWAP1 PUSH2 0x1C53 JUMP JUMPDEST SWAP1 POP SWAP2 SWAP1 POP JUMP JUMPDEST PUSH1 0x6 SLOAD DUP2 JUMP JUMPDEST PUSH1 0xB SLOAD DUP2 JUMP JUMPDEST PUSH1 0x8 SLOAD DUP2 JUMP JUMPDEST PUSH1 0x4 SLOAD DUP2 JUMP JUMPDEST PUSH1 0x5 PUSH1 0x9 DUP2 GT ISZERO PUSH2 0xE33 JUMPI PUSH2 0xE32 PUSH2 0x1879 JUMP JUMPDEST JUMPDEST PUSH1 0xD PUSH1 0x0 SWAP1 SLOAD SWAP1 PUSH2 0x100 EXP SWAP1 DIV PUSH1 0xFF AND PUSH1 0x9 DUP2 GT ISZERO PUSH2 0xE55 JUMPI PUSH2 0xE54 PUSH2 0x1879 JUMP JUMPDEST JUMPDEST SUB PUSH2 0xE5F JUMPI PUSH1 0x0 DUP1 REVERT JUMPDEST PUSH1 0x8 PUSH1 0xD PUSH1 0x0 PUSH2 0x100 EXP DUP2 SLOAD DUP2 PUSH1 0xFF MUL NOT AND SWAP1 DUP4 PUSH1 0x9 DUP2 GT ISZERO PUSH2 0xE85 JUMPI PUSH2 0xE84 PUSH2 0x1879 JUMP JUMPDEST JUMPDEST MUL OR SWAP1 SSTORE POP PUSH32 0xEBA0CF817C79F44BA4B1B99C7427F42D3A02D972D102AB5E5C0173EEE44C3402 CALLER PUSH1 0x40 MLOAD PUSH2 0xEB9 SWAP2 SWAP1 PUSH2 0x170A JUMP JUMPDEST PUSH1 0x40 MLOAD DUP1 SWAP2 SUB SWAP1 LOG1 JUMP JUMPDEST PUSH1 0x3 PUSH1 0x0 SWAP1 SLOAD SWAP1 PUSH2 0x100 EXP SWAP1 DIV PUSH20 0xFFFFFFFFFFFFFFFFFFFFFFFFFFFFFFFFFFFFFFFF AND PUSH20 0xFFFFFFFFFFFFFFFFFFFFFFFFFFFFFFFFFFFFFFFF AND CALLER PUSH20 0xFFFFFFFFFFFFFFFFFFFFFFFFFFFFFFFFFFFFFFFF AND EQ PUSH2 0xF1D JUMPI PUSH1 0x0 DUP1 REVERT JUMPDEST PUSH1 0x1 PUSH1 0x9 DUP2 GT ISZERO PUSH2 0xF31 JUMPI PUSH2 0xF30 PUSH2 0x1879 JUMP JUMPDEST JUMPDEST PUSH1 0xD PUSH1 0x0 SWAP1 SLOAD SWAP1 PUSH2 0x100 EXP SWAP1 DIV PUSH1 0xFF AND PUSH1 0x9 DUP2 GT ISZERO PUSH2 0xF53 JUMPI PUSH2 0xF52 PUSH2 0x1879 JUMP JUMPDEST JUMPDEST EQ PUSH2 0xF5D JUMPI PUSH1 0x0 DUP1 REVERT JUMPDEST DUP1 CALLVALUE EQ PUSH2 0xF69 JUMPI PUSH1 0x0 DUP1 REVERT JUMPDEST DUP3 PUSH1 0xA DUP2 SWAP1 SSTORE POP DUP2 PUSH1 0x8 DUP2 SWAP1 SSTORE POP DUP1 PUSH1 0x9 DUP2 SWAP1 SSTORE POP TIMESTAMP PUSH1 0xB DUP2 SWAP1 SSTORE POP PUSH1 0x2 PUSH1 0xD PUSH1 0x0 PUSH2 0x100 EXP DUP2 SLOAD DUP2 PUSH1 0xFF MUL NOT AND SWAP1 DUP4 PUSH1 0x9 DUP2 GT ISZERO PUSH2 0xFAB JUMPI PUSH2 0xFAA PUSH2 0x1879 JUMP JUMPDEST JUMPDEST MUL OR SWAP1 SSTORE POP PUSH32 0x38403778CE33B7BBDBD6C808EED8CACD1A5E8A78851FBCEC058F610AEF431EA DUP4 DUP4 DUP4 PUSH1 0x40 MLOAD PUSH2 0xFE3 SWAP4 SWAP3 SWAP2 SWAP1 PUSH2 0x1C80 JUMP JUMPDEST PUSH1 0x40 MLOAD DUP1 SWAP2 SUB SWAP1 LOG1 POP POP POP JUMP JUMPDEST PUSH1 0xC SLOAD DUP2 JUMP JUMPDEST PUSH1 0xD PUSH1 0x0 SWAP1 SLOAD SWAP1 PUSH2 0x100 EXP SWAP1 DIV PUSH1 0xFF AND DUP2 JUMP JUMPDEST PUSH1 0x9 SLOAD DUP2 JUMP JUMPDEST PUSH1 0x0 SLOAD DUP2 JUMP JUMPDEST PUSH1 0xA SLOAD DUP2 JUMP JUMPDEST PUSH1 0x0 PUSH1 0x2 DUP4 DUP4 PUSH1 0x40 MLOAD PUSH1 0x20 ADD PUSH2 0x1032 SWAP3 SWAP2 SWAP1 PUSH2 0x1CB7 JUMP JUMPDEST PUSH1 0x40 MLOAD PUSH1 0x20 DUP2 DUP4 SUB SUB DUP2 MSTORE SWAP1 PUSH1 0x40 MSTORE PUSH1 0x40 MLOAD PUSH2 0x104E SWAP2 SWAP1 PUSH2 0x1C27 JUMP JUMPDEST PUSH1 0x20 PUSH1 0x40 MLOAD DUP1 DUP4 SUB DUP2 DUP6 GAS STATICCALL ISZERO DUP1 ISZERO PUSH2 0x106B JUMPI RETURNDATASIZE PUSH1 0x0 DUP1 RETURNDATACOPY RETURNDATASIZE PUSH1 0x0 REVERT JUMPDEST POP POP POP PUSH1 0x40 MLOAD RETURNDATASIZE PUSH1 0x1F NOT PUSH1 0x1F DUP3 ADD AND DUP3 ADD DUP1 PUSH1 0x40 MSTORE POP DUP2 ADD SWAP1 PUSH2 0x108E SWAP2 SWAP1 PUSH2 0x1C53 JUMP JUMPDEST SWAP1 POP SWAP3 SWAP2 POP POP JUMP JUMPDEST PUSH1 0x2 PUSH1 0x0 SWAP1 SLOAD SWAP1 PUSH2 0x100 EXP SWAP1 DIV PUSH20 0xFFFFFFFFFFFFFFFFFFFFFFFFFFFFFFFFFFFFFFFF AND PUSH20 0xFFFFFFFFFFFFFFFFFFFFFFFFFFFFFFFFFFFFFFFF AND CALLER PUSH20 0xFFFFFFFFFFFFFFFFFFFFFFFFFFFFFFFFFFFFFFFF AND EQ PUSH2 0x10F0 JUMPI PUSH1 0x0 DUP1 REVERT JUMPDEST PUSH1 0x8 PUSH1 0x9 DUP2 GT ISZERO PUSH2 0x1104 JUMPI PUSH2 0x1103 PUSH2 0x1879 JUMP JUMPDEST JUMPDEST PUSH1 0xD PUSH1 0x0 SWAP1 SLOAD SWAP1 PUSH2 0x100 EXP SWAP1 DIV PUSH1 0xFF AND PUSH1 0x9 DUP2 GT ISZERO PUSH2 0x1126 JUMPI PUSH2 0x1125 PUSH2 0x1879 JUMP JUMPDEST JUMPDEST EQ PUSH2 0x1130 JUMPI PUSH1 0x0 DUP1 REVERT JUMPDEST DUP1 PUSH20 0xFFFFFFFFFFFFFFFFFFFFFFFFFFFFFFFFFFFFFFFF AND DUP3 PUSH20 0xFFFFFFFFFFFFFFFFFFFFFFFFFFFFFFFFFFFFFFFF AND SUB PUSH2 0x11B1 JUMPI DUP2 PUSH20 0xFFFFFFFFFFFFFFFFFFFFFFFFFFFFFFFFFFFFFFFF AND PUSH2 0x8FC PUSH1 0x9 SLOAD SWAP1 DUP2 ISZERO MUL SWAP1 PUSH1 0x40 MLOAD PUSH1 0x0 PUSH1 0x40 MLOAD DUP1 DUP4 SUB DUP2 DUP6 DUP9 DUP9 CALL SWAP4 POP POP POP POP ISZERO DUP1 ISZERO PUSH2 0x11AB JUMPI RETURNDATASIZE PUSH1 0x0 DUP1 RETURNDATACOPY RETURNDATASIZE PUSH1 0x0 REVERT JUMPDEST POP PUSH2 0x121D JUMP JUMPDEST PUSH1 0x1 PUSH1 0x0 SWAP1 SLOAD SWAP1 PUSH2 0x100 EXP SWAP1 DIV PUSH20 0xFFFFFFFFFFFFFFFFFFFFFFFFFFFFFFFFFFFFFFFF AND PUSH20 0xFFFFFFFFFFFFFFFFFFFFFFFFFFFFFFFFFFFFFFFF AND PUSH2 0x8FC PUSH1 0x9 SLOAD SWAP1 DUP2 ISZERO MUL SWAP1 PUSH1 0x40 MLOAD PUSH1 0x0 PUSH1 0x40 MLOAD DUP1 DUP4 SUB DUP2 DUP6 DUP9 DUP9 CALL SWAP4 POP POP POP POP ISZERO DUP1 ISZERO PUSH2 0x121B JUMPI RETURNDATASIZE PUSH1 0x0 DUP1 RETURNDATACOPY RETURNDATASIZE PUSH1 0x0 REVERT JUMPDEST POP JUMPDEST PUSH1 0x9 PUSH1 0xD PUSH1 0x0 PUSH2 0x100 EXP DUP2 SLOAD DUP2 PUSH1 0xFF MUL NOT AND SWAP1 DUP4 PUSH1 0x9 DUP2 GT ISZERO PUSH2 0x1243 JUMPI PUSH2 0x1242 PUSH2 0x1879 JUMP JUMPDEST JUMPDEST MUL OR SWAP1 SSTORE POP PUSH32 0x5B6A2B2DE4FA5FF7A980E48D8FE9471FF3EC4EEEF693A29DAE080E6A5A9C786F DUP3 DUP3 PUSH1 0x40 MLOAD PUSH2 0x1279 SWAP3 SWAP2 SWAP1 PUSH2 0x1CE3 JUMP JUMPDEST PUSH1 0x40 MLOAD DUP1 SWAP2 SUB SWAP1 LOG1 POP POP JUMP JUMPDEST PUSH1 0x3 PUSH1 0x0 SWAP1 SLOAD SWAP1 PUSH2 0x100 EXP SWAP1 DIV PUSH20 0xFFFFFFFFFFFFFFFFFFFFFFFFFFFFFFFFFFFFFFFF AND PUSH20 0xFFFFFFFFFFFFFFFFFFFFFFFFFFFFFFFFFFFFFFFF AND CALLER PUSH20 0xFFFFFFFFFFFFFFFFFFFFFFFFFFFFFFFFFFFFFFFF AND EQ PUSH2 0x12DF JUMPI PUSH1 0x0 DUP1 REVERT JUMPDEST PUSH1 0x3 PUSH1 0x9 DUP2 GT ISZERO PUSH2 0x12F3 JUMPI PUSH2 0x12F2 PUSH2 0x1879 JUMP JUMPDEST JUMPDEST PUSH1 0xD PUSH1 0x0 SWAP1 SLOAD SWAP1 PUSH2 0x100 EXP SWAP1 DIV PUSH1 0xFF AND PUSH1 0x9 DUP2 GT ISZERO PUSH2 0x1315 JUMPI PUSH2 0x1314 PUSH2 0x1879 JUMP JUMPDEST JUMPDEST EQ PUSH2 0x131F JUMPI PUSH1 0x0 DUP1 REVERT JUMPDEST PUSH1 0x9 SLOAD PUSH1 0x8 SLOAD PUSH2 0x132F SWAP2 SWAP1 PUSH2 0x1D0C JUMP JUMPDEST CALLVALUE EQ PUSH2 0x133A JUMPI PUSH1 0x0 DUP1 REVERT JUMPDEST PUSH1 0x4 PUSH1 0xD PUSH1 0x0 PUSH2 0x100 EXP DUP2 SLOAD DUP2 PUSH1 0xFF MUL NOT AND SWAP1 DUP4 PUSH1 0x9 DUP2 GT ISZERO PUSH2 0x1360 JUMPI PUSH2 0x135F PUSH2 0x1879 JUMP JUMPDEST JUMPDEST MUL OR SWAP1 SSTORE POP PUSH32 0xE37B4D92BFB3A0F51B4632930020AB1670830E1C71576288D9B33F4671F09BB9 CALLER CALLVALUE PUSH1 0x40 MLOAD PUSH2 0x1396 SWAP3 SWAP2 SWAP1 PUSH2 0x1D40 JUMP JUMPDEST PUSH1 0x40 MLOAD DUP1 SWAP2 SUB SWAP1 LOG1 JUMP JUMPDEST PUSH1 0x0 PUSH1 0x40 MLOAD SWAP1 POP SWAP1 JUMP JUMPDEST PUSH1 0x0 DUP1 REVERT JUMPDEST PUSH1 0x0 DUP1 REVERT JUMPDEST PUSH1 0x0 DUP2 SWAP1 POP SWAP2 SWAP1 POP JUMP JUMPDEST PUSH2 0x13C7 DUP2 PUSH2 0x13B4 JUMP JUMPDEST DUP2 EQ PUSH2 0x13D2 JUMPI PUSH1 0x0 DUP1 REVERT JUMPDEST POP JUMP JUMPDEST PUSH1 0x0 DUP2 CALLDATALOAD SWAP1 POP PUSH2 0x13E4 DUP2 PUSH2 0x13BE JUMP JUMPDEST SWAP3 SWAP2 POP POP JUMP JUMPDEST PUSH1 0x0 DUP1 REVERT JUMPDEST PUSH1 0x0 PUSH1 0x1F NOT PUSH1 0x1F DUP4 ADD AND SWAP1 POP SWAP2 SWAP1 POP JUMP JUMPDEST PUSH32 0x4E487B7100000000000000000000000000000000000000000000000000000000 PUSH1 0x0 MSTORE PUSH1 0x41 PUSH1 0x4 MSTORE PUSH1 0x24 PUSH1 0x0 REVERT JUMPDEST PUSH2 0x1438 DUP3 PUSH2 0x13EF JUMP JUMPDEST DUP2 ADD DUP2 DUP2 LT PUSH8 0xFFFFFFFFFFFFFFFF DUP3 GT OR ISZERO PUSH2 0x1457 JUMPI PUSH2 0x1456 PUSH2 0x1400 JUMP JUMPDEST JUMPDEST DUP1 PUSH1 0x40 MSTORE POP POP POP JUMP JUMPDEST PUSH1 0x0 PUSH2 0x146A PUSH2 0x13A0 JUMP JUMPDEST SWAP1 POP PUSH2 0x1476 DUP3 DUP3 PUSH2 0x142F JUMP JUMPDEST SWAP2 SWAP1 POP JUMP JUMPDEST PUSH1 0x0 PUSH8 0xFFFFFFFFFFFFFFFF DUP3 GT ISZERO PUSH2 0x1496 JUMPI PUSH2 0x1495 PUSH2 0x1400 JUMP JUMPDEST JUMPDEST PUSH1 0x20 DUP3 MUL SWAP1 POP PUSH1 0x20 DUP2 ADD SWAP1 POP SWAP2 SWAP1 POP JUMP JUMPDEST PUSH1 0x0 DUP1 REVERT JUMPDEST PUSH1 0x0 PUSH2 0x14BF PUSH2 0x14BA DUP5 PUSH2 0x147B JUMP JUMPDEST PUSH2 0x1460 JUMP JUMPDEST SWAP1 POP DUP1 DUP4 DUP3 MSTORE PUSH1 0x20 DUP3 ADD SWAP1 POP PUSH1 0x20 DUP5 MUL DUP4 ADD DUP6 DUP2 GT ISZERO PUSH2 0x14E2 JUMPI PUSH2 0x14E1 PUSH2 0x14A7 JUMP JUMPDEST JUMPDEST DUP4 JUMPDEST DUP2 DUP2 LT ISZERO PUSH2 0x150B JUMPI DUP1 PUSH2 0x14F7 DUP9 DUP3 PUSH2 0x13D5 JUMP JUMPDEST DUP5 MSTORE PUSH1 0x20 DUP5 ADD SWAP4 POP POP PUSH1 0x20 DUP2 ADD SWAP1 POP PUSH2 0x14E4 JUMP JUMPDEST POP POP POP SWAP4 SWAP3 POP POP POP JUMP JUMPDEST PUSH1 0x0 DUP3 PUSH1 0x1F DUP4 ADD SLT PUSH2 0x152A JUMPI PUSH2 0x1529 PUSH2 0x13EA JUMP JUMPDEST JUMPDEST DUP2 CALLDATALOAD PUSH2 0x153A DUP5 DUP3 PUSH1 0x20 DUP7 ADD PUSH2 0x14AC JUMP JUMPDEST SWAP2 POP POP SWAP3 SWAP2 POP POP JUMP JUMPDEST PUSH1 0x0 DUP1 PUSH1 0x0 PUSH1 0x60 DUP5 DUP7 SUB SLT ISZERO PUSH2 0x155C JUMPI PUSH2 0x155B PUSH2 0x13AA JUMP JUMPDEST JUMPDEST PUSH1 0x0 PUSH2 0x156A DUP7 DUP3 DUP8 ADD PUSH2 0x13D5 JUMP JUMPDEST SWAP4 POP POP PUSH1 0x20 PUSH2 0x157B DUP7 DUP3 DUP8 ADD PUSH2 0x13D5 JUMP JUMPDEST SWAP3 POP POP PUSH1 0x40 DUP5 ADD CALLDATALOAD PUSH8 0xFFFFFFFFFFFFFFFF DUP2 GT ISZERO PUSH2 0x159C JUMPI PUSH2 0x159B PUSH2 0x13AF JUMP JUMPDEST JUMPDEST PUSH2 0x15A8 DUP7 DUP3 DUP8 ADD PUSH2 0x1515 JUMP JUMPDEST SWAP2 POP POP SWAP3 POP SWAP3 POP SWAP3 JUMP JUMPDEST PUSH1 0x0 DUP2 MLOAD SWAP1 POP SWAP2 SWAP1 POP JUMP JUMPDEST PUSH1 0x0 DUP3 DUP3 MSTORE PUSH1 0x20 DUP3 ADD SWAP1 POP SWAP3 SWAP2 POP POP JUMP JUMPDEST PUSH1 0x0 JUMPDEST DUP4 DUP2 LT ISZERO PUSH2 0x15EC JUMPI DUP1 DUP3 ADD MLOAD DUP2 DUP5 ADD MSTORE PUSH1 0x20 DUP2 ADD SWAP1 POP PUSH2 0x15D1 JUMP JUMPDEST PUSH1 0x0 DUP5 DUP5 ADD MSTORE POP POP POP POP JUMP JUMPDEST PUSH1 0x0 PUSH2 0x1603 DUP3 PUSH2 0x15B2 JUMP JUMPDEST PUSH2 0x160D DUP2 DUP6 PUSH2 0x15BD JUMP JUMPDEST SWAP4 POP PUSH2 0x161D DUP2 DUP6 PUSH1 0x20 DUP7 ADD PUSH2 0x15CE JUMP JUMPDEST PUSH2 0x1626 DUP2 PUSH2 0x13EF JUMP JUMPDEST DUP5 ADD SWAP2 POP POP SWAP3 SWAP2 POP POP JUMP JUMPDEST PUSH1 0x0 PUSH1 0x20 DUP3 ADD SWAP1 POP DUP2 DUP2 SUB PUSH1 0x0 DUP4 ADD MSTORE PUSH2 0x164B DUP2 DUP5 PUSH2 0x15F8 JUMP JUMPDEST SWAP1 POP SWAP3 SWAP2 POP POP JUMP JUMPDEST PUSH1 0x0 DUP2 SWAP1 POP SWAP2 SWAP1 POP JUMP JUMPDEST PUSH2 0x1666 DUP2 PUSH2 0x1653 JUMP JUMPDEST DUP2 EQ PUSH2 0x1671 JUMPI PUSH1 0x0 DUP1 REVERT JUMPDEST POP JUMP JUMPDEST PUSH1 0x0 DUP2 CALLDATALOAD SWAP1 POP PUSH2 0x1683 DUP2 PUSH2 0x165D JUMP JUMPDEST SWAP3 SWAP2 POP POP JUMP JUMPDEST PUSH1 0x0 DUP1 PUSH1 0x40 DUP4 DUP6 SUB SLT ISZERO PUSH2 0x16A0 JUMPI PUSH2 0x169F PUSH2 0x13AA JUMP JUMPDEST JUMPDEST PUSH1 0x0 PUSH2 0x16AE DUP6 DUP3 DUP7 ADD PUSH2 0x13D5 JUMP JUMPDEST SWAP3 POP POP PUSH1 0x20 PUSH2 0x16BF DUP6 DUP3 DUP7 ADD PUSH2 0x1674 JUMP JUMPDEST SWAP2 POP POP SWAP3 POP SWAP3 SWAP1 POP JUMP JUMPDEST PUSH1 0x0 PUSH20 0xFFFFFFFFFFFFFFFFFFFFFFFFFFFFFFFFFFFFFFFF DUP3 AND SWAP1 POP SWAP2 SWAP1 POP JUMP JUMPDEST PUSH1 0x0 PUSH2 0x16F4 DUP3 PUSH2 0x16C9 JUMP JUMPDEST SWAP1 POP SWAP2 SWAP1 POP JUMP JUMPDEST PUSH2 0x1704 DUP2 PUSH2 0x16E9 JUMP JUMPDEST DUP3 MSTORE POP POP JUMP JUMPDEST PUSH1 0x0 PUSH1 0x20 DUP3 ADD SWAP1 POP PUSH2 0x171F PUSH1 0x0 DUP4 ADD DUP5 PUSH2 0x16FB JUMP JUMPDEST SWAP3 SWAP2 POP POP JUMP JUMPDEST PUSH2 0x172E DUP2 PUSH2 0x13B4 JUMP JUMPDEST DUP3 MSTORE POP POP JUMP JUMPDEST PUSH1 0x0 PUSH1 0x20 DUP3 ADD SWAP1 POP PUSH2 0x1749 PUSH1 0x0 DUP4 ADD DUP5 PUSH2 0x1725 JUMP JUMPDEST SWAP3 SWAP2 POP POP JUMP JUMPDEST PUSH1 0x0 DUP1 PUSH1 0x40 DUP4 DUP6 SUB SLT ISZERO PUSH2 0x1766 JUMPI PUSH2 0x1765 PUSH2 0x13AA JUMP JUMPDEST JUMPDEST PUSH1 0x0 PUSH2 0x1774 DUP6 DUP3 DUP7 ADD PUSH2 0x1674 JUMP JUMPDEST SWAP3 POP POP PUSH1 0x20 PUSH2 0x1785 DUP6 DUP3 DUP7 ADD PUSH2 0x13D5 JUMP JUMPDEST SWAP2 POP POP SWAP3 POP SWAP3 SWAP1 POP JUMP JUMPDEST PUSH1 0x0 PUSH1 0x20 DUP3 DUP5 SUB SLT ISZERO PUSH2 0x17A5 JUMPI PUSH2 0x17A4 PUSH2 0x13AA JUMP JUMPDEST JUMPDEST PUSH1 0x0 PUSH2 0x17B3 DUP5 DUP3 DUP6 ADD PUSH2 0x13D5 JUMP JUMPDEST SWAP2 POP POP SWAP3 SWAP2 POP POP JUMP JUMPDEST PUSH1 0x0 DUP1 PUSH1 0x40 DUP4 DUP6 SUB SLT ISZERO PUSH2 0x17D3 JUMPI PUSH2 0x17D2 PUSH2 0x13AA JUMP JUMPDEST JUMPDEST PUSH1 0x0 PUSH2 0x17E1 DUP6 DUP3 DUP7 ADD PUSH2 0x13D5 JUMP JUMPDEST SWAP3 POP POP PUSH1 0x20 PUSH2 0x17F2 DUP6 DUP3 DUP7 ADD PUSH2 0x13D5 JUMP JUMPDEST SWAP2 POP POP SWAP3 POP SWAP3 SWAP1 POP JUMP JUMPDEST PUSH2 0x1805 DUP2 PUSH2 0x1653 JUMP JUMPDEST DUP3 MSTORE POP POP JUMP JUMPDEST PUSH1 0x0 PUSH1 0x20 DUP3 ADD SWAP1 POP PUSH2 0x1820 PUSH1 0x0 DUP4 ADD DUP5 PUSH2 0x17FC JUMP JUMPDEST SWAP3 SWAP2 POP POP JUMP JUMPDEST PUSH1 0x0 DUP1 PUSH1 0x0 PUSH1 0x60 DUP5 DUP7 SUB SLT ISZERO PUSH2 0x183F JUMPI PUSH2 0x183E PUSH2 0x13AA JUMP JUMPDEST JUMPDEST PUSH1 0x0 PUSH2 0x184D DUP7 DUP3 DUP8 ADD PUSH2 0x13D5 JUMP JUMPDEST SWAP4 POP POP PUSH1 0x20 PUSH2 0x185E DUP7 DUP3 DUP8 ADD PUSH2 0x1674 JUMP JUMPDEST SWAP3 POP POP PUSH1 0x40 PUSH2 0x186F DUP7 DUP3 DUP8 ADD PUSH2 0x1674 JUMP JUMPDEST SWAP2 POP POP SWAP3 POP SWAP3 POP SWAP3 JUMP JUMPDEST PUSH32 0x4E487B7100000000000000000000000000000000000000000000000000000000 PUSH1 0x0 MSTORE PUSH1 0x21 PUSH1 0x4 MSTORE PUSH1 0x24 PUSH1 0x0 REVERT JUMPDEST PUSH1 0xA DUP2 LT PUSH2 0x18B9 JUMPI PUSH2 0x18B8 PUSH2 0x1879 JUMP JUMPDEST JUMPDEST POP JUMP JUMPDEST PUSH1 0x0 DUP2 SWAP1 POP PUSH2 0x18CA DUP3 PUSH2 0x18A8 JUMP JUMPDEST SWAP2 SWAP1 POP JUMP JUMPDEST PUSH1 0x0 PUSH2 0x18DA DUP3 PUSH2 0x18BC JUMP JUMPDEST SWAP1 POP SWAP2 SWAP1 POP JUMP JUMPDEST PUSH2 0x18EA DUP2 PUSH2 0x18CF JUMP JUMPDEST DUP3 MSTORE POP POP JUMP JUMPDEST PUSH1 0x0 PUSH1 0x20 DUP3 ADD SWAP1 POP PUSH2 0x1905 PUSH1 0x0 DUP4 ADD DUP5 PUSH2 0x18E1 JUMP JUMPDEST SWAP3 SWAP2 POP POP JUMP JUMPDEST PUSH2 0x1914 DUP2 PUSH2 0x16E9 JUMP JUMPDEST DUP2 EQ PUSH2 0x191F JUMPI PUSH1 0x0 DUP1 REVERT JUMPDEST POP JUMP JUMPDEST PUSH1 0x0 DUP2 CALLDATALOAD SWAP1 POP PUSH2 0x1931 DUP2 PUSH2 0x190B JUMP JUMPDEST SWAP3 SWAP2 POP POP JUMP JUMPDEST PUSH1 0x0 DUP1 PUSH1 0x40 DUP4 DUP6 SUB SLT ISZERO PUSH2 0x194E JUMPI PUSH2 0x194D PUSH2 0x13AA JUMP JUMPDEST JUMPDEST PUSH1 0x0 PUSH2 0x195C DUP6 DUP3 DUP7 ADD PUSH2 0x1922 JUMP JUMPDEST SWAP3 POP POP PUSH1 0x20 PUSH2 0x196D DUP6 DUP3 DUP7 ADD PUSH2 0x1922 JUMP JUMPDEST SWAP2 POP POP SWAP3 POP SWAP3 SWAP1 POP JUMP JUMPDEST PUSH32 0x4E487B7100000000000000000000000000000000000000000000000000000000 PUSH1 0x0 MSTORE PUSH1 0x32 PUSH1 0x4 MSTORE PUSH1 0x24 PUSH1 0x0 REVERT JUMPDEST PUSH1 0x0 PUSH1 0x40 DUP3 ADD SWAP1 POP PUSH2 0x19BB PUSH1 0x0 DUP4 ADD DUP6 PUSH2 0x1725 JUMP JUMPDEST PUSH2 0x19C8 PUSH1 0x20 DUP4 ADD DUP5 PUSH2 0x1725 JUMP JUMPDEST SWAP4 SWAP3 POP POP POP JUMP JUMPDEST PUSH32 0x4E487B7100000000000000000000000000000000000000000000000000000000 PUSH1 0x0 MSTORE PUSH1 0x11 PUSH1 0x4 MSTORE PUSH1 0x24 PUSH1 0x0 REVERT JUMPDEST PUSH1 0x0 PUSH2 0x1A09 DUP3 PUSH2 0x1653 JUMP JUMPDEST SWAP2 POP PUSH32 0xFFFFFFFFFFFFFFFFFFFFFFFFFFFFFFFFFFFFFFFFFFFFFFFFFFFFFFFFFFFFFFFF DUP3 SUB PUSH2 0x1A3B JUMPI PUSH2 0x1A3A PUSH2 0x19CF JUMP JUMPDEST JUMPDEST PUSH1 0x1 DUP3 ADD SWAP1 POP SWAP2 SWAP1 POP JUMP JUMPDEST PUSH1 0x0 PUSH2 0x1A51 DUP3 PUSH2 0x1653 JUMP JUMPDEST SWAP2 POP PUSH2 0x1A5C DUP4 PUSH2 0x1653 JUMP JUMPDEST SWAP3 POP DUP3 DUP3 ADD SWAP1 POP DUP1 DUP3 GT ISZERO PUSH2 0x1A74 JUMPI PUSH2 0x1A73 PUSH2 0x19CF JUMP JUMPDEST JUMPDEST SWAP3 SWAP2 POP POP JUMP JUMPDEST PUSH32 0x526573706F6E64652074696D65206973206F7665722000000000000000000000 PUSH1 0x0 DUP3 ADD MSTORE POP JUMP JUMPDEST PUSH1 0x0 PUSH2 0x1AB0 PUSH1 0x16 DUP4 PUSH2 0x15BD JUMP JUMPDEST SWAP2 POP PUSH2 0x1ABB DUP3 PUSH2 0x1A7A JUMP JUMPDEST PUSH1 0x20 DUP3 ADD SWAP1 POP SWAP2 SWAP1 POP JUMP JUMPDEST PUSH1 0x0 PUSH1 0x20 DUP3 ADD SWAP1 POP DUP2 DUP2 SUB PUSH1 0x0 DUP4 ADD MSTORE PUSH2 0x1ADF DUP2 PUSH2 0x1AA3 JUMP JUMPDEST SWAP1 POP SWAP2 SWAP1 POP JUMP JUMPDEST PUSH1 0x0 PUSH1 0x40 DUP3 ADD SWAP1 POP PUSH2 0x1AFB PUSH1 0x0 DUP4 ADD DUP6 PUSH2 0x1725 JUMP JUMPDEST PUSH2 0x1B08 PUSH1 0x20 DUP4 ADD DUP5 PUSH2 0x17FC JUMP JUMPDEST SWAP4 SWAP3 POP POP POP JUMP JUMPDEST PUSH32 0x4F7065726174696F6E2074696D65206973206E6F74206F766572207965740000 PUSH1 0x0 DUP3 ADD MSTORE POP JUMP JUMPDEST PUSH1 0x0 PUSH2 0x1B45 PUSH1 0x1E DUP4 PUSH2 0x15BD JUMP JUMPDEST SWAP2 POP PUSH2 0x1B50 DUP3 PUSH2 0x1B0F JUMP JUMPDEST PUSH1 0x20 DUP3 ADD SWAP1 POP SWAP2 SWAP1 POP JUMP JUMPDEST PUSH1 0x0 PUSH1 0x20 DUP3 ADD SWAP1 POP DUP2 DUP2 SUB PUSH1 0x0 DUP4 ADD MSTORE PUSH2 0x1B74 DUP2 PUSH2 0x1B38 JUMP JUMPDEST SWAP1 POP SWAP2 SWAP1 POP JUMP JUMPDEST PUSH1 0x0 PUSH1 0x40 DUP3 ADD SWAP1 POP PUSH2 0x1B90 PUSH1 0x0 DUP4 ADD DUP6 PUSH2 0x17FC JUMP JUMPDEST PUSH2 0x1B9D PUSH1 0x20 DUP4 ADD DUP5 PUSH2 0x1725 JUMP JUMPDEST SWAP4 SWAP3 POP POP POP JUMP JUMPDEST PUSH1 0x0 DUP2 SWAP1 POP SWAP2 SWAP1 POP JUMP JUMPDEST PUSH2 0x1BBF PUSH2 0x1BBA DUP3 PUSH2 0x13B4 JUMP JUMPDEST PUSH2 0x1BA4 JUMP JUMPDEST DUP3 MSTORE POP POP JUMP JUMPDEST PUSH1 0x0 PUSH2 0x1BD1 DUP3 DUP5 PUSH2 0x1BAE JUMP JUMPDEST PUSH1 0x20 DUP3 ADD SWAP2 POP DUP2 SWAP1 POP SWAP3 SWAP2 POP POP JUMP JUMPDEST PUSH1 0x0 DUP2 MLOAD SWAP1 POP SWAP2 SWAP1 POP JUMP JUMPDEST PUSH1 0x0 DUP2 SWAP1 POP SWAP3 SWAP2 POP POP JUMP JUMPDEST PUSH1 0x0 PUSH2 0x1C01 DUP3 PUSH2 0x1BE0 JUMP JUMPDEST PUSH2 0x1C0B DUP2 DUP6 PUSH2 0x1BEB JUMP JUMPDEST SWAP4 POP PUSH2 0x1C1B DUP2 DUP6 PUSH1 0x20 DUP7 ADD PUSH2 0x15CE JUMP JUMPDEST DUP1 DUP5 ADD SWAP2 POP POP SWAP3 SWAP2 POP POP JUMP JUMPDEST PUSH1 0x0 PUSH2 0x1C33 DUP3 DUP5 PUSH2 0x1BF6 JUMP JUMPDEST SWAP2 POP DUP2 SWAP1 POP SWAP3 SWAP2 POP POP JUMP JUMPDEST PUSH1 0x0 DUP2 MLOAD SWAP1 POP PUSH2 0x1C4D DUP2 PUSH2 0x13BE JUMP JUMPDEST SWAP3 SWAP2 POP POP JUMP JUMPDEST PUSH1 0x0 PUSH1 0x20 DUP3 DUP5 SUB SLT ISZERO PUSH2 0x1C69 JUMPI PUSH2 0x1C68 PUSH2 0x13AA JUMP JUMPDEST JUMPDEST PUSH1 0x0 PUSH2 0x1C77 DUP5 DUP3 DUP6 ADD PUSH2 0x1C3E JUMP JUMPDEST SWAP2 POP POP SWAP3 SWAP2 POP POP JUMP JUMPDEST PUSH1 0x0 PUSH1 0x60 DUP3 ADD SWAP1 POP PUSH2 0x1C95 PUSH1 0x0 DUP4 ADD DUP7 PUSH2 0x1725 JUMP JUMPDEST PUSH2 0x1CA2 PUSH1 0x20 DUP4 ADD DUP6 PUSH2 0x17FC JUMP JUMPDEST PUSH2 0x1CAF PUSH1 0x40 DUP4 ADD DUP5 PUSH2 0x17FC JUMP JUMPDEST SWAP5 SWAP4 POP POP POP POP JUMP JUMPDEST PUSH1 0x0 PUSH2 0x1CC3 DUP3 DUP6 PUSH2 0x1BAE JUMP JUMPDEST PUSH1 0x20 DUP3 ADD SWAP2 POP PUSH2 0x1CD3 DUP3 DUP5 PUSH2 0x1BAE JUMP JUMPDEST PUSH1 0x20 DUP3 ADD SWAP2 POP DUP2 SWAP1 POP SWAP4 SWAP3 POP POP POP JUMP JUMPDEST PUSH1 0x0 PUSH1 0x40 DUP3 ADD SWAP1 POP PUSH2 0x1CF8 PUSH1 0x0 DUP4 ADD DUP6 PUSH2 0x16FB JUMP JUMPDEST PUSH2 0x1D05 PUSH1 0x20 DUP4 ADD DUP5 PUSH2 0x16FB JUMP JUMPDEST SWAP4 SWAP3 POP POP POP JUMP JUMPDEST PUSH1 0x0 PUSH2 0x1D17 DUP3 PUSH2 0x1653 JUMP JUMPDEST SWAP2 POP PUSH2 0x1D22 DUP4 PUSH2 0x1653 JUMP JUMPDEST SWAP3 POP DUP3 DUP3 SUB SWAP1 POP DUP2 DUP2 GT ISZERO PUSH2 0x1D3A JUMPI PUSH2 0x1D39 PUSH2 0x19CF JUMP JUMPDEST JUMPDEST SWAP3 SWAP2 POP POP JUMP JUMPDEST PUSH1 0x0 PUSH1 0x40 DUP3 ADD SWAP1 POP PUSH2 0x1D55 PUSH1 0x0 DUP4 ADD DUP6 PUSH2 0x16FB JUMP JUMPDEST PUSH2 0x1D62 PUSH1 0x20 DUP4 ADD DUP5 PUSH2 0x17FC JUMP JUMPDEST SWAP4 SWAP3 POP POP POP JUMP INVALID LOG2 PUSH5 0x6970667358 0x22 SLT KECCAK256 0xB2 JUMPDEST CALLDATALOAD SWAP16 0xE6 0x23 SMOD BLOCKHASH 0x5D 0xC1 0xF9 0xCF GASLIMIT SLT CALL PUSH29 0x86A23C4BFC599125F79198A1EA7CAEBF64736F6C634300081200330000 "
				},
				"gasEstimates": {
					"creation": {
						"codeDepositCost": "1516600",
						"executionCost": "120785",
						"totalCost": "1637385"
					},
					"external": {
						"RaiseOffChainArbitration()": "27970",
						"RaiseOnChainArbitration(bytes32,bytes32,bytes32[])": "infinite",
						"arbitrator()": "2582",
						"buyer()": "2559",
						"buyerRefund()": "infinite",
						"challenge(bytes32,uint256,uint256)": "infinite",
						"commitData(uint256,bytes32)": "infinite",
						"dataId()": "2518",
						"delta_1()": "2496",
						"delta_2()": "2563",
						"depth_2()": "2540",
						"hmac(bytes32,bytes32)": "infinite",
						"kc()": "2473",
						"mk()": "2519",
						"opreationtime()": "2452",
						"p()": "2474",
						"p1()": "2496",
						"payleft()": "infinite",
						"releaseMasterkey(bytes32)": "infinite",
						"response(bytes32,uint256)": "infinite",
						"seller()": "2582",
						"sha2562(bytes32,bytes32)": "infinite",
						"state()": "2605",
						"test256(bytes32)": "infinite",
						"timeLimit()": "2562",
						"verdict(address,address)": "infinite"
					}
				},
				"methodIdentifiers": {
					"RaiseOffChainArbitration()": "b66cfa41",
					"RaiseOnChainArbitration(bytes32,bytes32,bytes32[])": "07c5fbe5",
					"arbitrator()": "6cc6cde1",
					"buyer()": "7150d8ae",
					"buyerRefund()": "3502e066",
					"challenge(bytes32,uint256,uint256)": "b93a86ce",
					"commitData(uint256,bytes32)": "50339559",
					"dataId()": "c8a663ec",
					"delta_1()": "a2fc30af",
					"delta_2()": "4bbf6642",
					"depth_2()": "80aa2dae",
					"hmac(bytes32,bytes32)": "78192063",
					"kc()": "e6299631",
					"mk()": "2f81b0a0",
					"opreationtime()": "9ae67252",
					"p()": "9ae8886a",
					"p1()": "c2a2747b",
					"payleft()": "f4c1f07b",
					"releaseMasterkey(bytes32)": "706a0160",
					"response(bytes32,uint256)": "07e4312e",
					"seller()": "08551a53",
					"sha2562(bytes32,bytes32)": "ee17b807",
					"state()": "c19d93fb",
					"test256(bytes32)": "7a1a456a",
					"timeLimit()": "c08d1fe5",
					"verdict(address,address)": "f258d51e"
				}
			},
			"storageLayout": {
				"storage": [
					{
						"astId": 3,
						"contract": "trading.sol:trading",
						"label": "dataId",
						"offset": 0,
						"slot": "0",
						"type": "t_uint256"
					},
					{
						"astId": 5,
						"contract": "trading.sol:trading",
						"label": "seller",
						"offset": 0,
						"slot": "1",
						"type": "t_address"
					},
					{
						"astId": 7,
						"contract": "trading.sol:trading",
						"label": "arbitrator",
						"offset": 0,
						"slot": "2",
						"type": "t_address"
					},
					{
						"astId": 9,
						"contract": "trading.sol:trading",
						"label": "buyer",
						"offset": 0,
						"slot": "3",
						"type": "t_address"
					},
					{
						"astId": 11,
						"contract": "trading.sol:trading",
						"label": "delta_1",
						"offset": 0,
						"slot": "4",
						"type": "t_bytes32"
					},
					{
						"astId": 13,
						"contract": "trading.sol:trading",
						"label": "delta_2",
						"offset": 0,
						"slot": "5",
						"type": "t_bytes32"
					},
					{
						"astId": 15,
						"contract": "trading.sol:trading",
						"label": "depth_2",
						"offset": 0,
						"slot": "6",
						"type": "t_uint256"
					},
					{
						"astId": 17,
						"contract": "trading.sol:trading",
						"label": "mk",
						"offset": 0,
						"slot": "7",
						"type": "t_bytes32"
					},
					{
						"astId": 19,
						"contract": "trading.sol:trading",
						"label": "p",
						"offset": 0,
						"slot": "8",
						"type": "t_uint256"
					},
					{
						"astId": 21,
						"contract": "trading.sol:trading",
						"label": "p1",
						"offset": 0,
						"slot": "9",
						"type": "t_uint256"
					},
					{
						"astId": 23,
						"contract": "trading.sol:trading",
						"label": "kc",
						"offset": 0,
						"slot": "10",
						"type": "t_bytes32"
					},
					{
						"astId": 25,
						"contract": "trading.sol:trading",
						"label": "opreationtime",
						"offset": 0,
						"slot": "11",
						"type": "t_uint256"
					},
					{
						"astId": 28,
						"contract": "trading.sol:trading",
						"label": "timeLimit",
						"offset": 0,
						"slot": "12",
						"type": "t_uint256"
					},
					{
						"astId": 31,
						"contract": "trading.sol:trading",
						"label": "state",
						"offset": 0,
						"slot": "13",
						"type": "t_enum(State)42"
					}
				],
				"types": {
					"t_address": {
						"encoding": "inplace",
						"label": "address",
						"numberOfBytes": "20"
					},
					"t_bytes32": {
						"encoding": "inplace",
						"label": "bytes32",
						"numberOfBytes": "32"
					},
					"t_enum(State)42": {
						"encoding": "inplace",
						"label": "enum trading.State",
						"numberOfBytes": "1"
					},
					"t_uint256": {
						"encoding": "inplace",
						"label": "uint256",
						"numberOfBytes": "32"
					}
				}
			},
			"userdoc": {
				"kind": "user",
				"methods": {},
				"version": 1
			}
		}
	}
}