{
	"trading4test.sol": {
		"trading": {
			"abi": [
				{
					"inputs": [],
					"stateMutability": "nonpayable",
					"type": "constructor"
				},
				{
					"anonymous": false,
					"inputs": [
						{
							"indexed": false,
							"internalType": "address",
							"name": "userAddr",
							"type": "address"
						}
					],
					"name": "buyerRefundEvent",
					"type": "event"
				},
				{
					"anonymous": false,
					"inputs": [
						{
							"indexed": false,
							"internalType": "bytes32",
							"name": "kc",
							"type": "bytes32"
						},
						{
							"indexed": false,
							"internalType": "uint256",
							"name": "p",
							"type": "uint256"
						},
						{
							"indexed": false,
							"internalType": "uint256",
							"name": "p1",
							"type": "uint256"
						}
					],
					"name": "challengeEvent",
					"type": "event"
				},
				{
					"anonymous": false,
					"inputs": [
						{
							"indexed": false,
							"internalType": "uint256",
							"name": "id",
							"type": "uint256"
						},
						{
							"indexed": false,
							"internalType": "bytes32",
							"name": "delta_1",
							"type": "bytes32"
						}
					],
					"name": "commitDataEvent",
					"type": "event"
				},
				{
					"anonymous": false,
					"inputs": [
						{
							"indexed": false,
							"internalType": "address",
							"name": "userAddr",
							"type": "address"
						},
						{
							"indexed": false,
							"internalType": "string",
							"name": "complaintInfo",
							"type": "string"
						}
					],
					"name": "initiationArbitrationEvent",
					"type": "event"
				},
				{
					"anonymous": false,
					"inputs": [
						{
							"indexed": false,
							"internalType": "uint256",
							"name": "status",
							"type": "uint256"
						}
					],
					"name": "onchianArbitrationEvent",
					"type": "event"
				},
				{
					"anonymous": false,
					"inputs": [
						{
							"indexed": false,
							"internalType": "address",
							"name": "userAddr",
							"type": "address"
						},
						{
							"indexed": false,
							"internalType": "uint256",
							"name": "value",
							"type": "uint256"
						}
					],
					"name": "payleftEvent",
					"type": "event"
				},
				{
					"anonymous": false,
					"inputs": [
						{
							"indexed": false,
							"internalType": "bytes32",
							"name": "masterkey",
							"type": "bytes32"
						}
					],
					"name": "releaseMasterkeyEvent",
					"type": "event"
				},
				{
					"anonymous": false,
					"inputs": [
						{
							"indexed": false,
							"internalType": "bytes32",
							"name": "_delta_2",
							"type": "bytes32"
						},
						{
							"indexed": false,
							"internalType": "uint256",
							"name": "_length2",
							"type": "uint256"
						}
					],
					"name": "respondeEvent",
					"type": "event"
				},
				{
					"anonymous": false,
					"inputs": [
						{
							"indexed": false,
							"internalType": "address",
							"name": "userAddr",
							"type": "address"
						},
						{
							"indexed": false,
							"internalType": "address",
							"name": "winner",
							"type": "address"
						}
					],
					"name": "verdictEvent",
					"type": "event"
				},
				{
					"inputs": [
						{
							"internalType": "bytes32",
							"name": "index",
							"type": "bytes32"
						},
						{
							"internalType": "bytes32",
							"name": "_committedSubKey",
							"type": "bytes32"
						},
						{
							"internalType": "bytes32[]",
							"name": "_merkleTreePath",
							"type": "bytes32[]"
						}
					],
					"name": "RaiseOnChainArbitration",
					"outputs": [
						{
							"internalType": "string",
							"name": "",
							"type": "string"
						}
					],
					"stateMutability": "nonpayable",
					"type": "function"
				},
				{
					"inputs": [
						{
							"internalType": "bytes32",
							"name": "_mk",
							"type": "bytes32"
						},
						{
							"internalType": "bytes32",
							"name": "_index",
							"type": "bytes32"
						},
						{
							"internalType": "bytes32",
							"name": "_committedSubKey",
							"type": "bytes32"
						},
						{
							"internalType": "bytes32",
							"name": "_delta_2",
							"type": "bytes32"
						},
						{
							"internalType": "uint256",
							"name": "_length",
							"type": "uint256"
						},
						{
							"internalType": "bytes32[]",
							"name": "_merkleTreePath",
							"type": "bytes32[]"
						}
					],
					"name": "RaiseOnChainArbitrationForTest",
					"outputs": [
						{
							"internalType": "string",
							"name": "",
							"type": "string"
						}
					],
					"stateMutability": "nonpayable",
					"type": "function"
				},
				{
					"inputs": [
						{
							"internalType": "bytes32",
							"name": "_mk",
							"type": "bytes32"
						},
						{
							"internalType": "bytes32",
							"name": "_index",
							"type": "bytes32"
						},
						{
							"internalType": "bytes32",
							"name": "_committedSubKey",
							"type": "bytes32"
						},
						{
							"internalType": "bytes32",
							"name": "_delta_2",
							"type": "bytes32"
						},
						{
							"internalType": "uint256",
							"name": "_length",
							"type": "uint256"
						},
						{
							"internalType": "bytes32[]",
							"name": "_merkleTreePath",
							"type": "bytes32[]"
						}
					],
					"name": "RaiseOnChainArbitrationForTestwithkeccak256",
					"outputs": [
						{
							"internalType": "string",
							"name": "",
							"type": "string"
						}
					],
					"stateMutability": "nonpayable",
					"type": "function"
				},
				{
					"inputs": [],
					"name": "arbitrator",
					"outputs": [
						{
							"internalType": "address",
							"name": "",
							"type": "address"
						}
					],
					"stateMutability": "view",
					"type": "function"
				},
				{
					"inputs": [],
					"name": "buyer",
					"outputs": [
						{
							"internalType": "address",
							"name": "",
							"type": "address"
						}
					],
					"stateMutability": "view",
					"type": "function"
				},
				{
					"inputs": [],
					"name": "buyerRefund",
					"outputs": [],
					"stateMutability": "nonpayable",
					"type": "function"
				},
				{
					"inputs": [
						{
							"internalType": "bytes32",
							"name": "_kc",
							"type": "bytes32"
						},
						{
							"internalType": "uint256",
							"name": "_p",
							"type": "uint256"
						},
						{
							"internalType": "uint256",
							"name": "_p1",
							"type": "uint256"
						}
					],
					"name": "challenge",
					"outputs": [],
					"stateMutability": "payable",
					"type": "function"
				},
				{
					"inputs": [
						{
							"internalType": "uint256",
							"name": "id",
							"type": "uint256"
						},
						{
							"internalType": "bytes32",
							"name": "_delta_1",
							"type": "bytes32"
						}
					],
					"name": "commitData",
					"outputs": [],
					"stateMutability": "nonpayable",
					"type": "function"
				},
				{
					"inputs": [],
					"name": "dataId",
					"outputs": [
						{
							"internalType": "uint256",
							"name": "",
							"type": "uint256"
						}
					],
					"stateMutability": "view",
					"type": "function"
				},
				{
					"inputs": [],
					"name": "delta_1",
					"outputs": [
						{
							"internalType": "bytes32",
							"name": "",
							"type": "bytes32"
						}
					],
					"stateMutability": "view",
					"type": "function"
				},
				{
					"inputs": [],
					"name": "delta_2",
					"outputs": [
						{
							"internalType": "bytes32",
							"name": "",
							"type": "bytes32"
						}
					],
					"stateMutability": "view",
					"type": "function"
				},
				{
					"inputs": [],
					"name": "depth_2",
					"outputs": [
						{
							"internalType": "uint256",
							"name": "",
							"type": "uint256"
						}
					],
					"stateMutability": "view",
					"type": "function"
				},
				{
					"inputs": [
						{
							"internalType": "bytes32",
							"name": "key",
							"type": "bytes32"
						},
						{
							"internalType": "bytes32",
							"name": "message",
							"type": "bytes32"
						}
					],
					"name": "hmac",
					"outputs": [
						{
							"internalType": "bytes32",
							"name": "",
							"type": "bytes32"
						}
					],
					"stateMutability": "pure",
					"type": "function"
				},
				{
					"inputs": [
						{
							"internalType": "string",
							"name": "complaintInfo",
							"type": "string"
						}
					],
					"name": "initiationArbitration",
					"outputs": [],
					"stateMutability": "nonpayable",
					"type": "function"
				},
				{
					"inputs": [],
					"name": "kc",
					"outputs": [
						{
							"internalType": "bytes32",
							"name": "",
							"type": "bytes32"
						}
					],
					"stateMutability": "view",
					"type": "function"
				},
				{
					"inputs": [],
					"name": "mk",
					"outputs": [
						{
							"internalType": "bytes32",
							"name": "",
							"type": "bytes32"
						}
					],
					"stateMutability": "view",
					"type": "function"
				},
				{
					"inputs": [],
					"name": "opreationtime",
					"outputs": [
						{
							"internalType": "uint256",
							"name": "",
							"type": "uint256"
						}
					],
					"stateMutability": "view",
					"type": "function"
				},
				{
					"inputs": [],
					"name": "p",
					"outputs": [
						{
							"internalType": "uint256",
							"name": "",
							"type": "uint256"
						}
					],
					"stateMutability": "view",
					"type": "function"
				},
				{
					"inputs": [],
					"name": "p1",
					"outputs": [
						{
							"internalType": "uint256",
							"name": "",
							"type": "uint256"
						}
					],
					"stateMutability": "view",
					"type": "function"
				},
				{
					"inputs": [],
					"name": "payleft",
					"outputs": [],
					"stateMutability": "payable",
					"type": "function"
				},
				{
					"inputs": [
						{
							"internalType": "bytes32",
							"name": "_mk",
							"type": "bytes32"
						}
					],
					"name": "releaseMasterkey",
					"outputs": [],
					"stateMutability": "nonpayable",
					"type": "function"
				},
				{
					"inputs": [
						{
							"internalType": "bytes32",
							"name": "_delta_2",
							"type": "bytes32"
						},
						{
							"internalType": "uint256",
							"name": "_depth_2",
							"type": "uint256"
						}
					],
					"name": "response",
					"outputs": [],
					"stateMutability": "payable",
					"type": "function"
				},
				{
					"inputs": [],
					"name": "seller",
					"outputs": [
						{
							"internalType": "address",
							"name": "",
							"type": "address"
						}
					],
					"stateMutability": "view",
					"type": "function"
				},
				{
					"inputs": [
						{
							"internalType": "bytes32",
							"name": "key",
							"type": "bytes32"
						},
						{
							"internalType": "bytes32",
							"name": "message",
							"type": "bytes32"
						}
					],
					"name": "sha2562",
					"outputs": [
						{
							"internalType": "bytes32",
							"name": "",
							"type": "bytes32"
						}
					],
					"stateMutability": "pure",
					"type": "function"
				},
				{
					"inputs": [],
					"name": "state",
					"outputs": [
						{
							"internalType": "enum trading.State",
							"name": "",
							"type": "uint8"
						}
					],
					"stateMutability": "view",
					"type": "function"
				},
				{
					"inputs": [
						{
							"internalType": "bytes32",
							"name": "key",
							"type": "bytes32"
						}
					],
					"name": "test256",
					"outputs": [
						{
							"internalType": "bytes32",
							"name": "",
							"type": "bytes32"
						}
					],
					"stateMutability": "pure",
					"type": "function"
				},
				{
					"inputs": [],
					"name": "timeLimit",
					"outputs": [
						{
							"internalType": "uint256",
							"name": "",
							"type": "uint256"
						}
					],
					"stateMutability": "view",
					"type": "function"
				},
				{
					"inputs": [
						{
							"internalType": "address",
							"name": "userAddr",
							"type": "address"
						},
						{
							"internalType": "address",
							"name": "winner",
							"type": "address"
						}
					],
					"name": "verdict",
					"outputs": [],
					"stateMutability": "nonpayable",
					"type": "function"
				}
			],
			"devdoc": {
				"kind": "dev",
				"methods": {},
				"version": 1
			},
			"evm": {
				"assembly": "    /* \"trading4test.sol\":60:7982  contract trading {... */\n  mstore(0x40, 0x80)\n    /* \"trading4test.sol\":123:124  0 */\n  0x00\n    /* \"trading4test.sol\":99:124  uint256 public dataId = 0 */\n  dup1\n  sstore\n    /* \"trading4test.sol\":460:463  600 */\n  0x0258\n    /* \"trading4test.sol\":435:463  uint  public timeLimit = 600 */\n  0x0c\n  sstore\n    /* \"trading4test.sol\":1179:1324  constructor (){... */\n  callvalue\n  dup1\n  iszero\n  tag_1\n  jumpi\n  0x00\n  dup1\n  revert\ntag_1:\n  pop\n    /* \"trading4test.sol\":1217:1227  msg.sender */\n  caller\n    /* \"trading4test.sol\":1204:1214  arbitrator */\n  0x02\n  0x00\n    /* \"trading4test.sol\":1204:1227  arbitrator = msg.sender */\n  0x0100\n  exp\n  dup2\n  sload\n  dup2\n  0xffffffffffffffffffffffffffffffffffffffff\n  mul\n  not\n  and\n  swap1\n  dup4\n  0xffffffffffffffffffffffffffffffffffffffff\n  and\n  mul\n  or\n  swap1\n  sstore\n  pop\n    /* \"trading4test.sol\":1247:1257  msg.sender */\n  caller\n    /* \"trading4test.sol\":1238:1244  seller */\n  0x01\n  0x00\n    /* \"trading4test.sol\":1238:1257  seller = msg.sender */\n  0x0100\n  exp\n  dup2\n  sload\n  dup2\n  0xffffffffffffffffffffffffffffffffffffffff\n  mul\n  not\n  and\n  swap1\n  dup4\n  0xffffffffffffffffffffffffffffffffffffffff\n  and\n  mul\n  or\n  swap1\n  sstore\n  pop\n    /* \"trading4test.sol\":1276:1286  msg.sender */\n  caller\n    /* \"trading4test.sol\":1268:1273  buyer */\n  0x03\n  0x00\n    /* \"trading4test.sol\":1268:1286  buyer = msg.sender */\n  0x0100\n  exp\n  dup2\n  sload\n  dup2\n  0xffffffffffffffffffffffffffffffffffffffff\n  mul\n  not\n  and\n  swap1\n  dup4\n  0xffffffffffffffffffffffffffffffffffffffff\n  and\n  mul\n  or\n  swap1\n  sstore\n  pop\n    /* \"trading4test.sol\":1305:1316  State.start */\n  0x00\n    /* \"trading4test.sol\":1297:1302  state */\n  0x0d\n  0x00\n    /* \"trading4test.sol\":1297:1316  state = State.start */\n  0x0100\n  exp\n  dup2\n  sload\n  dup2\n  0xff\n  mul\n  not\n  and\n  swap1\n  dup4\n  0x09\n  dup2\n  gt\n  iszero\n  tag_4\n  jumpi\n  tag_5\n  tag_6\n  jump\t// in\ntag_5:\ntag_4:\n  mul\n  or\n  swap1\n  sstore\n  pop\n    /* \"trading4test.sol\":60:7982  contract trading {... */\n  jump(tag_7)\n    /* \"#utility.yul\":7:187   */\ntag_6:\n    /* \"#utility.yul\":55:132   */\n  0x4e487b7100000000000000000000000000000000000000000000000000000000\n    /* \"#utility.yul\":52:53   */\n  0x00\n    /* \"#utility.yul\":45:133   */\n  mstore\n    /* \"#utility.yul\":152:156   */\n  0x21\n    /* \"#utility.yul\":149:150   */\n  0x04\n    /* \"#utility.yul\":142:157   */\n  mstore\n    /* \"#utility.yul\":176:180   */\n  0x24\n    /* \"#utility.yul\":173:174   */\n  0x00\n    /* \"#utility.yul\":166:181   */\n  revert\n    /* \"trading4test.sol\":60:7982  contract trading {... */\ntag_7:\n  dataSize(sub_0)\n  dup1\n  dataOffset(sub_0)\n  0x00\n  codecopy\n  0x00\n  return\nstop\n\nsub_0: assembly {\n        /* \"trading4test.sol\":60:7982  contract trading {... */\n      mstore(0x40, 0x80)\n      jumpi(tag_1, lt(calldatasize, 0x04))\n      shr(0xe0, calldataload(0x00))\n      dup1\n      0x899a69a7\n      gt\n      tag_30\n      jumpi\n      dup1\n      0xc2a2747b\n      gt\n      tag_31\n      jumpi\n      dup1\n      0xee17b807\n      gt\n      tag_32\n      jumpi\n      dup1\n      0xee17b807\n      eq\n      tag_26\n      jumpi\n      dup1\n      0xf258d51e\n      eq\n      tag_27\n      jumpi\n      dup1\n      0xf4c1f07b\n      eq\n      tag_28\n      jumpi\n      dup1\n      0xf9f7ee1e\n      eq\n      tag_29\n      jumpi\n      jump(tag_1)\n    tag_32:\n      dup1\n      0xc2a2747b\n      eq\n      tag_23\n      jumpi\n      dup1\n      0xc8a663ec\n      eq\n      tag_24\n      jumpi\n      dup1\n      0xe6299631\n      eq\n      tag_25\n      jumpi\n      jump(tag_1)\n    tag_31:\n      dup1\n      0xa2fc30af\n      gt\n      tag_33\n      jumpi\n      dup1\n      0xa2fc30af\n      eq\n      tag_19\n      jumpi\n      dup1\n      0xb93a86ce\n      eq\n      tag_20\n      jumpi\n      dup1\n      0xc08d1fe5\n      eq\n      tag_21\n      jumpi\n      dup1\n      0xc19d93fb\n      eq\n      tag_22\n      jumpi\n      jump(tag_1)\n    tag_33:\n      dup1\n      0x899a69a7\n      eq\n      tag_16\n      jumpi\n      dup1\n      0x9ae67252\n      eq\n      tag_17\n      jumpi\n      dup1\n      0x9ae8886a\n      eq\n      tag_18\n      jumpi\n      jump(tag_1)\n    tag_30:\n      dup1\n      0x5da47f32\n      gt\n      tag_34\n      jumpi\n      dup1\n      0x7150d8ae\n      gt\n      tag_35\n      jumpi\n      dup1\n      0x7150d8ae\n      eq\n      tag_12\n      jumpi\n      dup1\n      0x78192063\n      eq\n      tag_13\n      jumpi\n      dup1\n      0x7a1a456a\n      eq\n      tag_14\n      jumpi\n      dup1\n      0x80aa2dae\n      eq\n      tag_15\n      jumpi\n      jump(tag_1)\n    tag_35:\n      dup1\n      0x5da47f32\n      eq\n      tag_9\n      jumpi\n      dup1\n      0x6cc6cde1\n      eq\n      tag_10\n      jumpi\n      dup1\n      0x706a0160\n      eq\n      tag_11\n      jumpi\n      jump(tag_1)\n    tag_34:\n      dup1\n      0x2f81b0a0\n      gt\n      tag_36\n      jumpi\n      dup1\n      0x2f81b0a0\n      eq\n      tag_5\n      jumpi\n      dup1\n      0x3502e066\n      eq\n      tag_6\n      jumpi\n      dup1\n      0x4bbf6642\n      eq\n      tag_7\n      jumpi\n      dup1\n      0x50339559\n      eq\n      tag_8\n      jumpi\n      jump(tag_1)\n    tag_36:\n      dup1\n      0x07c5fbe5\n      eq\n      tag_2\n      jumpi\n      dup1\n      0x07e4312e\n      eq\n      tag_3\n      jumpi\n      dup1\n      0x08551a53\n      eq\n      tag_4\n      jumpi\n    tag_1:\n      0x00\n      dup1\n      revert\n        /* \"trading4test.sol\":3285:4125  function RaiseOnChainArbitration(bytes32 index, bytes32 _committedSubKey, bytes32[] memory _merkleTreePath) public  returns (string memory)   {... */\n    tag_2:\n      callvalue\n      dup1\n      iszero\n      tag_37\n      jumpi\n      0x00\n      dup1\n      revert\n    tag_37:\n      pop\n      tag_38\n      0x04\n      dup1\n      calldatasize\n      sub\n      dup2\n      add\n      swap1\n      tag_39\n      swap2\n      swap1\n      tag_40\n      jump\t// in\n    tag_39:\n      tag_41\n      jump\t// in\n    tag_38:\n      mload(0x40)\n      tag_42\n      swap2\n      swap1\n      tag_43\n      jump\t// in\n    tag_42:\n      mload(0x40)\n      dup1\n      swap2\n      sub\n      swap1\n      return\n        /* \"trading4test.sol\":1974:2325  function response (bytes32 _delta_2, uint256 _depth_2) payable public {... */\n    tag_3:\n      tag_44\n      0x04\n      dup1\n      calldatasize\n      sub\n      dup2\n      add\n      swap1\n      tag_45\n      swap2\n      swap1\n      tag_46\n      jump\t// in\n    tag_45:\n      tag_47\n      jump\t// in\n    tag_44:\n      stop\n        /* \"trading4test.sol\":131:152  address public seller */\n    tag_4:\n      callvalue\n      dup1\n      iszero\n      tag_48\n      jumpi\n      0x00\n      dup1\n      revert\n    tag_48:\n      pop\n      tag_49\n      tag_50\n      jump\t// in\n    tag_49:\n      mload(0x40)\n      tag_51\n      swap2\n      swap1\n      tag_52\n      jump\t// in\n    tag_51:\n      mload(0x40)\n      dup1\n      swap2\n      sub\n      swap1\n      return\n        /* \"trading4test.sol\":305:322  bytes32 public mk */\n    tag_5:\n      callvalue\n      dup1\n      iszero\n      tag_53\n      jumpi\n      0x00\n      dup1\n      revert\n    tag_53:\n      pop\n      tag_54\n      tag_55\n      jump\t// in\n    tag_54:\n      mload(0x40)\n      tag_56\n      swap2\n      swap1\n      tag_57\n      jump\t// in\n    tag_56:\n      mload(0x40)\n      dup1\n      swap2\n      sub\n      swap1\n      return\n        /* \"trading4test.sol\":2356:2707  function buyerRefund() public {... */\n    tag_6:\n      callvalue\n      dup1\n      iszero\n      tag_58\n      jumpi\n      0x00\n      dup1\n      revert\n    tag_58:\n      pop\n      tag_59\n      tag_60\n      jump\t// in\n    tag_59:\n      stop\n        /* \"trading4test.sol\":247:269  bytes32 public delta_2 */\n    tag_7:\n      callvalue\n      dup1\n      iszero\n      tag_61\n      jumpi\n      0x00\n      dup1\n      revert\n    tag_61:\n      pop\n      tag_62\n      tag_63\n      jump\t// in\n    tag_62:\n      mload(0x40)\n      tag_64\n      swap2\n      swap1\n      tag_57\n      jump\t// in\n    tag_64:\n      mload(0x40)\n      dup1\n      swap2\n      sub\n      swap1\n      return\n        /* \"trading4test.sol\":1336:1583  function commitData (uint256 id, bytes32 _delta_1) public onlySeller {... */\n    tag_8:\n      callvalue\n      dup1\n      iszero\n      tag_65\n      jumpi\n      0x00\n      dup1\n      revert\n    tag_65:\n      pop\n      tag_66\n      0x04\n      dup1\n      calldatasize\n      sub\n      dup2\n      add\n      swap1\n      tag_67\n      swap2\n      swap1\n      tag_68\n      jump\t// in\n    tag_67:\n      tag_69\n      jump\t// in\n    tag_66:\n      stop\n        /* \"trading4test.sol\":4133:4391  function initiationArbitration(string memory complaintInfo) public {... */\n    tag_9:\n      callvalue\n      dup1\n      iszero\n      tag_70\n      jumpi\n      0x00\n      dup1\n      revert\n    tag_70:\n      pop\n      tag_71\n      0x04\n      dup1\n      calldatasize\n      sub\n      dup2\n      add\n      swap1\n      tag_72\n      swap2\n      swap1\n      tag_73\n      jump\t// in\n    tag_72:\n      tag_74\n      jump\t// in\n    tag_71:\n      stop\n        /* \"trading4test.sol\":159:184  address public arbitrator */\n    tag_10:\n      callvalue\n      dup1\n      iszero\n      tag_75\n      jumpi\n      0x00\n      dup1\n      revert\n    tag_75:\n      pop\n      tag_76\n      tag_77\n      jump\t// in\n    tag_76:\n      mload(0x40)\n      tag_78\n      swap2\n      swap1\n      tag_52\n      jump\t// in\n    tag_78:\n      mload(0x40)\n      dup1\n      swap2\n      sub\n      swap1\n      return\n        /* \"trading4test.sol\":3013:3251  function releaseMasterkey(bytes32 _mk) public onlySeller {... */\n    tag_11:\n      callvalue\n      dup1\n      iszero\n      tag_79\n      jumpi\n      0x00\n      dup1\n      revert\n    tag_79:\n      pop\n      tag_80\n      0x04\n      dup1\n      calldatasize\n      sub\n      dup2\n      add\n      swap1\n      tag_81\n      swap2\n      swap1\n      tag_82\n      jump\t// in\n    tag_81:\n      tag_83\n      jump\t// in\n    tag_80:\n      stop\n        /* \"trading4test.sol\":191:211  address public buyer */\n    tag_12:\n      callvalue\n      dup1\n      iszero\n      tag_84\n      jumpi\n      0x00\n      dup1\n      revert\n    tag_84:\n      pop\n      tag_85\n      tag_86\n      jump\t// in\n    tag_85:\n      mload(0x40)\n      tag_87\n      swap2\n      swap1\n      tag_52\n      jump\t// in\n    tag_87:\n      mload(0x40)\n      dup1\n      swap2\n      sub\n      swap1\n      return\n        /* \"trading4test.sol\":4835:5202  function hmac(bytes32 key, bytes32 message) public pure returns (bytes32) {... */\n    tag_13:\n      callvalue\n      dup1\n      iszero\n      tag_88\n      jumpi\n      0x00\n      dup1\n      revert\n    tag_88:\n      pop\n      tag_89\n      0x04\n      dup1\n      calldatasize\n      sub\n      dup2\n      add\n      swap1\n      tag_90\n      swap2\n      swap1\n      tag_91\n      jump\t// in\n    tag_90:\n      tag_92\n      jump\t// in\n    tag_89:\n      mload(0x40)\n      tag_93\n      swap2\n      swap1\n      tag_57\n      jump\t// in\n    tag_93:\n      mload(0x40)\n      dup1\n      swap2\n      sub\n      swap1\n      return\n        /* \"trading4test.sol\":7446:7562  function test256(bytes32 key)public pure returns (bytes32) {... */\n    tag_14:\n      callvalue\n      dup1\n      iszero\n      tag_94\n      jumpi\n      0x00\n      dup1\n      revert\n    tag_94:\n      pop\n      tag_95\n      0x04\n      dup1\n      calldatasize\n      sub\n      dup2\n      add\n      swap1\n      tag_96\n      swap2\n      swap1\n      tag_82\n      jump\t// in\n    tag_96:\n      tag_97\n      jump\t// in\n    tag_95:\n      mload(0x40)\n      tag_98\n      swap2\n      swap1\n      tag_57\n      jump\t// in\n    tag_98:\n      mload(0x40)\n      dup1\n      swap2\n      sub\n      swap1\n      return\n        /* \"trading4test.sol\":276:298  uint256 public depth_2 */\n    tag_15:\n      callvalue\n      dup1\n      iszero\n      tag_99\n      jumpi\n      0x00\n      dup1\n      revert\n    tag_99:\n      pop\n      tag_100\n      tag_101\n      jump\t// in\n    tag_100:\n      mload(0x40)\n      tag_102\n      swap2\n      swap1\n      tag_103\n      jump\t// in\n    tag_102:\n      mload(0x40)\n      dup1\n      swap2\n      sub\n      swap1\n      return\n        /* \"trading4test.sol\":5208:6308  function RaiseOnChainArbitrationForTest(bytes32 _mk, bytes32 _index, bytes32 _committedSubKey, bytes32 _delta_2,uint _length,bytes32[] memory _merkleTreePath) public  returns (string memory)   {... */\n    tag_16:\n      callvalue\n      dup1\n      iszero\n      tag_104\n      jumpi\n      0x00\n      dup1\n      revert\n    tag_104:\n      pop\n      tag_105\n      0x04\n      dup1\n      calldatasize\n      sub\n      dup2\n      add\n      swap1\n      tag_106\n      swap2\n      swap1\n      tag_107\n      jump\t// in\n    tag_106:\n      tag_108\n      jump\t// in\n    tag_105:\n      mload(0x40)\n      tag_109\n      swap2\n      swap1\n      tag_43\n      jump\t// in\n    tag_109:\n      mload(0x40)\n      dup1\n      swap2\n      sub\n      swap1\n      return\n        /* \"trading4test.sol\":400:428  uint256 public opreationtime */\n    tag_17:\n      callvalue\n      dup1\n      iszero\n      tag_110\n      jumpi\n      0x00\n      dup1\n      revert\n    tag_110:\n      pop\n      tag_111\n      tag_112\n      jump\t// in\n    tag_111:\n      mload(0x40)\n      tag_113\n      swap2\n      swap1\n      tag_103\n      jump\t// in\n    tag_113:\n      mload(0x40)\n      dup1\n      swap2\n      sub\n      swap1\n      return\n        /* \"trading4test.sol\":329:345  uint256 public p */\n    tag_18:\n      callvalue\n      dup1\n      iszero\n      tag_114\n      jumpi\n      0x00\n      dup1\n      revert\n    tag_114:\n      pop\n      tag_115\n      tag_116\n      jump\t// in\n    tag_115:\n      mload(0x40)\n      tag_117\n      swap2\n      swap1\n      tag_103\n      jump\t// in\n    tag_117:\n      mload(0x40)\n      dup1\n      swap2\n      sub\n      swap1\n      return\n        /* \"trading4test.sol\":218:240  bytes32 public delta_1 */\n    tag_19:\n      callvalue\n      dup1\n      iszero\n      tag_118\n      jumpi\n      0x00\n      dup1\n      revert\n    tag_118:\n      pop\n      tag_119\n      tag_120\n      jump\t// in\n    tag_119:\n      mload(0x40)\n      tag_121\n      swap2\n      swap1\n      tag_57\n      jump\t// in\n    tag_121:\n      mload(0x40)\n      dup1\n      swap2\n      sub\n      swap1\n      return\n        /* \"trading4test.sol\":1591:1964  function challenge (bytes32 _kc, uint256 _p, uint256 _p1) payable public onlyBuyer{... */\n    tag_20:\n      tag_122\n      0x04\n      dup1\n      calldatasize\n      sub\n      dup2\n      add\n      swap1\n      tag_123\n      swap2\n      swap1\n      tag_124\n      jump\t// in\n    tag_123:\n      tag_125\n      jump\t// in\n    tag_122:\n      stop\n        /* \"trading4test.sol\":435:463  uint  public timeLimit = 600 */\n    tag_21:\n      callvalue\n      dup1\n      iszero\n      tag_126\n      jumpi\n      0x00\n      dup1\n      revert\n    tag_126:\n      pop\n      tag_127\n      tag_128\n      jump\t// in\n    tag_127:\n      mload(0x40)\n      tag_129\n      swap2\n      swap1\n      tag_103\n      jump\t// in\n    tag_129:\n      mload(0x40)\n      dup1\n      swap2\n      sub\n      swap1\n      return\n        /* \"trading4test.sol\":471:489  State public state */\n    tag_22:\n      callvalue\n      dup1\n      iszero\n      tag_130\n      jumpi\n      0x00\n      dup1\n      revert\n    tag_130:\n      pop\n      tag_131\n      tag_132\n      jump\t// in\n    tag_131:\n      mload(0x40)\n      tag_133\n      swap2\n      swap1\n      tag_134\n      jump\t// in\n    tag_133:\n      mload(0x40)\n      dup1\n      swap2\n      sub\n      swap1\n      return\n        /* \"trading4test.sol\":352:369  uint256 public p1 */\n    tag_23:\n      callvalue\n      dup1\n      iszero\n      tag_135\n      jumpi\n      0x00\n      dup1\n      revert\n    tag_135:\n      pop\n      tag_136\n      tag_137\n      jump\t// in\n    tag_136:\n      mload(0x40)\n      tag_138\n      swap2\n      swap1\n      tag_103\n      jump\t// in\n    tag_138:\n      mload(0x40)\n      dup1\n      swap2\n      sub\n      swap1\n      return\n        /* \"trading4test.sol\":99:124  uint256 public dataId = 0 */\n    tag_24:\n      callvalue\n      dup1\n      iszero\n      tag_139\n      jumpi\n      0x00\n      dup1\n      revert\n    tag_139:\n      pop\n      tag_140\n      tag_141\n      jump\t// in\n    tag_140:\n      mload(0x40)\n      tag_142\n      swap2\n      swap1\n      tag_103\n      jump\t// in\n    tag_142:\n      mload(0x40)\n      dup1\n      swap2\n      sub\n      swap1\n      return\n        /* \"trading4test.sol\":376:393  bytes32 public kc */\n    tag_25:\n      callvalue\n      dup1\n      iszero\n      tag_143\n      jumpi\n      0x00\n      dup1\n      revert\n    tag_143:\n      pop\n      tag_144\n      tag_145\n      jump\t// in\n    tag_144:\n      mload(0x40)\n      tag_146\n      swap2\n      swap1\n      tag_57\n      jump\t// in\n    tag_146:\n      mload(0x40)\n      dup1\n      swap2\n      sub\n      swap1\n      return\n        /* \"trading4test.sol\":7568:7711  function sha2562(bytes32 key, bytes32 message) public pure returns (bytes32) {... */\n    tag_26:\n      callvalue\n      dup1\n      iszero\n      tag_147\n      jumpi\n      0x00\n      dup1\n      revert\n    tag_147:\n      pop\n      tag_148\n      0x04\n      dup1\n      calldatasize\n      sub\n      dup2\n      add\n      swap1\n      tag_149\n      swap2\n      swap1\n      tag_91\n      jump\t// in\n    tag_149:\n      tag_150\n      jump\t// in\n    tag_148:\n      mload(0x40)\n      tag_151\n      swap2\n      swap1\n      tag_57\n      jump\t// in\n    tag_151:\n      mload(0x40)\n      dup1\n      swap2\n      sub\n      swap1\n      return\n        /* \"trading4test.sol\":4399:4825  function verdict(address userAddr,address winner) public onlyArbitrator{... */\n    tag_27:\n      callvalue\n      dup1\n      iszero\n      tag_152\n      jumpi\n      0x00\n      dup1\n      revert\n    tag_152:\n      pop\n      tag_153\n      0x04\n      dup1\n      calldatasize\n      sub\n      dup2\n      add\n      swap1\n      tag_154\n      swap2\n      swap1\n      tag_155\n      jump\t// in\n    tag_154:\n      tag_156\n      jump\t// in\n    tag_153:\n      stop\n        /* \"trading4test.sol\":2723:3001  function payleft() public payable onlyBuyer{... */\n    tag_28:\n      tag_157\n      tag_158\n      jump\t// in\n    tag_157:\n      stop\n        /* \"trading4test.sol\":6315:7434  function RaiseOnChainArbitrationForTestwithkeccak256(bytes32 _mk, bytes32 _index, bytes32 _committedSubKey, bytes32 _delta_2,uint _length,bytes32[] memory _merkleTreePath) public  returns (string memory)   {... */\n    tag_29:\n      callvalue\n      dup1\n      iszero\n      tag_159\n      jumpi\n      0x00\n      dup1\n      revert\n    tag_159:\n      pop\n      tag_160\n      0x04\n      dup1\n      calldatasize\n      sub\n      dup2\n      add\n      swap1\n      tag_161\n      swap2\n      swap1\n      tag_107\n      jump\t// in\n    tag_161:\n      tag_162\n      jump\t// in\n    tag_160:\n      mload(0x40)\n      tag_163\n      swap2\n      swap1\n      tag_43\n      jump\t// in\n    tag_163:\n      mload(0x40)\n      dup1\n      swap2\n      sub\n      swap1\n      return\n        /* \"trading4test.sol\":3285:4125  function RaiseOnChainArbitration(bytes32 index, bytes32 _committedSubKey, bytes32[] memory _merkleTreePath) public  returns (string memory)   {... */\n    tag_41:\n        /* \"trading4test.sol\":3410:3423  string memory */\n      0x60\n        /* \"trading4test.sol\":3438:3460  bytes32 computedSubkey */\n      0x00\n        /* \"trading4test.sol\":3463:3478  hmac(mk, index) */\n      tag_165\n        /* \"trading4test.sol\":3468:3470  mk */\n      sload(0x07)\n        /* \"trading4test.sol\":3472:3477  index */\n      dup7\n        /* \"trading4test.sol\":3463:3467  hmac */\n      tag_92\n        /* \"trading4test.sol\":3463:3478  hmac(mk, index) */\n      jump\t// in\n    tag_165:\n        /* \"trading4test.sol\":3438:3478  bytes32 computedSubkey = hmac(mk, index) */\n      swap1\n      pop\n        /* \"trading4test.sol\":3489:3510  bytes32 committedNode */\n      0x00\n        /* \"trading4test.sol\":3543:3559  _committedSubKey */\n      dup5\n        /* \"trading4test.sol\":3525:3539  computedSubkey */\n      dup3\n        /* \"trading4test.sol\":3525:3559  computedSubkey != _committedSubKey */\n      eq\n        /* \"trading4test.sol\":3521:4098  if (computedSubkey != _committedSubKey){... */\n      tag_166\n      jumpi\n        /* \"trading4test.sol\":3591:3627  sha256(abi.encode(_committedSubKey)) */\n      0x02\n        /* \"trading4test.sol\":3609:3625  _committedSubKey */\n      dup6\n        /* \"trading4test.sol\":3598:3626  abi.encode(_committedSubKey) */\n      add(0x20, mload(0x40))\n      tag_167\n      swap2\n      swap1\n      tag_57\n      jump\t// in\n    tag_167:\n      mload(0x40)\n      0x20\n      dup2\n      dup4\n      sub\n      sub\n      dup2\n      mstore\n      swap1\n      0x40\n      mstore\n        /* \"trading4test.sol\":3591:3627  sha256(abi.encode(_committedSubKey)) */\n      mload(0x40)\n      tag_168\n      swap2\n      swap1\n      tag_169\n      jump\t// in\n    tag_168:\n      0x20\n      mload(0x40)\n      dup1\n      dup4\n      sub\n      dup2\n      dup6\n      gas\n      staticcall\n      iszero\n      dup1\n      iszero\n      tag_171\n      jumpi\n      returndatasize\n      0x00\n      dup1\n      returndatacopy\n      revert(0x00, returndatasize)\n    tag_171:\n      pop\n      pop\n      pop\n      mload(0x40)\n      returndatasize\n      not(0x1f)\n      0x1f\n      dup3\n      add\n      and\n      dup3\n      add\n      dup1\n      0x40\n      mstore\n      pop\n      dup2\n      add\n      swap1\n      tag_172\n      swap2\n      swap1\n      tag_173\n      jump\t// in\n    tag_172:\n        /* \"trading4test.sol\":3575:3627  committedNode = sha256(abi.encode(_committedSubKey)) */\n      swap1\n      pop\n        /* \"trading4test.sol\":3647:3653  uint i */\n      0x00\n        /* \"trading4test.sol\":3642:3763  for (uint i = 0; i < depth_2; i++)... */\n    tag_174:\n        /* \"trading4test.sol\":3663:3670  depth_2 */\n      sload(0x06)\n        /* \"trading4test.sol\":3659:3660  i */\n      dup2\n        /* \"trading4test.sol\":3659:3670  i < depth_2 */\n      lt\n        /* \"trading4test.sol\":3642:3763  for (uint i = 0; i < depth_2; i++)... */\n      iszero\n      tag_175\n      jumpi\n        /* \"trading4test.sol\":3710:3763  sha256(abi.encode(committedNode, _merkleTreePath[i])) */\n      0x02\n        /* \"trading4test.sol\":3728:3741  committedNode */\n      dup3\n        /* \"trading4test.sol\":3743:3758  _merkleTreePath */\n      dup7\n        /* \"trading4test.sol\":3759:3760  i */\n      dup4\n        /* \"trading4test.sol\":3743:3761  _merkleTreePath[i] */\n      dup2\n      mload\n      dup2\n      lt\n      tag_177\n      jumpi\n      tag_178\n      tag_179\n      jump\t// in\n    tag_178:\n    tag_177:\n      0x20\n      mul\n      0x20\n      add\n      add\n      mload\n        /* \"trading4test.sol\":3717:3762  abi.encode(committedNode, _merkleTreePath[i]) */\n      add(0x20, mload(0x40))\n      tag_180\n      swap3\n      swap2\n      swap1\n      tag_181\n      jump\t// in\n    tag_180:\n      mload(0x40)\n      0x20\n      dup2\n      dup4\n      sub\n      sub\n      dup2\n      mstore\n      swap1\n      0x40\n      mstore\n        /* \"trading4test.sol\":3710:3763  sha256(abi.encode(committedNode, _merkleTreePath[i])) */\n      mload(0x40)\n      tag_182\n      swap2\n      swap1\n      tag_169\n      jump\t// in\n    tag_182:\n      0x20\n      mload(0x40)\n      dup1\n      dup4\n      sub\n      dup2\n      dup6\n      gas\n      staticcall\n      iszero\n      dup1\n      iszero\n      tag_184\n      jumpi\n      returndatasize\n      0x00\n      dup1\n      returndatacopy\n      revert(0x00, returndatasize)\n    tag_184:\n      pop\n      pop\n      pop\n      mload(0x40)\n      returndatasize\n      not(0x1f)\n      0x1f\n      dup3\n      add\n      and\n      dup3\n      add\n      dup1\n      0x40\n      mstore\n      pop\n      dup2\n      add\n      swap1\n      tag_185\n      swap2\n      swap1\n      tag_173\n      jump\t// in\n    tag_185:\n        /* \"trading4test.sol\":3694:3763  committedNode = sha256(abi.encode(committedNode, _merkleTreePath[i])) */\n      swap2\n      pop\n        /* \"trading4test.sol\":3672:3675  i++ */\n      dup1\n      dup1\n      tag_186\n      swap1\n      tag_187\n      jump\t// in\n    tag_186:\n      swap2\n      pop\n      pop\n        /* \"trading4test.sol\":3642:3763  for (uint i = 0; i < depth_2; i++)... */\n      jump(tag_174)\n    tag_175:\n      pop\n        /* \"trading4test.sol\":3799:3806  delta_2 */\n      sload(0x05)\n        /* \"trading4test.sol\":3782:3795  committedNode */\n      dup2\n        /* \"trading4test.sol\":3782:3806  committedNode == delta_2 */\n      sub\n        /* \"trading4test.sol\":3778:4088  if (committedNode == delta_2)... */\n      tag_188\n      jumpi\n        /* \"trading4test.sol\":3848:3858  msg.sender */\n      caller\n        /* \"trading4test.sol\":3840:3868  payable(msg.sender).transfer */\n      0xffffffffffffffffffffffffffffffffffffffff\n      and\n        /* \"trading4test.sol\":3840:3872  payable(msg.sender).transfer(10) */\n      0x08fc\n        /* \"trading4test.sol\":3869:3871  10 */\n      0x0a\n        /* \"trading4test.sol\":3840:3872  payable(msg.sender).transfer(10) */\n      swap1\n      dup2\n      iszero\n      mul\n      swap1\n      mload(0x40)\n      0x00\n      mload(0x40)\n      dup1\n      dup4\n      sub\n      dup2\n      dup6\n      dup9\n      dup9\n      call\n      swap4\n      pop\n      pop\n      pop\n      pop\n      iszero\n      dup1\n      iszero\n      tag_190\n      jumpi\n      returndatasize\n      0x00\n      dup1\n      returndatacopy\n      revert(0x00, returndatasize)\n    tag_190:\n      pop\n        /* \"trading4test.sol\":3899:3909  State.done */\n      0x09\n        /* \"trading4test.sol\":3891:3896  state */\n      0x0d\n      0x00\n        /* \"trading4test.sol\":3891:3909  state = State.done */\n      0x0100\n      exp\n      dup2\n      sload\n      dup2\n      0xff\n      mul\n      not\n      and\n      swap1\n      dup4\n      0x09\n      dup2\n      gt\n      iszero\n      tag_191\n      jumpi\n      tag_192\n      tag_193\n      jump\t// in\n    tag_192:\n    tag_191:\n      mul\n      or\n      swap1\n      sstore\n      pop\n        /* \"trading4test.sol\":3928:3938  return \"1\" */\n      mload(0x40)\n      dup1\n      0x40\n      add\n      0x40\n      mstore\n      dup1\n      0x01\n      dup2\n      mstore\n      0x20\n      add\n      0x3100000000000000000000000000000000000000000000000000000000000000\n      dup2\n      mstore\n      pop\n      swap3\n      pop\n      pop\n      pop\n      jump(tag_164)\n        /* \"trading4test.sol\":3778:4088  if (committedNode == delta_2)... */\n    tag_188:\n        /* \"trading4test.sol\":3986:3992  seller */\n      0x01\n      0x00\n      swap1\n      sload\n      swap1\n      0x0100\n      exp\n      swap1\n      div\n      0xffffffffffffffffffffffffffffffffffffffff\n      and\n        /* \"trading4test.sol\":3978:4002  payable(seller).transfer */\n      0xffffffffffffffffffffffffffffffffffffffff\n      and\n        /* \"trading4test.sol\":3978:4006  payable(seller).transfer(10) */\n      0x08fc\n        /* \"trading4test.sol\":4003:4005  10 */\n      0x0a\n        /* \"trading4test.sol\":3978:4006  payable(seller).transfer(10) */\n      swap1\n      dup2\n      iszero\n      mul\n      swap1\n      mload(0x40)\n      0x00\n      mload(0x40)\n      dup1\n      dup4\n      sub\n      dup2\n      dup6\n      dup9\n      dup9\n      call\n      swap4\n      pop\n      pop\n      pop\n      pop\n      iszero\n      dup1\n      iszero\n      tag_196\n      jumpi\n      returndatasize\n      0x00\n      dup1\n      returndatacopy\n      revert(0x00, returndatasize)\n    tag_196:\n      pop\n        /* \"trading4test.sol\":4033:4043  State.done */\n      0x09\n        /* \"trading4test.sol\":4025:4030  state */\n      0x0d\n      0x00\n        /* \"trading4test.sol\":4025:4043  state = State.done */\n      0x0100\n      exp\n      dup2\n      sload\n      dup2\n      0xff\n      mul\n      not\n      and\n      swap1\n      dup4\n      0x09\n      dup2\n      gt\n      iszero\n      tag_197\n      jumpi\n      tag_198\n      tag_193\n      jump\t// in\n    tag_198:\n    tag_197:\n      mul\n      or\n      swap1\n      sstore\n      pop\n        /* \"trading4test.sol\":4062:4072  return \"2\" */\n      mload(0x40)\n      dup1\n      0x40\n      add\n      0x40\n      mstore\n      dup1\n      0x01\n      dup2\n      mstore\n      0x20\n      add\n      0x3200000000000000000000000000000000000000000000000000000000000000\n      dup2\n      mstore\n      pop\n      swap3\n      pop\n      pop\n      pop\n      jump(tag_164)\n        /* \"trading4test.sol\":3521:4098  if (computedSubkey != _committedSubKey){... */\n    tag_166:\n        /* \"trading4test.sol\":4107:4117  return \"3\" */\n      mload(0x40)\n      dup1\n      0x40\n      add\n      0x40\n      mstore\n      dup1\n      0x01\n      dup2\n      mstore\n      0x20\n      add\n      0x3300000000000000000000000000000000000000000000000000000000000000\n      dup2\n      mstore\n      pop\n      swap3\n      pop\n      pop\n      pop\n        /* \"trading4test.sol\":3285:4125  function RaiseOnChainArbitration(bytes32 index, bytes32 _committedSubKey, bytes32[] memory _merkleTreePath) public  returns (string memory)   {... */\n    tag_164:\n      swap4\n      swap3\n      pop\n      pop\n      pop\n      jump\t// out\n        /* \"trading4test.sol\":1974:2325  function response (bytes32 _delta_2, uint256 _depth_2) payable public {... */\n    tag_47:\n        /* \"trading4test.sol\":2072:2087  State.challenge */\n      0x02\n        /* \"trading4test.sol\":2063:2087  state == State.challenge */\n      0x09\n      dup2\n      gt\n      iszero\n      tag_200\n      jumpi\n      tag_201\n      tag_193\n      jump\t// in\n    tag_201:\n    tag_200:\n        /* \"trading4test.sol\":2063:2068  state */\n      0x0d\n      0x00\n      swap1\n      sload\n      swap1\n      0x0100\n      exp\n      swap1\n      div\n      0xff\n      and\n        /* \"trading4test.sol\":2063:2087  state == State.challenge */\n      0x09\n      dup2\n      gt\n      iszero\n      tag_202\n      jumpi\n      tag_203\n      tag_193\n      jump\t// in\n    tag_203:\n    tag_202:\n      eq\n        /* \"trading4test.sol\":2055:2088  require(state == State.challenge) */\n      tag_204\n      jumpi\n      0x00\n      dup1\n      revert\n    tag_204:\n        /* \"trading4test.sol\":2135:2150  block.timestamp */\n      timestamp\n        /* \"trading4test.sol\":2123:2132  timeLimit */\n      sload(0x0c)\n        /* \"trading4test.sol\":2107:2120  opreationtime */\n      sload(0x0b)\n        /* \"trading4test.sol\":2107:2132  opreationtime + timeLimit */\n      tag_205\n      swap2\n      swap1\n      tag_206\n      jump\t// in\n    tag_205:\n        /* \"trading4test.sol\":2107:2150  opreationtime + timeLimit > block.timestamp */\n      gt\n        /* \"trading4test.sol\":2099:2177  require(opreationtime + timeLimit > block.timestamp, \"Responde time is over \") */\n      tag_207\n      jumpi\n      mload(0x40)\n      0x08c379a000000000000000000000000000000000000000000000000000000000\n      dup2\n      mstore\n      0x04\n      add\n      tag_208\n      swap1\n      tag_209\n      jump\t// in\n    tag_208:\n      mload(0x40)\n      dup1\n      swap2\n      sub\n      swap1\n      revert\n    tag_207:\n        /* \"trading4test.sol\":2198:2206  _delta_2 */\n      dup2\n        /* \"trading4test.sol\":2188:2195  delta_2 */\n      0x05\n        /* \"trading4test.sol\":2188:2206  delta_2 = _delta_2 */\n      dup2\n      swap1\n      sstore\n      pop\n        /* \"trading4test.sol\":2227:2235  _depth_2 */\n      dup1\n        /* \"trading4test.sol\":2217:2224  depth_2 */\n      0x06\n        /* \"trading4test.sol\":2217:2235  depth_2 = _depth_2 */\n      dup2\n      swap1\n      sstore\n      pop\n        /* \"trading4test.sol\":2254:2268  State.response */\n      0x03\n        /* \"trading4test.sol\":2246:2251  state */\n      0x0d\n      0x00\n        /* \"trading4test.sol\":2246:2268  state = State.response */\n      0x0100\n      exp\n      dup2\n      sload\n      dup2\n      0xff\n      mul\n      not\n      and\n      swap1\n      dup4\n      0x09\n      dup2\n      gt\n      iszero\n      tag_210\n      jumpi\n      tag_211\n      tag_193\n      jump\t// in\n    tag_211:\n    tag_210:\n      mul\n      or\n      swap1\n      sstore\n      pop\n        /* \"trading4test.sol\":2284:2317  respondeEvent(_delta_2, _depth_2) */\n      0x8367cc6ba01f36350b0d5f1caaa3afa155152dac000940ae82cd327bfa0bc827\n        /* \"trading4test.sol\":2298:2306  _delta_2 */\n      dup3\n        /* \"trading4test.sol\":2308:2316  _depth_2 */\n      dup3\n        /* \"trading4test.sol\":2284:2317  respondeEvent(_delta_2, _depth_2) */\n      mload(0x40)\n      tag_212\n      swap3\n      swap2\n      swap1\n      tag_213\n      jump\t// in\n    tag_212:\n      mload(0x40)\n      dup1\n      swap2\n      sub\n      swap1\n      log1\n        /* \"trading4test.sol\":1974:2325  function response (bytes32 _delta_2, uint256 _depth_2) payable public {... */\n      pop\n      pop\n      jump\t// out\n        /* \"trading4test.sol\":131:152  address public seller */\n    tag_50:\n      0x01\n      0x00\n      swap1\n      sload\n      swap1\n      0x0100\n      exp\n      swap1\n      div\n      0xffffffffffffffffffffffffffffffffffffffff\n      and\n      dup2\n      jump\t// out\n        /* \"trading4test.sol\":305:322  bytes32 public mk */\n    tag_55:\n      sload(0x07)\n      dup2\n      jump\t// out\n        /* \"trading4test.sol\":2356:2707  function buyerRefund() public {... */\n    tag_60:\n        /* \"trading4test.sol\":2444:2459  State.challenge */\n      0x02\n        /* \"trading4test.sol\":2435:2459  state == State.challenge */\n      0x09\n      dup2\n      gt\n      iszero\n      tag_215\n      jumpi\n      tag_216\n      tag_193\n      jump\t// in\n    tag_216:\n    tag_215:\n        /* \"trading4test.sol\":2435:2440  state */\n      0x0d\n      0x00\n      swap1\n      sload\n      swap1\n      0x0100\n      exp\n      swap1\n      div\n      0xff\n      and\n        /* \"trading4test.sol\":2435:2459  state == State.challenge */\n      0x09\n      dup2\n      gt\n      iszero\n      tag_217\n      jumpi\n      tag_218\n      tag_193\n      jump\t// in\n    tag_218:\n    tag_217:\n      eq\n        /* \"trading4test.sol\":2427:2460  require(state == State.challenge) */\n      tag_219\n      jumpi\n      0x00\n      dup1\n      revert\n    tag_219:\n        /* \"trading4test.sol\":2533:2548  block.timestamp */\n      timestamp\n        /* \"trading4test.sol\":2521:2530  timeLimit */\n      sload(0x0c)\n        /* \"trading4test.sol\":2505:2518  opreationtime */\n      sload(0x0b)\n        /* \"trading4test.sol\":2505:2530  opreationtime + timeLimit */\n      tag_220\n      swap2\n      swap1\n      tag_206\n      jump\t// in\n    tag_220:\n        /* \"trading4test.sol\":2505:2548  opreationtime + timeLimit > block.timestamp */\n      gt\n        /* \"trading4test.sol\":2497:2583  require(opreationtime + timeLimit > block.timestamp, \"Operation time is not over yet\") */\n      tag_221\n      jumpi\n      mload(0x40)\n      0x08c379a000000000000000000000000000000000000000000000000000000000\n      dup2\n      mstore\n      0x04\n      add\n      tag_222\n      swap1\n      tag_223\n      jump\t// in\n    tag_222:\n      mload(0x40)\n      dup1\n      swap2\n      sub\n      swap1\n      revert\n    tag_221:\n        /* \"trading4test.sol\":2602:2612  msg.sender */\n      caller\n        /* \"trading4test.sol\":2594:2622  payable(msg.sender).transfer */\n      0xffffffffffffffffffffffffffffffffffffffff\n      and\n        /* \"trading4test.sol\":2594:2626  payable(msg.sender).transfer(p1) */\n      0x08fc\n        /* \"trading4test.sol\":2623:2625  p1 */\n      sload(0x09)\n        /* \"trading4test.sol\":2594:2626  payable(msg.sender).transfer(p1) */\n      swap1\n      dup2\n      iszero\n      mul\n      swap1\n      mload(0x40)\n      0x00\n      mload(0x40)\n      dup1\n      dup4\n      sub\n      dup2\n      dup6\n      dup9\n      dup9\n      call\n      swap4\n      pop\n      pop\n      pop\n      pop\n      iszero\n      dup1\n      iszero\n      tag_225\n      jumpi\n      returndatasize\n      0x00\n      dup1\n      returndatacopy\n      revert(0x00, returndatasize)\n    tag_225:\n      pop\n        /* \"trading4test.sol\":2645:2655  State.done */\n      0x09\n        /* \"trading4test.sol\":2637:2642  state */\n      0x0d\n      0x00\n        /* \"trading4test.sol\":2637:2655  state = State.done */\n      0x0100\n      exp\n      dup2\n      sload\n      dup2\n      0xff\n      mul\n      not\n      and\n      swap1\n      dup4\n      0x09\n      dup2\n      gt\n      iszero\n      tag_226\n      jumpi\n      tag_227\n      tag_193\n      jump\t// in\n    tag_227:\n    tag_226:\n      mul\n      or\n      swap1\n      sstore\n      pop\n        /* \"trading4test.sol\":2671:2699  buyerRefundEvent(msg.sender) */\n      0xafc3b014386561494c2478b62a479f4a42dbcb4ef28845094d473410b972d6d5\n        /* \"trading4test.sol\":2688:2698  msg.sender */\n      caller\n        /* \"trading4test.sol\":2671:2699  buyerRefundEvent(msg.sender) */\n      mload(0x40)\n      tag_228\n      swap2\n      swap1\n      tag_52\n      jump\t// in\n    tag_228:\n      mload(0x40)\n      dup1\n      swap2\n      sub\n      swap1\n      log1\n        /* \"trading4test.sol\":2356:2707  function buyerRefund() public {... */\n      jump\t// out\n        /* \"trading4test.sol\":247:269  bytes32 public delta_2 */\n    tag_63:\n      sload(0x05)\n      dup2\n      jump\t// out\n        /* \"trading4test.sol\":1336:1583  function commitData (uint256 id, bytes32 _delta_1) public onlySeller {... */\n    tag_69:\n        /* \"trading4test.sol\":7770:7776  seller */\n      0x01\n      0x00\n      swap1\n      sload\n      swap1\n      0x0100\n      exp\n      swap1\n      div\n      0xffffffffffffffffffffffffffffffffffffffff\n      and\n        /* \"trading4test.sol\":7756:7776  msg.sender == seller */\n      0xffffffffffffffffffffffffffffffffffffffff\n      and\n        /* \"trading4test.sol\":7756:7766  msg.sender */\n      caller\n        /* \"trading4test.sol\":7756:7776  msg.sender == seller */\n      0xffffffffffffffffffffffffffffffffffffffff\n      and\n      eq\n        /* \"trading4test.sol\":7748:7777  require(msg.sender == seller) */\n      tag_230\n      jumpi\n      0x00\n      dup1\n      revert\n    tag_230:\n        /* \"trading4test.sol\":1433:1444  State.start */\n      0x00\n        /* \"trading4test.sol\":1424:1444  state == State.start */\n      0x09\n      dup2\n      gt\n      iszero\n      tag_232\n      jumpi\n      tag_233\n      tag_193\n      jump\t// in\n    tag_233:\n    tag_232:\n        /* \"trading4test.sol\":1424:1429  state */\n      0x0d\n      0x00\n      swap1\n      sload\n      swap1\n      0x0100\n      exp\n      swap1\n      div\n      0xff\n      and\n        /* \"trading4test.sol\":1424:1444  state == State.start */\n      0x09\n      dup2\n      gt\n      iszero\n      tag_234\n      jumpi\n      tag_235\n      tag_193\n      jump\t// in\n    tag_235:\n    tag_234:\n      eq\n        /* \"trading4test.sol\":1416:1445  require(state == State.start) */\n      tag_236\n      jumpi\n      0x00\n      dup1\n      revert\n    tag_236:\n        /* \"trading4test.sol\":1465:1467  id */\n      dup2\n        /* \"trading4test.sol\":1456:1462  dataId */\n      0x00\n        /* \"trading4test.sol\":1456:1467  dataId = id */\n      dup2\n      swap1\n      sstore\n      pop\n        /* \"trading4test.sol\":1488:1496  _delta_1 */\n      dup1\n        /* \"trading4test.sol\":1478:1485  delta_1 */\n      0x04\n        /* \"trading4test.sol\":1478:1496  delta_1 = _delta_1 */\n      dup2\n      swap1\n      sstore\n      pop\n        /* \"trading4test.sol\":1515:1531  State.commitData */\n      0x01\n        /* \"trading4test.sol\":1507:1512  state */\n      0x0d\n      0x00\n        /* \"trading4test.sol\":1507:1531  state = State.commitData */\n      0x0100\n      exp\n      dup2\n      sload\n      dup2\n      0xff\n      mul\n      not\n      and\n      swap1\n      dup4\n      0x09\n      dup2\n      gt\n      iszero\n      tag_237\n      jumpi\n      tag_238\n      tag_193\n      jump\t// in\n    tag_238:\n    tag_237:\n      mul\n      or\n      swap1\n      sstore\n      pop\n        /* \"trading4test.sol\":1547:1575  commitDataEvent(id, delta_1) */\n      0xcb894139878da1d74d95c1725159680c62225fbee97f6af6f79589b5b3115226\n        /* \"trading4test.sol\":1563:1565  id */\n      dup3\n        /* \"trading4test.sol\":1567:1574  delta_1 */\n      sload(0x04)\n        /* \"trading4test.sol\":1547:1575  commitDataEvent(id, delta_1) */\n      mload(0x40)\n      tag_239\n      swap3\n      swap2\n      swap1\n      tag_240\n      jump\t// in\n    tag_239:\n      mload(0x40)\n      dup1\n      swap2\n      sub\n      swap1\n      log1\n        /* \"trading4test.sol\":1336:1583  function commitData (uint256 id, bytes32 _delta_1) public onlySeller {... */\n      pop\n      pop\n      jump\t// out\n        /* \"trading4test.sol\":4133:4391  function initiationArbitration(string memory complaintInfo) public {... */\n    tag_74:\n        /* \"trading4test.sol\":4258:4280  State.ReleaseSampleKey */\n      0x05\n        /* \"trading4test.sol\":4249:4280  state == State.ReleaseSampleKey */\n      0x09\n      dup2\n      gt\n      iszero\n      tag_242\n      jumpi\n      tag_243\n      tag_193\n      jump\t// in\n    tag_243:\n    tag_242:\n        /* \"trading4test.sol\":4249:4254  state */\n      0x0d\n      0x00\n      swap1\n      sload\n      swap1\n      0x0100\n      exp\n      swap1\n      div\n      0xff\n      and\n        /* \"trading4test.sol\":4249:4280  state == State.ReleaseSampleKey */\n      0x09\n      dup2\n      gt\n      iszero\n      tag_244\n      jumpi\n      tag_245\n      tag_193\n      jump\t// in\n    tag_245:\n    tag_244:\n      eq\n        /* \"trading4test.sol\":4241:4281  require(state == State.ReleaseSampleKey) */\n      tag_246\n      jumpi\n      0x00\n      dup1\n      revert\n    tag_246:\n        /* \"trading4test.sol\":4300:4313  State.dispute */\n      0x08\n        /* \"trading4test.sol\":4292:4297  state */\n      0x0d\n      0x00\n        /* \"trading4test.sol\":4292:4313  state = State.dispute */\n      0x0100\n      exp\n      dup2\n      sload\n      dup2\n      0xff\n      mul\n      not\n      and\n      swap1\n      dup4\n      0x09\n      dup2\n      gt\n      iszero\n      tag_247\n      jumpi\n      tag_248\n      tag_193\n      jump\t// in\n    tag_248:\n    tag_247:\n      mul\n      or\n      swap1\n      sstore\n      pop\n        /* \"trading4test.sol\":4330:4383  initiationArbitrationEvent(msg.sender, complaintInfo) */\n      0xef067573a1e7aecca86bf54fefef758f77913ee8a001c881474c979dd7328bfe\n        /* \"trading4test.sol\":4357:4367  msg.sender */\n      caller\n        /* \"trading4test.sol\":4369:4382  complaintInfo */\n      dup3\n        /* \"trading4test.sol\":4330:4383  initiationArbitrationEvent(msg.sender, complaintInfo) */\n      mload(0x40)\n      tag_249\n      swap3\n      swap2\n      swap1\n      tag_250\n      jump\t// in\n    tag_249:\n      mload(0x40)\n      dup1\n      swap2\n      sub\n      swap1\n      log1\n        /* \"trading4test.sol\":4133:4391  function initiationArbitration(string memory complaintInfo) public {... */\n      pop\n      jump\t// out\n        /* \"trading4test.sol\":159:184  address public arbitrator */\n    tag_77:\n      0x02\n      0x00\n      swap1\n      sload\n      swap1\n      0x0100\n      exp\n      swap1\n      div\n      0xffffffffffffffffffffffffffffffffffffffff\n      and\n      dup2\n      jump\t// out\n        /* \"trading4test.sol\":3013:3251  function releaseMasterkey(bytes32 _mk) public onlySeller {... */\n    tag_83:\n        /* \"trading4test.sol\":7770:7776  seller */\n      0x01\n      0x00\n      swap1\n      sload\n      swap1\n      0x0100\n      exp\n      swap1\n      div\n      0xffffffffffffffffffffffffffffffffffffffff\n      and\n        /* \"trading4test.sol\":7756:7776  msg.sender == seller */\n      0xffffffffffffffffffffffffffffffffffffffff\n      and\n        /* \"trading4test.sol\":7756:7766  msg.sender */\n      caller\n        /* \"trading4test.sol\":7756:7776  msg.sender == seller */\n      0xffffffffffffffffffffffffffffffffffffffff\n      and\n      eq\n        /* \"trading4test.sol\":7748:7777  require(msg.sender == seller) */\n      tag_252\n      jumpi\n      0x00\n      dup1\n      revert\n    tag_252:\n        /* \"trading4test.sol\":3128:3141  State.payleft */\n      0x04\n        /* \"trading4test.sol\":3119:3141  state == State.payleft */\n      0x09\n      dup2\n      gt\n      iszero\n      tag_254\n      jumpi\n      tag_255\n      tag_193\n      jump\t// in\n    tag_255:\n    tag_254:\n        /* \"trading4test.sol\":3119:3124  state */\n      0x0d\n      0x00\n      swap1\n      sload\n      swap1\n      0x0100\n      exp\n      swap1\n      div\n      0xff\n      and\n        /* \"trading4test.sol\":3119:3141  state == State.payleft */\n      0x09\n      dup2\n      gt\n      iszero\n      tag_256\n      jumpi\n      tag_257\n      tag_193\n      jump\t// in\n    tag_257:\n    tag_256:\n      eq\n        /* \"trading4test.sol\":3111:3142  require(state == State.payleft) */\n      tag_258\n      jumpi\n      0x00\n      dup1\n      revert\n    tag_258:\n        /* \"trading4test.sol\":3158:3161  _mk */\n      dup1\n        /* \"trading4test.sol\":3153:3155  mk */\n      0x07\n        /* \"trading4test.sol\":3153:3161  mk = _mk */\n      dup2\n      swap1\n      sstore\n      pop\n        /* \"trading4test.sol\":3180:3202  State.releaseMasterkey */\n      0x07\n        /* \"trading4test.sol\":3172:3177  state */\n      0x0d\n      0x00\n        /* \"trading4test.sol\":3172:3202  state = State.releaseMasterkey */\n      0x0100\n      exp\n      dup2\n      sload\n      dup2\n      0xff\n      mul\n      not\n      and\n      swap1\n      dup4\n      0x09\n      dup2\n      gt\n      iszero\n      tag_259\n      jumpi\n      tag_260\n      tag_193\n      jump\t// in\n    tag_260:\n    tag_259:\n      mul\n      or\n      swap1\n      sstore\n      pop\n        /* \"trading4test.sol\":3218:3243  releaseMasterkeyEvent(mk) */\n      0x59e2b1bea451053289971062b187c027a0f841853f70e131a5a9f22b05cd44f8\n        /* \"trading4test.sol\":3240:3242  mk */\n      sload(0x07)\n        /* \"trading4test.sol\":3218:3243  releaseMasterkeyEvent(mk) */\n      mload(0x40)\n      tag_261\n      swap2\n      swap1\n      tag_57\n      jump\t// in\n    tag_261:\n      mload(0x40)\n      dup1\n      swap2\n      sub\n      swap1\n      log1\n        /* \"trading4test.sol\":3013:3251  function releaseMasterkey(bytes32 _mk) public onlySeller {... */\n      pop\n      jump\t// out\n        /* \"trading4test.sol\":191:211  address public buyer */\n    tag_86:\n      0x03\n      0x00\n      swap1\n      sload\n      swap1\n      0x0100\n      exp\n      swap1\n      div\n      0xffffffffffffffffffffffffffffffffffffffff\n      and\n      dup2\n      jump\t// out\n        /* \"trading4test.sol\":4835:5202  function hmac(bytes32 key, bytes32 message) public pure returns (bytes32) {... */\n    tag_92:\n        /* \"trading4test.sol\":4900:4907  bytes32 */\n      0x00\n        /* \"trading4test.sol\":4920:4933  bytes32  opad */\n      dup1\n        /* \"trading4test.sol\":4936:5002  0x5c5c5c5c5c5c5c5c5c5c5c5c5c5c5c5c5c5c5c5c5c5c5c5c5c5c5c5c5c5c5c5c */\n      0x5c5c5c5c5c5c5c5c5c5c5c5c5c5c5c5c5c5c5c5c5c5c5c5c5c5c5c5c5c5c5c5c\n        /* \"trading4test.sol\":4920:5002  bytes32  opad = 0x5c5c5c5c5c5c5c5c5c5c5c5c5c5c5c5c5c5c5c5c5c5c5c5c5c5c5c5c5c5c5c5c */\n      0x00\n      shl\n      swap1\n      pop\n        /* \"trading4test.sol\":5013:5026  bytes32  ipad */\n      0x00\n        /* \"trading4test.sol\":5029:5095  0x3636363636363636363636363636363636363636363636363636363636363636 */\n      0x3636363636363636363636363636363636363636363636363636363636363636\n        /* \"trading4test.sol\":5013:5095  bytes32  ipad = 0x3636363636363636363636363636363636363636363636363636363636363636 */\n      0x00\n      shl\n      swap1\n      pop\n        /* \"trading4test.sol\":5106:5119  bytes32 inner */\n      0x00\n        /* \"trading4test.sol\":5122:5150  sha2562(key ^ ipad, message) */\n      tag_263\n        /* \"trading4test.sol\":5136:5140  ipad */\n      dup3\n        /* \"trading4test.sol\":5130:5133  key */\n      dup8\n        /* \"trading4test.sol\":5130:5140  key ^ ipad */\n      xor\n        /* \"trading4test.sol\":5142:5149  message */\n      dup7\n        /* \"trading4test.sol\":5122:5129  sha2562 */\n      tag_150\n        /* \"trading4test.sol\":5122:5150  sha2562(key ^ ipad, message) */\n      jump\t// in\n    tag_263:\n        /* \"trading4test.sol\":5106:5150  bytes32 inner = sha2562(key ^ ipad, message) */\n      swap1\n      pop\n        /* \"trading4test.sol\":5168:5194  sha2562(key ^ opad, inner) */\n      tag_264\n        /* \"trading4test.sol\":5182:5186  opad */\n      dup4\n        /* \"trading4test.sol\":5176:5179  key */\n      dup8\n        /* \"trading4test.sol\":5176:5186  key ^ opad */\n      xor\n        /* \"trading4test.sol\":5188:5193  inner */\n      dup3\n        /* \"trading4test.sol\":5168:5175  sha2562 */\n      tag_150\n        /* \"trading4test.sol\":5168:5194  sha2562(key ^ opad, inner) */\n      jump\t// in\n    tag_264:\n        /* \"trading4test.sol\":5161:5194  return sha2562(key ^ opad, inner) */\n      swap4\n      pop\n      pop\n      pop\n      pop\n        /* \"trading4test.sol\":4835:5202  function hmac(bytes32 key, bytes32 message) public pure returns (bytes32) {... */\n      swap3\n      swap2\n      pop\n      pop\n      jump\t// out\n        /* \"trading4test.sol\":7446:7562  function test256(bytes32 key)public pure returns (bytes32) {... */\n    tag_97:\n        /* \"trading4test.sol\":7496:7503  bytes32 */\n      0x00\n        /* \"trading4test.sol\":7523:7552  sha256(abi.encodePacked(key)) */\n      0x02\n        /* \"trading4test.sol\":7547:7550  key */\n      dup3\n        /* \"trading4test.sol\":7530:7551  abi.encodePacked(key) */\n      add(0x20, mload(0x40))\n      tag_266\n      swap2\n      swap1\n      tag_267\n      jump\t// in\n    tag_266:\n      mload(0x40)\n      0x20\n      dup2\n      dup4\n      sub\n      sub\n      dup2\n      mstore\n      swap1\n      0x40\n      mstore\n        /* \"trading4test.sol\":7523:7552  sha256(abi.encodePacked(key)) */\n      mload(0x40)\n      tag_268\n      swap2\n      swap1\n      tag_169\n      jump\t// in\n    tag_268:\n      0x20\n      mload(0x40)\n      dup1\n      dup4\n      sub\n      dup2\n      dup6\n      gas\n      staticcall\n      iszero\n      dup1\n      iszero\n      tag_270\n      jumpi\n      returndatasize\n      0x00\n      dup1\n      returndatacopy\n      revert(0x00, returndatasize)\n    tag_270:\n      pop\n      pop\n      pop\n      mload(0x40)\n      returndatasize\n      not(0x1f)\n      0x1f\n      dup3\n      add\n      and\n      dup3\n      add\n      dup1\n      0x40\n      mstore\n      pop\n      dup2\n      add\n      swap1\n      tag_271\n      swap2\n      swap1\n      tag_173\n      jump\t// in\n    tag_271:\n        /* \"trading4test.sol\":7516:7552  return sha256(abi.encodePacked(key)) */\n      swap1\n      pop\n        /* \"trading4test.sol\":7446:7562  function test256(bytes32 key)public pure returns (bytes32) {... */\n      swap2\n      swap1\n      pop\n      jump\t// out\n        /* \"trading4test.sol\":276:298  uint256 public depth_2 */\n    tag_101:\n      sload(0x06)\n      dup2\n      jump\t// out\n        /* \"trading4test.sol\":5208:6308  function RaiseOnChainArbitrationForTest(bytes32 _mk, bytes32 _index, bytes32 _committedSubKey, bytes32 _delta_2,uint _length,bytes32[] memory _merkleTreePath) public  returns (string memory)   {... */\n    tag_108:\n        /* \"trading4test.sol\":5384:5397  string memory */\n      0x60\n        /* \"trading4test.sol\":5412:5434  bytes32 computedSubkey */\n      0x00\n        /* \"trading4test.sol\":5437:5454  hmac(_mk, _index) */\n      tag_273\n        /* \"trading4test.sol\":5442:5445  _mk */\n      dup9\n        /* \"trading4test.sol\":5447:5453  _index */\n      dup9\n        /* \"trading4test.sol\":5437:5441  hmac */\n      tag_92\n        /* \"trading4test.sol\":5437:5454  hmac(_mk, _index) */\n      jump\t// in\n    tag_273:\n        /* \"trading4test.sol\":5412:5454  bytes32 computedSubkey = hmac(_mk, _index) */\n      swap1\n      pop\n        /* \"trading4test.sol\":5465:5486  bytes32 committedNode */\n      0x00\n        /* \"trading4test.sol\":5519:5535  _committedSubKey */\n      dup7\n        /* \"trading4test.sol\":5501:5515  computedSubkey */\n      dup3\n        /* \"trading4test.sol\":5501:5535  computedSubkey != _committedSubKey */\n      eq\n        /* \"trading4test.sol\":5497:6301  if (computedSubkey != _committedSubKey){... */\n      tag_274\n      jumpi\n        /* \"trading4test.sol\":5567:5603  sha256(abi.encode(_committedSubKey)) */\n      0x02\n        /* \"trading4test.sol\":5585:5601  _committedSubKey */\n      dup8\n        /* \"trading4test.sol\":5574:5602  abi.encode(_committedSubKey) */\n      add(0x20, mload(0x40))\n      tag_275\n      swap2\n      swap1\n      tag_57\n      jump\t// in\n    tag_275:\n      mload(0x40)\n      0x20\n      dup2\n      dup4\n      sub\n      sub\n      dup2\n      mstore\n      swap1\n      0x40\n      mstore\n        /* \"trading4test.sol\":5567:5603  sha256(abi.encode(_committedSubKey)) */\n      mload(0x40)\n      tag_276\n      swap2\n      swap1\n      tag_169\n      jump\t// in\n    tag_276:\n      0x20\n      mload(0x40)\n      dup1\n      dup4\n      sub\n      dup2\n      dup6\n      gas\n      staticcall\n      iszero\n      dup1\n      iszero\n      tag_278\n      jumpi\n      returndatasize\n      0x00\n      dup1\n      returndatacopy\n      revert(0x00, returndatasize)\n    tag_278:\n      pop\n      pop\n      pop\n      mload(0x40)\n      returndatasize\n      not(0x1f)\n      0x1f\n      dup3\n      add\n      and\n      dup3\n      add\n      dup1\n      0x40\n      mstore\n      pop\n      dup2\n      add\n      swap1\n      tag_279\n      swap2\n      swap1\n      tag_173\n      jump\t// in\n    tag_279:\n        /* \"trading4test.sol\":5551:5603  committedNode = sha256(abi.encode(_committedSubKey)) */\n      swap1\n      pop\n        /* \"trading4test.sol\":5623:5629  uint i */\n      0x00\n        /* \"trading4test.sol\":5618:5739  for (uint i = 0; i < _length; i++)... */\n    tag_280:\n        /* \"trading4test.sol\":5639:5646  _length */\n      dup6\n        /* \"trading4test.sol\":5635:5636  i */\n      dup2\n        /* \"trading4test.sol\":5635:5646  i < _length */\n      lt\n        /* \"trading4test.sol\":5618:5739  for (uint i = 0; i < _length; i++)... */\n      iszero\n      tag_281\n      jumpi\n        /* \"trading4test.sol\":5686:5739  sha256(abi.encode(committedNode, _merkleTreePath[i])) */\n      0x02\n        /* \"trading4test.sol\":5704:5717  committedNode */\n      dup3\n        /* \"trading4test.sol\":5719:5734  _merkleTreePath */\n      dup7\n        /* \"trading4test.sol\":5735:5736  i */\n      dup4\n        /* \"trading4test.sol\":5719:5737  _merkleTreePath[i] */\n      dup2\n      mload\n      dup2\n      lt\n      tag_283\n      jumpi\n      tag_284\n      tag_179\n      jump\t// in\n    tag_284:\n    tag_283:\n      0x20\n      mul\n      0x20\n      add\n      add\n      mload\n        /* \"trading4test.sol\":5693:5738  abi.encode(committedNode, _merkleTreePath[i]) */\n      add(0x20, mload(0x40))\n      tag_285\n      swap3\n      swap2\n      swap1\n      tag_181\n      jump\t// in\n    tag_285:\n      mload(0x40)\n      0x20\n      dup2\n      dup4\n      sub\n      sub\n      dup2\n      mstore\n      swap1\n      0x40\n      mstore\n        /* \"trading4test.sol\":5686:5739  sha256(abi.encode(committedNode, _merkleTreePath[i])) */\n      mload(0x40)\n      tag_286\n      swap2\n      swap1\n      tag_169\n      jump\t// in\n    tag_286:\n      0x20\n      mload(0x40)\n      dup1\n      dup4\n      sub\n      dup2\n      dup6\n      gas\n      staticcall\n      iszero\n      dup1\n      iszero\n      tag_288\n      jumpi\n      returndatasize\n      0x00\n      dup1\n      returndatacopy\n      revert(0x00, returndatasize)\n    tag_288:\n      pop\n      pop\n      pop\n      mload(0x40)\n      returndatasize\n      not(0x1f)\n      0x1f\n      dup3\n      add\n      and\n      dup3\n      add\n      dup1\n      0x40\n      mstore\n      pop\n      dup2\n      add\n      swap1\n      tag_289\n      swap2\n      swap1\n      tag_173\n      jump\t// in\n    tag_289:\n        /* \"trading4test.sol\":5670:5739  committedNode = sha256(abi.encode(committedNode, _merkleTreePath[i])) */\n      swap2\n      pop\n        /* \"trading4test.sol\":5648:5651  i++ */\n      dup1\n      dup1\n      tag_290\n      swap1\n      tag_187\n      jump\t// in\n    tag_290:\n      swap2\n      pop\n      pop\n        /* \"trading4test.sol\":5618:5739  for (uint i = 0; i < _length; i++)... */\n      jump(tag_280)\n    tag_281:\n      pop\n        /* \"trading4test.sol\":5775:5783  _delta_2 */\n      dup6\n        /* \"trading4test.sol\":5758:5771  committedNode */\n      dup2\n        /* \"trading4test.sol\":5758:5783  committedNode == _delta_2 */\n      sub\n        /* \"trading4test.sol\":5754:6230  if (committedNode == _delta_2)... */\n      tag_291\n      jumpi\n        /* \"trading4test.sol\":5880:5890  msg.sender */\n      caller\n        /* \"trading4test.sol\":5872:5900  payable(msg.sender).transfer */\n      0xffffffffffffffffffffffffffffffffffffffff\n      and\n        /* \"trading4test.sol\":5872:5904  payable(msg.sender).transfer(10) */\n      0x08fc\n        /* \"trading4test.sol\":5901:5903  10 */\n      0x0a\n        /* \"trading4test.sol\":5872:5904  payable(msg.sender).transfer(10) */\n      swap1\n      dup2\n      iszero\n      mul\n      swap1\n      mload(0x40)\n      0x00\n      mload(0x40)\n      dup1\n      dup4\n      sub\n      dup2\n      dup6\n      dup9\n      dup9\n      call\n      swap4\n      pop\n      pop\n      pop\n      pop\n      iszero\n      dup1\n      iszero\n      tag_293\n      jumpi\n      returndatasize\n      0x00\n      dup1\n      returndatacopy\n      revert(0x00, returndatasize)\n    tag_293:\n      pop\n        /* \"trading4test.sol\":5931:5941  State.done */\n      0x09\n        /* \"trading4test.sol\":5923:5928  state */\n      0x0d\n      0x00\n        /* \"trading4test.sol\":5923:5941  state = State.done */\n      0x0100\n      exp\n      dup2\n      sload\n      dup2\n      0xff\n      mul\n      not\n      and\n      swap1\n      dup4\n      0x09\n      dup2\n      gt\n      iszero\n      tag_294\n      jumpi\n      tag_295\n      tag_193\n      jump\t// in\n    tag_295:\n    tag_294:\n      mul\n      or\n      swap1\n      sstore\n      pop\n        /* \"trading4test.sol\":5965:5991  onchianArbitrationEvent(1) */\n      0x6975f323332c2d66d668c2be6e73ef7173309d6252480fe9fe18895d4e7b93d3\n        /* \"trading4test.sol\":5989:5990  1 */\n      0x01\n        /* \"trading4test.sol\":5965:5991  onchianArbitrationEvent(1) */\n      mload(0x40)\n      tag_296\n      swap2\n      swap1\n      tag_297\n      jump\t// in\n    tag_296:\n      mload(0x40)\n      dup1\n      swap2\n      sub\n      swap1\n      log1\n        /* \"trading4test.sol\":5754:6230  if (committedNode == _delta_2)... */\n      jump(tag_298)\n    tag_291:\n        /* \"trading4test.sol\":6040:6046  seller */\n      0x01\n      0x00\n      swap1\n      sload\n      swap1\n      0x0100\n      exp\n      swap1\n      div\n      0xffffffffffffffffffffffffffffffffffffffff\n      and\n        /* \"trading4test.sol\":6032:6056  payable(seller).transfer */\n      0xffffffffffffffffffffffffffffffffffffffff\n      and\n        /* \"trading4test.sol\":6032:6060  payable(seller).transfer(10) */\n      0x08fc\n        /* \"trading4test.sol\":6057:6059  10 */\n      0x0a\n        /* \"trading4test.sol\":6032:6060  payable(seller).transfer(10) */\n      swap1\n      dup2\n      iszero\n      mul\n      swap1\n      mload(0x40)\n      0x00\n      mload(0x40)\n      dup1\n      dup4\n      sub\n      dup2\n      dup6\n      dup9\n      dup9\n      call\n      swap4\n      pop\n      pop\n      pop\n      pop\n      iszero\n      dup1\n      iszero\n      tag_300\n      jumpi\n      returndatasize\n      0x00\n      dup1\n      returndatacopy\n      revert(0x00, returndatasize)\n    tag_300:\n      pop\n        /* \"trading4test.sol\":6087:6097  State.done */\n      0x09\n        /* \"trading4test.sol\":6079:6084  state */\n      0x0d\n      0x00\n        /* \"trading4test.sol\":6079:6097  state = State.done */\n      0x0100\n      exp\n      dup2\n      sload\n      dup2\n      0xff\n      mul\n      not\n      and\n      swap1\n      dup4\n      0x09\n      dup2\n      gt\n      iszero\n      tag_301\n      jumpi\n      tag_302\n      tag_193\n      jump\t// in\n    tag_302:\n    tag_301:\n      mul\n      or\n      swap1\n      sstore\n      pop\n        /* \"trading4test.sol\":6188:6214  onchianArbitrationEvent(2) */\n      0x6975f323332c2d66d668c2be6e73ef7173309d6252480fe9fe18895d4e7b93d3\n        /* \"trading4test.sol\":6212:6213  2 */\n      0x02\n        /* \"trading4test.sol\":6188:6214  onchianArbitrationEvent(2) */\n      mload(0x40)\n      tag_303\n      swap2\n      swap1\n      tag_304\n      jump\t// in\n    tag_303:\n      mload(0x40)\n      dup1\n      swap2\n      sub\n      swap1\n      log1\n        /* \"trading4test.sol\":5754:6230  if (committedNode == _delta_2)... */\n    tag_298:\n        /* \"trading4test.sol\":5497:6301  if (computedSubkey != _committedSubKey){... */\n      jump(tag_305)\n    tag_274:\n        /* \"trading4test.sol\":6264:6290  onchianArbitrationEvent(3) */\n      0x6975f323332c2d66d668c2be6e73ef7173309d6252480fe9fe18895d4e7b93d3\n        /* \"trading4test.sol\":6288:6289  3 */\n      0x03\n        /* \"trading4test.sol\":6264:6290  onchianArbitrationEvent(3) */\n      mload(0x40)\n      tag_306\n      swap2\n      swap1\n      tag_307\n      jump\t// in\n    tag_306:\n      mload(0x40)\n      dup1\n      swap2\n      sub\n      swap1\n      log1\n        /* \"trading4test.sol\":5497:6301  if (computedSubkey != _committedSubKey){... */\n    tag_305:\n        /* \"trading4test.sol\":5401:6308  {... */\n      pop\n      pop\n        /* \"trading4test.sol\":5208:6308  function RaiseOnChainArbitrationForTest(bytes32 _mk, bytes32 _index, bytes32 _committedSubKey, bytes32 _delta_2,uint _length,bytes32[] memory _merkleTreePath) public  returns (string memory)   {... */\n      swap7\n      swap6\n      pop\n      pop\n      pop\n      pop\n      pop\n      pop\n      jump\t// out\n        /* \"trading4test.sol\":400:428  uint256 public opreationtime */\n    tag_112:\n      sload(0x0b)\n      dup2\n      jump\t// out\n        /* \"trading4test.sol\":329:345  uint256 public p */\n    tag_116:\n      sload(0x08)\n      dup2\n      jump\t// out\n        /* \"trading4test.sol\":218:240  bytes32 public delta_1 */\n    tag_120:\n      sload(0x04)\n      dup2\n      jump\t// out\n        /* \"trading4test.sol\":1591:1964  function challenge (bytes32 _kc, uint256 _p, uint256 _p1) payable public onlyBuyer{... */\n    tag_125:\n        /* \"trading4test.sol\":7855:7860  buyer */\n      0x03\n      0x00\n      swap1\n      sload\n      swap1\n      0x0100\n      exp\n      swap1\n      div\n      0xffffffffffffffffffffffffffffffffffffffff\n      and\n        /* \"trading4test.sol\":7841:7860  msg.sender == buyer */\n      0xffffffffffffffffffffffffffffffffffffffff\n      and\n        /* \"trading4test.sol\":7841:7851  msg.sender */\n      caller\n        /* \"trading4test.sol\":7841:7860  msg.sender == buyer */\n      0xffffffffffffffffffffffffffffffffffffffff\n      and\n      eq\n        /* \"trading4test.sol\":7833:7861  require(msg.sender == buyer) */\n      tag_309\n      jumpi\n      0x00\n      dup1\n      revert\n    tag_309:\n        /* \"trading4test.sol\":1777:1780  _p1 */\n      dup1\n        /* \"trading4test.sol\":1764:1773  msg.value */\n      callvalue\n        /* \"trading4test.sol\":1764:1780  msg.value == _p1 */\n      eq\n        /* \"trading4test.sol\":1756:1781  require(msg.value == _p1) */\n      tag_311\n      jumpi\n      0x00\n      dup1\n      revert\n    tag_311:\n        /* \"trading4test.sol\":1797:1800  _kc */\n      dup3\n        /* \"trading4test.sol\":1792:1794  kc */\n      0x0a\n        /* \"trading4test.sol\":1792:1800  kc = _kc */\n      dup2\n      swap1\n      sstore\n      pop\n        /* \"trading4test.sol\":1815:1817  _p */\n      dup2\n        /* \"trading4test.sol\":1811:1812  p */\n      0x08\n        /* \"trading4test.sol\":1811:1817  p = _p */\n      dup2\n      swap1\n      sstore\n      pop\n        /* \"trading4test.sol\":1833:1836  _p1 */\n      dup1\n        /* \"trading4test.sol\":1828:1830  p1 */\n      0x09\n        /* \"trading4test.sol\":1828:1836  p1 = _p1 */\n      dup2\n      swap1\n      sstore\n      pop\n        /* \"trading4test.sol\":1863:1878  block.timestamp */\n      timestamp\n        /* \"trading4test.sol\":1847:1860  opreationtime */\n      0x0b\n        /* \"trading4test.sol\":1847:1878  opreationtime = block.timestamp */\n      dup2\n      swap1\n      sstore\n      pop\n        /* \"trading4test.sol\":1897:1912  State.challenge */\n      0x02\n        /* \"trading4test.sol\":1889:1894  state */\n      0x0d\n      0x00\n        /* \"trading4test.sol\":1889:1912  state = State.challenge */\n      0x0100\n      exp\n      dup2\n      sload\n      dup2\n      0xff\n      mul\n      not\n      and\n      swap1\n      dup4\n      0x09\n      dup2\n      gt\n      iszero\n      tag_312\n      jumpi\n      tag_313\n      tag_193\n      jump\t// in\n    tag_313:\n    tag_312:\n      mul\n      or\n      swap1\n      sstore\n      pop\n        /* \"trading4test.sol\":1928:1956  challengeEvent(_kc, _p, _p1) */\n      0x038403778ce33b7bbdbd6c808eed8cacd1a5e8a78851fbcec058f610aef431ea\n        /* \"trading4test.sol\":1943:1946  _kc */\n      dup4\n        /* \"trading4test.sol\":1948:1950  _p */\n      dup4\n        /* \"trading4test.sol\":1952:1955  _p1 */\n      dup4\n        /* \"trading4test.sol\":1928:1956  challengeEvent(_kc, _p, _p1) */\n      mload(0x40)\n      tag_314\n      swap4\n      swap3\n      swap2\n      swap1\n      tag_315\n      jump\t// in\n    tag_314:\n      mload(0x40)\n      dup1\n      swap2\n      sub\n      swap1\n      log1\n        /* \"trading4test.sol\":1591:1964  function challenge (bytes32 _kc, uint256 _p, uint256 _p1) payable public onlyBuyer{... */\n      pop\n      pop\n      pop\n      jump\t// out\n        /* \"trading4test.sol\":435:463  uint  public timeLimit = 600 */\n    tag_128:\n      sload(0x0c)\n      dup2\n      jump\t// out\n        /* \"trading4test.sol\":471:489  State public state */\n    tag_132:\n      0x0d\n      0x00\n      swap1\n      sload\n      swap1\n      0x0100\n      exp\n      swap1\n      div\n      0xff\n      and\n      dup2\n      jump\t// out\n        /* \"trading4test.sol\":352:369  uint256 public p1 */\n    tag_137:\n      sload(0x09)\n      dup2\n      jump\t// out\n        /* \"trading4test.sol\":99:124  uint256 public dataId = 0 */\n    tag_141:\n      sload(0x00)\n      dup2\n      jump\t// out\n        /* \"trading4test.sol\":376:393  bytes32 public kc */\n    tag_145:\n      sload(0x0a)\n      dup2\n      jump\t// out\n        /* \"trading4test.sol\":7568:7711  function sha2562(bytes32 key, bytes32 message) public pure returns (bytes32) {... */\n    tag_150:\n        /* \"trading4test.sol\":7636:7643  bytes32 */\n      0x00\n        /* \"trading4test.sol\":7663:7701  sha256(abi.encodePacked(key, message)) */\n      0x02\n        /* \"trading4test.sol\":7687:7690  key */\n      dup4\n        /* \"trading4test.sol\":7692:7699  message */\n      dup4\n        /* \"trading4test.sol\":7670:7700  abi.encodePacked(key, message) */\n      add(0x20, mload(0x40))\n      tag_317\n      swap3\n      swap2\n      swap1\n      tag_318\n      jump\t// in\n    tag_317:\n      mload(0x40)\n      0x20\n      dup2\n      dup4\n      sub\n      sub\n      dup2\n      mstore\n      swap1\n      0x40\n      mstore\n        /* \"trading4test.sol\":7663:7701  sha256(abi.encodePacked(key, message)) */\n      mload(0x40)\n      tag_319\n      swap2\n      swap1\n      tag_169\n      jump\t// in\n    tag_319:\n      0x20\n      mload(0x40)\n      dup1\n      dup4\n      sub\n      dup2\n      dup6\n      gas\n      staticcall\n      iszero\n      dup1\n      iszero\n      tag_321\n      jumpi\n      returndatasize\n      0x00\n      dup1\n      returndatacopy\n      revert(0x00, returndatasize)\n    tag_321:\n      pop\n      pop\n      pop\n      mload(0x40)\n      returndatasize\n      not(0x1f)\n      0x1f\n      dup3\n      add\n      and\n      dup3\n      add\n      dup1\n      0x40\n      mstore\n      pop\n      dup2\n      add\n      swap1\n      tag_322\n      swap2\n      swap1\n      tag_173\n      jump\t// in\n    tag_322:\n        /* \"trading4test.sol\":7656:7701  return sha256(abi.encodePacked(key, message)) */\n      swap1\n      pop\n        /* \"trading4test.sol\":7568:7711  function sha2562(bytes32 key, bytes32 message) public pure returns (bytes32) {... */\n      swap3\n      swap2\n      pop\n      pop\n      jump\t// out\n        /* \"trading4test.sol\":4399:4825  function verdict(address userAddr,address winner) public onlyArbitrator{... */\n    tag_156:\n        /* \"trading4test.sol\":7944:7954  arbitrator */\n      0x02\n      0x00\n      swap1\n      sload\n      swap1\n      0x0100\n      exp\n      swap1\n      div\n      0xffffffffffffffffffffffffffffffffffffffff\n      and\n        /* \"trading4test.sol\":7930:7954  msg.sender == arbitrator */\n      0xffffffffffffffffffffffffffffffffffffffff\n      and\n        /* \"trading4test.sol\":7930:7940  msg.sender */\n      caller\n        /* \"trading4test.sol\":7930:7954  msg.sender == arbitrator */\n      0xffffffffffffffffffffffffffffffffffffffff\n      and\n      eq\n        /* \"trading4test.sol\":7922:7955  require(msg.sender == arbitrator) */\n      tag_324\n      jumpi\n      0x00\n      dup1\n      revert\n    tag_324:\n        /* \"trading4test.sol\":4528:4541  State.dispute */\n      0x08\n        /* \"trading4test.sol\":4519:4541  state == State.dispute */\n      0x09\n      dup2\n      gt\n      iszero\n      tag_326\n      jumpi\n      tag_327\n      tag_193\n      jump\t// in\n    tag_327:\n    tag_326:\n        /* \"trading4test.sol\":4519:4524  state */\n      0x0d\n      0x00\n      swap1\n      sload\n      swap1\n      0x0100\n      exp\n      swap1\n      div\n      0xff\n      and\n        /* \"trading4test.sol\":4519:4541  state == State.dispute */\n      0x09\n      dup2\n      gt\n      iszero\n      tag_328\n      jumpi\n      tag_329\n      tag_193\n      jump\t// in\n    tag_329:\n    tag_328:\n      eq\n        /* \"trading4test.sol\":4511:4542  require(state == State.dispute) */\n      tag_330\n      jumpi\n      0x00\n      dup1\n      revert\n    tag_330:\n        /* \"trading4test.sol\":4568:4574  winner */\n      dup1\n        /* \"trading4test.sol\":4556:4574  userAddr == winner */\n      0xffffffffffffffffffffffffffffffffffffffff\n      and\n        /* \"trading4test.sol\":4556:4564  userAddr */\n      dup3\n        /* \"trading4test.sol\":4556:4574  userAddr == winner */\n      0xffffffffffffffffffffffffffffffffffffffff\n      and\n      sub\n        /* \"trading4test.sol\":4553:4743  if(userAddr == winner){... */\n      tag_331\n      jumpi\n        /* \"trading4test.sol\":4623:4631  userAddr */\n      dup2\n        /* \"trading4test.sol\":4615:4641  payable(userAddr).transfer */\n      0xffffffffffffffffffffffffffffffffffffffff\n      and\n        /* \"trading4test.sol\":4615:4645  payable(userAddr).transfer(p1) */\n      0x08fc\n        /* \"trading4test.sol\":4642:4644  p1 */\n      sload(0x09)\n        /* \"trading4test.sol\":4615:4645  payable(userAddr).transfer(p1) */\n      swap1\n      dup2\n      iszero\n      mul\n      swap1\n      mload(0x40)\n      0x00\n      mload(0x40)\n      dup1\n      dup4\n      sub\n      dup2\n      dup6\n      dup9\n      dup9\n      call\n      swap4\n      pop\n      pop\n      pop\n      pop\n      iszero\n      dup1\n      iszero\n      tag_333\n      jumpi\n      returndatasize\n      0x00\n      dup1\n      returndatacopy\n      revert(0x00, returndatasize)\n    tag_333:\n      pop\n        /* \"trading4test.sol\":4553:4743  if(userAddr == winner){... */\n      jump(tag_334)\n    tag_331:\n        /* \"trading4test.sol\":4711:4717  seller */\n      0x01\n      0x00\n      swap1\n      sload\n      swap1\n      0x0100\n      exp\n      swap1\n      div\n      0xffffffffffffffffffffffffffffffffffffffff\n      and\n        /* \"trading4test.sol\":4703:4727  payable(seller).transfer */\n      0xffffffffffffffffffffffffffffffffffffffff\n      and\n        /* \"trading4test.sol\":4703:4731  payable(seller).transfer(p1) */\n      0x08fc\n        /* \"trading4test.sol\":4728:4730  p1 */\n      sload(0x09)\n        /* \"trading4test.sol\":4703:4731  payable(seller).transfer(p1) */\n      swap1\n      dup2\n      iszero\n      mul\n      swap1\n      mload(0x40)\n      0x00\n      mload(0x40)\n      dup1\n      dup4\n      sub\n      dup2\n      dup6\n      dup9\n      dup9\n      call\n      swap4\n      pop\n      pop\n      pop\n      pop\n      iszero\n      dup1\n      iszero\n      tag_336\n      jumpi\n      returndatasize\n      0x00\n      dup1\n      returndatacopy\n      revert(0x00, returndatasize)\n    tag_336:\n      pop\n        /* \"trading4test.sol\":4553:4743  if(userAddr == winner){... */\n    tag_334:\n        /* \"trading4test.sol\":4761:4771  State.done */\n      0x09\n        /* \"trading4test.sol\":4753:4758  state */\n      0x0d\n      0x00\n        /* \"trading4test.sol\":4753:4771  state = State.done */\n      0x0100\n      exp\n      dup2\n      sload\n      dup2\n      0xff\n      mul\n      not\n      and\n      swap1\n      dup4\n      0x09\n      dup2\n      gt\n      iszero\n      tag_337\n      jumpi\n      tag_338\n      tag_193\n      jump\t// in\n    tag_338:\n    tag_337:\n      mul\n      or\n      swap1\n      sstore\n      pop\n        /* \"trading4test.sol\":4787:4817  verdictEvent(userAddr, winner) */\n      0x5b6a2b2de4fa5ff7a980e48d8fe9471ff3ec4eeef693a29dae080e6a5a9c786f\n        /* \"trading4test.sol\":4800:4808  userAddr */\n      dup3\n        /* \"trading4test.sol\":4810:4816  winner */\n      dup3\n        /* \"trading4test.sol\":4787:4817  verdictEvent(userAddr, winner) */\n      mload(0x40)\n      tag_339\n      swap3\n      swap2\n      swap1\n      tag_340\n      jump\t// in\n    tag_339:\n      mload(0x40)\n      dup1\n      swap2\n      sub\n      swap1\n      log1\n        /* \"trading4test.sol\":4399:4825  function verdict(address userAddr,address winner) public onlyArbitrator{... */\n      pop\n      pop\n      jump\t// out\n        /* \"trading4test.sol\":2723:3001  function payleft() public payable onlyBuyer{... */\n    tag_158:\n        /* \"trading4test.sol\":7855:7860  buyer */\n      0x03\n      0x00\n      swap1\n      sload\n      swap1\n      0x0100\n      exp\n      swap1\n      div\n      0xffffffffffffffffffffffffffffffffffffffff\n      and\n        /* \"trading4test.sol\":7841:7860  msg.sender == buyer */\n      0xffffffffffffffffffffffffffffffffffffffff\n      and\n        /* \"trading4test.sol\":7841:7851  msg.sender */\n      caller\n        /* \"trading4test.sol\":7841:7860  msg.sender == buyer */\n      0xffffffffffffffffffffffffffffffffffffffff\n      and\n      eq\n        /* \"trading4test.sol\":7833:7861  require(msg.sender == buyer) */\n      tag_342\n      jumpi\n      0x00\n      dup1\n      revert\n    tag_342:\n        /* \"trading4test.sol\":2824:2838  State.response */\n      0x03\n        /* \"trading4test.sol\":2815:2838  state == State.response */\n      0x09\n      dup2\n      gt\n      iszero\n      tag_344\n      jumpi\n      tag_345\n      tag_193\n      jump\t// in\n    tag_345:\n    tag_344:\n        /* \"trading4test.sol\":2815:2820  state */\n      0x0d\n      0x00\n      swap1\n      sload\n      swap1\n      0x0100\n      exp\n      swap1\n      div\n      0xff\n      and\n        /* \"trading4test.sol\":2815:2838  state == State.response */\n      0x09\n      dup2\n      gt\n      iszero\n      tag_346\n      jumpi\n      tag_347\n      tag_193\n      jump\t// in\n    tag_347:\n    tag_346:\n      eq\n        /* \"trading4test.sol\":2807:2839  require(state == State.response) */\n      tag_348\n      jumpi\n      0x00\n      dup1\n      revert\n    tag_348:\n        /* \"trading4test.sol\":2876:2878  p1 */\n      sload(0x09)\n        /* \"trading4test.sol\":2872:2873  p */\n      sload(0x08)\n        /* \"trading4test.sol\":2872:2878  p - p1 */\n      tag_349\n      swap2\n      swap1\n      tag_350\n      jump\t// in\n    tag_349:\n        /* \"trading4test.sol\":2858:2867  msg.value */\n      callvalue\n        /* \"trading4test.sol\":2858:2879  msg.value == (p - p1) */\n      eq\n        /* \"trading4test.sol\":2850:2880  require(msg.value == (p - p1)) */\n      tag_351\n      jumpi\n      0x00\n      dup1\n      revert\n    tag_351:\n        /* \"trading4test.sol\":2929:2942  State.payleft */\n      0x04\n        /* \"trading4test.sol\":2921:2926  state */\n      0x0d\n      0x00\n        /* \"trading4test.sol\":2921:2942  state = State.payleft */\n      0x0100\n      exp\n      dup2\n      sload\n      dup2\n      0xff\n      mul\n      not\n      and\n      swap1\n      dup4\n      0x09\n      dup2\n      gt\n      iszero\n      tag_352\n      jumpi\n      tag_353\n      tag_193\n      jump\t// in\n    tag_353:\n    tag_352:\n      mul\n      or\n      swap1\n      sstore\n      pop\n        /* \"trading4test.sol\":2958:2993  payleftEvent(msg.sender, msg.value) */\n      0xe37b4d92bfb3a0f51b4632930020ab1670830e1c71576288d9b33f4671f09bb9\n        /* \"trading4test.sol\":2971:2981  msg.sender */\n      caller\n        /* \"trading4test.sol\":2983:2992  msg.value */\n      callvalue\n        /* \"trading4test.sol\":2958:2993  payleftEvent(msg.sender, msg.value) */\n      mload(0x40)\n      tag_354\n      swap3\n      swap2\n      swap1\n      tag_355\n      jump\t// in\n    tag_354:\n      mload(0x40)\n      dup1\n      swap2\n      sub\n      swap1\n      log1\n        /* \"trading4test.sol\":2723:3001  function payleft() public payable onlyBuyer{... */\n      jump\t// out\n        /* \"trading4test.sol\":6315:7434  function RaiseOnChainArbitrationForTestwithkeccak256(bytes32 _mk, bytes32 _index, bytes32 _committedSubKey, bytes32 _delta_2,uint _length,bytes32[] memory _merkleTreePath) public  returns (string memory)   {... */\n    tag_162:\n        /* \"trading4test.sol\":6504:6517  string memory */\n      0x60\n        /* \"trading4test.sol\":6532:6554  bytes32 computedSubkey */\n      0x00\n        /* \"trading4test.sol\":6557:6574  hmac(_mk, _index) */\n      tag_357\n        /* \"trading4test.sol\":6562:6565  _mk */\n      dup9\n        /* \"trading4test.sol\":6567:6573  _index */\n      dup9\n        /* \"trading4test.sol\":6557:6561  hmac */\n      tag_92\n        /* \"trading4test.sol\":6557:6574  hmac(_mk, _index) */\n      jump\t// in\n    tag_357:\n        /* \"trading4test.sol\":6532:6574  bytes32 computedSubkey = hmac(_mk, _index) */\n      swap1\n      pop\n        /* \"trading4test.sol\":6585:6606  bytes32 committedNode */\n      0x00\n        /* \"trading4test.sol\":6639:6655  _committedSubKey */\n      dup7\n        /* \"trading4test.sol\":6621:6635  computedSubkey */\n      dup3\n        /* \"trading4test.sol\":6621:6655  computedSubkey != _committedSubKey */\n      eq\n        /* \"trading4test.sol\":6617:7427  if (computedSubkey != _committedSubKey){... */\n      tag_358\n      jumpi\n        /* \"trading4test.sol\":6708:6724  _committedSubKey */\n      dup7\n        /* \"trading4test.sol\":6697:6725  abi.encode(_committedSubKey) */\n      add(0x20, mload(0x40))\n      tag_359\n      swap2\n      swap1\n      tag_57\n      jump\t// in\n    tag_359:\n      mload(0x40)\n      0x20\n      dup2\n      dup4\n      sub\n      sub\n      dup2\n      mstore\n      swap1\n      0x40\n      mstore\n        /* \"trading4test.sol\":6687:6726  keccak256(abi.encode(_committedSubKey)) */\n      dup1\n      mload\n      swap1\n      0x20\n      add\n      keccak256\n        /* \"trading4test.sol\":6671:6726  committedNode = keccak256(abi.encode(_committedSubKey)) */\n      swap1\n      pop\n        /* \"trading4test.sol\":6746:6752  uint i */\n      0x00\n        /* \"trading4test.sol\":6741:6865  for (uint i = 0; i < _length; i++)... */\n    tag_360:\n        /* \"trading4test.sol\":6762:6769  _length */\n      dup6\n        /* \"trading4test.sol\":6758:6759  i */\n      dup2\n        /* \"trading4test.sol\":6758:6769  i < _length */\n      lt\n        /* \"trading4test.sol\":6741:6865  for (uint i = 0; i < _length; i++)... */\n      iszero\n      tag_361\n      jumpi\n        /* \"trading4test.sol\":6830:6843  committedNode */\n      dup2\n        /* \"trading4test.sol\":6845:6860  _merkleTreePath */\n      dup6\n        /* \"trading4test.sol\":6861:6862  i */\n      dup3\n        /* \"trading4test.sol\":6845:6863  _merkleTreePath[i] */\n      dup2\n      mload\n      dup2\n      lt\n      tag_363\n      jumpi\n      tag_364\n      tag_179\n      jump\t// in\n    tag_364:\n    tag_363:\n      0x20\n      mul\n      0x20\n      add\n      add\n      mload\n        /* \"trading4test.sol\":6819:6864  abi.encode(committedNode, _merkleTreePath[i]) */\n      add(0x20, mload(0x40))\n      tag_365\n      swap3\n      swap2\n      swap1\n      tag_181\n      jump\t// in\n    tag_365:\n      mload(0x40)\n      0x20\n      dup2\n      dup4\n      sub\n      sub\n      dup2\n      mstore\n      swap1\n      0x40\n      mstore\n        /* \"trading4test.sol\":6809:6865  keccak256(abi.encode(committedNode, _merkleTreePath[i])) */\n      dup1\n      mload\n      swap1\n      0x20\n      add\n      keccak256\n        /* \"trading4test.sol\":6793:6865  committedNode = keccak256(abi.encode(committedNode, _merkleTreePath[i])) */\n      swap2\n      pop\n        /* \"trading4test.sol\":6771:6774  i++ */\n      dup1\n      dup1\n      tag_366\n      swap1\n      tag_187\n      jump\t// in\n    tag_366:\n      swap2\n      pop\n      pop\n        /* \"trading4test.sol\":6741:6865  for (uint i = 0; i < _length; i++)... */\n      jump(tag_360)\n    tag_361:\n      pop\n        /* \"trading4test.sol\":6901:6909  _delta_2 */\n      dup6\n        /* \"trading4test.sol\":6884:6897  committedNode */\n      dup2\n        /* \"trading4test.sol\":6884:6909  committedNode == _delta_2 */\n      sub\n        /* \"trading4test.sol\":6880:7356  if (committedNode == _delta_2)... */\n      tag_367\n      jumpi\n        /* \"trading4test.sol\":7006:7016  msg.sender */\n      caller\n        /* \"trading4test.sol\":6998:7026  payable(msg.sender).transfer */\n      0xffffffffffffffffffffffffffffffffffffffff\n      and\n        /* \"trading4test.sol\":6998:7030  payable(msg.sender).transfer(10) */\n      0x08fc\n        /* \"trading4test.sol\":7027:7029  10 */\n      0x0a\n        /* \"trading4test.sol\":6998:7030  payable(msg.sender).transfer(10) */\n      swap1\n      dup2\n      iszero\n      mul\n      swap1\n      mload(0x40)\n      0x00\n      mload(0x40)\n      dup1\n      dup4\n      sub\n      dup2\n      dup6\n      dup9\n      dup9\n      call\n      swap4\n      pop\n      pop\n      pop\n      pop\n      iszero\n      dup1\n      iszero\n      tag_369\n      jumpi\n      returndatasize\n      0x00\n      dup1\n      returndatacopy\n      revert(0x00, returndatasize)\n    tag_369:\n      pop\n        /* \"trading4test.sol\":7057:7067  State.done */\n      0x09\n        /* \"trading4test.sol\":7049:7054  state */\n      0x0d\n      0x00\n        /* \"trading4test.sol\":7049:7067  state = State.done */\n      0x0100\n      exp\n      dup2\n      sload\n      dup2\n      0xff\n      mul\n      not\n      and\n      swap1\n      dup4\n      0x09\n      dup2\n      gt\n      iszero\n      tag_370\n      jumpi\n      tag_371\n      tag_193\n      jump\t// in\n    tag_371:\n    tag_370:\n      mul\n      or\n      swap1\n      sstore\n      pop\n        /* \"trading4test.sol\":7091:7117  onchianArbitrationEvent(1) */\n      0x6975f323332c2d66d668c2be6e73ef7173309d6252480fe9fe18895d4e7b93d3\n        /* \"trading4test.sol\":7115:7116  1 */\n      0x01\n        /* \"trading4test.sol\":7091:7117  onchianArbitrationEvent(1) */\n      mload(0x40)\n      tag_372\n      swap2\n      swap1\n      tag_297\n      jump\t// in\n    tag_372:\n      mload(0x40)\n      dup1\n      swap2\n      sub\n      swap1\n      log1\n        /* \"trading4test.sol\":6880:7356  if (committedNode == _delta_2)... */\n      jump(tag_373)\n    tag_367:\n        /* \"trading4test.sol\":7166:7172  seller */\n      0x01\n      0x00\n      swap1\n      sload\n      swap1\n      0x0100\n      exp\n      swap1\n      div\n      0xffffffffffffffffffffffffffffffffffffffff\n      and\n        /* \"trading4test.sol\":7158:7182  payable(seller).transfer */\n      0xffffffffffffffffffffffffffffffffffffffff\n      and\n        /* \"trading4test.sol\":7158:7186  payable(seller).transfer(10) */\n      0x08fc\n        /* \"trading4test.sol\":7183:7185  10 */\n      0x0a\n        /* \"trading4test.sol\":7158:7186  payable(seller).transfer(10) */\n      swap1\n      dup2\n      iszero\n      mul\n      swap1\n      mload(0x40)\n      0x00\n      mload(0x40)\n      dup1\n      dup4\n      sub\n      dup2\n      dup6\n      dup9\n      dup9\n      call\n      swap4\n      pop\n      pop\n      pop\n      pop\n      iszero\n      dup1\n      iszero\n      tag_375\n      jumpi\n      returndatasize\n      0x00\n      dup1\n      returndatacopy\n      revert(0x00, returndatasize)\n    tag_375:\n      pop\n        /* \"trading4test.sol\":7213:7223  State.done */\n      0x09\n        /* \"trading4test.sol\":7205:7210  state */\n      0x0d\n      0x00\n        /* \"trading4test.sol\":7205:7223  state = State.done */\n      0x0100\n      exp\n      dup2\n      sload\n      dup2\n      0xff\n      mul\n      not\n      and\n      swap1\n      dup4\n      0x09\n      dup2\n      gt\n      iszero\n      tag_376\n      jumpi\n      tag_377\n      tag_193\n      jump\t// in\n    tag_377:\n    tag_376:\n      mul\n      or\n      swap1\n      sstore\n      pop\n        /* \"trading4test.sol\":7314:7340  onchianArbitrationEvent(2) */\n      0x6975f323332c2d66d668c2be6e73ef7173309d6252480fe9fe18895d4e7b93d3\n        /* \"trading4test.sol\":7338:7339  2 */\n      0x02\n        /* \"trading4test.sol\":7314:7340  onchianArbitrationEvent(2) */\n      mload(0x40)\n      tag_378\n      swap2\n      swap1\n      tag_304\n      jump\t// in\n    tag_378:\n      mload(0x40)\n      dup1\n      swap2\n      sub\n      swap1\n      log1\n        /* \"trading4test.sol\":6880:7356  if (committedNode == _delta_2)... */\n    tag_373:\n        /* \"trading4test.sol\":6617:7427  if (computedSubkey != _committedSubKey){... */\n      jump(tag_379)\n    tag_358:\n        /* \"trading4test.sol\":7390:7416  onchianArbitrationEvent(3) */\n      0x6975f323332c2d66d668c2be6e73ef7173309d6252480fe9fe18895d4e7b93d3\n        /* \"trading4test.sol\":7414:7415  3 */\n      0x03\n        /* \"trading4test.sol\":7390:7416  onchianArbitrationEvent(3) */\n      mload(0x40)\n      tag_380\n      swap2\n      swap1\n      tag_307\n      jump\t// in\n    tag_380:\n      mload(0x40)\n      dup1\n      swap2\n      sub\n      swap1\n      log1\n        /* \"trading4test.sol\":6617:7427  if (computedSubkey != _committedSubKey){... */\n    tag_379:\n        /* \"trading4test.sol\":6521:7434  {... */\n      pop\n      pop\n        /* \"trading4test.sol\":6315:7434  function RaiseOnChainArbitrationForTestwithkeccak256(bytes32 _mk, bytes32 _index, bytes32 _committedSubKey, bytes32 _delta_2,uint _length,bytes32[] memory _merkleTreePath) public  returns (string memory)   {... */\n      swap7\n      swap6\n      pop\n      pop\n      pop\n      pop\n      pop\n      pop\n      jump\t// out\n        /* \"#utility.yul\":7:82   */\n    tag_381:\n        /* \"#utility.yul\":40:46   */\n      0x00\n        /* \"#utility.yul\":73:75   */\n      0x40\n        /* \"#utility.yul\":67:76   */\n      mload\n        /* \"#utility.yul\":57:76   */\n      swap1\n      pop\n        /* \"#utility.yul\":7:82   */\n      swap1\n      jump\t// out\n        /* \"#utility.yul\":88:205   */\n    tag_382:\n        /* \"#utility.yul\":197:198   */\n      0x00\n        /* \"#utility.yul\":194:195   */\n      dup1\n        /* \"#utility.yul\":187:199   */\n      revert\n        /* \"#utility.yul\":211:328   */\n    tag_383:\n        /* \"#utility.yul\":320:321   */\n      0x00\n        /* \"#utility.yul\":317:318   */\n      dup1\n        /* \"#utility.yul\":310:322   */\n      revert\n        /* \"#utility.yul\":334:411   */\n    tag_384:\n        /* \"#utility.yul\":371:378   */\n      0x00\n        /* \"#utility.yul\":400:405   */\n      dup2\n        /* \"#utility.yul\":389:405   */\n      swap1\n      pop\n        /* \"#utility.yul\":334:411   */\n      swap2\n      swap1\n      pop\n      jump\t// out\n        /* \"#utility.yul\":417:539   */\n    tag_385:\n        /* \"#utility.yul\":490:514   */\n      tag_446\n        /* \"#utility.yul\":508:513   */\n      dup2\n        /* \"#utility.yul\":490:514   */\n      tag_384\n      jump\t// in\n    tag_446:\n        /* \"#utility.yul\":483:488   */\n      dup2\n        /* \"#utility.yul\":480:515   */\n      eq\n        /* \"#utility.yul\":470:533   */\n      tag_447\n      jumpi\n        /* \"#utility.yul\":529:530   */\n      0x00\n        /* \"#utility.yul\":526:527   */\n      dup1\n        /* \"#utility.yul\":519:531   */\n      revert\n        /* \"#utility.yul\":470:533   */\n    tag_447:\n        /* \"#utility.yul\":417:539   */\n      pop\n      jump\t// out\n        /* \"#utility.yul\":545:684   */\n    tag_386:\n        /* \"#utility.yul\":591:596   */\n      0x00\n        /* \"#utility.yul\":629:635   */\n      dup2\n        /* \"#utility.yul\":616:636   */\n      calldataload\n        /* \"#utility.yul\":607:636   */\n      swap1\n      pop\n        /* \"#utility.yul\":645:678   */\n      tag_449\n        /* \"#utility.yul\":672:677   */\n      dup2\n        /* \"#utility.yul\":645:678   */\n      tag_385\n      jump\t// in\n    tag_449:\n        /* \"#utility.yul\":545:684   */\n      swap3\n      swap2\n      pop\n      pop\n      jump\t// out\n        /* \"#utility.yul\":690:807   */\n    tag_387:\n        /* \"#utility.yul\":799:800   */\n      0x00\n        /* \"#utility.yul\":796:797   */\n      dup1\n        /* \"#utility.yul\":789:801   */\n      revert\n        /* \"#utility.yul\":813:915   */\n    tag_388:\n        /* \"#utility.yul\":854:860   */\n      0x00\n        /* \"#utility.yul\":905:907   */\n      0x1f\n        /* \"#utility.yul\":901:908   */\n      not\n        /* \"#utility.yul\":896:898   */\n      0x1f\n        /* \"#utility.yul\":889:894   */\n      dup4\n        /* \"#utility.yul\":885:899   */\n      add\n        /* \"#utility.yul\":881:909   */\n      and\n        /* \"#utility.yul\":871:909   */\n      swap1\n      pop\n        /* \"#utility.yul\":813:915   */\n      swap2\n      swap1\n      pop\n      jump\t// out\n        /* \"#utility.yul\":921:1101   */\n    tag_389:\n        /* \"#utility.yul\":969:1046   */\n      0x4e487b7100000000000000000000000000000000000000000000000000000000\n        /* \"#utility.yul\":966:967   */\n      0x00\n        /* \"#utility.yul\":959:1047   */\n      mstore\n        /* \"#utility.yul\":1066:1070   */\n      0x41\n        /* \"#utility.yul\":1063:1064   */\n      0x04\n        /* \"#utility.yul\":1056:1071   */\n      mstore\n        /* \"#utility.yul\":1090:1094   */\n      0x24\n        /* \"#utility.yul\":1087:1088   */\n      0x00\n        /* \"#utility.yul\":1080:1095   */\n      revert\n        /* \"#utility.yul\":1107:1388   */\n    tag_390:\n        /* \"#utility.yul\":1190:1217   */\n      tag_454\n        /* \"#utility.yul\":1212:1216   */\n      dup3\n        /* \"#utility.yul\":1190:1217   */\n      tag_388\n      jump\t// in\n    tag_454:\n        /* \"#utility.yul\":1182:1188   */\n      dup2\n        /* \"#utility.yul\":1178:1218   */\n      add\n        /* \"#utility.yul\":1320:1326   */\n      dup2\n        /* \"#utility.yul\":1308:1318   */\n      dup2\n        /* \"#utility.yul\":1305:1327   */\n      lt\n        /* \"#utility.yul\":1284:1302   */\n      0xffffffffffffffff\n        /* \"#utility.yul\":1272:1282   */\n      dup3\n        /* \"#utility.yul\":1269:1303   */\n      gt\n        /* \"#utility.yul\":1266:1328   */\n      or\n        /* \"#utility.yul\":1263:1351   */\n      iszero\n      tag_455\n      jumpi\n        /* \"#utility.yul\":1331:1349   */\n      tag_456\n      tag_389\n      jump\t// in\n    tag_456:\n        /* \"#utility.yul\":1263:1351   */\n    tag_455:\n        /* \"#utility.yul\":1371:1381   */\n      dup1\n        /* \"#utility.yul\":1367:1369   */\n      0x40\n        /* \"#utility.yul\":1360:1382   */\n      mstore\n        /* \"#utility.yul\":1150:1388   */\n      pop\n        /* \"#utility.yul\":1107:1388   */\n      pop\n      pop\n      jump\t// out\n        /* \"#utility.yul\":1394:1523   */\n    tag_391:\n        /* \"#utility.yul\":1428:1434   */\n      0x00\n        /* \"#utility.yul\":1455:1475   */\n      tag_458\n      tag_381\n      jump\t// in\n    tag_458:\n        /* \"#utility.yul\":1445:1475   */\n      swap1\n      pop\n        /* \"#utility.yul\":1484:1517   */\n      tag_459\n        /* \"#utility.yul\":1512:1516   */\n      dup3\n        /* \"#utility.yul\":1504:1510   */\n      dup3\n        /* \"#utility.yul\":1484:1517   */\n      tag_390\n      jump\t// in\n    tag_459:\n        /* \"#utility.yul\":1394:1523   */\n      swap2\n      swap1\n      pop\n      jump\t// out\n        /* \"#utility.yul\":1529:1840   */\n    tag_392:\n        /* \"#utility.yul\":1606:1610   */\n      0x00\n        /* \"#utility.yul\":1696:1714   */\n      0xffffffffffffffff\n        /* \"#utility.yul\":1688:1694   */\n      dup3\n        /* \"#utility.yul\":1685:1715   */\n      gt\n        /* \"#utility.yul\":1682:1738   */\n      iszero\n      tag_461\n      jumpi\n        /* \"#utility.yul\":1718:1736   */\n      tag_462\n      tag_389\n      jump\t// in\n    tag_462:\n        /* \"#utility.yul\":1682:1738   */\n    tag_461:\n        /* \"#utility.yul\":1768:1772   */\n      0x20\n        /* \"#utility.yul\":1760:1766   */\n      dup3\n        /* \"#utility.yul\":1756:1773   */\n      mul\n        /* \"#utility.yul\":1748:1773   */\n      swap1\n      pop\n        /* \"#utility.yul\":1828:1832   */\n      0x20\n        /* \"#utility.yul\":1822:1826   */\n      dup2\n        /* \"#utility.yul\":1818:1833   */\n      add\n        /* \"#utility.yul\":1810:1833   */\n      swap1\n      pop\n        /* \"#utility.yul\":1529:1840   */\n      swap2\n      swap1\n      pop\n      jump\t// out\n        /* \"#utility.yul\":1846:1963   */\n    tag_393:\n        /* \"#utility.yul\":1955:1956   */\n      0x00\n        /* \"#utility.yul\":1952:1953   */\n      dup1\n        /* \"#utility.yul\":1945:1957   */\n      revert\n        /* \"#utility.yul\":1986:2696   */\n    tag_394:\n        /* \"#utility.yul\":2082:2087   */\n      0x00\n        /* \"#utility.yul\":2107:2188   */\n      tag_465\n        /* \"#utility.yul\":2123:2187   */\n      tag_466\n        /* \"#utility.yul\":2180:2186   */\n      dup5\n        /* \"#utility.yul\":2123:2187   */\n      tag_392\n      jump\t// in\n    tag_466:\n        /* \"#utility.yul\":2107:2188   */\n      tag_391\n      jump\t// in\n    tag_465:\n        /* \"#utility.yul\":2098:2188   */\n      swap1\n      pop\n        /* \"#utility.yul\":2208:2213   */\n      dup1\n        /* \"#utility.yul\":2237:2243   */\n      dup4\n        /* \"#utility.yul\":2230:2235   */\n      dup3\n        /* \"#utility.yul\":2223:2244   */\n      mstore\n        /* \"#utility.yul\":2271:2275   */\n      0x20\n        /* \"#utility.yul\":2264:2269   */\n      dup3\n        /* \"#utility.yul\":2260:2276   */\n      add\n        /* \"#utility.yul\":2253:2276   */\n      swap1\n      pop\n        /* \"#utility.yul\":2324:2328   */\n      0x20\n        /* \"#utility.yul\":2316:2322   */\n      dup5\n        /* \"#utility.yul\":2312:2329   */\n      mul\n        /* \"#utility.yul\":2304:2310   */\n      dup4\n        /* \"#utility.yul\":2300:2330   */\n      add\n        /* \"#utility.yul\":2353:2356   */\n      dup6\n        /* \"#utility.yul\":2345:2351   */\n      dup2\n        /* \"#utility.yul\":2342:2357   */\n      gt\n        /* \"#utility.yul\":2339:2461   */\n      iszero\n      tag_467\n      jumpi\n        /* \"#utility.yul\":2372:2451   */\n      tag_468\n      tag_393\n      jump\t// in\n    tag_468:\n        /* \"#utility.yul\":2339:2461   */\n    tag_467:\n        /* \"#utility.yul\":2487:2493   */\n      dup4\n        /* \"#utility.yul\":2470:2690   */\n    tag_469:\n        /* \"#utility.yul\":2504:2510   */\n      dup2\n        /* \"#utility.yul\":2499:2502   */\n      dup2\n        /* \"#utility.yul\":2496:2511   */\n      lt\n        /* \"#utility.yul\":2470:2690   */\n      iszero\n      tag_471\n      jumpi\n        /* \"#utility.yul\":2579:2582   */\n      dup1\n        /* \"#utility.yul\":2608:2645   */\n      tag_472\n        /* \"#utility.yul\":2641:2644   */\n      dup9\n        /* \"#utility.yul\":2629:2639   */\n      dup3\n        /* \"#utility.yul\":2608:2645   */\n      tag_386\n      jump\t// in\n    tag_472:\n        /* \"#utility.yul\":2603:2606   */\n      dup5\n        /* \"#utility.yul\":2596:2646   */\n      mstore\n        /* \"#utility.yul\":2675:2679   */\n      0x20\n        /* \"#utility.yul\":2670:2673   */\n      dup5\n        /* \"#utility.yul\":2666:2680   */\n      add\n        /* \"#utility.yul\":2659:2680   */\n      swap4\n      pop\n        /* \"#utility.yul\":2546:2690   */\n      pop\n        /* \"#utility.yul\":2530:2534   */\n      0x20\n        /* \"#utility.yul\":2525:2528   */\n      dup2\n        /* \"#utility.yul\":2521:2535   */\n      add\n        /* \"#utility.yul\":2514:2535   */\n      swap1\n      pop\n        /* \"#utility.yul\":2470:2690   */\n      jump(tag_469)\n    tag_471:\n        /* \"#utility.yul\":2474:2495   */\n      pop\n        /* \"#utility.yul\":2088:2696   */\n      pop\n      pop\n        /* \"#utility.yul\":1986:2696   */\n      swap4\n      swap3\n      pop\n      pop\n      pop\n      jump\t// out\n        /* \"#utility.yul\":2719:3089   */\n    tag_395:\n        /* \"#utility.yul\":2790:2795   */\n      0x00\n        /* \"#utility.yul\":2839:2842   */\n      dup3\n        /* \"#utility.yul\":2832:2836   */\n      0x1f\n        /* \"#utility.yul\":2824:2830   */\n      dup4\n        /* \"#utility.yul\":2820:2837   */\n      add\n        /* \"#utility.yul\":2816:2843   */\n      slt\n        /* \"#utility.yul\":2806:2928   */\n      tag_474\n      jumpi\n        /* \"#utility.yul\":2847:2926   */\n      tag_475\n      tag_387\n      jump\t// in\n    tag_475:\n        /* \"#utility.yul\":2806:2928   */\n    tag_474:\n        /* \"#utility.yul\":2964:2970   */\n      dup2\n        /* \"#utility.yul\":2951:2971   */\n      calldataload\n        /* \"#utility.yul\":2989:3083   */\n      tag_476\n        /* \"#utility.yul\":3079:3082   */\n      dup5\n        /* \"#utility.yul\":3071:3077   */\n      dup3\n        /* \"#utility.yul\":3064:3068   */\n      0x20\n        /* \"#utility.yul\":3056:3062   */\n      dup7\n        /* \"#utility.yul\":3052:3069   */\n      add\n        /* \"#utility.yul\":2989:3083   */\n      tag_394\n      jump\t// in\n    tag_476:\n        /* \"#utility.yul\":2980:3083   */\n      swap2\n      pop\n        /* \"#utility.yul\":2796:3089   */\n      pop\n        /* \"#utility.yul\":2719:3089   */\n      swap3\n      swap2\n      pop\n      pop\n      jump\t// out\n        /* \"#utility.yul\":3095:3924   */\n    tag_40:\n        /* \"#utility.yul\":3197:3203   */\n      0x00\n        /* \"#utility.yul\":3205:3211   */\n      dup1\n        /* \"#utility.yul\":3213:3219   */\n      0x00\n        /* \"#utility.yul\":3262:3264   */\n      0x60\n        /* \"#utility.yul\":3250:3259   */\n      dup5\n        /* \"#utility.yul\":3241:3248   */\n      dup7\n        /* \"#utility.yul\":3237:3260   */\n      sub\n        /* \"#utility.yul\":3233:3265   */\n      slt\n        /* \"#utility.yul\":3230:3349   */\n      iszero\n      tag_478\n      jumpi\n        /* \"#utility.yul\":3268:3347   */\n      tag_479\n      tag_382\n      jump\t// in\n    tag_479:\n        /* \"#utility.yul\":3230:3349   */\n    tag_478:\n        /* \"#utility.yul\":3388:3389   */\n      0x00\n        /* \"#utility.yul\":3413:3466   */\n      tag_480\n        /* \"#utility.yul\":3458:3465   */\n      dup7\n        /* \"#utility.yul\":3449:3455   */\n      dup3\n        /* \"#utility.yul\":3438:3447   */\n      dup8\n        /* \"#utility.yul\":3434:3456   */\n      add\n        /* \"#utility.yul\":3413:3466   */\n      tag_386\n      jump\t// in\n    tag_480:\n        /* \"#utility.yul\":3403:3466   */\n      swap4\n      pop\n        /* \"#utility.yul\":3359:3476   */\n      pop\n        /* \"#utility.yul\":3515:3517   */\n      0x20\n        /* \"#utility.yul\":3541:3594   */\n      tag_481\n        /* \"#utility.yul\":3586:3593   */\n      dup7\n        /* \"#utility.yul\":3577:3583   */\n      dup3\n        /* \"#utility.yul\":3566:3575   */\n      dup8\n        /* \"#utility.yul\":3562:3584   */\n      add\n        /* \"#utility.yul\":3541:3594   */\n      tag_386\n      jump\t// in\n    tag_481:\n        /* \"#utility.yul\":3531:3594   */\n      swap3\n      pop\n        /* \"#utility.yul\":3486:3604   */\n      pop\n        /* \"#utility.yul\":3671:3673   */\n      0x40\n        /* \"#utility.yul\":3660:3669   */\n      dup5\n        /* \"#utility.yul\":3656:3674   */\n      add\n        /* \"#utility.yul\":3643:3675   */\n      calldataload\n        /* \"#utility.yul\":3702:3720   */\n      0xffffffffffffffff\n        /* \"#utility.yul\":3694:3700   */\n      dup2\n        /* \"#utility.yul\":3691:3721   */\n      gt\n        /* \"#utility.yul\":3688:3805   */\n      iszero\n      tag_482\n      jumpi\n        /* \"#utility.yul\":3724:3803   */\n      tag_483\n      tag_383\n      jump\t// in\n    tag_483:\n        /* \"#utility.yul\":3688:3805   */\n    tag_482:\n        /* \"#utility.yul\":3829:3907   */\n      tag_484\n        /* \"#utility.yul\":3899:3906   */\n      dup7\n        /* \"#utility.yul\":3890:3896   */\n      dup3\n        /* \"#utility.yul\":3879:3888   */\n      dup8\n        /* \"#utility.yul\":3875:3897   */\n      add\n        /* \"#utility.yul\":3829:3907   */\n      tag_395\n      jump\t// in\n    tag_484:\n        /* \"#utility.yul\":3819:3907   */\n      swap2\n      pop\n        /* \"#utility.yul\":3614:3917   */\n      pop\n        /* \"#utility.yul\":3095:3924   */\n      swap3\n      pop\n      swap3\n      pop\n      swap3\n      jump\t// out\n        /* \"#utility.yul\":3930:4029   */\n    tag_396:\n        /* \"#utility.yul\":3982:3988   */\n      0x00\n        /* \"#utility.yul\":4016:4021   */\n      dup2\n        /* \"#utility.yul\":4010:4022   */\n      mload\n        /* \"#utility.yul\":4000:4022   */\n      swap1\n      pop\n        /* \"#utility.yul\":3930:4029   */\n      swap2\n      swap1\n      pop\n      jump\t// out\n        /* \"#utility.yul\":4035:4204   */\n    tag_397:\n        /* \"#utility.yul\":4119:4130   */\n      0x00\n        /* \"#utility.yul\":4153:4159   */\n      dup3\n        /* \"#utility.yul\":4148:4151   */\n      dup3\n        /* \"#utility.yul\":4141:4160   */\n      mstore\n        /* \"#utility.yul\":4193:4197   */\n      0x20\n        /* \"#utility.yul\":4188:4191   */\n      dup3\n        /* \"#utility.yul\":4184:4198   */\n      add\n        /* \"#utility.yul\":4169:4198   */\n      swap1\n      pop\n        /* \"#utility.yul\":4035:4204   */\n      swap3\n      swap2\n      pop\n      pop\n      jump\t// out\n        /* \"#utility.yul\":4210:4456   */\n    tag_398:\n        /* \"#utility.yul\":4291:4292   */\n      0x00\n        /* \"#utility.yul\":4301:4414   */\n    tag_488:\n        /* \"#utility.yul\":4315:4321   */\n      dup4\n        /* \"#utility.yul\":4312:4313   */\n      dup2\n        /* \"#utility.yul\":4309:4322   */\n      lt\n        /* \"#utility.yul\":4301:4414   */\n      iszero\n      tag_490\n      jumpi\n        /* \"#utility.yul\":4400:4401   */\n      dup1\n        /* \"#utility.yul\":4395:4398   */\n      dup3\n        /* \"#utility.yul\":4391:4402   */\n      add\n        /* \"#utility.yul\":4385:4403   */\n      mload\n        /* \"#utility.yul\":4381:4382   */\n      dup2\n        /* \"#utility.yul\":4376:4379   */\n      dup5\n        /* \"#utility.yul\":4372:4383   */\n      add\n        /* \"#utility.yul\":4365:4404   */\n      mstore\n        /* \"#utility.yul\":4337:4339   */\n      0x20\n        /* \"#utility.yul\":4334:4335   */\n      dup2\n        /* \"#utility.yul\":4330:4340   */\n      add\n        /* \"#utility.yul\":4325:4340   */\n      swap1\n      pop\n        /* \"#utility.yul\":4301:4414   */\n      jump(tag_488)\n    tag_490:\n        /* \"#utility.yul\":4448:4449   */\n      0x00\n        /* \"#utility.yul\":4439:4445   */\n      dup5\n        /* \"#utility.yul\":4434:4437   */\n      dup5\n        /* \"#utility.yul\":4430:4446   */\n      add\n        /* \"#utility.yul\":4423:4450   */\n      mstore\n        /* \"#utility.yul\":4272:4456   */\n      pop\n        /* \"#utility.yul\":4210:4456   */\n      pop\n      pop\n      pop\n      jump\t// out\n        /* \"#utility.yul\":4462:4839   */\n    tag_399:\n        /* \"#utility.yul\":4550:4553   */\n      0x00\n        /* \"#utility.yul\":4578:4617   */\n      tag_492\n        /* \"#utility.yul\":4611:4616   */\n      dup3\n        /* \"#utility.yul\":4578:4617   */\n      tag_396\n      jump\t// in\n    tag_492:\n        /* \"#utility.yul\":4633:4704   */\n      tag_493\n        /* \"#utility.yul\":4697:4703   */\n      dup2\n        /* \"#utility.yul\":4692:4695   */\n      dup6\n        /* \"#utility.yul\":4633:4704   */\n      tag_397\n      jump\t// in\n    tag_493:\n        /* \"#utility.yul\":4626:4704   */\n      swap4\n      pop\n        /* \"#utility.yul\":4713:4778   */\n      tag_494\n        /* \"#utility.yul\":4771:4777   */\n      dup2\n        /* \"#utility.yul\":4766:4769   */\n      dup6\n        /* \"#utility.yul\":4759:4763   */\n      0x20\n        /* \"#utility.yul\":4752:4757   */\n      dup7\n        /* \"#utility.yul\":4748:4764   */\n      add\n        /* \"#utility.yul\":4713:4778   */\n      tag_398\n      jump\t// in\n    tag_494:\n        /* \"#utility.yul\":4803:4832   */\n      tag_495\n        /* \"#utility.yul\":4825:4831   */\n      dup2\n        /* \"#utility.yul\":4803:4832   */\n      tag_388\n      jump\t// in\n    tag_495:\n        /* \"#utility.yul\":4798:4801   */\n      dup5\n        /* \"#utility.yul\":4794:4833   */\n      add\n        /* \"#utility.yul\":4787:4833   */\n      swap2\n      pop\n        /* \"#utility.yul\":4554:4839   */\n      pop\n        /* \"#utility.yul\":4462:4839   */\n      swap3\n      swap2\n      pop\n      pop\n      jump\t// out\n        /* \"#utility.yul\":4845:5158   */\n    tag_43:\n        /* \"#utility.yul\":4958:4962   */\n      0x00\n        /* \"#utility.yul\":4996:4998   */\n      0x20\n        /* \"#utility.yul\":4985:4994   */\n      dup3\n        /* \"#utility.yul\":4981:4999   */\n      add\n        /* \"#utility.yul\":4973:4999   */\n      swap1\n      pop\n        /* \"#utility.yul\":5045:5054   */\n      dup2\n        /* \"#utility.yul\":5039:5043   */\n      dup2\n        /* \"#utility.yul\":5035:5055   */\n      sub\n        /* \"#utility.yul\":5031:5032   */\n      0x00\n        /* \"#utility.yul\":5020:5029   */\n      dup4\n        /* \"#utility.yul\":5016:5033   */\n      add\n        /* \"#utility.yul\":5009:5056   */\n      mstore\n        /* \"#utility.yul\":5073:5151   */\n      tag_497\n        /* \"#utility.yul\":5146:5150   */\n      dup2\n        /* \"#utility.yul\":5137:5143   */\n      dup5\n        /* \"#utility.yul\":5073:5151   */\n      tag_399\n      jump\t// in\n    tag_497:\n        /* \"#utility.yul\":5065:5151   */\n      swap1\n      pop\n        /* \"#utility.yul\":4845:5158   */\n      swap3\n      swap2\n      pop\n      pop\n      jump\t// out\n        /* \"#utility.yul\":5164:5241   */\n    tag_400:\n        /* \"#utility.yul\":5201:5208   */\n      0x00\n        /* \"#utility.yul\":5230:5235   */\n      dup2\n        /* \"#utility.yul\":5219:5235   */\n      swap1\n      pop\n        /* \"#utility.yul\":5164:5241   */\n      swap2\n      swap1\n      pop\n      jump\t// out\n        /* \"#utility.yul\":5247:5369   */\n    tag_401:\n        /* \"#utility.yul\":5320:5344   */\n      tag_500\n        /* \"#utility.yul\":5338:5343   */\n      dup2\n        /* \"#utility.yul\":5320:5344   */\n      tag_400\n      jump\t// in\n    tag_500:\n        /* \"#utility.yul\":5313:5318   */\n      dup2\n        /* \"#utility.yul\":5310:5345   */\n      eq\n        /* \"#utility.yul\":5300:5363   */\n      tag_501\n      jumpi\n        /* \"#utility.yul\":5359:5360   */\n      0x00\n        /* \"#utility.yul\":5356:5357   */\n      dup1\n        /* \"#utility.yul\":5349:5361   */\n      revert\n        /* \"#utility.yul\":5300:5363   */\n    tag_501:\n        /* \"#utility.yul\":5247:5369   */\n      pop\n      jump\t// out\n        /* \"#utility.yul\":5375:5514   */\n    tag_402:\n        /* \"#utility.yul\":5421:5426   */\n      0x00\n        /* \"#utility.yul\":5459:5465   */\n      dup2\n        /* \"#utility.yul\":5446:5466   */\n      calldataload\n        /* \"#utility.yul\":5437:5466   */\n      swap1\n      pop\n        /* \"#utility.yul\":5475:5508   */\n      tag_503\n        /* \"#utility.yul\":5502:5507   */\n      dup2\n        /* \"#utility.yul\":5475:5508   */\n      tag_401\n      jump\t// in\n    tag_503:\n        /* \"#utility.yul\":5375:5514   */\n      swap3\n      swap2\n      pop\n      pop\n      jump\t// out\n        /* \"#utility.yul\":5520:5994   */\n    tag_46:\n        /* \"#utility.yul\":5588:5594   */\n      0x00\n        /* \"#utility.yul\":5596:5602   */\n      dup1\n        /* \"#utility.yul\":5645:5647   */\n      0x40\n        /* \"#utility.yul\":5633:5642   */\n      dup4\n        /* \"#utility.yul\":5624:5631   */\n      dup6\n        /* \"#utility.yul\":5620:5643   */\n      sub\n        /* \"#utility.yul\":5616:5648   */\n      slt\n        /* \"#utility.yul\":5613:5732   */\n      iszero\n      tag_505\n      jumpi\n        /* \"#utility.yul\":5651:5730   */\n      tag_506\n      tag_382\n      jump\t// in\n    tag_506:\n        /* \"#utility.yul\":5613:5732   */\n    tag_505:\n        /* \"#utility.yul\":5771:5772   */\n      0x00\n        /* \"#utility.yul\":5796:5849   */\n      tag_507\n        /* \"#utility.yul\":5841:5848   */\n      dup6\n        /* \"#utility.yul\":5832:5838   */\n      dup3\n        /* \"#utility.yul\":5821:5830   */\n      dup7\n        /* \"#utility.yul\":5817:5839   */\n      add\n        /* \"#utility.yul\":5796:5849   */\n      tag_386\n      jump\t// in\n    tag_507:\n        /* \"#utility.yul\":5786:5849   */\n      swap3\n      pop\n        /* \"#utility.yul\":5742:5859   */\n      pop\n        /* \"#utility.yul\":5898:5900   */\n      0x20\n        /* \"#utility.yul\":5924:5977   */\n      tag_508\n        /* \"#utility.yul\":5969:5976   */\n      dup6\n        /* \"#utility.yul\":5960:5966   */\n      dup3\n        /* \"#utility.yul\":5949:5958   */\n      dup7\n        /* \"#utility.yul\":5945:5967   */\n      add\n        /* \"#utility.yul\":5924:5977   */\n      tag_402\n      jump\t// in\n    tag_508:\n        /* \"#utility.yul\":5914:5977   */\n      swap2\n      pop\n        /* \"#utility.yul\":5869:5987   */\n      pop\n        /* \"#utility.yul\":5520:5994   */\n      swap3\n      pop\n      swap3\n      swap1\n      pop\n      jump\t// out\n        /* \"#utility.yul\":6000:6126   */\n    tag_403:\n        /* \"#utility.yul\":6037:6044   */\n      0x00\n        /* \"#utility.yul\":6077:6119   */\n      0xffffffffffffffffffffffffffffffffffffffff\n        /* \"#utility.yul\":6070:6075   */\n      dup3\n        /* \"#utility.yul\":6066:6120   */\n      and\n        /* \"#utility.yul\":6055:6120   */\n      swap1\n      pop\n        /* \"#utility.yul\":6000:6126   */\n      swap2\n      swap1\n      pop\n      jump\t// out\n        /* \"#utility.yul\":6132:6228   */\n    tag_404:\n        /* \"#utility.yul\":6169:6176   */\n      0x00\n        /* \"#utility.yul\":6198:6222   */\n      tag_511\n        /* \"#utility.yul\":6216:6221   */\n      dup3\n        /* \"#utility.yul\":6198:6222   */\n      tag_403\n      jump\t// in\n    tag_511:\n        /* \"#utility.yul\":6187:6222   */\n      swap1\n      pop\n        /* \"#utility.yul\":6132:6228   */\n      swap2\n      swap1\n      pop\n      jump\t// out\n        /* \"#utility.yul\":6234:6352   */\n    tag_405:\n        /* \"#utility.yul\":6321:6345   */\n      tag_513\n        /* \"#utility.yul\":6339:6344   */\n      dup2\n        /* \"#utility.yul\":6321:6345   */\n      tag_404\n      jump\t// in\n    tag_513:\n        /* \"#utility.yul\":6316:6319   */\n      dup3\n        /* \"#utility.yul\":6309:6346   */\n      mstore\n        /* \"#utility.yul\":6234:6352   */\n      pop\n      pop\n      jump\t// out\n        /* \"#utility.yul\":6358:6580   */\n    tag_52:\n        /* \"#utility.yul\":6451:6455   */\n      0x00\n        /* \"#utility.yul\":6489:6491   */\n      0x20\n        /* \"#utility.yul\":6478:6487   */\n      dup3\n        /* \"#utility.yul\":6474:6492   */\n      add\n        /* \"#utility.yul\":6466:6492   */\n      swap1\n      pop\n        /* \"#utility.yul\":6502:6573   */\n      tag_515\n        /* \"#utility.yul\":6570:6571   */\n      0x00\n        /* \"#utility.yul\":6559:6568   */\n      dup4\n        /* \"#utility.yul\":6555:6572   */\n      add\n        /* \"#utility.yul\":6546:6552   */\n      dup5\n        /* \"#utility.yul\":6502:6573   */\n      tag_405\n      jump\t// in\n    tag_515:\n        /* \"#utility.yul\":6358:6580   */\n      swap3\n      swap2\n      pop\n      pop\n      jump\t// out\n        /* \"#utility.yul\":6586:6704   */\n    tag_406:\n        /* \"#utility.yul\":6673:6697   */\n      tag_517\n        /* \"#utility.yul\":6691:6696   */\n      dup2\n        /* \"#utility.yul\":6673:6697   */\n      tag_384\n      jump\t// in\n    tag_517:\n        /* \"#utility.yul\":6668:6671   */\n      dup3\n        /* \"#utility.yul\":6661:6698   */\n      mstore\n        /* \"#utility.yul\":6586:6704   */\n      pop\n      pop\n      jump\t// out\n        /* \"#utility.yul\":6710:6932   */\n    tag_57:\n        /* \"#utility.yul\":6803:6807   */\n      0x00\n        /* \"#utility.yul\":6841:6843   */\n      0x20\n        /* \"#utility.yul\":6830:6839   */\n      dup3\n        /* \"#utility.yul\":6826:6844   */\n      add\n        /* \"#utility.yul\":6818:6844   */\n      swap1\n      pop\n        /* \"#utility.yul\":6854:6925   */\n      tag_519\n        /* \"#utility.yul\":6922:6923   */\n      0x00\n        /* \"#utility.yul\":6911:6920   */\n      dup4\n        /* \"#utility.yul\":6907:6924   */\n      add\n        /* \"#utility.yul\":6898:6904   */\n      dup5\n        /* \"#utility.yul\":6854:6925   */\n      tag_406\n      jump\t// in\n    tag_519:\n        /* \"#utility.yul\":6710:6932   */\n      swap3\n      swap2\n      pop\n      pop\n      jump\t// out\n        /* \"#utility.yul\":6938:7412   */\n    tag_68:\n        /* \"#utility.yul\":7006:7012   */\n      0x00\n        /* \"#utility.yul\":7014:7020   */\n      dup1\n        /* \"#utility.yul\":7063:7065   */\n      0x40\n        /* \"#utility.yul\":7051:7060   */\n      dup4\n        /* \"#utility.yul\":7042:7049   */\n      dup6\n        /* \"#utility.yul\":7038:7061   */\n      sub\n        /* \"#utility.yul\":7034:7066   */\n      slt\n        /* \"#utility.yul\":7031:7150   */\n      iszero\n      tag_521\n      jumpi\n        /* \"#utility.yul\":7069:7148   */\n      tag_522\n      tag_382\n      jump\t// in\n    tag_522:\n        /* \"#utility.yul\":7031:7150   */\n    tag_521:\n        /* \"#utility.yul\":7189:7190   */\n      0x00\n        /* \"#utility.yul\":7214:7267   */\n      tag_523\n        /* \"#utility.yul\":7259:7266   */\n      dup6\n        /* \"#utility.yul\":7250:7256   */\n      dup3\n        /* \"#utility.yul\":7239:7248   */\n      dup7\n        /* \"#utility.yul\":7235:7257   */\n      add\n        /* \"#utility.yul\":7214:7267   */\n      tag_402\n      jump\t// in\n    tag_523:\n        /* \"#utility.yul\":7204:7267   */\n      swap3\n      pop\n        /* \"#utility.yul\":7160:7277   */\n      pop\n        /* \"#utility.yul\":7316:7318   */\n      0x20\n        /* \"#utility.yul\":7342:7395   */\n      tag_524\n        /* \"#utility.yul\":7387:7394   */\n      dup6\n        /* \"#utility.yul\":7378:7384   */\n      dup3\n        /* \"#utility.yul\":7367:7376   */\n      dup7\n        /* \"#utility.yul\":7363:7385   */\n      add\n        /* \"#utility.yul\":7342:7395   */\n      tag_386\n      jump\t// in\n    tag_524:\n        /* \"#utility.yul\":7332:7395   */\n      swap2\n      pop\n        /* \"#utility.yul\":7287:7405   */\n      pop\n        /* \"#utility.yul\":6938:7412   */\n      swap3\n      pop\n      swap3\n      swap1\n      pop\n      jump\t// out\n        /* \"#utility.yul\":7418:7535   */\n    tag_407:\n        /* \"#utility.yul\":7527:7528   */\n      0x00\n        /* \"#utility.yul\":7524:7525   */\n      dup1\n        /* \"#utility.yul\":7517:7529   */\n      revert\n        /* \"#utility.yul\":7541:7849   */\n    tag_408:\n        /* \"#utility.yul\":7603:7607   */\n      0x00\n        /* \"#utility.yul\":7693:7711   */\n      0xffffffffffffffff\n        /* \"#utility.yul\":7685:7691   */\n      dup3\n        /* \"#utility.yul\":7682:7712   */\n      gt\n        /* \"#utility.yul\":7679:7735   */\n      iszero\n      tag_527\n      jumpi\n        /* \"#utility.yul\":7715:7733   */\n      tag_528\n      tag_389\n      jump\t// in\n    tag_528:\n        /* \"#utility.yul\":7679:7735   */\n    tag_527:\n        /* \"#utility.yul\":7753:7782   */\n      tag_529\n        /* \"#utility.yul\":7775:7781   */\n      dup3\n        /* \"#utility.yul\":7753:7782   */\n      tag_388\n      jump\t// in\n    tag_529:\n        /* \"#utility.yul\":7745:7782   */\n      swap1\n      pop\n        /* \"#utility.yul\":7837:7841   */\n      0x20\n        /* \"#utility.yul\":7831:7835   */\n      dup2\n        /* \"#utility.yul\":7827:7842   */\n      add\n        /* \"#utility.yul\":7819:7842   */\n      swap1\n      pop\n        /* \"#utility.yul\":7541:7849   */\n      swap2\n      swap1\n      pop\n      jump\t// out\n        /* \"#utility.yul\":7855:8001   */\n    tag_409:\n        /* \"#utility.yul\":7952:7958   */\n      dup3\n        /* \"#utility.yul\":7947:7950   */\n      dup2\n        /* \"#utility.yul\":7942:7945   */\n      dup4\n        /* \"#utility.yul\":7929:7959   */\n      calldatacopy\n        /* \"#utility.yul\":7993:7994   */\n      0x00\n        /* \"#utility.yul\":7984:7990   */\n      dup4\n        /* \"#utility.yul\":7979:7982   */\n      dup4\n        /* \"#utility.yul\":7975:7991   */\n      add\n        /* \"#utility.yul\":7968:7995   */\n      mstore\n        /* \"#utility.yul\":7855:8001   */\n      pop\n      pop\n      pop\n      jump\t// out\n        /* \"#utility.yul\":8007:8432   */\n    tag_410:\n        /* \"#utility.yul\":8085:8090   */\n      0x00\n        /* \"#utility.yul\":8110:8176   */\n      tag_532\n        /* \"#utility.yul\":8126:8175   */\n      tag_533\n        /* \"#utility.yul\":8168:8174   */\n      dup5\n        /* \"#utility.yul\":8126:8175   */\n      tag_408\n      jump\t// in\n    tag_533:\n        /* \"#utility.yul\":8110:8176   */\n      tag_391\n      jump\t// in\n    tag_532:\n        /* \"#utility.yul\":8101:8176   */\n      swap1\n      pop\n        /* \"#utility.yul\":8199:8205   */\n      dup3\n        /* \"#utility.yul\":8192:8197   */\n      dup2\n        /* \"#utility.yul\":8185:8206   */\n      mstore\n        /* \"#utility.yul\":8237:8241   */\n      0x20\n        /* \"#utility.yul\":8230:8235   */\n      dup2\n        /* \"#utility.yul\":8226:8242   */\n      add\n        /* \"#utility.yul\":8275:8278   */\n      dup5\n        /* \"#utility.yul\":8266:8272   */\n      dup5\n        /* \"#utility.yul\":8261:8264   */\n      dup5\n        /* \"#utility.yul\":8257:8273   */\n      add\n        /* \"#utility.yul\":8254:8279   */\n      gt\n        /* \"#utility.yul\":8251:8363   */\n      iszero\n      tag_534\n      jumpi\n        /* \"#utility.yul\":8282:8361   */\n      tag_535\n      tag_407\n      jump\t// in\n    tag_535:\n        /* \"#utility.yul\":8251:8363   */\n    tag_534:\n        /* \"#utility.yul\":8372:8426   */\n      tag_536\n        /* \"#utility.yul\":8419:8425   */\n      dup5\n        /* \"#utility.yul\":8414:8417   */\n      dup3\n        /* \"#utility.yul\":8409:8412   */\n      dup6\n        /* \"#utility.yul\":8372:8426   */\n      tag_409\n      jump\t// in\n    tag_536:\n        /* \"#utility.yul\":8091:8432   */\n      pop\n        /* \"#utility.yul\":8007:8432   */\n      swap4\n      swap3\n      pop\n      pop\n      pop\n      jump\t// out\n        /* \"#utility.yul\":8452:8792   */\n    tag_411:\n        /* \"#utility.yul\":8508:8513   */\n      0x00\n        /* \"#utility.yul\":8557:8560   */\n      dup3\n        /* \"#utility.yul\":8550:8554   */\n      0x1f\n        /* \"#utility.yul\":8542:8548   */\n      dup4\n        /* \"#utility.yul\":8538:8555   */\n      add\n        /* \"#utility.yul\":8534:8561   */\n      slt\n        /* \"#utility.yul\":8524:8646   */\n      tag_538\n      jumpi\n        /* \"#utility.yul\":8565:8644   */\n      tag_539\n      tag_387\n      jump\t// in\n    tag_539:\n        /* \"#utility.yul\":8524:8646   */\n    tag_538:\n        /* \"#utility.yul\":8682:8688   */\n      dup2\n        /* \"#utility.yul\":8669:8689   */\n      calldataload\n        /* \"#utility.yul\":8707:8786   */\n      tag_540\n        /* \"#utility.yul\":8782:8785   */\n      dup5\n        /* \"#utility.yul\":8774:8780   */\n      dup3\n        /* \"#utility.yul\":8767:8771   */\n      0x20\n        /* \"#utility.yul\":8759:8765   */\n      dup7\n        /* \"#utility.yul\":8755:8772   */\n      add\n        /* \"#utility.yul\":8707:8786   */\n      tag_410\n      jump\t// in\n    tag_540:\n        /* \"#utility.yul\":8698:8786   */\n      swap2\n      pop\n        /* \"#utility.yul\":8514:8792   */\n      pop\n        /* \"#utility.yul\":8452:8792   */\n      swap3\n      swap2\n      pop\n      pop\n      jump\t// out\n        /* \"#utility.yul\":8798:9307   */\n    tag_73:\n        /* \"#utility.yul\":8867:8873   */\n      0x00\n        /* \"#utility.yul\":8916:8918   */\n      0x20\n        /* \"#utility.yul\":8904:8913   */\n      dup3\n        /* \"#utility.yul\":8895:8902   */\n      dup5\n        /* \"#utility.yul\":8891:8914   */\n      sub\n        /* \"#utility.yul\":8887:8919   */\n      slt\n        /* \"#utility.yul\":8884:9003   */\n      iszero\n      tag_542\n      jumpi\n        /* \"#utility.yul\":8922:9001   */\n      tag_543\n      tag_382\n      jump\t// in\n    tag_543:\n        /* \"#utility.yul\":8884:9003   */\n    tag_542:\n        /* \"#utility.yul\":9070:9071   */\n      0x00\n        /* \"#utility.yul\":9059:9068   */\n      dup3\n        /* \"#utility.yul\":9055:9072   */\n      add\n        /* \"#utility.yul\":9042:9073   */\n      calldataload\n        /* \"#utility.yul\":9100:9118   */\n      0xffffffffffffffff\n        /* \"#utility.yul\":9092:9098   */\n      dup2\n        /* \"#utility.yul\":9089:9119   */\n      gt\n        /* \"#utility.yul\":9086:9203   */\n      iszero\n      tag_544\n      jumpi\n        /* \"#utility.yul\":9122:9201   */\n      tag_545\n      tag_383\n      jump\t// in\n    tag_545:\n        /* \"#utility.yul\":9086:9203   */\n    tag_544:\n        /* \"#utility.yul\":9227:9290   */\n      tag_546\n        /* \"#utility.yul\":9282:9289   */\n      dup5\n        /* \"#utility.yul\":9273:9279   */\n      dup3\n        /* \"#utility.yul\":9262:9271   */\n      dup6\n        /* \"#utility.yul\":9258:9280   */\n      add\n        /* \"#utility.yul\":9227:9290   */\n      tag_411\n      jump\t// in\n    tag_546:\n        /* \"#utility.yul\":9217:9290   */\n      swap2\n      pop\n        /* \"#utility.yul\":9013:9300   */\n      pop\n        /* \"#utility.yul\":8798:9307   */\n      swap3\n      swap2\n      pop\n      pop\n      jump\t// out\n        /* \"#utility.yul\":9313:9642   */\n    tag_82:\n        /* \"#utility.yul\":9372:9378   */\n      0x00\n        /* \"#utility.yul\":9421:9423   */\n      0x20\n        /* \"#utility.yul\":9409:9418   */\n      dup3\n        /* \"#utility.yul\":9400:9407   */\n      dup5\n        /* \"#utility.yul\":9396:9419   */\n      sub\n        /* \"#utility.yul\":9392:9424   */\n      slt\n        /* \"#utility.yul\":9389:9508   */\n      iszero\n      tag_548\n      jumpi\n        /* \"#utility.yul\":9427:9506   */\n      tag_549\n      tag_382\n      jump\t// in\n    tag_549:\n        /* \"#utility.yul\":9389:9508   */\n    tag_548:\n        /* \"#utility.yul\":9547:9548   */\n      0x00\n        /* \"#utility.yul\":9572:9625   */\n      tag_550\n        /* \"#utility.yul\":9617:9624   */\n      dup5\n        /* \"#utility.yul\":9608:9614   */\n      dup3\n        /* \"#utility.yul\":9597:9606   */\n      dup6\n        /* \"#utility.yul\":9593:9615   */\n      add\n        /* \"#utility.yul\":9572:9625   */\n      tag_386\n      jump\t// in\n    tag_550:\n        /* \"#utility.yul\":9562:9625   */\n      swap2\n      pop\n        /* \"#utility.yul\":9518:9635   */\n      pop\n        /* \"#utility.yul\":9313:9642   */\n      swap3\n      swap2\n      pop\n      pop\n      jump\t// out\n        /* \"#utility.yul\":9648:10122   */\n    tag_91:\n        /* \"#utility.yul\":9716:9722   */\n      0x00\n        /* \"#utility.yul\":9724:9730   */\n      dup1\n        /* \"#utility.yul\":9773:9775   */\n      0x40\n        /* \"#utility.yul\":9761:9770   */\n      dup4\n        /* \"#utility.yul\":9752:9759   */\n      dup6\n        /* \"#utility.yul\":9748:9771   */\n      sub\n        /* \"#utility.yul\":9744:9776   */\n      slt\n        /* \"#utility.yul\":9741:9860   */\n      iszero\n      tag_552\n      jumpi\n        /* \"#utility.yul\":9779:9858   */\n      tag_553\n      tag_382\n      jump\t// in\n    tag_553:\n        /* \"#utility.yul\":9741:9860   */\n    tag_552:\n        /* \"#utility.yul\":9899:9900   */\n      0x00\n        /* \"#utility.yul\":9924:9977   */\n      tag_554\n        /* \"#utility.yul\":9969:9976   */\n      dup6\n        /* \"#utility.yul\":9960:9966   */\n      dup3\n        /* \"#utility.yul\":9949:9958   */\n      dup7\n        /* \"#utility.yul\":9945:9967   */\n      add\n        /* \"#utility.yul\":9924:9977   */\n      tag_386\n      jump\t// in\n    tag_554:\n        /* \"#utility.yul\":9914:9977   */\n      swap3\n      pop\n        /* \"#utility.yul\":9870:9987   */\n      pop\n        /* \"#utility.yul\":10026:10028   */\n      0x20\n        /* \"#utility.yul\":10052:10105   */\n      tag_555\n        /* \"#utility.yul\":10097:10104   */\n      dup6\n        /* \"#utility.yul\":10088:10094   */\n      dup3\n        /* \"#utility.yul\":10077:10086   */\n      dup7\n        /* \"#utility.yul\":10073:10095   */\n      add\n        /* \"#utility.yul\":10052:10105   */\n      tag_386\n      jump\t// in\n    tag_555:\n        /* \"#utility.yul\":10042:10105   */\n      swap2\n      pop\n        /* \"#utility.yul\":9997:10115   */\n      pop\n        /* \"#utility.yul\":9648:10122   */\n      swap3\n      pop\n      swap3\n      swap1\n      pop\n      jump\t// out\n        /* \"#utility.yul\":10128:10246   */\n    tag_412:\n        /* \"#utility.yul\":10215:10239   */\n      tag_557\n        /* \"#utility.yul\":10233:10238   */\n      dup2\n        /* \"#utility.yul\":10215:10239   */\n      tag_400\n      jump\t// in\n    tag_557:\n        /* \"#utility.yul\":10210:10213   */\n      dup3\n        /* \"#utility.yul\":10203:10240   */\n      mstore\n        /* \"#utility.yul\":10128:10246   */\n      pop\n      pop\n      jump\t// out\n        /* \"#utility.yul\":10252:10474   */\n    tag_103:\n        /* \"#utility.yul\":10345:10349   */\n      0x00\n        /* \"#utility.yul\":10383:10385   */\n      0x20\n        /* \"#utility.yul\":10372:10381   */\n      dup3\n        /* \"#utility.yul\":10368:10386   */\n      add\n        /* \"#utility.yul\":10360:10386   */\n      swap1\n      pop\n        /* \"#utility.yul\":10396:10467   */\n      tag_559\n        /* \"#utility.yul\":10464:10465   */\n      0x00\n        /* \"#utility.yul\":10453:10462   */\n      dup4\n        /* \"#utility.yul\":10449:10466   */\n      add\n        /* \"#utility.yul\":10440:10446   */\n      dup5\n        /* \"#utility.yul\":10396:10467   */\n      tag_412\n      jump\t// in\n    tag_559:\n        /* \"#utility.yul\":10252:10474   */\n      swap3\n      swap2\n      pop\n      pop\n      jump\t// out\n        /* \"#utility.yul\":10480:11747   */\n    tag_107:\n        /* \"#utility.yul\":10609:10615   */\n      0x00\n        /* \"#utility.yul\":10617:10623   */\n      dup1\n        /* \"#utility.yul\":10625:10631   */\n      0x00\n        /* \"#utility.yul\":10633:10639   */\n      dup1\n        /* \"#utility.yul\":10641:10647   */\n      0x00\n        /* \"#utility.yul\":10649:10655   */\n      dup1\n        /* \"#utility.yul\":10698:10701   */\n      0xc0\n        /* \"#utility.yul\":10686:10695   */\n      dup8\n        /* \"#utility.yul\":10677:10684   */\n      dup10\n        /* \"#utility.yul\":10673:10696   */\n      sub\n        /* \"#utility.yul\":10669:10702   */\n      slt\n        /* \"#utility.yul\":10666:10786   */\n      iszero\n      tag_561\n      jumpi\n        /* \"#utility.yul\":10705:10784   */\n      tag_562\n      tag_382\n      jump\t// in\n    tag_562:\n        /* \"#utility.yul\":10666:10786   */\n    tag_561:\n        /* \"#utility.yul\":10825:10826   */\n      0x00\n        /* \"#utility.yul\":10850:10903   */\n      tag_563\n        /* \"#utility.yul\":10895:10902   */\n      dup10\n        /* \"#utility.yul\":10886:10892   */\n      dup3\n        /* \"#utility.yul\":10875:10884   */\n      dup11\n        /* \"#utility.yul\":10871:10893   */\n      add\n        /* \"#utility.yul\":10850:10903   */\n      tag_386\n      jump\t// in\n    tag_563:\n        /* \"#utility.yul\":10840:10903   */\n      swap7\n      pop\n        /* \"#utility.yul\":10796:10913   */\n      pop\n        /* \"#utility.yul\":10952:10954   */\n      0x20\n        /* \"#utility.yul\":10978:11031   */\n      tag_564\n        /* \"#utility.yul\":11023:11030   */\n      dup10\n        /* \"#utility.yul\":11014:11020   */\n      dup3\n        /* \"#utility.yul\":11003:11012   */\n      dup11\n        /* \"#utility.yul\":10999:11021   */\n      add\n        /* \"#utility.yul\":10978:11031   */\n      tag_386\n      jump\t// in\n    tag_564:\n        /* \"#utility.yul\":10968:11031   */\n      swap6\n      pop\n        /* \"#utility.yul\":10923:11041   */\n      pop\n        /* \"#utility.yul\":11080:11082   */\n      0x40\n        /* \"#utility.yul\":11106:11159   */\n      tag_565\n        /* \"#utility.yul\":11151:11158   */\n      dup10\n        /* \"#utility.yul\":11142:11148   */\n      dup3\n        /* \"#utility.yul\":11131:11140   */\n      dup11\n        /* \"#utility.yul\":11127:11149   */\n      add\n        /* \"#utility.yul\":11106:11159   */\n      tag_386\n      jump\t// in\n    tag_565:\n        /* \"#utility.yul\":11096:11159   */\n      swap5\n      pop\n        /* \"#utility.yul\":11051:11169   */\n      pop\n        /* \"#utility.yul\":11208:11210   */\n      0x60\n        /* \"#utility.yul\":11234:11287   */\n      tag_566\n        /* \"#utility.yul\":11279:11286   */\n      dup10\n        /* \"#utility.yul\":11270:11276   */\n      dup3\n        /* \"#utility.yul\":11259:11268   */\n      dup11\n        /* \"#utility.yul\":11255:11277   */\n      add\n        /* \"#utility.yul\":11234:11287   */\n      tag_386\n      jump\t// in\n    tag_566:\n        /* \"#utility.yul\":11224:11287   */\n      swap4\n      pop\n        /* \"#utility.yul\":11179:11297   */\n      pop\n        /* \"#utility.yul\":11336:11339   */\n      0x80\n        /* \"#utility.yul\":11363:11416   */\n      tag_567\n        /* \"#utility.yul\":11408:11415   */\n      dup10\n        /* \"#utility.yul\":11399:11405   */\n      dup3\n        /* \"#utility.yul\":11388:11397   */\n      dup11\n        /* \"#utility.yul\":11384:11406   */\n      add\n        /* \"#utility.yul\":11363:11416   */\n      tag_402\n      jump\t// in\n    tag_567:\n        /* \"#utility.yul\":11353:11416   */\n      swap3\n      pop\n        /* \"#utility.yul\":11307:11426   */\n      pop\n        /* \"#utility.yul\":11493:11496   */\n      0xa0\n        /* \"#utility.yul\":11482:11491   */\n      dup8\n        /* \"#utility.yul\":11478:11497   */\n      add\n        /* \"#utility.yul\":11465:11498   */\n      calldataload\n        /* \"#utility.yul\":11525:11543   */\n      0xffffffffffffffff\n        /* \"#utility.yul\":11517:11523   */\n      dup2\n        /* \"#utility.yul\":11514:11544   */\n      gt\n        /* \"#utility.yul\":11511:11628   */\n      iszero\n      tag_568\n      jumpi\n        /* \"#utility.yul\":11547:11626   */\n      tag_569\n      tag_383\n      jump\t// in\n    tag_569:\n        /* \"#utility.yul\":11511:11628   */\n    tag_568:\n        /* \"#utility.yul\":11652:11730   */\n      tag_570\n        /* \"#utility.yul\":11722:11729   */\n      dup10\n        /* \"#utility.yul\":11713:11719   */\n      dup3\n        /* \"#utility.yul\":11702:11711   */\n      dup11\n        /* \"#utility.yul\":11698:11720   */\n      add\n        /* \"#utility.yul\":11652:11730   */\n      tag_395\n      jump\t// in\n    tag_570:\n        /* \"#utility.yul\":11642:11730   */\n      swap2\n      pop\n        /* \"#utility.yul\":11436:11740   */\n      pop\n        /* \"#utility.yul\":10480:11747   */\n      swap3\n      swap6\n      pop\n      swap3\n      swap6\n      pop\n      swap3\n      swap6\n      jump\t// out\n        /* \"#utility.yul\":11753:12372   */\n    tag_124:\n        /* \"#utility.yul\":11830:11836   */\n      0x00\n        /* \"#utility.yul\":11838:11844   */\n      dup1\n        /* \"#utility.yul\":11846:11852   */\n      0x00\n        /* \"#utility.yul\":11895:11897   */\n      0x60\n        /* \"#utility.yul\":11883:11892   */\n      dup5\n        /* \"#utility.yul\":11874:11881   */\n      dup7\n        /* \"#utility.yul\":11870:11893   */\n      sub\n        /* \"#utility.yul\":11866:11898   */\n      slt\n        /* \"#utility.yul\":11863:11982   */\n      iszero\n      tag_572\n      jumpi\n        /* \"#utility.yul\":11901:11980   */\n      tag_573\n      tag_382\n      jump\t// in\n    tag_573:\n        /* \"#utility.yul\":11863:11982   */\n    tag_572:\n        /* \"#utility.yul\":12021:12022   */\n      0x00\n        /* \"#utility.yul\":12046:12099   */\n      tag_574\n        /* \"#utility.yul\":12091:12098   */\n      dup7\n        /* \"#utility.yul\":12082:12088   */\n      dup3\n        /* \"#utility.yul\":12071:12080   */\n      dup8\n        /* \"#utility.yul\":12067:12089   */\n      add\n        /* \"#utility.yul\":12046:12099   */\n      tag_386\n      jump\t// in\n    tag_574:\n        /* \"#utility.yul\":12036:12099   */\n      swap4\n      pop\n        /* \"#utility.yul\":11992:12109   */\n      pop\n        /* \"#utility.yul\":12148:12150   */\n      0x20\n        /* \"#utility.yul\":12174:12227   */\n      tag_575\n        /* \"#utility.yul\":12219:12226   */\n      dup7\n        /* \"#utility.yul\":12210:12216   */\n      dup3\n        /* \"#utility.yul\":12199:12208   */\n      dup8\n        /* \"#utility.yul\":12195:12217   */\n      add\n        /* \"#utility.yul\":12174:12227   */\n      tag_402\n      jump\t// in\n    tag_575:\n        /* \"#utility.yul\":12164:12227   */\n      swap3\n      pop\n        /* \"#utility.yul\":12119:12237   */\n      pop\n        /* \"#utility.yul\":12276:12278   */\n      0x40\n        /* \"#utility.yul\":12302:12355   */\n      tag_576\n        /* \"#utility.yul\":12347:12354   */\n      dup7\n        /* \"#utility.yul\":12338:12344   */\n      dup3\n        /* \"#utility.yul\":12327:12336   */\n      dup8\n        /* \"#utility.yul\":12323:12345   */\n      add\n        /* \"#utility.yul\":12302:12355   */\n      tag_402\n      jump\t// in\n    tag_576:\n        /* \"#utility.yul\":12292:12355   */\n      swap2\n      pop\n        /* \"#utility.yul\":12247:12365   */\n      pop\n        /* \"#utility.yul\":11753:12372   */\n      swap3\n      pop\n      swap3\n      pop\n      swap3\n      jump\t// out\n        /* \"#utility.yul\":12378:12558   */\n    tag_193:\n        /* \"#utility.yul\":12426:12503   */\n      0x4e487b7100000000000000000000000000000000000000000000000000000000\n        /* \"#utility.yul\":12423:12424   */\n      0x00\n        /* \"#utility.yul\":12416:12504   */\n      mstore\n        /* \"#utility.yul\":12523:12527   */\n      0x21\n        /* \"#utility.yul\":12520:12521   */\n      0x04\n        /* \"#utility.yul\":12513:12528   */\n      mstore\n        /* \"#utility.yul\":12547:12551   */\n      0x24\n        /* \"#utility.yul\":12544:12545   */\n      0x00\n        /* \"#utility.yul\":12537:12552   */\n      revert\n        /* \"#utility.yul\":12564:12678   */\n    tag_413:\n        /* \"#utility.yul\":12645:12647   */\n      0x0a\n        /* \"#utility.yul\":12638:12643   */\n      dup2\n        /* \"#utility.yul\":12635:12648   */\n      lt\n        /* \"#utility.yul\":12625:12672   */\n      tag_579\n      jumpi\n        /* \"#utility.yul\":12652:12670   */\n      tag_580\n      tag_193\n      jump\t// in\n    tag_580:\n        /* \"#utility.yul\":12625:12672   */\n    tag_579:\n        /* \"#utility.yul\":12564:12678   */\n      pop\n      jump\t// out\n        /* \"#utility.yul\":12684:12811   */\n    tag_414:\n        /* \"#utility.yul\":12729:12736   */\n      0x00\n        /* \"#utility.yul\":12758:12763   */\n      dup2\n        /* \"#utility.yul\":12747:12763   */\n      swap1\n      pop\n        /* \"#utility.yul\":12764:12805   */\n      tag_582\n        /* \"#utility.yul\":12799:12804   */\n      dup3\n        /* \"#utility.yul\":12764:12805   */\n      tag_413\n      jump\t// in\n    tag_582:\n        /* \"#utility.yul\":12684:12811   */\n      swap2\n      swap1\n      pop\n      jump\t// out\n        /* \"#utility.yul\":12817:12944   */\n    tag_415:\n        /* \"#utility.yul\":12873:12882   */\n      0x00\n        /* \"#utility.yul\":12906:12938   */\n      tag_584\n        /* \"#utility.yul\":12932:12937   */\n      dup3\n        /* \"#utility.yul\":12906:12938   */\n      tag_414\n      jump\t// in\n    tag_584:\n        /* \"#utility.yul\":12893:12938   */\n      swap1\n      pop\n        /* \"#utility.yul\":12817:12944   */\n      swap2\n      swap1\n      pop\n      jump\t// out\n        /* \"#utility.yul\":12950:13093   */\n    tag_416:\n        /* \"#utility.yul\":13043:13086   */\n      tag_586\n        /* \"#utility.yul\":13080:13085   */\n      dup2\n        /* \"#utility.yul\":13043:13086   */\n      tag_415\n      jump\t// in\n    tag_586:\n        /* \"#utility.yul\":13038:13041   */\n      dup3\n        /* \"#utility.yul\":13031:13087   */\n      mstore\n        /* \"#utility.yul\":12950:13093   */\n      pop\n      pop\n      jump\t// out\n        /* \"#utility.yul\":13099:13333   */\n    tag_134:\n        /* \"#utility.yul\":13198:13202   */\n      0x00\n        /* \"#utility.yul\":13236:13238   */\n      0x20\n        /* \"#utility.yul\":13225:13234   */\n      dup3\n        /* \"#utility.yul\":13221:13239   */\n      add\n        /* \"#utility.yul\":13213:13239   */\n      swap1\n      pop\n        /* \"#utility.yul\":13249:13326   */\n      tag_588\n        /* \"#utility.yul\":13323:13324   */\n      0x00\n        /* \"#utility.yul\":13312:13321   */\n      dup4\n        /* \"#utility.yul\":13308:13325   */\n      add\n        /* \"#utility.yul\":13299:13305   */\n      dup5\n        /* \"#utility.yul\":13249:13326   */\n      tag_416\n      jump\t// in\n    tag_588:\n        /* \"#utility.yul\":13099:13333   */\n      swap3\n      swap2\n      pop\n      pop\n      jump\t// out\n        /* \"#utility.yul\":13339:13461   */\n    tag_417:\n        /* \"#utility.yul\":13412:13436   */\n      tag_590\n        /* \"#utility.yul\":13430:13435   */\n      dup2\n        /* \"#utility.yul\":13412:13436   */\n      tag_404\n      jump\t// in\n    tag_590:\n        /* \"#utility.yul\":13405:13410   */\n      dup2\n        /* \"#utility.yul\":13402:13437   */\n      eq\n        /* \"#utility.yul\":13392:13455   */\n      tag_591\n      jumpi\n        /* \"#utility.yul\":13451:13452   */\n      0x00\n        /* \"#utility.yul\":13448:13449   */\n      dup1\n        /* \"#utility.yul\":13441:13453   */\n      revert\n        /* \"#utility.yul\":13392:13455   */\n    tag_591:\n        /* \"#utility.yul\":13339:13461   */\n      pop\n      jump\t// out\n        /* \"#utility.yul\":13467:13606   */\n    tag_418:\n        /* \"#utility.yul\":13513:13518   */\n      0x00\n        /* \"#utility.yul\":13551:13557   */\n      dup2\n        /* \"#utility.yul\":13538:13558   */\n      calldataload\n        /* \"#utility.yul\":13529:13558   */\n      swap1\n      pop\n        /* \"#utility.yul\":13567:13600   */\n      tag_593\n        /* \"#utility.yul\":13594:13599   */\n      dup2\n        /* \"#utility.yul\":13567:13600   */\n      tag_417\n      jump\t// in\n    tag_593:\n        /* \"#utility.yul\":13467:13606   */\n      swap3\n      swap2\n      pop\n      pop\n      jump\t// out\n        /* \"#utility.yul\":13612:14086   */\n    tag_155:\n        /* \"#utility.yul\":13680:13686   */\n      0x00\n        /* \"#utility.yul\":13688:13694   */\n      dup1\n        /* \"#utility.yul\":13737:13739   */\n      0x40\n        /* \"#utility.yul\":13725:13734   */\n      dup4\n        /* \"#utility.yul\":13716:13723   */\n      dup6\n        /* \"#utility.yul\":13712:13735   */\n      sub\n        /* \"#utility.yul\":13708:13740   */\n      slt\n        /* \"#utility.yul\":13705:13824   */\n      iszero\n      tag_595\n      jumpi\n        /* \"#utility.yul\":13743:13822   */\n      tag_596\n      tag_382\n      jump\t// in\n    tag_596:\n        /* \"#utility.yul\":13705:13824   */\n    tag_595:\n        /* \"#utility.yul\":13863:13864   */\n      0x00\n        /* \"#utility.yul\":13888:13941   */\n      tag_597\n        /* \"#utility.yul\":13933:13940   */\n      dup6\n        /* \"#utility.yul\":13924:13930   */\n      dup3\n        /* \"#utility.yul\":13913:13922   */\n      dup7\n        /* \"#utility.yul\":13909:13931   */\n      add\n        /* \"#utility.yul\":13888:13941   */\n      tag_418\n      jump\t// in\n    tag_597:\n        /* \"#utility.yul\":13878:13941   */\n      swap3\n      pop\n        /* \"#utility.yul\":13834:13951   */\n      pop\n        /* \"#utility.yul\":13990:13992   */\n      0x20\n        /* \"#utility.yul\":14016:14069   */\n      tag_598\n        /* \"#utility.yul\":14061:14068   */\n      dup6\n        /* \"#utility.yul\":14052:14058   */\n      dup3\n        /* \"#utility.yul\":14041:14050   */\n      dup7\n        /* \"#utility.yul\":14037:14059   */\n      add\n        /* \"#utility.yul\":14016:14069   */\n      tag_418\n      jump\t// in\n    tag_598:\n        /* \"#utility.yul\":14006:14069   */\n      swap2\n      pop\n        /* \"#utility.yul\":13961:14079   */\n      pop\n        /* \"#utility.yul\":13612:14086   */\n      swap3\n      pop\n      swap3\n      swap1\n      pop\n      jump\t// out\n        /* \"#utility.yul\":14092:14190   */\n    tag_419:\n        /* \"#utility.yul\":14143:14149   */\n      0x00\n        /* \"#utility.yul\":14177:14182   */\n      dup2\n        /* \"#utility.yul\":14171:14183   */\n      mload\n        /* \"#utility.yul\":14161:14183   */\n      swap1\n      pop\n        /* \"#utility.yul\":14092:14190   */\n      swap2\n      swap1\n      pop\n      jump\t// out\n        /* \"#utility.yul\":14196:14343   */\n    tag_420:\n        /* \"#utility.yul\":14297:14308   */\n      0x00\n        /* \"#utility.yul\":14334:14337   */\n      dup2\n        /* \"#utility.yul\":14319:14337   */\n      swap1\n      pop\n        /* \"#utility.yul\":14196:14343   */\n      swap3\n      swap2\n      pop\n      pop\n      jump\t// out\n        /* \"#utility.yul\":14349:14735   */\n    tag_421:\n        /* \"#utility.yul\":14453:14456   */\n      0x00\n        /* \"#utility.yul\":14481:14519   */\n      tag_602\n        /* \"#utility.yul\":14513:14518   */\n      dup3\n        /* \"#utility.yul\":14481:14519   */\n      tag_419\n      jump\t// in\n    tag_602:\n        /* \"#utility.yul\":14535:14623   */\n      tag_603\n        /* \"#utility.yul\":14616:14622   */\n      dup2\n        /* \"#utility.yul\":14611:14614   */\n      dup6\n        /* \"#utility.yul\":14535:14623   */\n      tag_420\n      jump\t// in\n    tag_603:\n        /* \"#utility.yul\":14528:14623   */\n      swap4\n      pop\n        /* \"#utility.yul\":14632:14697   */\n      tag_604\n        /* \"#utility.yul\":14690:14696   */\n      dup2\n        /* \"#utility.yul\":14685:14688   */\n      dup6\n        /* \"#utility.yul\":14678:14682   */\n      0x20\n        /* \"#utility.yul\":14671:14676   */\n      dup7\n        /* \"#utility.yul\":14667:14683   */\n      add\n        /* \"#utility.yul\":14632:14697   */\n      tag_398\n      jump\t// in\n    tag_604:\n        /* \"#utility.yul\":14722:14728   */\n      dup1\n        /* \"#utility.yul\":14717:14720   */\n      dup5\n        /* \"#utility.yul\":14713:14729   */\n      add\n        /* \"#utility.yul\":14706:14729   */\n      swap2\n      pop\n        /* \"#utility.yul\":14457:14735   */\n      pop\n        /* \"#utility.yul\":14349:14735   */\n      swap3\n      swap2\n      pop\n      pop\n      jump\t// out\n        /* \"#utility.yul\":14741:15012   */\n    tag_169:\n        /* \"#utility.yul\":14871:14874   */\n      0x00\n        /* \"#utility.yul\":14893:14986   */\n      tag_606\n        /* \"#utility.yul\":14982:14985   */\n      dup3\n        /* \"#utility.yul\":14973:14979   */\n      dup5\n        /* \"#utility.yul\":14893:14986   */\n      tag_421\n      jump\t// in\n    tag_606:\n        /* \"#utility.yul\":14886:14986   */\n      swap2\n      pop\n        /* \"#utility.yul\":15003:15006   */\n      dup2\n        /* \"#utility.yul\":14996:15006   */\n      swap1\n      pop\n        /* \"#utility.yul\":14741:15012   */\n      swap3\n      swap2\n      pop\n      pop\n      jump\t// out\n        /* \"#utility.yul\":15018:15161   */\n    tag_422:\n        /* \"#utility.yul\":15075:15080   */\n      0x00\n        /* \"#utility.yul\":15106:15112   */\n      dup2\n        /* \"#utility.yul\":15100:15113   */\n      mload\n        /* \"#utility.yul\":15091:15113   */\n      swap1\n      pop\n        /* \"#utility.yul\":15122:15155   */\n      tag_608\n        /* \"#utility.yul\":15149:15154   */\n      dup2\n        /* \"#utility.yul\":15122:15155   */\n      tag_385\n      jump\t// in\n    tag_608:\n        /* \"#utility.yul\":15018:15161   */\n      swap3\n      swap2\n      pop\n      pop\n      jump\t// out\n        /* \"#utility.yul\":15167:15518   */\n    tag_173:\n        /* \"#utility.yul\":15237:15243   */\n      0x00\n        /* \"#utility.yul\":15286:15288   */\n      0x20\n        /* \"#utility.yul\":15274:15283   */\n      dup3\n        /* \"#utility.yul\":15265:15272   */\n      dup5\n        /* \"#utility.yul\":15261:15284   */\n      sub\n        /* \"#utility.yul\":15257:15289   */\n      slt\n        /* \"#utility.yul\":15254:15373   */\n      iszero\n      tag_610\n      jumpi\n        /* \"#utility.yul\":15292:15371   */\n      tag_611\n      tag_382\n      jump\t// in\n    tag_611:\n        /* \"#utility.yul\":15254:15373   */\n    tag_610:\n        /* \"#utility.yul\":15412:15413   */\n      0x00\n        /* \"#utility.yul\":15437:15501   */\n      tag_612\n        /* \"#utility.yul\":15493:15500   */\n      dup5\n        /* \"#utility.yul\":15484:15490   */\n      dup3\n        /* \"#utility.yul\":15473:15482   */\n      dup6\n        /* \"#utility.yul\":15469:15491   */\n      add\n        /* \"#utility.yul\":15437:15501   */\n      tag_422\n      jump\t// in\n    tag_612:\n        /* \"#utility.yul\":15427:15501   */\n      swap2\n      pop\n        /* \"#utility.yul\":15383:15511   */\n      pop\n        /* \"#utility.yul\":15167:15518   */\n      swap3\n      swap2\n      pop\n      pop\n      jump\t// out\n        /* \"#utility.yul\":15524:15704   */\n    tag_179:\n        /* \"#utility.yul\":15572:15649   */\n      0x4e487b7100000000000000000000000000000000000000000000000000000000\n        /* \"#utility.yul\":15569:15570   */\n      0x00\n        /* \"#utility.yul\":15562:15650   */\n      mstore\n        /* \"#utility.yul\":15669:15673   */\n      0x32\n        /* \"#utility.yul\":15666:15667   */\n      0x04\n        /* \"#utility.yul\":15659:15674   */\n      mstore\n        /* \"#utility.yul\":15693:15697   */\n      0x24\n        /* \"#utility.yul\":15690:15691   */\n      0x00\n        /* \"#utility.yul\":15683:15698   */\n      revert\n        /* \"#utility.yul\":15710:16042   */\n    tag_181:\n        /* \"#utility.yul\":15831:15835   */\n      0x00\n        /* \"#utility.yul\":15869:15871   */\n      0x40\n        /* \"#utility.yul\":15858:15867   */\n      dup3\n        /* \"#utility.yul\":15854:15872   */\n      add\n        /* \"#utility.yul\":15846:15872   */\n      swap1\n      pop\n        /* \"#utility.yul\":15882:15953   */\n      tag_615\n        /* \"#utility.yul\":15950:15951   */\n      0x00\n        /* \"#utility.yul\":15939:15948   */\n      dup4\n        /* \"#utility.yul\":15935:15952   */\n      add\n        /* \"#utility.yul\":15926:15932   */\n      dup6\n        /* \"#utility.yul\":15882:15953   */\n      tag_406\n      jump\t// in\n    tag_615:\n        /* \"#utility.yul\":15963:16035   */\n      tag_616\n        /* \"#utility.yul\":16031:16033   */\n      0x20\n        /* \"#utility.yul\":16020:16029   */\n      dup4\n        /* \"#utility.yul\":16016:16034   */\n      add\n        /* \"#utility.yul\":16007:16013   */\n      dup5\n        /* \"#utility.yul\":15963:16035   */\n      tag_406\n      jump\t// in\n    tag_616:\n        /* \"#utility.yul\":15710:16042   */\n      swap4\n      swap3\n      pop\n      pop\n      pop\n      jump\t// out\n        /* \"#utility.yul\":16048:16228   */\n    tag_423:\n        /* \"#utility.yul\":16096:16173   */\n      0x4e487b7100000000000000000000000000000000000000000000000000000000\n        /* \"#utility.yul\":16093:16094   */\n      0x00\n        /* \"#utility.yul\":16086:16174   */\n      mstore\n        /* \"#utility.yul\":16193:16197   */\n      0x11\n        /* \"#utility.yul\":16190:16191   */\n      0x04\n        /* \"#utility.yul\":16183:16198   */\n      mstore\n        /* \"#utility.yul\":16217:16221   */\n      0x24\n        /* \"#utility.yul\":16214:16215   */\n      0x00\n        /* \"#utility.yul\":16207:16222   */\n      revert\n        /* \"#utility.yul\":16234:16467   */\n    tag_187:\n        /* \"#utility.yul\":16273:16276   */\n      0x00\n        /* \"#utility.yul\":16296:16320   */\n      tag_619\n        /* \"#utility.yul\":16314:16319   */\n      dup3\n        /* \"#utility.yul\":16296:16320   */\n      tag_400\n      jump\t// in\n    tag_619:\n        /* \"#utility.yul\":16287:16320   */\n      swap2\n      pop\n        /* \"#utility.yul\":16342:16408   */\n      0xffffffffffffffffffffffffffffffffffffffffffffffffffffffffffffffff\n        /* \"#utility.yul\":16335:16340   */\n      dup3\n        /* \"#utility.yul\":16332:16409   */\n      sub\n        /* \"#utility.yul\":16329:16432   */\n      tag_620\n      jumpi\n        /* \"#utility.yul\":16412:16430   */\n      tag_621\n      tag_423\n      jump\t// in\n    tag_621:\n        /* \"#utility.yul\":16329:16432   */\n    tag_620:\n        /* \"#utility.yul\":16459:16460   */\n      0x01\n        /* \"#utility.yul\":16452:16457   */\n      dup3\n        /* \"#utility.yul\":16448:16461   */\n      add\n        /* \"#utility.yul\":16441:16461   */\n      swap1\n      pop\n        /* \"#utility.yul\":16234:16467   */\n      swap2\n      swap1\n      pop\n      jump\t// out\n        /* \"#utility.yul\":16473:16664   */\n    tag_206:\n        /* \"#utility.yul\":16513:16516   */\n      0x00\n        /* \"#utility.yul\":16532:16552   */\n      tag_623\n        /* \"#utility.yul\":16550:16551   */\n      dup3\n        /* \"#utility.yul\":16532:16552   */\n      tag_400\n      jump\t// in\n    tag_623:\n        /* \"#utility.yul\":16527:16552   */\n      swap2\n      pop\n        /* \"#utility.yul\":16566:16586   */\n      tag_624\n        /* \"#utility.yul\":16584:16585   */\n      dup4\n        /* \"#utility.yul\":16566:16586   */\n      tag_400\n      jump\t// in\n    tag_624:\n        /* \"#utility.yul\":16561:16586   */\n      swap3\n      pop\n        /* \"#utility.yul\":16609:16610   */\n      dup3\n        /* \"#utility.yul\":16606:16607   */\n      dup3\n        /* \"#utility.yul\":16602:16611   */\n      add\n        /* \"#utility.yul\":16595:16611   */\n      swap1\n      pop\n        /* \"#utility.yul\":16630:16633   */\n      dup1\n        /* \"#utility.yul\":16627:16628   */\n      dup3\n        /* \"#utility.yul\":16624:16634   */\n      gt\n        /* \"#utility.yul\":16621:16657   */\n      iszero\n      tag_625\n      jumpi\n        /* \"#utility.yul\":16637:16655   */\n      tag_626\n      tag_423\n      jump\t// in\n    tag_626:\n        /* \"#utility.yul\":16621:16657   */\n    tag_625:\n        /* \"#utility.yul\":16473:16664   */\n      swap3\n      swap2\n      pop\n      pop\n      jump\t// out\n        /* \"#utility.yul\":16670:16842   */\n    tag_424:\n        /* \"#utility.yul\":16810:16834   */\n      0x526573706f6e64652074696d65206973206f7665722000000000000000000000\n        /* \"#utility.yul\":16806:16807   */\n      0x00\n        /* \"#utility.yul\":16798:16804   */\n      dup3\n        /* \"#utility.yul\":16794:16808   */\n      add\n        /* \"#utility.yul\":16787:16835   */\n      mstore\n        /* \"#utility.yul\":16670:16842   */\n      pop\n      jump\t// out\n        /* \"#utility.yul\":16848:17214   */\n    tag_425:\n        /* \"#utility.yul\":16990:16993   */\n      0x00\n        /* \"#utility.yul\":17011:17078   */\n      tag_629\n        /* \"#utility.yul\":17075:17077   */\n      0x16\n        /* \"#utility.yul\":17070:17073   */\n      dup4\n        /* \"#utility.yul\":17011:17078   */\n      tag_397\n      jump\t// in\n    tag_629:\n        /* \"#utility.yul\":17004:17078   */\n      swap2\n      pop\n        /* \"#utility.yul\":17087:17180   */\n      tag_630\n        /* \"#utility.yul\":17176:17179   */\n      dup3\n        /* \"#utility.yul\":17087:17180   */\n      tag_424\n      jump\t// in\n    tag_630:\n        /* \"#utility.yul\":17205:17207   */\n      0x20\n        /* \"#utility.yul\":17200:17203   */\n      dup3\n        /* \"#utility.yul\":17196:17208   */\n      add\n        /* \"#utility.yul\":17189:17208   */\n      swap1\n      pop\n        /* \"#utility.yul\":16848:17214   */\n      swap2\n      swap1\n      pop\n      jump\t// out\n        /* \"#utility.yul\":17220:17639   */\n    tag_209:\n        /* \"#utility.yul\":17386:17390   */\n      0x00\n        /* \"#utility.yul\":17424:17426   */\n      0x20\n        /* \"#utility.yul\":17413:17422   */\n      dup3\n        /* \"#utility.yul\":17409:17427   */\n      add\n        /* \"#utility.yul\":17401:17427   */\n      swap1\n      pop\n        /* \"#utility.yul\":17473:17482   */\n      dup2\n        /* \"#utility.yul\":17467:17471   */\n      dup2\n        /* \"#utility.yul\":17463:17483   */\n      sub\n        /* \"#utility.yul\":17459:17460   */\n      0x00\n        /* \"#utility.yul\":17448:17457   */\n      dup4\n        /* \"#utility.yul\":17444:17461   */\n      add\n        /* \"#utility.yul\":17437:17484   */\n      mstore\n        /* \"#utility.yul\":17501:17632   */\n      tag_632\n        /* \"#utility.yul\":17627:17631   */\n      dup2\n        /* \"#utility.yul\":17501:17632   */\n      tag_425\n      jump\t// in\n    tag_632:\n        /* \"#utility.yul\":17493:17632   */\n      swap1\n      pop\n        /* \"#utility.yul\":17220:17639   */\n      swap2\n      swap1\n      pop\n      jump\t// out\n        /* \"#utility.yul\":17645:17977   */\n    tag_213:\n        /* \"#utility.yul\":17766:17770   */\n      0x00\n        /* \"#utility.yul\":17804:17806   */\n      0x40\n        /* \"#utility.yul\":17793:17802   */\n      dup3\n        /* \"#utility.yul\":17789:17807   */\n      add\n        /* \"#utility.yul\":17781:17807   */\n      swap1\n      pop\n        /* \"#utility.yul\":17817:17888   */\n      tag_634\n        /* \"#utility.yul\":17885:17886   */\n      0x00\n        /* \"#utility.yul\":17874:17883   */\n      dup4\n        /* \"#utility.yul\":17870:17887   */\n      add\n        /* \"#utility.yul\":17861:17867   */\n      dup6\n        /* \"#utility.yul\":17817:17888   */\n      tag_406\n      jump\t// in\n    tag_634:\n        /* \"#utility.yul\":17898:17970   */\n      tag_635\n        /* \"#utility.yul\":17966:17968   */\n      0x20\n        /* \"#utility.yul\":17955:17964   */\n      dup4\n        /* \"#utility.yul\":17951:17969   */\n      add\n        /* \"#utility.yul\":17942:17948   */\n      dup5\n        /* \"#utility.yul\":17898:17970   */\n      tag_412\n      jump\t// in\n    tag_635:\n        /* \"#utility.yul\":17645:17977   */\n      swap4\n      swap3\n      pop\n      pop\n      pop\n      jump\t// out\n        /* \"#utility.yul\":17983:18163   */\n    tag_426:\n        /* \"#utility.yul\":18123:18155   */\n      0x4f7065726174696f6e2074696d65206973206e6f74206f766572207965740000\n        /* \"#utility.yul\":18119:18120   */\n      0x00\n        /* \"#utility.yul\":18111:18117   */\n      dup3\n        /* \"#utility.yul\":18107:18121   */\n      add\n        /* \"#utility.yul\":18100:18156   */\n      mstore\n        /* \"#utility.yul\":17983:18163   */\n      pop\n      jump\t// out\n        /* \"#utility.yul\":18169:18535   */\n    tag_427:\n        /* \"#utility.yul\":18311:18314   */\n      0x00\n        /* \"#utility.yul\":18332:18399   */\n      tag_638\n        /* \"#utility.yul\":18396:18398   */\n      0x1e\n        /* \"#utility.yul\":18391:18394   */\n      dup4\n        /* \"#utility.yul\":18332:18399   */\n      tag_397\n      jump\t// in\n    tag_638:\n        /* \"#utility.yul\":18325:18399   */\n      swap2\n      pop\n        /* \"#utility.yul\":18408:18501   */\n      tag_639\n        /* \"#utility.yul\":18497:18500   */\n      dup3\n        /* \"#utility.yul\":18408:18501   */\n      tag_426\n      jump\t// in\n    tag_639:\n        /* \"#utility.yul\":18526:18528   */\n      0x20\n        /* \"#utility.yul\":18521:18524   */\n      dup3\n        /* \"#utility.yul\":18517:18529   */\n      add\n        /* \"#utility.yul\":18510:18529   */\n      swap1\n      pop\n        /* \"#utility.yul\":18169:18535   */\n      swap2\n      swap1\n      pop\n      jump\t// out\n        /* \"#utility.yul\":18541:18960   */\n    tag_223:\n        /* \"#utility.yul\":18707:18711   */\n      0x00\n        /* \"#utility.yul\":18745:18747   */\n      0x20\n        /* \"#utility.yul\":18734:18743   */\n      dup3\n        /* \"#utility.yul\":18730:18748   */\n      add\n        /* \"#utility.yul\":18722:18748   */\n      swap1\n      pop\n        /* \"#utility.yul\":18794:18803   */\n      dup2\n        /* \"#utility.yul\":18788:18792   */\n      dup2\n        /* \"#utility.yul\":18784:18804   */\n      sub\n        /* \"#utility.yul\":18780:18781   */\n      0x00\n        /* \"#utility.yul\":18769:18778   */\n      dup4\n        /* \"#utility.yul\":18765:18782   */\n      add\n        /* \"#utility.yul\":18758:18805   */\n      mstore\n        /* \"#utility.yul\":18822:18953   */\n      tag_641\n        /* \"#utility.yul\":18948:18952   */\n      dup2\n        /* \"#utility.yul\":18822:18953   */\n      tag_427\n      jump\t// in\n    tag_641:\n        /* \"#utility.yul\":18814:18953   */\n      swap1\n      pop\n        /* \"#utility.yul\":18541:18960   */\n      swap2\n      swap1\n      pop\n      jump\t// out\n        /* \"#utility.yul\":18966:19298   */\n    tag_240:\n        /* \"#utility.yul\":19087:19091   */\n      0x00\n        /* \"#utility.yul\":19125:19127   */\n      0x40\n        /* \"#utility.yul\":19114:19123   */\n      dup3\n        /* \"#utility.yul\":19110:19128   */\n      add\n        /* \"#utility.yul\":19102:19128   */\n      swap1\n      pop\n        /* \"#utility.yul\":19138:19209   */\n      tag_643\n        /* \"#utility.yul\":19206:19207   */\n      0x00\n        /* \"#utility.yul\":19195:19204   */\n      dup4\n        /* \"#utility.yul\":19191:19208   */\n      add\n        /* \"#utility.yul\":19182:19188   */\n      dup6\n        /* \"#utility.yul\":19138:19209   */\n      tag_412\n      jump\t// in\n    tag_643:\n        /* \"#utility.yul\":19219:19291   */\n      tag_644\n        /* \"#utility.yul\":19287:19289   */\n      0x20\n        /* \"#utility.yul\":19276:19285   */\n      dup4\n        /* \"#utility.yul\":19272:19290   */\n      add\n        /* \"#utility.yul\":19263:19269   */\n      dup5\n        /* \"#utility.yul\":19219:19291   */\n      tag_406\n      jump\t// in\n    tag_644:\n        /* \"#utility.yul\":18966:19298   */\n      swap4\n      swap3\n      pop\n      pop\n      pop\n      jump\t// out\n        /* \"#utility.yul\":19304:19727   */\n    tag_250:\n        /* \"#utility.yul\":19445:19449   */\n      0x00\n        /* \"#utility.yul\":19483:19485   */\n      0x40\n        /* \"#utility.yul\":19472:19481   */\n      dup3\n        /* \"#utility.yul\":19468:19486   */\n      add\n        /* \"#utility.yul\":19460:19486   */\n      swap1\n      pop\n        /* \"#utility.yul\":19496:19567   */\n      tag_646\n        /* \"#utility.yul\":19564:19565   */\n      0x00\n        /* \"#utility.yul\":19553:19562   */\n      dup4\n        /* \"#utility.yul\":19549:19566   */\n      add\n        /* \"#utility.yul\":19540:19546   */\n      dup6\n        /* \"#utility.yul\":19496:19567   */\n      tag_405\n      jump\t// in\n    tag_646:\n        /* \"#utility.yul\":19614:19623   */\n      dup2\n        /* \"#utility.yul\":19608:19612   */\n      dup2\n        /* \"#utility.yul\":19604:19624   */\n      sub\n        /* \"#utility.yul\":19599:19601   */\n      0x20\n        /* \"#utility.yul\":19588:19597   */\n      dup4\n        /* \"#utility.yul\":19584:19602   */\n      add\n        /* \"#utility.yul\":19577:19625   */\n      mstore\n        /* \"#utility.yul\":19642:19720   */\n      tag_647\n        /* \"#utility.yul\":19715:19719   */\n      dup2\n        /* \"#utility.yul\":19706:19712   */\n      dup5\n        /* \"#utility.yul\":19642:19720   */\n      tag_399\n      jump\t// in\n    tag_647:\n        /* \"#utility.yul\":19634:19720   */\n      swap1\n      pop\n        /* \"#utility.yul\":19304:19727   */\n      swap4\n      swap3\n      pop\n      pop\n      pop\n      jump\t// out\n        /* \"#utility.yul\":19733:19812   */\n    tag_428:\n        /* \"#utility.yul\":19772:19779   */\n      0x00\n        /* \"#utility.yul\":19801:19806   */\n      dup2\n        /* \"#utility.yul\":19790:19806   */\n      swap1\n      pop\n        /* \"#utility.yul\":19733:19812   */\n      swap2\n      swap1\n      pop\n      jump\t// out\n        /* \"#utility.yul\":19818:19975   */\n    tag_429:\n        /* \"#utility.yul\":19923:19968   */\n      tag_650\n        /* \"#utility.yul\":19943:19967   */\n      tag_651\n        /* \"#utility.yul\":19961:19966   */\n      dup3\n        /* \"#utility.yul\":19943:19967   */\n      tag_384\n      jump\t// in\n    tag_651:\n        /* \"#utility.yul\":19923:19968   */\n      tag_428\n      jump\t// in\n    tag_650:\n        /* \"#utility.yul\":19918:19921   */\n      dup3\n        /* \"#utility.yul\":19911:19969   */\n      mstore\n        /* \"#utility.yul\":19818:19975   */\n      pop\n      pop\n      jump\t// out\n        /* \"#utility.yul\":19981:20237   */\n    tag_267:\n        /* \"#utility.yul\":20093:20096   */\n      0x00\n        /* \"#utility.yul\":20108:20183   */\n      tag_653\n        /* \"#utility.yul\":20179:20182   */\n      dup3\n        /* \"#utility.yul\":20170:20176   */\n      dup5\n        /* \"#utility.yul\":20108:20183   */\n      tag_429\n      jump\t// in\n    tag_653:\n        /* \"#utility.yul\":20208:20210   */\n      0x20\n        /* \"#utility.yul\":20203:20206   */\n      dup3\n        /* \"#utility.yul\":20199:20211   */\n      add\n        /* \"#utility.yul\":20192:20211   */\n      swap2\n      pop\n        /* \"#utility.yul\":20228:20231   */\n      dup2\n        /* \"#utility.yul\":20221:20231   */\n      swap1\n      pop\n        /* \"#utility.yul\":19981:20237   */\n      swap3\n      swap2\n      pop\n      pop\n      jump\t// out\n        /* \"#utility.yul\":20243:20328   */\n    tag_430:\n        /* \"#utility.yul\":20288:20295   */\n      0x00\n        /* \"#utility.yul\":20317:20322   */\n      dup2\n        /* \"#utility.yul\":20306:20322   */\n      swap1\n      pop\n        /* \"#utility.yul\":20243:20328   */\n      swap2\n      swap1\n      pop\n      jump\t// out\n        /* \"#utility.yul\":20334:20394   */\n    tag_431:\n        /* \"#utility.yul\":20362:20365   */\n      0x00\n        /* \"#utility.yul\":20383:20388   */\n      dup2\n        /* \"#utility.yul\":20376:20388   */\n      swap1\n      pop\n        /* \"#utility.yul\":20334:20394   */\n      swap2\n      swap1\n      pop\n      jump\t// out\n        /* \"#utility.yul\":20400:20558   */\n    tag_432:\n        /* \"#utility.yul\":20458:20467   */\n      0x00\n        /* \"#utility.yul\":20491:20552   */\n      tag_657\n        /* \"#utility.yul\":20509:20551   */\n      tag_658\n        /* \"#utility.yul\":20518:20550   */\n      tag_659\n        /* \"#utility.yul\":20544:20549   */\n      dup5\n        /* \"#utility.yul\":20518:20550   */\n      tag_430\n      jump\t// in\n    tag_659:\n        /* \"#utility.yul\":20509:20551   */\n      tag_431\n      jump\t// in\n    tag_658:\n        /* \"#utility.yul\":20491:20552   */\n      tag_400\n      jump\t// in\n    tag_657:\n        /* \"#utility.yul\":20478:20552   */\n      swap1\n      pop\n        /* \"#utility.yul\":20400:20558   */\n      swap2\n      swap1\n      pop\n      jump\t// out\n        /* \"#utility.yul\":20564:20711   */\n    tag_433:\n        /* \"#utility.yul\":20659:20704   */\n      tag_661\n        /* \"#utility.yul\":20698:20703   */\n      dup2\n        /* \"#utility.yul\":20659:20704   */\n      tag_432\n      jump\t// in\n    tag_661:\n        /* \"#utility.yul\":20654:20657   */\n      dup3\n        /* \"#utility.yul\":20647:20705   */\n      mstore\n        /* \"#utility.yul\":20564:20711   */\n      pop\n      pop\n      jump\t// out\n        /* \"#utility.yul\":20717:20955   */\n    tag_297:\n        /* \"#utility.yul\":20818:20822   */\n      0x00\n        /* \"#utility.yul\":20856:20858   */\n      0x20\n        /* \"#utility.yul\":20845:20854   */\n      dup3\n        /* \"#utility.yul\":20841:20859   */\n      add\n        /* \"#utility.yul\":20833:20859   */\n      swap1\n      pop\n        /* \"#utility.yul\":20869:20948   */\n      tag_663\n        /* \"#utility.yul\":20945:20946   */\n      0x00\n        /* \"#utility.yul\":20934:20943   */\n      dup4\n        /* \"#utility.yul\":20930:20947   */\n      add\n        /* \"#utility.yul\":20921:20927   */\n      dup5\n        /* \"#utility.yul\":20869:20948   */\n      tag_433\n      jump\t// in\n    tag_663:\n        /* \"#utility.yul\":20717:20955   */\n      swap3\n      swap2\n      pop\n      pop\n      jump\t// out\n        /* \"#utility.yul\":20961:21046   */\n    tag_434:\n        /* \"#utility.yul\":21006:21013   */\n      0x00\n        /* \"#utility.yul\":21035:21040   */\n      dup2\n        /* \"#utility.yul\":21024:21040   */\n      swap1\n      pop\n        /* \"#utility.yul\":20961:21046   */\n      swap2\n      swap1\n      pop\n      jump\t// out\n        /* \"#utility.yul\":21052:21210   */\n    tag_435:\n        /* \"#utility.yul\":21110:21119   */\n      0x00\n        /* \"#utility.yul\":21143:21204   */\n      tag_666\n        /* \"#utility.yul\":21161:21203   */\n      tag_667\n        /* \"#utility.yul\":21170:21202   */\n      tag_668\n        /* \"#utility.yul\":21196:21201   */\n      dup5\n        /* \"#utility.yul\":21170:21202   */\n      tag_434\n      jump\t// in\n    tag_668:\n        /* \"#utility.yul\":21161:21203   */\n      tag_431\n      jump\t// in\n    tag_667:\n        /* \"#utility.yul\":21143:21204   */\n      tag_400\n      jump\t// in\n    tag_666:\n        /* \"#utility.yul\":21130:21204   */\n      swap1\n      pop\n        /* \"#utility.yul\":21052:21210   */\n      swap2\n      swap1\n      pop\n      jump\t// out\n        /* \"#utility.yul\":21216:21363   */\n    tag_436:\n        /* \"#utility.yul\":21311:21356   */\n      tag_670\n        /* \"#utility.yul\":21350:21355   */\n      dup2\n        /* \"#utility.yul\":21311:21356   */\n      tag_435\n      jump\t// in\n    tag_670:\n        /* \"#utility.yul\":21306:21309   */\n      dup3\n        /* \"#utility.yul\":21299:21357   */\n      mstore\n        /* \"#utility.yul\":21216:21363   */\n      pop\n      pop\n      jump\t// out\n        /* \"#utility.yul\":21369:21607   */\n    tag_304:\n        /* \"#utility.yul\":21470:21474   */\n      0x00\n        /* \"#utility.yul\":21508:21510   */\n      0x20\n        /* \"#utility.yul\":21497:21506   */\n      dup3\n        /* \"#utility.yul\":21493:21511   */\n      add\n        /* \"#utility.yul\":21485:21511   */\n      swap1\n      pop\n        /* \"#utility.yul\":21521:21600   */\n      tag_672\n        /* \"#utility.yul\":21597:21598   */\n      0x00\n        /* \"#utility.yul\":21586:21595   */\n      dup4\n        /* \"#utility.yul\":21582:21599   */\n      add\n        /* \"#utility.yul\":21573:21579   */\n      dup5\n        /* \"#utility.yul\":21521:21600   */\n      tag_436\n      jump\t// in\n    tag_672:\n        /* \"#utility.yul\":21369:21607   */\n      swap3\n      swap2\n      pop\n      pop\n      jump\t// out\n        /* \"#utility.yul\":21613:21698   */\n    tag_437:\n        /* \"#utility.yul\":21658:21665   */\n      0x00\n        /* \"#utility.yul\":21687:21692   */\n      dup2\n        /* \"#utility.yul\":21676:21692   */\n      swap1\n      pop\n        /* \"#utility.yul\":21613:21698   */\n      swap2\n      swap1\n      pop\n      jump\t// out\n        /* \"#utility.yul\":21704:21862   */\n    tag_438:\n        /* \"#utility.yul\":21762:21771   */\n      0x00\n        /* \"#utility.yul\":21795:21856   */\n      tag_675\n        /* \"#utility.yul\":21813:21855   */\n      tag_676\n        /* \"#utility.yul\":21822:21854   */\n      tag_677\n        /* \"#utility.yul\":21848:21853   */\n      dup5\n        /* \"#utility.yul\":21822:21854   */\n      tag_437\n      jump\t// in\n    tag_677:\n        /* \"#utility.yul\":21813:21855   */\n      tag_431\n      jump\t// in\n    tag_676:\n        /* \"#utility.yul\":21795:21856   */\n      tag_400\n      jump\t// in\n    tag_675:\n        /* \"#utility.yul\":21782:21856   */\n      swap1\n      pop\n        /* \"#utility.yul\":21704:21862   */\n      swap2\n      swap1\n      pop\n      jump\t// out\n        /* \"#utility.yul\":21868:22015   */\n    tag_439:\n        /* \"#utility.yul\":21963:22008   */\n      tag_679\n        /* \"#utility.yul\":22002:22007   */\n      dup2\n        /* \"#utility.yul\":21963:22008   */\n      tag_438\n      jump\t// in\n    tag_679:\n        /* \"#utility.yul\":21958:21961   */\n      dup3\n        /* \"#utility.yul\":21951:22009   */\n      mstore\n        /* \"#utility.yul\":21868:22015   */\n      pop\n      pop\n      jump\t// out\n        /* \"#utility.yul\":22021:22259   */\n    tag_307:\n        /* \"#utility.yul\":22122:22126   */\n      0x00\n        /* \"#utility.yul\":22160:22162   */\n      0x20\n        /* \"#utility.yul\":22149:22158   */\n      dup3\n        /* \"#utility.yul\":22145:22163   */\n      add\n        /* \"#utility.yul\":22137:22163   */\n      swap1\n      pop\n        /* \"#utility.yul\":22173:22252   */\n      tag_681\n        /* \"#utility.yul\":22249:22250   */\n      0x00\n        /* \"#utility.yul\":22238:22247   */\n      dup4\n        /* \"#utility.yul\":22234:22251   */\n      add\n        /* \"#utility.yul\":22225:22231   */\n      dup5\n        /* \"#utility.yul\":22173:22252   */\n      tag_439\n      jump\t// in\n    tag_681:\n        /* \"#utility.yul\":22021:22259   */\n      swap3\n      swap2\n      pop\n      pop\n      jump\t// out\n        /* \"#utility.yul\":22265:22707   */\n    tag_315:\n        /* \"#utility.yul\":22414:22418   */\n      0x00\n        /* \"#utility.yul\":22452:22454   */\n      0x60\n        /* \"#utility.yul\":22441:22450   */\n      dup3\n        /* \"#utility.yul\":22437:22455   */\n      add\n        /* \"#utility.yul\":22429:22455   */\n      swap1\n      pop\n        /* \"#utility.yul\":22465:22536   */\n      tag_683\n        /* \"#utility.yul\":22533:22534   */\n      0x00\n        /* \"#utility.yul\":22522:22531   */\n      dup4\n        /* \"#utility.yul\":22518:22535   */\n      add\n        /* \"#utility.yul\":22509:22515   */\n      dup7\n        /* \"#utility.yul\":22465:22536   */\n      tag_406\n      jump\t// in\n    tag_683:\n        /* \"#utility.yul\":22546:22618   */\n      tag_684\n        /* \"#utility.yul\":22614:22616   */\n      0x20\n        /* \"#utility.yul\":22603:22612   */\n      dup4\n        /* \"#utility.yul\":22599:22617   */\n      add\n        /* \"#utility.yul\":22590:22596   */\n      dup6\n        /* \"#utility.yul\":22546:22618   */\n      tag_412\n      jump\t// in\n    tag_684:\n        /* \"#utility.yul\":22628:22700   */\n      tag_685\n        /* \"#utility.yul\":22696:22698   */\n      0x40\n        /* \"#utility.yul\":22685:22694   */\n      dup4\n        /* \"#utility.yul\":22681:22699   */\n      add\n        /* \"#utility.yul\":22672:22678   */\n      dup5\n        /* \"#utility.yul\":22628:22700   */\n      tag_412\n      jump\t// in\n    tag_685:\n        /* \"#utility.yul\":22265:22707   */\n      swap5\n      swap4\n      pop\n      pop\n      pop\n      pop\n      jump\t// out\n        /* \"#utility.yul\":22713:23110   */\n    tag_318:\n        /* \"#utility.yul\":22853:22856   */\n      0x00\n        /* \"#utility.yul\":22868:22943   */\n      tag_687\n        /* \"#utility.yul\":22939:22942   */\n      dup3\n        /* \"#utility.yul\":22930:22936   */\n      dup6\n        /* \"#utility.yul\":22868:22943   */\n      tag_429\n      jump\t// in\n    tag_687:\n        /* \"#utility.yul\":22968:22970   */\n      0x20\n        /* \"#utility.yul\":22963:22966   */\n      dup3\n        /* \"#utility.yul\":22959:22971   */\n      add\n        /* \"#utility.yul\":22952:22971   */\n      swap2\n      pop\n        /* \"#utility.yul\":22981:23056   */\n      tag_688\n        /* \"#utility.yul\":23052:23055   */\n      dup3\n        /* \"#utility.yul\":23043:23049   */\n      dup5\n        /* \"#utility.yul\":22981:23056   */\n      tag_429\n      jump\t// in\n    tag_688:\n        /* \"#utility.yul\":23081:23083   */\n      0x20\n        /* \"#utility.yul\":23076:23079   */\n      dup3\n        /* \"#utility.yul\":23072:23084   */\n      add\n        /* \"#utility.yul\":23065:23084   */\n      swap2\n      pop\n        /* \"#utility.yul\":23101:23104   */\n      dup2\n        /* \"#utility.yul\":23094:23104   */\n      swap1\n      pop\n        /* \"#utility.yul\":22713:23110   */\n      swap4\n      swap3\n      pop\n      pop\n      pop\n      jump\t// out\n        /* \"#utility.yul\":23116:23448   */\n    tag_340:\n        /* \"#utility.yul\":23237:23241   */\n      0x00\n        /* \"#utility.yul\":23275:23277   */\n      0x40\n        /* \"#utility.yul\":23264:23273   */\n      dup3\n        /* \"#utility.yul\":23260:23278   */\n      add\n        /* \"#utility.yul\":23252:23278   */\n      swap1\n      pop\n        /* \"#utility.yul\":23288:23359   */\n      tag_690\n        /* \"#utility.yul\":23356:23357   */\n      0x00\n        /* \"#utility.yul\":23345:23354   */\n      dup4\n        /* \"#utility.yul\":23341:23358   */\n      add\n        /* \"#utility.yul\":23332:23338   */\n      dup6\n        /* \"#utility.yul\":23288:23359   */\n      tag_405\n      jump\t// in\n    tag_690:\n        /* \"#utility.yul\":23369:23441   */\n      tag_691\n        /* \"#utility.yul\":23437:23439   */\n      0x20\n        /* \"#utility.yul\":23426:23435   */\n      dup4\n        /* \"#utility.yul\":23422:23440   */\n      add\n        /* \"#utility.yul\":23413:23419   */\n      dup5\n        /* \"#utility.yul\":23369:23441   */\n      tag_405\n      jump\t// in\n    tag_691:\n        /* \"#utility.yul\":23116:23448   */\n      swap4\n      swap3\n      pop\n      pop\n      pop\n      jump\t// out\n        /* \"#utility.yul\":23454:23648   */\n    tag_350:\n        /* \"#utility.yul\":23494:23498   */\n      0x00\n        /* \"#utility.yul\":23514:23534   */\n      tag_693\n        /* \"#utility.yul\":23532:23533   */\n      dup3\n        /* \"#utility.yul\":23514:23534   */\n      tag_400\n      jump\t// in\n    tag_693:\n        /* \"#utility.yul\":23509:23534   */\n      swap2\n      pop\n        /* \"#utility.yul\":23548:23568   */\n      tag_694\n        /* \"#utility.yul\":23566:23567   */\n      dup4\n        /* \"#utility.yul\":23548:23568   */\n      tag_400\n      jump\t// in\n    tag_694:\n        /* \"#utility.yul\":23543:23568   */\n      swap3\n      pop\n        /* \"#utility.yul\":23592:23593   */\n      dup3\n        /* \"#utility.yul\":23589:23590   */\n      dup3\n        /* \"#utility.yul\":23585:23594   */\n      sub\n        /* \"#utility.yul\":23577:23594   */\n      swap1\n      pop\n        /* \"#utility.yul\":23616:23617   */\n      dup2\n        /* \"#utility.yul\":23610:23614   */\n      dup2\n        /* \"#utility.yul\":23607:23618   */\n      gt\n        /* \"#utility.yul\":23604:23641   */\n      iszero\n      tag_695\n      jumpi\n        /* \"#utility.yul\":23621:23639   */\n      tag_696\n      tag_423\n      jump\t// in\n    tag_696:\n        /* \"#utility.yul\":23604:23641   */\n    tag_695:\n        /* \"#utility.yul\":23454:23648   */\n      swap3\n      swap2\n      pop\n      pop\n      jump\t// out\n        /* \"#utility.yul\":23654:23986   */\n    tag_355:\n        /* \"#utility.yul\":23775:23779   */\n      0x00\n        /* \"#utility.yul\":23813:23815   */\n      0x40\n        /* \"#utility.yul\":23802:23811   */\n      dup3\n        /* \"#utility.yul\":23798:23816   */\n      add\n        /* \"#utility.yul\":23790:23816   */\n      swap1\n      pop\n        /* \"#utility.yul\":23826:23897   */\n      tag_698\n        /* \"#utility.yul\":23894:23895   */\n      0x00\n        /* \"#utility.yul\":23883:23892   */\n      dup4\n        /* \"#utility.yul\":23879:23896   */\n      add\n        /* \"#utility.yul\":23870:23876   */\n      dup6\n        /* \"#utility.yul\":23826:23897   */\n      tag_405\n      jump\t// in\n    tag_698:\n        /* \"#utility.yul\":23907:23979   */\n      tag_699\n        /* \"#utility.yul\":23975:23977   */\n      0x20\n        /* \"#utility.yul\":23964:23973   */\n      dup4\n        /* \"#utility.yul\":23960:23978   */\n      add\n        /* \"#utility.yul\":23951:23957   */\n      dup5\n        /* \"#utility.yul\":23907:23979   */\n      tag_412\n      jump\t// in\n    tag_699:\n        /* \"#utility.yul\":23654:23986   */\n      swap4\n      swap3\n      pop\n      pop\n      pop\n      jump\t// out\n\n    auxdata: 0xa2646970667358221220610aed06a769f0208ce6ce48ccf7ab73d50a672baafcd276b38cbfc45a15ac5c64736f6c63430008120033\n}\n",
				"bytecode": {
					"linkReferences": {},
					"object": "608060405260008055610258600c5534801561001a57600080fd5b5033600260006101000a81548173ffffffffffffffffffffffffffffffffffffffff021916908373ffffffffffffffffffffffffffffffffffffffff16021790555033600160006101000a81548173ffffffffffffffffffffffffffffffffffffffff021916908373ffffffffffffffffffffffffffffffffffffffff16021790555033600360006101000a81548173ffffffffffffffffffffffffffffffffffffffff021916908373ffffffffffffffffffffffffffffffffffffffff1602179055506000600d60006101000a81548160ff021916908360098111156101045761010361010e565b5b021790555061013d565b7f4e487b7100000000000000000000000000000000000000000000000000000000600052602160045260246000fd5b612711806200014d6000396000f3fe6080604052600436106101b75760003560e01c8063899a69a7116100ec578063c2a2747b1161008a578063ee17b80711610064578063ee17b807146105d4578063f258d51e14610611578063f4c1f07b1461063a578063f9f7ee1e14610644576101b7565b8063c2a2747b14610553578063c8a663ec1461057e578063e6299631146105a9576101b7565b8063a2fc30af116100c6578063a2fc30af146104b6578063b93a86ce146104e1578063c08d1fe5146104fd578063c19d93fb14610528576101b7565b8063899a69a7146104235780639ae67252146104605780639ae8886a1461048b576101b7565b80635da47f32116101595780637150d8ae116101335780637150d8ae14610353578063781920631461037e5780637a1a456a146103bb57806380aa2dae146103f8576101b7565b80635da47f32146102d65780636cc6cde1146102ff578063706a01601461032a576101b7565b80632f81b0a0116101955780632f81b0a0146102405780633502e0661461026b5780634bbf66421461028257806350339559146102ad576101b7565b806307c5fbe5146101bc57806307e4312e146101f957806308551a5314610215575b600080fd5b3480156101c857600080fd5b506101e360048036038101906101de9190611bd2565b610681565b6040516101f09190611cc0565b60405180910390f35b610213600480360381019061020e9190611d18565b61098c565b005b34801561022157600080fd5b5061022a610a93565b6040516102379190611d99565b60405180910390f35b34801561024c57600080fd5b50610255610ab9565b6040516102629190611dc3565b60405180910390f35b34801561027757600080fd5b50610280610abf565b005b34801561028e57600080fd5b50610297610bfd565b6040516102a49190611dc3565b60405180910390f35b3480156102b957600080fd5b506102d460048036038101906102cf9190611dde565b610c03565b005b3480156102e257600080fd5b506102fd60048036038101906102f89190611ed3565b610d15565b005b34801561030b57600080fd5b50610314610dbc565b6040516103219190611d99565b60405180910390f35b34801561033657600080fd5b50610351600480360381019061034c9190611f1c565b610de2565b005b34801561035f57600080fd5b50610368610eea565b6040516103759190611d99565b60405180910390f35b34801561038a57600080fd5b506103a560048036038101906103a09190611f49565b610f10565b6040516103b29190611dc3565b60405180910390f35b3480156103c757600080fd5b506103e260048036038101906103dd9190611f1c565b610f88565b6040516103ef9190611dc3565b60405180910390f35b34801561040457600080fd5b5061040d611000565b60405161041a9190611f98565b60405180910390f35b34801561042f57600080fd5b5061044a60048036038101906104459190611fb3565b611006565b6040516104579190611cc0565b60405180910390f35b34801561046c57600080fd5b5061047561130b565b6040516104829190611f98565b60405180910390f35b34801561049757600080fd5b506104a0611311565b6040516104ad9190611f98565b60405180910390f35b3480156104c257600080fd5b506104cb611317565b6040516104d89190611dc3565b60405180910390f35b6104fb60048036038101906104f6919061205c565b61131d565b005b34801561050957600080fd5b5061051261140a565b60405161051f9190611f98565b60405180910390f35b34801561053457600080fd5b5061053d611410565b60405161054a9190612126565b60405180910390f35b34801561055f57600080fd5b50610568611423565b6040516105759190611f98565b60405180910390f35b34801561058a57600080fd5b50610593611429565b6040516105a09190611f98565b60405180910390f35b3480156105b557600080fd5b506105be61142f565b6040516105cb9190611dc3565b60405180910390f35b3480156105e057600080fd5b506105fb60048036038101906105f69190611f49565b611435565b6040516106089190611dc3565b60405180910390f35b34801561061d57600080fd5b506106386004803603810190610633919061216d565b6114b0565b005b61064261169f565b005b34801561065057600080fd5b5061066b60048036038101906106669190611fb3565b6117ba565b6040516106789190611cc0565b60405180910390f35b6060600061069160075486610f10565b9050600084821461094a576002856040516020016106af9190611dc3565b6040516020818303038152906040526040516106cb91906121f4565b602060405180830381855afa1580156106e8573d6000803e3d6000fd5b5050506040513d601f19601f8201168201806040525081019061070b9190612220565b905060005b6006548110156107ba576002828683815181106107305761072f61224d565b5b602002602001015160405160200161074992919061227c565b60405160208183030381529060405260405161076591906121f4565b602060405180830381855afa158015610782573d6000803e3d6000fd5b5050506040513d601f19601f820116820180604052508101906107a59190612220565b915080806107b2906122d4565b915050610710565b506005548103610876573373ffffffffffffffffffffffffffffffffffffffff166108fc600a9081150290604051600060405180830381858888f1935050505015801561080b573d6000803e3d6000fd5b506009600d60006101000a81548160ff02191690836009811115610832576108316120af565b5b02179055506040518060400160405280600181526020017f310000000000000000000000000000000000000000000000000000000000000081525092505050610985565b600160009054906101000a900473ffffffffffffffffffffffffffffffffffffffff1673ffffffffffffffffffffffffffffffffffffffff166108fc600a9081150290604051600060405180830381858888f193505050501580156108df573d6000803e3d6000fd5b506009600d60006101000a81548160ff02191690836009811115610906576109056120af565b5b02179055506040518060400160405280600181526020017f320000000000000000000000000000000000000000000000000000000000000081525092505050610985565b6040518060400160405280600181526020017f3300000000000000000000000000000000000000000000000000000000000000815250925050505b9392505050565b600260098111156109a05761099f6120af565b5b600d60009054906101000a900460ff1660098111156109c2576109c16120af565b5b146109cc57600080fd5b42600c54600b546109dd919061231c565b11610a1d576040517f08c379a0000000000000000000000000000000000000000000000000000000008152600401610a149061239c565b60405180910390fd5b81600581905550806006819055506003600d60006101000a81548160ff02191690836009811115610a5157610a506120af565b5b02179055507f8367cc6ba01f36350b0d5f1caaa3afa155152dac000940ae82cd327bfa0bc8278282604051610a879291906123bc565b60405180910390a15050565b600160009054906101000a900473ffffffffffffffffffffffffffffffffffffffff1681565b60075481565b60026009811115610ad357610ad26120af565b5b600d60009054906101000a900460ff166009811115610af557610af46120af565b5b14610aff57600080fd5b42600c54600b54610b10919061231c565b11610b50576040517f08c379a0000000000000000000000000000000000000000000000000000000008152600401610b4790612431565b60405180910390fd5b3373ffffffffffffffffffffffffffffffffffffffff166108fc6009549081150290604051600060405180830381858888f19350505050158015610b98573d6000803e3d6000fd5b506009600d60006101000a81548160ff02191690836009811115610bbf57610bbe6120af565b5b02179055507fafc3b014386561494c2478b62a479f4a42dbcb4ef28845094d473410b972d6d533604051610bf39190611d99565b60405180910390a1565b60055481565b600160009054906101000a900473ffffffffffffffffffffffffffffffffffffffff1673ffffffffffffffffffffffffffffffffffffffff163373ffffffffffffffffffffffffffffffffffffffff1614610c5d57600080fd5b60006009811115610c7157610c706120af565b5b600d60009054906101000a900460ff166009811115610c9357610c926120af565b5b14610c9d57600080fd5b81600081905550806004819055506001600d60006101000a81548160ff02191690836009811115610cd157610cd06120af565b5b02179055507fcb894139878da1d74d95c1725159680c62225fbee97f6af6f79589b5b311522682600454604051610d09929190612451565b60405180910390a15050565b60056009811115610d2957610d286120af565b5b600d60009054906101000a900460ff166009811115610d4b57610d4a6120af565b5b14610d5557600080fd5b6008600d60006101000a81548160ff02191690836009811115610d7b57610d7a6120af565b5b02179055507fef067573a1e7aecca86bf54fefef758f77913ee8a001c881474c979dd7328bfe3382604051610db192919061247a565b60405180910390a150565b600260009054906101000a900473ffffffffffffffffffffffffffffffffffffffff1681565b600160009054906101000a900473ffffffffffffffffffffffffffffffffffffffff1673ffffffffffffffffffffffffffffffffffffffff163373ffffffffffffffffffffffffffffffffffffffff1614610e3c57600080fd5b60046009811115610e5057610e4f6120af565b5b600d60009054906101000a900460ff166009811115610e7257610e716120af565b5b14610e7c57600080fd5b806007819055506007600d60006101000a81548160ff02191690836009811115610ea957610ea86120af565b5b02179055507f59e2b1bea451053289971062b187c027a0f841853f70e131a5a9f22b05cd44f8600754604051610edf9190611dc3565b60405180910390a150565b600360009054906101000a900473ffffffffffffffffffffffffffffffffffffffff1681565b6000807f5c5c5c5c5c5c5c5c5c5c5c5c5c5c5c5c5c5c5c5c5c5c5c5c5c5c5c5c5c5c5c5c60001b905060007f363636363636363636363636363636363636363636363636363636363636363660001b90506000610f6f82871886611435565b9050610f7d83871882611435565b935050505092915050565b6000600282604051602001610f9d91906124cb565b604051602081830303815290604052604051610fb991906121f4565b602060405180830381855afa158015610fd6573d6000803e3d6000fd5b5050506040513d601f19601f82011682018060405250810190610ff99190612220565b9050919050565b60065481565b606060006110148888610f10565b905060008682146112c6576002876040516020016110329190611dc3565b60405160208183030381529060405260405161104e91906121f4565b602060405180830381855afa15801561106b573d6000803e3d6000fd5b5050506040513d601f19601f8201168201806040525081019061108e9190612220565b905060005b8581101561113b576002828683815181106110b1576110b061224d565b5b60200260200101516040516020016110ca92919061227c565b6040516020818303038152906040526040516110e691906121f4565b602060405180830381855afa158015611103573d6000803e3d6000fd5b5050506040513d601f19601f820116820180604052508101906111269190612220565b91508080611133906122d4565b915050611093565b508581036111f3573373ffffffffffffffffffffffffffffffffffffffff166108fc600a9081150290604051600060405180830381858888f1935050505015801561118a573d6000803e3d6000fd5b506009600d60006101000a81548160ff021916908360098111156111b1576111b06120af565b5b02179055507f6975f323332c2d66d668c2be6e73ef7173309d6252480fe9fe18895d4e7b93d360016040516111e6919061252b565b60405180910390a16112c1565b600160009054906101000a900473ffffffffffffffffffffffffffffffffffffffff1673ffffffffffffffffffffffffffffffffffffffff166108fc600a9081150290604051600060405180830381858888f1935050505015801561125c573d6000803e3d6000fd5b506009600d60006101000a81548160ff02191690836009811115611283576112826120af565b5b02179055507f6975f323332c2d66d668c2be6e73ef7173309d6252480fe9fe18895d4e7b93d360026040516112b89190612581565b60405180910390a15b6112ff565b7f6975f323332c2d66d668c2be6e73ef7173309d6252480fe9fe18895d4e7b93d360036040516112f691906125d7565b60405180910390a15b50509695505050505050565b600b5481565b60085481565b60045481565b600360009054906101000a900473ffffffffffffffffffffffffffffffffffffffff1673ffffffffffffffffffffffffffffffffffffffff163373ffffffffffffffffffffffffffffffffffffffff161461137757600080fd5b80341461138357600080fd5b82600a81905550816008819055508060098190555042600b819055506002600d60006101000a81548160ff021916908360098111156113c5576113c46120af565b5b02179055507f038403778ce33b7bbdbd6c808eed8cacd1a5e8a78851fbcec058f610aef431ea8383836040516113fd939291906125f2565b60405180910390a1505050565b600c5481565b600d60009054906101000a900460ff1681565b60095481565b60005481565b600a5481565b60006002838360405160200161144c929190612629565b60405160208183030381529060405260405161146891906121f4565b602060405180830381855afa158015611485573d6000803e3d6000fd5b5050506040513d601f19601f820116820180604052508101906114a89190612220565b905092915050565b600260009054906101000a900473ffffffffffffffffffffffffffffffffffffffff1673ffffffffffffffffffffffffffffffffffffffff163373ffffffffffffffffffffffffffffffffffffffff161461150a57600080fd5b6008600981111561151e5761151d6120af565b5b600d60009054906101000a900460ff1660098111156115405761153f6120af565b5b1461154a57600080fd5b8073ffffffffffffffffffffffffffffffffffffffff168273ffffffffffffffffffffffffffffffffffffffff16036115cb578173ffffffffffffffffffffffffffffffffffffffff166108fc6009549081150290604051600060405180830381858888f193505050501580156115c5573d6000803e3d6000fd5b50611637565b600160009054906101000a900473ffffffffffffffffffffffffffffffffffffffff1673ffffffffffffffffffffffffffffffffffffffff166108fc6009549081150290604051600060405180830381858888f19350505050158015611635573d6000803e3d6000fd5b505b6009600d60006101000a81548160ff0219169083600981111561165d5761165c6120af565b5b02179055507f5b6a2b2de4fa5ff7a980e48d8fe9471ff3ec4eeef693a29dae080e6a5a9c786f8282604051611693929190612655565b60405180910390a15050565b600360009054906101000a900473ffffffffffffffffffffffffffffffffffffffff1673ffffffffffffffffffffffffffffffffffffffff163373ffffffffffffffffffffffffffffffffffffffff16146116f957600080fd5b6003600981111561170d5761170c6120af565b5b600d60009054906101000a900460ff16600981111561172f5761172e6120af565b5b1461173957600080fd5b600954600854611749919061267e565b341461175457600080fd5b6004600d60006101000a81548160ff0219169083600981111561177a576117796120af565b5b02179055507fe37b4d92bfb3a0f51b4632930020ab1670830e1c71576288d9b33f4671f09bb933346040516117b09291906126b2565b60405180910390a1565b606060006117c88888610f10565b905060008682146119ea57866040516020016117e49190611dc3565b60405160208183030381529060405280519060200120905060005b8581101561185f578185828151811061181b5761181a61224d565b5b602002602001015160405160200161183492919061227c565b6040516020818303038152906040528051906020012091508080611857906122d4565b9150506117ff565b50858103611917573373ffffffffffffffffffffffffffffffffffffffff166108fc600a9081150290604051600060405180830381858888f193505050501580156118ae573d6000803e3d6000fd5b506009600d60006101000a81548160ff021916908360098111156118d5576118d46120af565b5b02179055507f6975f323332c2d66d668c2be6e73ef7173309d6252480fe9fe18895d4e7b93d3600160405161190a919061252b565b60405180910390a16119e5565b600160009054906101000a900473ffffffffffffffffffffffffffffffffffffffff1673ffffffffffffffffffffffffffffffffffffffff166108fc600a9081150290604051600060405180830381858888f19350505050158015611980573d6000803e3d6000fd5b506009600d60006101000a81548160ff021916908360098111156119a7576119a66120af565b5b02179055507f6975f323332c2d66d668c2be6e73ef7173309d6252480fe9fe18895d4e7b93d360026040516119dc9190612581565b60405180910390a15b611a23565b7f6975f323332c2d66d668c2be6e73ef7173309d6252480fe9fe18895d4e7b93d36003604051611a1a91906125d7565b60405180910390a15b50509695505050505050565b6000604051905090565b600080fd5b600080fd5b6000819050919050565b611a5681611a43565b8114611a6157600080fd5b50565b600081359050611a7381611a4d565b92915050565b600080fd5b6000601f19601f8301169050919050565b7f4e487b7100000000000000000000000000000000000000000000000000000000600052604160045260246000fd5b611ac782611a7e565b810181811067ffffffffffffffff82111715611ae657611ae5611a8f565b5b80604052505050565b6000611af9611a2f565b9050611b058282611abe565b919050565b600067ffffffffffffffff821115611b2557611b24611a8f565b5b602082029050602081019050919050565b600080fd5b6000611b4e611b4984611b0a565b611aef565b90508083825260208201905060208402830185811115611b7157611b70611b36565b5b835b81811015611b9a5780611b868882611a64565b845260208401935050602081019050611b73565b5050509392505050565b600082601f830112611bb957611bb8611a79565b5b8135611bc9848260208601611b3b565b91505092915050565b600080600060608486031215611beb57611bea611a39565b5b6000611bf986828701611a64565b9350506020611c0a86828701611a64565b925050604084013567ffffffffffffffff811115611c2b57611c2a611a3e565b5b611c3786828701611ba4565b9150509250925092565b600081519050919050565b600082825260208201905092915050565b60005b83811015611c7b578082015181840152602081019050611c60565b60008484015250505050565b6000611c9282611c41565b611c9c8185611c4c565b9350611cac818560208601611c5d565b611cb581611a7e565b840191505092915050565b60006020820190508181036000830152611cda8184611c87565b905092915050565b6000819050919050565b611cf581611ce2565b8114611d0057600080fd5b50565b600081359050611d1281611cec565b92915050565b60008060408385031215611d2f57611d2e611a39565b5b6000611d3d85828601611a64565b9250506020611d4e85828601611d03565b9150509250929050565b600073ffffffffffffffffffffffffffffffffffffffff82169050919050565b6000611d8382611d58565b9050919050565b611d9381611d78565b82525050565b6000602082019050611dae6000830184611d8a565b92915050565b611dbd81611a43565b82525050565b6000602082019050611dd86000830184611db4565b92915050565b60008060408385031215611df557611df4611a39565b5b6000611e0385828601611d03565b9250506020611e1485828601611a64565b9150509250929050565b600080fd5b600067ffffffffffffffff821115611e3e57611e3d611a8f565b5b611e4782611a7e565b9050602081019050919050565b82818337600083830152505050565b6000611e76611e7184611e23565b611aef565b905082815260208101848484011115611e9257611e91611e1e565b5b611e9d848285611e54565b509392505050565b600082601f830112611eba57611eb9611a79565b5b8135611eca848260208601611e63565b91505092915050565b600060208284031215611ee957611ee8611a39565b5b600082013567ffffffffffffffff811115611f0757611f06611a3e565b5b611f1384828501611ea5565b91505092915050565b600060208284031215611f3257611f31611a39565b5b6000611f4084828501611a64565b91505092915050565b60008060408385031215611f6057611f5f611a39565b5b6000611f6e85828601611a64565b9250506020611f7f85828601611a64565b9150509250929050565b611f9281611ce2565b82525050565b6000602082019050611fad6000830184611f89565b92915050565b60008060008060008060c08789031215611fd057611fcf611a39565b5b6000611fde89828a01611a64565b9650506020611fef89828a01611a64565b955050604061200089828a01611a64565b945050606061201189828a01611a64565b935050608061202289828a01611d03565b92505060a087013567ffffffffffffffff81111561204357612042611a3e565b5b61204f89828a01611ba4565b9150509295509295509295565b60008060006060848603121561207557612074611a39565b5b600061208386828701611a64565b935050602061209486828701611d03565b92505060406120a586828701611d03565b9150509250925092565b7f4e487b7100000000000000000000000000000000000000000000000000000000600052602160045260246000fd5b600a81106120ef576120ee6120af565b5b50565b6000819050612100826120de565b919050565b6000612110826120f2565b9050919050565b61212081612105565b82525050565b600060208201905061213b6000830184612117565b92915050565b61214a81611d78565b811461215557600080fd5b50565b60008135905061216781612141565b92915050565b6000806040838503121561218457612183611a39565b5b600061219285828601612158565b92505060206121a385828601612158565b9150509250929050565b600081519050919050565b600081905092915050565b60006121ce826121ad565b6121d881856121b8565b93506121e8818560208601611c5d565b80840191505092915050565b600061220082846121c3565b915081905092915050565b60008151905061221a81611a4d565b92915050565b60006020828403121561223657612235611a39565b5b60006122448482850161220b565b91505092915050565b7f4e487b7100000000000000000000000000000000000000000000000000000000600052603260045260246000fd5b60006040820190506122916000830185611db4565b61229e6020830184611db4565b9392505050565b7f4e487b7100000000000000000000000000000000000000000000000000000000600052601160045260246000fd5b60006122df82611ce2565b91507fffffffffffffffffffffffffffffffffffffffffffffffffffffffffffffffff8203612311576123106122a5565b5b600182019050919050565b600061232782611ce2565b915061233283611ce2565b925082820190508082111561234a576123496122a5565b5b92915050565b7f526573706f6e64652074696d65206973206f7665722000000000000000000000600082015250565b6000612386601683611c4c565b915061239182612350565b602082019050919050565b600060208201905081810360008301526123b581612379565b9050919050565b60006040820190506123d16000830185611db4565b6123de6020830184611f89565b9392505050565b7f4f7065726174696f6e2074696d65206973206e6f74206f766572207965740000600082015250565b600061241b601e83611c4c565b9150612426826123e5565b602082019050919050565b6000602082019050818103600083015261244a8161240e565b9050919050565b60006040820190506124666000830185611f89565b6124736020830184611db4565b9392505050565b600060408201905061248f6000830185611d8a565b81810360208301526124a18184611c87565b90509392505050565b6000819050919050565b6124c56124c082611a43565b6124aa565b82525050565b60006124d782846124b4565b60208201915081905092915050565b6000819050919050565b6000819050919050565b600061251561251061250b846124e6565b6124f0565b611ce2565b9050919050565b612525816124fa565b82525050565b6000602082019050612540600083018461251c565b92915050565b6000819050919050565b600061256b61256661256184612546565b6124f0565b611ce2565b9050919050565b61257b81612550565b82525050565b60006020820190506125966000830184612572565b92915050565b6000819050919050565b60006125c16125bc6125b78461259c565b6124f0565b611ce2565b9050919050565b6125d1816125a6565b82525050565b60006020820190506125ec60008301846125c8565b92915050565b60006060820190506126076000830186611db4565b6126146020830185611f89565b6126216040830184611f89565b949350505050565b600061263582856124b4565b60208201915061264582846124b4565b6020820191508190509392505050565b600060408201905061266a6000830185611d8a565b6126776020830184611d8a565b9392505050565b600061268982611ce2565b915061269483611ce2565b92508282039050818111156126ac576126ab6122a5565b5b92915050565b60006040820190506126c76000830185611d8a565b6126d46020830184611f89565b939250505056fea2646970667358221220610aed06a769f0208ce6ce48ccf7ab73d50a672baafcd276b38cbfc45a15ac5c64736f6c63430008120033",
					"opcodes": "PUSH1 0x80 PUSH1 0x40 MSTORE PUSH1 0x0 DUP1 SSTORE PUSH2 0x258 PUSH1 0xC SSTORE CALLVALUE DUP1 ISZERO PUSH2 0x1A JUMPI PUSH1 0x0 DUP1 REVERT JUMPDEST POP CALLER PUSH1 0x2 PUSH1 0x0 PUSH2 0x100 EXP DUP2 SLOAD DUP2 PUSH20 0xFFFFFFFFFFFFFFFFFFFFFFFFFFFFFFFFFFFFFFFF MUL NOT AND SWAP1 DUP4 PUSH20 0xFFFFFFFFFFFFFFFFFFFFFFFFFFFFFFFFFFFFFFFF AND MUL OR SWAP1 SSTORE POP CALLER PUSH1 0x1 PUSH1 0x0 PUSH2 0x100 EXP DUP2 SLOAD DUP2 PUSH20 0xFFFFFFFFFFFFFFFFFFFFFFFFFFFFFFFFFFFFFFFF MUL NOT AND SWAP1 DUP4 PUSH20 0xFFFFFFFFFFFFFFFFFFFFFFFFFFFFFFFFFFFFFFFF AND MUL OR SWAP1 SSTORE POP CALLER PUSH1 0x3 PUSH1 0x0 PUSH2 0x100 EXP DUP2 SLOAD DUP2 PUSH20 0xFFFFFFFFFFFFFFFFFFFFFFFFFFFFFFFFFFFFFFFF MUL NOT AND SWAP1 DUP4 PUSH20 0xFFFFFFFFFFFFFFFFFFFFFFFFFFFFFFFFFFFFFFFF AND MUL OR SWAP1 SSTORE POP PUSH1 0x0 PUSH1 0xD PUSH1 0x0 PUSH2 0x100 EXP DUP2 SLOAD DUP2 PUSH1 0xFF MUL NOT AND SWAP1 DUP4 PUSH1 0x9 DUP2 GT ISZERO PUSH2 0x104 JUMPI PUSH2 0x103 PUSH2 0x10E JUMP JUMPDEST JUMPDEST MUL OR SWAP1 SSTORE POP PUSH2 0x13D JUMP JUMPDEST PUSH32 0x4E487B7100000000000000000000000000000000000000000000000000000000 PUSH1 0x0 MSTORE PUSH1 0x21 PUSH1 0x4 MSTORE PUSH1 0x24 PUSH1 0x0 REVERT JUMPDEST PUSH2 0x2711 DUP1 PUSH3 0x14D PUSH1 0x0 CODECOPY PUSH1 0x0 RETURN INVALID PUSH1 0x80 PUSH1 0x40 MSTORE PUSH1 0x4 CALLDATASIZE LT PUSH2 0x1B7 JUMPI PUSH1 0x0 CALLDATALOAD PUSH1 0xE0 SHR DUP1 PUSH4 0x899A69A7 GT PUSH2 0xEC JUMPI DUP1 PUSH4 0xC2A2747B GT PUSH2 0x8A JUMPI DUP1 PUSH4 0xEE17B807 GT PUSH2 0x64 JUMPI DUP1 PUSH4 0xEE17B807 EQ PUSH2 0x5D4 JUMPI DUP1 PUSH4 0xF258D51E EQ PUSH2 0x611 JUMPI DUP1 PUSH4 0xF4C1F07B EQ PUSH2 0x63A JUMPI DUP1 PUSH4 0xF9F7EE1E EQ PUSH2 0x644 JUMPI PUSH2 0x1B7 JUMP JUMPDEST DUP1 PUSH4 0xC2A2747B EQ PUSH2 0x553 JUMPI DUP1 PUSH4 0xC8A663EC EQ PUSH2 0x57E JUMPI DUP1 PUSH4 0xE6299631 EQ PUSH2 0x5A9 JUMPI PUSH2 0x1B7 JUMP JUMPDEST DUP1 PUSH4 0xA2FC30AF GT PUSH2 0xC6 JUMPI DUP1 PUSH4 0xA2FC30AF EQ PUSH2 0x4B6 JUMPI DUP1 PUSH4 0xB93A86CE EQ PUSH2 0x4E1 JUMPI DUP1 PUSH4 0xC08D1FE5 EQ PUSH2 0x4FD JUMPI DUP1 PUSH4 0xC19D93FB EQ PUSH2 0x528 JUMPI PUSH2 0x1B7 JUMP JUMPDEST DUP1 PUSH4 0x899A69A7 EQ PUSH2 0x423 JUMPI DUP1 PUSH4 0x9AE67252 EQ PUSH2 0x460 JUMPI DUP1 PUSH4 0x9AE8886A EQ PUSH2 0x48B JUMPI PUSH2 0x1B7 JUMP JUMPDEST DUP1 PUSH4 0x5DA47F32 GT PUSH2 0x159 JUMPI DUP1 PUSH4 0x7150D8AE GT PUSH2 0x133 JUMPI DUP1 PUSH4 0x7150D8AE EQ PUSH2 0x353 JUMPI DUP1 PUSH4 0x78192063 EQ PUSH2 0x37E JUMPI DUP1 PUSH4 0x7A1A456A EQ PUSH2 0x3BB JUMPI DUP1 PUSH4 0x80AA2DAE EQ PUSH2 0x3F8 JUMPI PUSH2 0x1B7 JUMP JUMPDEST DUP1 PUSH4 0x5DA47F32 EQ PUSH2 0x2D6 JUMPI DUP1 PUSH4 0x6CC6CDE1 EQ PUSH2 0x2FF JUMPI DUP1 PUSH4 0x706A0160 EQ PUSH2 0x32A JUMPI PUSH2 0x1B7 JUMP JUMPDEST DUP1 PUSH4 0x2F81B0A0 GT PUSH2 0x195 JUMPI DUP1 PUSH4 0x2F81B0A0 EQ PUSH2 0x240 JUMPI DUP1 PUSH4 0x3502E066 EQ PUSH2 0x26B JUMPI DUP1 PUSH4 0x4BBF6642 EQ PUSH2 0x282 JUMPI DUP1 PUSH4 0x50339559 EQ PUSH2 0x2AD JUMPI PUSH2 0x1B7 JUMP JUMPDEST DUP1 PUSH4 0x7C5FBE5 EQ PUSH2 0x1BC JUMPI DUP1 PUSH4 0x7E4312E EQ PUSH2 0x1F9 JUMPI DUP1 PUSH4 0x8551A53 EQ PUSH2 0x215 JUMPI JUMPDEST PUSH1 0x0 DUP1 REVERT JUMPDEST CALLVALUE DUP1 ISZERO PUSH2 0x1C8 JUMPI PUSH1 0x0 DUP1 REVERT JUMPDEST POP PUSH2 0x1E3 PUSH1 0x4 DUP1 CALLDATASIZE SUB DUP2 ADD SWAP1 PUSH2 0x1DE SWAP2 SWAP1 PUSH2 0x1BD2 JUMP JUMPDEST PUSH2 0x681 JUMP JUMPDEST PUSH1 0x40 MLOAD PUSH2 0x1F0 SWAP2 SWAP1 PUSH2 0x1CC0 JUMP JUMPDEST PUSH1 0x40 MLOAD DUP1 SWAP2 SUB SWAP1 RETURN JUMPDEST PUSH2 0x213 PUSH1 0x4 DUP1 CALLDATASIZE SUB DUP2 ADD SWAP1 PUSH2 0x20E SWAP2 SWAP1 PUSH2 0x1D18 JUMP JUMPDEST PUSH2 0x98C JUMP JUMPDEST STOP JUMPDEST CALLVALUE DUP1 ISZERO PUSH2 0x221 JUMPI PUSH1 0x0 DUP1 REVERT JUMPDEST POP PUSH2 0x22A PUSH2 0xA93 JUMP JUMPDEST PUSH1 0x40 MLOAD PUSH2 0x237 SWAP2 SWAP1 PUSH2 0x1D99 JUMP JUMPDEST PUSH1 0x40 MLOAD DUP1 SWAP2 SUB SWAP1 RETURN JUMPDEST CALLVALUE DUP1 ISZERO PUSH2 0x24C JUMPI PUSH1 0x0 DUP1 REVERT JUMPDEST POP PUSH2 0x255 PUSH2 0xAB9 JUMP JUMPDEST PUSH1 0x40 MLOAD PUSH2 0x262 SWAP2 SWAP1 PUSH2 0x1DC3 JUMP JUMPDEST PUSH1 0x40 MLOAD DUP1 SWAP2 SUB SWAP1 RETURN JUMPDEST CALLVALUE DUP1 ISZERO PUSH2 0x277 JUMPI PUSH1 0x0 DUP1 REVERT JUMPDEST POP PUSH2 0x280 PUSH2 0xABF JUMP JUMPDEST STOP JUMPDEST CALLVALUE DUP1 ISZERO PUSH2 0x28E JUMPI PUSH1 0x0 DUP1 REVERT JUMPDEST POP PUSH2 0x297 PUSH2 0xBFD JUMP JUMPDEST PUSH1 0x40 MLOAD PUSH2 0x2A4 SWAP2 SWAP1 PUSH2 0x1DC3 JUMP JUMPDEST PUSH1 0x40 MLOAD DUP1 SWAP2 SUB SWAP1 RETURN JUMPDEST CALLVALUE DUP1 ISZERO PUSH2 0x2B9 JUMPI PUSH1 0x0 DUP1 REVERT JUMPDEST POP PUSH2 0x2D4 PUSH1 0x4 DUP1 CALLDATASIZE SUB DUP2 ADD SWAP1 PUSH2 0x2CF SWAP2 SWAP1 PUSH2 0x1DDE JUMP JUMPDEST PUSH2 0xC03 JUMP JUMPDEST STOP JUMPDEST CALLVALUE DUP1 ISZERO PUSH2 0x2E2 JUMPI PUSH1 0x0 DUP1 REVERT JUMPDEST POP PUSH2 0x2FD PUSH1 0x4 DUP1 CALLDATASIZE SUB DUP2 ADD SWAP1 PUSH2 0x2F8 SWAP2 SWAP1 PUSH2 0x1ED3 JUMP JUMPDEST PUSH2 0xD15 JUMP JUMPDEST STOP JUMPDEST CALLVALUE DUP1 ISZERO PUSH2 0x30B JUMPI PUSH1 0x0 DUP1 REVERT JUMPDEST POP PUSH2 0x314 PUSH2 0xDBC JUMP JUMPDEST PUSH1 0x40 MLOAD PUSH2 0x321 SWAP2 SWAP1 PUSH2 0x1D99 JUMP JUMPDEST PUSH1 0x40 MLOAD DUP1 SWAP2 SUB SWAP1 RETURN JUMPDEST CALLVALUE DUP1 ISZERO PUSH2 0x336 JUMPI PUSH1 0x0 DUP1 REVERT JUMPDEST POP PUSH2 0x351 PUSH1 0x4 DUP1 CALLDATASIZE SUB DUP2 ADD SWAP1 PUSH2 0x34C SWAP2 SWAP1 PUSH2 0x1F1C JUMP JUMPDEST PUSH2 0xDE2 JUMP JUMPDEST STOP JUMPDEST CALLVALUE DUP1 ISZERO PUSH2 0x35F JUMPI PUSH1 0x0 DUP1 REVERT JUMPDEST POP PUSH2 0x368 PUSH2 0xEEA JUMP JUMPDEST PUSH1 0x40 MLOAD PUSH2 0x375 SWAP2 SWAP1 PUSH2 0x1D99 JUMP JUMPDEST PUSH1 0x40 MLOAD DUP1 SWAP2 SUB SWAP1 RETURN JUMPDEST CALLVALUE DUP1 ISZERO PUSH2 0x38A JUMPI PUSH1 0x0 DUP1 REVERT JUMPDEST POP PUSH2 0x3A5 PUSH1 0x4 DUP1 CALLDATASIZE SUB DUP2 ADD SWAP1 PUSH2 0x3A0 SWAP2 SWAP1 PUSH2 0x1F49 JUMP JUMPDEST PUSH2 0xF10 JUMP JUMPDEST PUSH1 0x40 MLOAD PUSH2 0x3B2 SWAP2 SWAP1 PUSH2 0x1DC3 JUMP JUMPDEST PUSH1 0x40 MLOAD DUP1 SWAP2 SUB SWAP1 RETURN JUMPDEST CALLVALUE DUP1 ISZERO PUSH2 0x3C7 JUMPI PUSH1 0x0 DUP1 REVERT JUMPDEST POP PUSH2 0x3E2 PUSH1 0x4 DUP1 CALLDATASIZE SUB DUP2 ADD SWAP1 PUSH2 0x3DD SWAP2 SWAP1 PUSH2 0x1F1C JUMP JUMPDEST PUSH2 0xF88 JUMP JUMPDEST PUSH1 0x40 MLOAD PUSH2 0x3EF SWAP2 SWAP1 PUSH2 0x1DC3 JUMP JUMPDEST PUSH1 0x40 MLOAD DUP1 SWAP2 SUB SWAP1 RETURN JUMPDEST CALLVALUE DUP1 ISZERO PUSH2 0x404 JUMPI PUSH1 0x0 DUP1 REVERT JUMPDEST POP PUSH2 0x40D PUSH2 0x1000 JUMP JUMPDEST PUSH1 0x40 MLOAD PUSH2 0x41A SWAP2 SWAP1 PUSH2 0x1F98 JUMP JUMPDEST PUSH1 0x40 MLOAD DUP1 SWAP2 SUB SWAP1 RETURN JUMPDEST CALLVALUE DUP1 ISZERO PUSH2 0x42F JUMPI PUSH1 0x0 DUP1 REVERT JUMPDEST POP PUSH2 0x44A PUSH1 0x4 DUP1 CALLDATASIZE SUB DUP2 ADD SWAP1 PUSH2 0x445 SWAP2 SWAP1 PUSH2 0x1FB3 JUMP JUMPDEST PUSH2 0x1006 JUMP JUMPDEST PUSH1 0x40 MLOAD PUSH2 0x457 SWAP2 SWAP1 PUSH2 0x1CC0 JUMP JUMPDEST PUSH1 0x40 MLOAD DUP1 SWAP2 SUB SWAP1 RETURN JUMPDEST CALLVALUE DUP1 ISZERO PUSH2 0x46C JUMPI PUSH1 0x0 DUP1 REVERT JUMPDEST POP PUSH2 0x475 PUSH2 0x130B JUMP JUMPDEST PUSH1 0x40 MLOAD PUSH2 0x482 SWAP2 SWAP1 PUSH2 0x1F98 JUMP JUMPDEST PUSH1 0x40 MLOAD DUP1 SWAP2 SUB SWAP1 RETURN JUMPDEST CALLVALUE DUP1 ISZERO PUSH2 0x497 JUMPI PUSH1 0x0 DUP1 REVERT JUMPDEST POP PUSH2 0x4A0 PUSH2 0x1311 JUMP JUMPDEST PUSH1 0x40 MLOAD PUSH2 0x4AD SWAP2 SWAP1 PUSH2 0x1F98 JUMP JUMPDEST PUSH1 0x40 MLOAD DUP1 SWAP2 SUB SWAP1 RETURN JUMPDEST CALLVALUE DUP1 ISZERO PUSH2 0x4C2 JUMPI PUSH1 0x0 DUP1 REVERT JUMPDEST POP PUSH2 0x4CB PUSH2 0x1317 JUMP JUMPDEST PUSH1 0x40 MLOAD PUSH2 0x4D8 SWAP2 SWAP1 PUSH2 0x1DC3 JUMP JUMPDEST PUSH1 0x40 MLOAD DUP1 SWAP2 SUB SWAP1 RETURN JUMPDEST PUSH2 0x4FB PUSH1 0x4 DUP1 CALLDATASIZE SUB DUP2 ADD SWAP1 PUSH2 0x4F6 SWAP2 SWAP1 PUSH2 0x205C JUMP JUMPDEST PUSH2 0x131D JUMP JUMPDEST STOP JUMPDEST CALLVALUE DUP1 ISZERO PUSH2 0x509 JUMPI PUSH1 0x0 DUP1 REVERT JUMPDEST POP PUSH2 0x512 PUSH2 0x140A JUMP JUMPDEST PUSH1 0x40 MLOAD PUSH2 0x51F SWAP2 SWAP1 PUSH2 0x1F98 JUMP JUMPDEST PUSH1 0x40 MLOAD DUP1 SWAP2 SUB SWAP1 RETURN JUMPDEST CALLVALUE DUP1 ISZERO PUSH2 0x534 JUMPI PUSH1 0x0 DUP1 REVERT JUMPDEST POP PUSH2 0x53D PUSH2 0x1410 JUMP JUMPDEST PUSH1 0x40 MLOAD PUSH2 0x54A SWAP2 SWAP1 PUSH2 0x2126 JUMP JUMPDEST PUSH1 0x40 MLOAD DUP1 SWAP2 SUB SWAP1 RETURN JUMPDEST CALLVALUE DUP1 ISZERO PUSH2 0x55F JUMPI PUSH1 0x0 DUP1 REVERT JUMPDEST POP PUSH2 0x568 PUSH2 0x1423 JUMP JUMPDEST PUSH1 0x40 MLOAD PUSH2 0x575 SWAP2 SWAP1 PUSH2 0x1F98 JUMP JUMPDEST PUSH1 0x40 MLOAD DUP1 SWAP2 SUB SWAP1 RETURN JUMPDEST CALLVALUE DUP1 ISZERO PUSH2 0x58A JUMPI PUSH1 0x0 DUP1 REVERT JUMPDEST POP PUSH2 0x593 PUSH2 0x1429 JUMP JUMPDEST PUSH1 0x40 MLOAD PUSH2 0x5A0 SWAP2 SWAP1 PUSH2 0x1F98 JUMP JUMPDEST PUSH1 0x40 MLOAD DUP1 SWAP2 SUB SWAP1 RETURN JUMPDEST CALLVALUE DUP1 ISZERO PUSH2 0x5B5 JUMPI PUSH1 0x0 DUP1 REVERT JUMPDEST POP PUSH2 0x5BE PUSH2 0x142F JUMP JUMPDEST PUSH1 0x40 MLOAD PUSH2 0x5CB SWAP2 SWAP1 PUSH2 0x1DC3 JUMP JUMPDEST PUSH1 0x40 MLOAD DUP1 SWAP2 SUB SWAP1 RETURN JUMPDEST CALLVALUE DUP1 ISZERO PUSH2 0x5E0 JUMPI PUSH1 0x0 DUP1 REVERT JUMPDEST POP PUSH2 0x5FB PUSH1 0x4 DUP1 CALLDATASIZE SUB DUP2 ADD SWAP1 PUSH2 0x5F6 SWAP2 SWAP1 PUSH2 0x1F49 JUMP JUMPDEST PUSH2 0x1435 JUMP JUMPDEST PUSH1 0x40 MLOAD PUSH2 0x608 SWAP2 SWAP1 PUSH2 0x1DC3 JUMP JUMPDEST PUSH1 0x40 MLOAD DUP1 SWAP2 SUB SWAP1 RETURN JUMPDEST CALLVALUE DUP1 ISZERO PUSH2 0x61D JUMPI PUSH1 0x0 DUP1 REVERT JUMPDEST POP PUSH2 0x638 PUSH1 0x4 DUP1 CALLDATASIZE SUB DUP2 ADD SWAP1 PUSH2 0x633 SWAP2 SWAP1 PUSH2 0x216D JUMP JUMPDEST PUSH2 0x14B0 JUMP JUMPDEST STOP JUMPDEST PUSH2 0x642 PUSH2 0x169F JUMP JUMPDEST STOP JUMPDEST CALLVALUE DUP1 ISZERO PUSH2 0x650 JUMPI PUSH1 0x0 DUP1 REVERT JUMPDEST POP PUSH2 0x66B PUSH1 0x4 DUP1 CALLDATASIZE SUB DUP2 ADD SWAP1 PUSH2 0x666 SWAP2 SWAP1 PUSH2 0x1FB3 JUMP JUMPDEST PUSH2 0x17BA JUMP JUMPDEST PUSH1 0x40 MLOAD PUSH2 0x678 SWAP2 SWAP1 PUSH2 0x1CC0 JUMP JUMPDEST PUSH1 0x40 MLOAD DUP1 SWAP2 SUB SWAP1 RETURN JUMPDEST PUSH1 0x60 PUSH1 0x0 PUSH2 0x691 PUSH1 0x7 SLOAD DUP7 PUSH2 0xF10 JUMP JUMPDEST SWAP1 POP PUSH1 0x0 DUP5 DUP3 EQ PUSH2 0x94A JUMPI PUSH1 0x2 DUP6 PUSH1 0x40 MLOAD PUSH1 0x20 ADD PUSH2 0x6AF SWAP2 SWAP1 PUSH2 0x1DC3 JUMP JUMPDEST PUSH1 0x40 MLOAD PUSH1 0x20 DUP2 DUP4 SUB SUB DUP2 MSTORE SWAP1 PUSH1 0x40 MSTORE PUSH1 0x40 MLOAD PUSH2 0x6CB SWAP2 SWAP1 PUSH2 0x21F4 JUMP JUMPDEST PUSH1 0x20 PUSH1 0x40 MLOAD DUP1 DUP4 SUB DUP2 DUP6 GAS STATICCALL ISZERO DUP1 ISZERO PUSH2 0x6E8 JUMPI RETURNDATASIZE PUSH1 0x0 DUP1 RETURNDATACOPY RETURNDATASIZE PUSH1 0x0 REVERT JUMPDEST POP POP POP PUSH1 0x40 MLOAD RETURNDATASIZE PUSH1 0x1F NOT PUSH1 0x1F DUP3 ADD AND DUP3 ADD DUP1 PUSH1 0x40 MSTORE POP DUP2 ADD SWAP1 PUSH2 0x70B SWAP2 SWAP1 PUSH2 0x2220 JUMP JUMPDEST SWAP1 POP PUSH1 0x0 JUMPDEST PUSH1 0x6 SLOAD DUP2 LT ISZERO PUSH2 0x7BA JUMPI PUSH1 0x2 DUP3 DUP7 DUP4 DUP2 MLOAD DUP2 LT PUSH2 0x730 JUMPI PUSH2 0x72F PUSH2 0x224D JUMP JUMPDEST JUMPDEST PUSH1 0x20 MUL PUSH1 0x20 ADD ADD MLOAD PUSH1 0x40 MLOAD PUSH1 0x20 ADD PUSH2 0x749 SWAP3 SWAP2 SWAP1 PUSH2 0x227C JUMP JUMPDEST PUSH1 0x40 MLOAD PUSH1 0x20 DUP2 DUP4 SUB SUB DUP2 MSTORE SWAP1 PUSH1 0x40 MSTORE PUSH1 0x40 MLOAD PUSH2 0x765 SWAP2 SWAP1 PUSH2 0x21F4 JUMP JUMPDEST PUSH1 0x20 PUSH1 0x40 MLOAD DUP1 DUP4 SUB DUP2 DUP6 GAS STATICCALL ISZERO DUP1 ISZERO PUSH2 0x782 JUMPI RETURNDATASIZE PUSH1 0x0 DUP1 RETURNDATACOPY RETURNDATASIZE PUSH1 0x0 REVERT JUMPDEST POP POP POP PUSH1 0x40 MLOAD RETURNDATASIZE PUSH1 0x1F NOT PUSH1 0x1F DUP3 ADD AND DUP3 ADD DUP1 PUSH1 0x40 MSTORE POP DUP2 ADD SWAP1 PUSH2 0x7A5 SWAP2 SWAP1 PUSH2 0x2220 JUMP JUMPDEST SWAP2 POP DUP1 DUP1 PUSH2 0x7B2 SWAP1 PUSH2 0x22D4 JUMP JUMPDEST SWAP2 POP POP PUSH2 0x710 JUMP JUMPDEST POP PUSH1 0x5 SLOAD DUP2 SUB PUSH2 0x876 JUMPI CALLER PUSH20 0xFFFFFFFFFFFFFFFFFFFFFFFFFFFFFFFFFFFFFFFF AND PUSH2 0x8FC PUSH1 0xA SWAP1 DUP2 ISZERO MUL SWAP1 PUSH1 0x40 MLOAD PUSH1 0x0 PUSH1 0x40 MLOAD DUP1 DUP4 SUB DUP2 DUP6 DUP9 DUP9 CALL SWAP4 POP POP POP POP ISZERO DUP1 ISZERO PUSH2 0x80B JUMPI RETURNDATASIZE PUSH1 0x0 DUP1 RETURNDATACOPY RETURNDATASIZE PUSH1 0x0 REVERT JUMPDEST POP PUSH1 0x9 PUSH1 0xD PUSH1 0x0 PUSH2 0x100 EXP DUP2 SLOAD DUP2 PUSH1 0xFF MUL NOT AND SWAP1 DUP4 PUSH1 0x9 DUP2 GT ISZERO PUSH2 0x832 JUMPI PUSH2 0x831 PUSH2 0x20AF JUMP JUMPDEST JUMPDEST MUL OR SWAP1 SSTORE POP PUSH1 0x40 MLOAD DUP1 PUSH1 0x40 ADD PUSH1 0x40 MSTORE DUP1 PUSH1 0x1 DUP2 MSTORE PUSH1 0x20 ADD PUSH32 0x3100000000000000000000000000000000000000000000000000000000000000 DUP2 MSTORE POP SWAP3 POP POP POP PUSH2 0x985 JUMP JUMPDEST PUSH1 0x1 PUSH1 0x0 SWAP1 SLOAD SWAP1 PUSH2 0x100 EXP SWAP1 DIV PUSH20 0xFFFFFFFFFFFFFFFFFFFFFFFFFFFFFFFFFFFFFFFF AND PUSH20 0xFFFFFFFFFFFFFFFFFFFFFFFFFFFFFFFFFFFFFFFF AND PUSH2 0x8FC PUSH1 0xA SWAP1 DUP2 ISZERO MUL SWAP1 PUSH1 0x40 MLOAD PUSH1 0x0 PUSH1 0x40 MLOAD DUP1 DUP4 SUB DUP2 DUP6 DUP9 DUP9 CALL SWAP4 POP POP POP POP ISZERO DUP1 ISZERO PUSH2 0x8DF JUMPI RETURNDATASIZE PUSH1 0x0 DUP1 RETURNDATACOPY RETURNDATASIZE PUSH1 0x0 REVERT JUMPDEST POP PUSH1 0x9 PUSH1 0xD PUSH1 0x0 PUSH2 0x100 EXP DUP2 SLOAD DUP2 PUSH1 0xFF MUL NOT AND SWAP1 DUP4 PUSH1 0x9 DUP2 GT ISZERO PUSH2 0x906 JUMPI PUSH2 0x905 PUSH2 0x20AF JUMP JUMPDEST JUMPDEST MUL OR SWAP1 SSTORE POP PUSH1 0x40 MLOAD DUP1 PUSH1 0x40 ADD PUSH1 0x40 MSTORE DUP1 PUSH1 0x1 DUP2 MSTORE PUSH1 0x20 ADD PUSH32 0x3200000000000000000000000000000000000000000000000000000000000000 DUP2 MSTORE POP SWAP3 POP POP POP PUSH2 0x985 JUMP JUMPDEST PUSH1 0x40 MLOAD DUP1 PUSH1 0x40 ADD PUSH1 0x40 MSTORE DUP1 PUSH1 0x1 DUP2 MSTORE PUSH1 0x20 ADD PUSH32 0x3300000000000000000000000000000000000000000000000000000000000000 DUP2 MSTORE POP SWAP3 POP POP POP JUMPDEST SWAP4 SWAP3 POP POP POP JUMP JUMPDEST PUSH1 0x2 PUSH1 0x9 DUP2 GT ISZERO PUSH2 0x9A0 JUMPI PUSH2 0x99F PUSH2 0x20AF JUMP JUMPDEST JUMPDEST PUSH1 0xD PUSH1 0x0 SWAP1 SLOAD SWAP1 PUSH2 0x100 EXP SWAP1 DIV PUSH1 0xFF AND PUSH1 0x9 DUP2 GT ISZERO PUSH2 0x9C2 JUMPI PUSH2 0x9C1 PUSH2 0x20AF JUMP JUMPDEST JUMPDEST EQ PUSH2 0x9CC JUMPI PUSH1 0x0 DUP1 REVERT JUMPDEST TIMESTAMP PUSH1 0xC SLOAD PUSH1 0xB SLOAD PUSH2 0x9DD SWAP2 SWAP1 PUSH2 0x231C JUMP JUMPDEST GT PUSH2 0xA1D JUMPI PUSH1 0x40 MLOAD PUSH32 0x8C379A000000000000000000000000000000000000000000000000000000000 DUP2 MSTORE PUSH1 0x4 ADD PUSH2 0xA14 SWAP1 PUSH2 0x239C JUMP JUMPDEST PUSH1 0x40 MLOAD DUP1 SWAP2 SUB SWAP1 REVERT JUMPDEST DUP2 PUSH1 0x5 DUP2 SWAP1 SSTORE POP DUP1 PUSH1 0x6 DUP2 SWAP1 SSTORE POP PUSH1 0x3 PUSH1 0xD PUSH1 0x0 PUSH2 0x100 EXP DUP2 SLOAD DUP2 PUSH1 0xFF MUL NOT AND SWAP1 DUP4 PUSH1 0x9 DUP2 GT ISZERO PUSH2 0xA51 JUMPI PUSH2 0xA50 PUSH2 0x20AF JUMP JUMPDEST JUMPDEST MUL OR SWAP1 SSTORE POP PUSH32 0x8367CC6BA01F36350B0D5F1CAAA3AFA155152DAC000940AE82CD327BFA0BC827 DUP3 DUP3 PUSH1 0x40 MLOAD PUSH2 0xA87 SWAP3 SWAP2 SWAP1 PUSH2 0x23BC JUMP JUMPDEST PUSH1 0x40 MLOAD DUP1 SWAP2 SUB SWAP1 LOG1 POP POP JUMP JUMPDEST PUSH1 0x1 PUSH1 0x0 SWAP1 SLOAD SWAP1 PUSH2 0x100 EXP SWAP1 DIV PUSH20 0xFFFFFFFFFFFFFFFFFFFFFFFFFFFFFFFFFFFFFFFF AND DUP2 JUMP JUMPDEST PUSH1 0x7 SLOAD DUP2 JUMP JUMPDEST PUSH1 0x2 PUSH1 0x9 DUP2 GT ISZERO PUSH2 0xAD3 JUMPI PUSH2 0xAD2 PUSH2 0x20AF JUMP JUMPDEST JUMPDEST PUSH1 0xD PUSH1 0x0 SWAP1 SLOAD SWAP1 PUSH2 0x100 EXP SWAP1 DIV PUSH1 0xFF AND PUSH1 0x9 DUP2 GT ISZERO PUSH2 0xAF5 JUMPI PUSH2 0xAF4 PUSH2 0x20AF JUMP JUMPDEST JUMPDEST EQ PUSH2 0xAFF JUMPI PUSH1 0x0 DUP1 REVERT JUMPDEST TIMESTAMP PUSH1 0xC SLOAD PUSH1 0xB SLOAD PUSH2 0xB10 SWAP2 SWAP1 PUSH2 0x231C JUMP JUMPDEST GT PUSH2 0xB50 JUMPI PUSH1 0x40 MLOAD PUSH32 0x8C379A000000000000000000000000000000000000000000000000000000000 DUP2 MSTORE PUSH1 0x4 ADD PUSH2 0xB47 SWAP1 PUSH2 0x2431 JUMP JUMPDEST PUSH1 0x40 MLOAD DUP1 SWAP2 SUB SWAP1 REVERT JUMPDEST CALLER PUSH20 0xFFFFFFFFFFFFFFFFFFFFFFFFFFFFFFFFFFFFFFFF AND PUSH2 0x8FC PUSH1 0x9 SLOAD SWAP1 DUP2 ISZERO MUL SWAP1 PUSH1 0x40 MLOAD PUSH1 0x0 PUSH1 0x40 MLOAD DUP1 DUP4 SUB DUP2 DUP6 DUP9 DUP9 CALL SWAP4 POP POP POP POP ISZERO DUP1 ISZERO PUSH2 0xB98 JUMPI RETURNDATASIZE PUSH1 0x0 DUP1 RETURNDATACOPY RETURNDATASIZE PUSH1 0x0 REVERT JUMPDEST POP PUSH1 0x9 PUSH1 0xD PUSH1 0x0 PUSH2 0x100 EXP DUP2 SLOAD DUP2 PUSH1 0xFF MUL NOT AND SWAP1 DUP4 PUSH1 0x9 DUP2 GT ISZERO PUSH2 0xBBF JUMPI PUSH2 0xBBE PUSH2 0x20AF JUMP JUMPDEST JUMPDEST MUL OR SWAP1 SSTORE POP PUSH32 0xAFC3B014386561494C2478B62A479F4A42DBCB4EF28845094D473410B972D6D5 CALLER PUSH1 0x40 MLOAD PUSH2 0xBF3 SWAP2 SWAP1 PUSH2 0x1D99 JUMP JUMPDEST PUSH1 0x40 MLOAD DUP1 SWAP2 SUB SWAP1 LOG1 JUMP JUMPDEST PUSH1 0x5 SLOAD DUP2 JUMP JUMPDEST PUSH1 0x1 PUSH1 0x0 SWAP1 SLOAD SWAP1 PUSH2 0x100 EXP SWAP1 DIV PUSH20 0xFFFFFFFFFFFFFFFFFFFFFFFFFFFFFFFFFFFFFFFF AND PUSH20 0xFFFFFFFFFFFFFFFFFFFFFFFFFFFFFFFFFFFFFFFF AND CALLER PUSH20 0xFFFFFFFFFFFFFFFFFFFFFFFFFFFFFFFFFFFFFFFF AND EQ PUSH2 0xC5D JUMPI PUSH1 0x0 DUP1 REVERT JUMPDEST PUSH1 0x0 PUSH1 0x9 DUP2 GT ISZERO PUSH2 0xC71 JUMPI PUSH2 0xC70 PUSH2 0x20AF JUMP JUMPDEST JUMPDEST PUSH1 0xD PUSH1 0x0 SWAP1 SLOAD SWAP1 PUSH2 0x100 EXP SWAP1 DIV PUSH1 0xFF AND PUSH1 0x9 DUP2 GT ISZERO PUSH2 0xC93 JUMPI PUSH2 0xC92 PUSH2 0x20AF JUMP JUMPDEST JUMPDEST EQ PUSH2 0xC9D JUMPI PUSH1 0x0 DUP1 REVERT JUMPDEST DUP2 PUSH1 0x0 DUP2 SWAP1 SSTORE POP DUP1 PUSH1 0x4 DUP2 SWAP1 SSTORE POP PUSH1 0x1 PUSH1 0xD PUSH1 0x0 PUSH2 0x100 EXP DUP2 SLOAD DUP2 PUSH1 0xFF MUL NOT AND SWAP1 DUP4 PUSH1 0x9 DUP2 GT ISZERO PUSH2 0xCD1 JUMPI PUSH2 0xCD0 PUSH2 0x20AF JUMP JUMPDEST JUMPDEST MUL OR SWAP1 SSTORE POP PUSH32 0xCB894139878DA1D74D95C1725159680C62225FBEE97F6AF6F79589B5B3115226 DUP3 PUSH1 0x4 SLOAD PUSH1 0x40 MLOAD PUSH2 0xD09 SWAP3 SWAP2 SWAP1 PUSH2 0x2451 JUMP JUMPDEST PUSH1 0x40 MLOAD DUP1 SWAP2 SUB SWAP1 LOG1 POP POP JUMP JUMPDEST PUSH1 0x5 PUSH1 0x9 DUP2 GT ISZERO PUSH2 0xD29 JUMPI PUSH2 0xD28 PUSH2 0x20AF JUMP JUMPDEST JUMPDEST PUSH1 0xD PUSH1 0x0 SWAP1 SLOAD SWAP1 PUSH2 0x100 EXP SWAP1 DIV PUSH1 0xFF AND PUSH1 0x9 DUP2 GT ISZERO PUSH2 0xD4B JUMPI PUSH2 0xD4A PUSH2 0x20AF JUMP JUMPDEST JUMPDEST EQ PUSH2 0xD55 JUMPI PUSH1 0x0 DUP1 REVERT JUMPDEST PUSH1 0x8 PUSH1 0xD PUSH1 0x0 PUSH2 0x100 EXP DUP2 SLOAD DUP2 PUSH1 0xFF MUL NOT AND SWAP1 DUP4 PUSH1 0x9 DUP2 GT ISZERO PUSH2 0xD7B JUMPI PUSH2 0xD7A PUSH2 0x20AF JUMP JUMPDEST JUMPDEST MUL OR SWAP1 SSTORE POP PUSH32 0xEF067573A1E7AECCA86BF54FEFEF758F77913EE8A001C881474C979DD7328BFE CALLER DUP3 PUSH1 0x40 MLOAD PUSH2 0xDB1 SWAP3 SWAP2 SWAP1 PUSH2 0x247A JUMP JUMPDEST PUSH1 0x40 MLOAD DUP1 SWAP2 SUB SWAP1 LOG1 POP JUMP JUMPDEST PUSH1 0x2 PUSH1 0x0 SWAP1 SLOAD SWAP1 PUSH2 0x100 EXP SWAP1 DIV PUSH20 0xFFFFFFFFFFFFFFFFFFFFFFFFFFFFFFFFFFFFFFFF AND DUP2 JUMP JUMPDEST PUSH1 0x1 PUSH1 0x0 SWAP1 SLOAD SWAP1 PUSH2 0x100 EXP SWAP1 DIV PUSH20 0xFFFFFFFFFFFFFFFFFFFFFFFFFFFFFFFFFFFFFFFF AND PUSH20 0xFFFFFFFFFFFFFFFFFFFFFFFFFFFFFFFFFFFFFFFF AND CALLER PUSH20 0xFFFFFFFFFFFFFFFFFFFFFFFFFFFFFFFFFFFFFFFF AND EQ PUSH2 0xE3C JUMPI PUSH1 0x0 DUP1 REVERT JUMPDEST PUSH1 0x4 PUSH1 0x9 DUP2 GT ISZERO PUSH2 0xE50 JUMPI PUSH2 0xE4F PUSH2 0x20AF JUMP JUMPDEST JUMPDEST PUSH1 0xD PUSH1 0x0 SWAP1 SLOAD SWAP1 PUSH2 0x100 EXP SWAP1 DIV PUSH1 0xFF AND PUSH1 0x9 DUP2 GT ISZERO PUSH2 0xE72 JUMPI PUSH2 0xE71 PUSH2 0x20AF JUMP JUMPDEST JUMPDEST EQ PUSH2 0xE7C JUMPI PUSH1 0x0 DUP1 REVERT JUMPDEST DUP1 PUSH1 0x7 DUP2 SWAP1 SSTORE POP PUSH1 0x7 PUSH1 0xD PUSH1 0x0 PUSH2 0x100 EXP DUP2 SLOAD DUP2 PUSH1 0xFF MUL NOT AND SWAP1 DUP4 PUSH1 0x9 DUP2 GT ISZERO PUSH2 0xEA9 JUMPI PUSH2 0xEA8 PUSH2 0x20AF JUMP JUMPDEST JUMPDEST MUL OR SWAP1 SSTORE POP PUSH32 0x59E2B1BEA451053289971062B187C027A0F841853F70E131A5A9F22B05CD44F8 PUSH1 0x7 SLOAD PUSH1 0x40 MLOAD PUSH2 0xEDF SWAP2 SWAP1 PUSH2 0x1DC3 JUMP JUMPDEST PUSH1 0x40 MLOAD DUP1 SWAP2 SUB SWAP1 LOG1 POP JUMP JUMPDEST PUSH1 0x3 PUSH1 0x0 SWAP1 SLOAD SWAP1 PUSH2 0x100 EXP SWAP1 DIV PUSH20 0xFFFFFFFFFFFFFFFFFFFFFFFFFFFFFFFFFFFFFFFF AND DUP2 JUMP JUMPDEST PUSH1 0x0 DUP1 PUSH32 0x5C5C5C5C5C5C5C5C5C5C5C5C5C5C5C5C5C5C5C5C5C5C5C5C5C5C5C5C5C5C5C5C PUSH1 0x0 SHL SWAP1 POP PUSH1 0x0 PUSH32 0x3636363636363636363636363636363636363636363636363636363636363636 PUSH1 0x0 SHL SWAP1 POP PUSH1 0x0 PUSH2 0xF6F DUP3 DUP8 XOR DUP7 PUSH2 0x1435 JUMP JUMPDEST SWAP1 POP PUSH2 0xF7D DUP4 DUP8 XOR DUP3 PUSH2 0x1435 JUMP JUMPDEST SWAP4 POP POP POP POP SWAP3 SWAP2 POP POP JUMP JUMPDEST PUSH1 0x0 PUSH1 0x2 DUP3 PUSH1 0x40 MLOAD PUSH1 0x20 ADD PUSH2 0xF9D SWAP2 SWAP1 PUSH2 0x24CB JUMP JUMPDEST PUSH1 0x40 MLOAD PUSH1 0x20 DUP2 DUP4 SUB SUB DUP2 MSTORE SWAP1 PUSH1 0x40 MSTORE PUSH1 0x40 MLOAD PUSH2 0xFB9 SWAP2 SWAP1 PUSH2 0x21F4 JUMP JUMPDEST PUSH1 0x20 PUSH1 0x40 MLOAD DUP1 DUP4 SUB DUP2 DUP6 GAS STATICCALL ISZERO DUP1 ISZERO PUSH2 0xFD6 JUMPI RETURNDATASIZE PUSH1 0x0 DUP1 RETURNDATACOPY RETURNDATASIZE PUSH1 0x0 REVERT JUMPDEST POP POP POP PUSH1 0x40 MLOAD RETURNDATASIZE PUSH1 0x1F NOT PUSH1 0x1F DUP3 ADD AND DUP3 ADD DUP1 PUSH1 0x40 MSTORE POP DUP2 ADD SWAP1 PUSH2 0xFF9 SWAP2 SWAP1 PUSH2 0x2220 JUMP JUMPDEST SWAP1 POP SWAP2 SWAP1 POP JUMP JUMPDEST PUSH1 0x6 SLOAD DUP2 JUMP JUMPDEST PUSH1 0x60 PUSH1 0x0 PUSH2 0x1014 DUP9 DUP9 PUSH2 0xF10 JUMP JUMPDEST SWAP1 POP PUSH1 0x0 DUP7 DUP3 EQ PUSH2 0x12C6 JUMPI PUSH1 0x2 DUP8 PUSH1 0x40 MLOAD PUSH1 0x20 ADD PUSH2 0x1032 SWAP2 SWAP1 PUSH2 0x1DC3 JUMP JUMPDEST PUSH1 0x40 MLOAD PUSH1 0x20 DUP2 DUP4 SUB SUB DUP2 MSTORE SWAP1 PUSH1 0x40 MSTORE PUSH1 0x40 MLOAD PUSH2 0x104E SWAP2 SWAP1 PUSH2 0x21F4 JUMP JUMPDEST PUSH1 0x20 PUSH1 0x40 MLOAD DUP1 DUP4 SUB DUP2 DUP6 GAS STATICCALL ISZERO DUP1 ISZERO PUSH2 0x106B JUMPI RETURNDATASIZE PUSH1 0x0 DUP1 RETURNDATACOPY RETURNDATASIZE PUSH1 0x0 REVERT JUMPDEST POP POP POP PUSH1 0x40 MLOAD RETURNDATASIZE PUSH1 0x1F NOT PUSH1 0x1F DUP3 ADD AND DUP3 ADD DUP1 PUSH1 0x40 MSTORE POP DUP2 ADD SWAP1 PUSH2 0x108E SWAP2 SWAP1 PUSH2 0x2220 JUMP JUMPDEST SWAP1 POP PUSH1 0x0 JUMPDEST DUP6 DUP2 LT ISZERO PUSH2 0x113B JUMPI PUSH1 0x2 DUP3 DUP7 DUP4 DUP2 MLOAD DUP2 LT PUSH2 0x10B1 JUMPI PUSH2 0x10B0 PUSH2 0x224D JUMP JUMPDEST JUMPDEST PUSH1 0x20 MUL PUSH1 0x20 ADD ADD MLOAD PUSH1 0x40 MLOAD PUSH1 0x20 ADD PUSH2 0x10CA SWAP3 SWAP2 SWAP1 PUSH2 0x227C JUMP JUMPDEST PUSH1 0x40 MLOAD PUSH1 0x20 DUP2 DUP4 SUB SUB DUP2 MSTORE SWAP1 PUSH1 0x40 MSTORE PUSH1 0x40 MLOAD PUSH2 0x10E6 SWAP2 SWAP1 PUSH2 0x21F4 JUMP JUMPDEST PUSH1 0x20 PUSH1 0x40 MLOAD DUP1 DUP4 SUB DUP2 DUP6 GAS STATICCALL ISZERO DUP1 ISZERO PUSH2 0x1103 JUMPI RETURNDATASIZE PUSH1 0x0 DUP1 RETURNDATACOPY RETURNDATASIZE PUSH1 0x0 REVERT JUMPDEST POP POP POP PUSH1 0x40 MLOAD RETURNDATASIZE PUSH1 0x1F NOT PUSH1 0x1F DUP3 ADD AND DUP3 ADD DUP1 PUSH1 0x40 MSTORE POP DUP2 ADD SWAP1 PUSH2 0x1126 SWAP2 SWAP1 PUSH2 0x2220 JUMP JUMPDEST SWAP2 POP DUP1 DUP1 PUSH2 0x1133 SWAP1 PUSH2 0x22D4 JUMP JUMPDEST SWAP2 POP POP PUSH2 0x1093 JUMP JUMPDEST POP DUP6 DUP2 SUB PUSH2 0x11F3 JUMPI CALLER PUSH20 0xFFFFFFFFFFFFFFFFFFFFFFFFFFFFFFFFFFFFFFFF AND PUSH2 0x8FC PUSH1 0xA SWAP1 DUP2 ISZERO MUL SWAP1 PUSH1 0x40 MLOAD PUSH1 0x0 PUSH1 0x40 MLOAD DUP1 DUP4 SUB DUP2 DUP6 DUP9 DUP9 CALL SWAP4 POP POP POP POP ISZERO DUP1 ISZERO PUSH2 0x118A JUMPI RETURNDATASIZE PUSH1 0x0 DUP1 RETURNDATACOPY RETURNDATASIZE PUSH1 0x0 REVERT JUMPDEST POP PUSH1 0x9 PUSH1 0xD PUSH1 0x0 PUSH2 0x100 EXP DUP2 SLOAD DUP2 PUSH1 0xFF MUL NOT AND SWAP1 DUP4 PUSH1 0x9 DUP2 GT ISZERO PUSH2 0x11B1 JUMPI PUSH2 0x11B0 PUSH2 0x20AF JUMP JUMPDEST JUMPDEST MUL OR SWAP1 SSTORE POP PUSH32 0x6975F323332C2D66D668C2BE6E73EF7173309D6252480FE9FE18895D4E7B93D3 PUSH1 0x1 PUSH1 0x40 MLOAD PUSH2 0x11E6 SWAP2 SWAP1 PUSH2 0x252B JUMP JUMPDEST PUSH1 0x40 MLOAD DUP1 SWAP2 SUB SWAP1 LOG1 PUSH2 0x12C1 JUMP JUMPDEST PUSH1 0x1 PUSH1 0x0 SWAP1 SLOAD SWAP1 PUSH2 0x100 EXP SWAP1 DIV PUSH20 0xFFFFFFFFFFFFFFFFFFFFFFFFFFFFFFFFFFFFFFFF AND PUSH20 0xFFFFFFFFFFFFFFFFFFFFFFFFFFFFFFFFFFFFFFFF AND PUSH2 0x8FC PUSH1 0xA SWAP1 DUP2 ISZERO MUL SWAP1 PUSH1 0x40 MLOAD PUSH1 0x0 PUSH1 0x40 MLOAD DUP1 DUP4 SUB DUP2 DUP6 DUP9 DUP9 CALL SWAP4 POP POP POP POP ISZERO DUP1 ISZERO PUSH2 0x125C JUMPI RETURNDATASIZE PUSH1 0x0 DUP1 RETURNDATACOPY RETURNDATASIZE PUSH1 0x0 REVERT JUMPDEST POP PUSH1 0x9 PUSH1 0xD PUSH1 0x0 PUSH2 0x100 EXP DUP2 SLOAD DUP2 PUSH1 0xFF MUL NOT AND SWAP1 DUP4 PUSH1 0x9 DUP2 GT ISZERO PUSH2 0x1283 JUMPI PUSH2 0x1282 PUSH2 0x20AF JUMP JUMPDEST JUMPDEST MUL OR SWAP1 SSTORE POP PUSH32 0x6975F323332C2D66D668C2BE6E73EF7173309D6252480FE9FE18895D4E7B93D3 PUSH1 0x2 PUSH1 0x40 MLOAD PUSH2 0x12B8 SWAP2 SWAP1 PUSH2 0x2581 JUMP JUMPDEST PUSH1 0x40 MLOAD DUP1 SWAP2 SUB SWAP1 LOG1 JUMPDEST PUSH2 0x12FF JUMP JUMPDEST PUSH32 0x6975F323332C2D66D668C2BE6E73EF7173309D6252480FE9FE18895D4E7B93D3 PUSH1 0x3 PUSH1 0x40 MLOAD PUSH2 0x12F6 SWAP2 SWAP1 PUSH2 0x25D7 JUMP JUMPDEST PUSH1 0x40 MLOAD DUP1 SWAP2 SUB SWAP1 LOG1 JUMPDEST POP POP SWAP7 SWAP6 POP POP POP POP POP POP JUMP JUMPDEST PUSH1 0xB SLOAD DUP2 JUMP JUMPDEST PUSH1 0x8 SLOAD DUP2 JUMP JUMPDEST PUSH1 0x4 SLOAD DUP2 JUMP JUMPDEST PUSH1 0x3 PUSH1 0x0 SWAP1 SLOAD SWAP1 PUSH2 0x100 EXP SWAP1 DIV PUSH20 0xFFFFFFFFFFFFFFFFFFFFFFFFFFFFFFFFFFFFFFFF AND PUSH20 0xFFFFFFFFFFFFFFFFFFFFFFFFFFFFFFFFFFFFFFFF AND CALLER PUSH20 0xFFFFFFFFFFFFFFFFFFFFFFFFFFFFFFFFFFFFFFFF AND EQ PUSH2 0x1377 JUMPI PUSH1 0x0 DUP1 REVERT JUMPDEST DUP1 CALLVALUE EQ PUSH2 0x1383 JUMPI PUSH1 0x0 DUP1 REVERT JUMPDEST DUP3 PUSH1 0xA DUP2 SWAP1 SSTORE POP DUP2 PUSH1 0x8 DUP2 SWAP1 SSTORE POP DUP1 PUSH1 0x9 DUP2 SWAP1 SSTORE POP TIMESTAMP PUSH1 0xB DUP2 SWAP1 SSTORE POP PUSH1 0x2 PUSH1 0xD PUSH1 0x0 PUSH2 0x100 EXP DUP2 SLOAD DUP2 PUSH1 0xFF MUL NOT AND SWAP1 DUP4 PUSH1 0x9 DUP2 GT ISZERO PUSH2 0x13C5 JUMPI PUSH2 0x13C4 PUSH2 0x20AF JUMP JUMPDEST JUMPDEST MUL OR SWAP1 SSTORE POP PUSH32 0x38403778CE33B7BBDBD6C808EED8CACD1A5E8A78851FBCEC058F610AEF431EA DUP4 DUP4 DUP4 PUSH1 0x40 MLOAD PUSH2 0x13FD SWAP4 SWAP3 SWAP2 SWAP1 PUSH2 0x25F2 JUMP JUMPDEST PUSH1 0x40 MLOAD DUP1 SWAP2 SUB SWAP1 LOG1 POP POP POP JUMP JUMPDEST PUSH1 0xC SLOAD DUP2 JUMP JUMPDEST PUSH1 0xD PUSH1 0x0 SWAP1 SLOAD SWAP1 PUSH2 0x100 EXP SWAP1 DIV PUSH1 0xFF AND DUP2 JUMP JUMPDEST PUSH1 0x9 SLOAD DUP2 JUMP JUMPDEST PUSH1 0x0 SLOAD DUP2 JUMP JUMPDEST PUSH1 0xA SLOAD DUP2 JUMP JUMPDEST PUSH1 0x0 PUSH1 0x2 DUP4 DUP4 PUSH1 0x40 MLOAD PUSH1 0x20 ADD PUSH2 0x144C SWAP3 SWAP2 SWAP1 PUSH2 0x2629 JUMP JUMPDEST PUSH1 0x40 MLOAD PUSH1 0x20 DUP2 DUP4 SUB SUB DUP2 MSTORE SWAP1 PUSH1 0x40 MSTORE PUSH1 0x40 MLOAD PUSH2 0x1468 SWAP2 SWAP1 PUSH2 0x21F4 JUMP JUMPDEST PUSH1 0x20 PUSH1 0x40 MLOAD DUP1 DUP4 SUB DUP2 DUP6 GAS STATICCALL ISZERO DUP1 ISZERO PUSH2 0x1485 JUMPI RETURNDATASIZE PUSH1 0x0 DUP1 RETURNDATACOPY RETURNDATASIZE PUSH1 0x0 REVERT JUMPDEST POP POP POP PUSH1 0x40 MLOAD RETURNDATASIZE PUSH1 0x1F NOT PUSH1 0x1F DUP3 ADD AND DUP3 ADD DUP1 PUSH1 0x40 MSTORE POP DUP2 ADD SWAP1 PUSH2 0x14A8 SWAP2 SWAP1 PUSH2 0x2220 JUMP JUMPDEST SWAP1 POP SWAP3 SWAP2 POP POP JUMP JUMPDEST PUSH1 0x2 PUSH1 0x0 SWAP1 SLOAD SWAP1 PUSH2 0x100 EXP SWAP1 DIV PUSH20 0xFFFFFFFFFFFFFFFFFFFFFFFFFFFFFFFFFFFFFFFF AND PUSH20 0xFFFFFFFFFFFFFFFFFFFFFFFFFFFFFFFFFFFFFFFF AND CALLER PUSH20 0xFFFFFFFFFFFFFFFFFFFFFFFFFFFFFFFFFFFFFFFF AND EQ PUSH2 0x150A JUMPI PUSH1 0x0 DUP1 REVERT JUMPDEST PUSH1 0x8 PUSH1 0x9 DUP2 GT ISZERO PUSH2 0x151E JUMPI PUSH2 0x151D PUSH2 0x20AF JUMP JUMPDEST JUMPDEST PUSH1 0xD PUSH1 0x0 SWAP1 SLOAD SWAP1 PUSH2 0x100 EXP SWAP1 DIV PUSH1 0xFF AND PUSH1 0x9 DUP2 GT ISZERO PUSH2 0x1540 JUMPI PUSH2 0x153F PUSH2 0x20AF JUMP JUMPDEST JUMPDEST EQ PUSH2 0x154A JUMPI PUSH1 0x0 DUP1 REVERT JUMPDEST DUP1 PUSH20 0xFFFFFFFFFFFFFFFFFFFFFFFFFFFFFFFFFFFFFFFF AND DUP3 PUSH20 0xFFFFFFFFFFFFFFFFFFFFFFFFFFFFFFFFFFFFFFFF AND SUB PUSH2 0x15CB JUMPI DUP2 PUSH20 0xFFFFFFFFFFFFFFFFFFFFFFFFFFFFFFFFFFFFFFFF AND PUSH2 0x8FC PUSH1 0x9 SLOAD SWAP1 DUP2 ISZERO MUL SWAP1 PUSH1 0x40 MLOAD PUSH1 0x0 PUSH1 0x40 MLOAD DUP1 DUP4 SUB DUP2 DUP6 DUP9 DUP9 CALL SWAP4 POP POP POP POP ISZERO DUP1 ISZERO PUSH2 0x15C5 JUMPI RETURNDATASIZE PUSH1 0x0 DUP1 RETURNDATACOPY RETURNDATASIZE PUSH1 0x0 REVERT JUMPDEST POP PUSH2 0x1637 JUMP JUMPDEST PUSH1 0x1 PUSH1 0x0 SWAP1 SLOAD SWAP1 PUSH2 0x100 EXP SWAP1 DIV PUSH20 0xFFFFFFFFFFFFFFFFFFFFFFFFFFFFFFFFFFFFFFFF AND PUSH20 0xFFFFFFFFFFFFFFFFFFFFFFFFFFFFFFFFFFFFFFFF AND PUSH2 0x8FC PUSH1 0x9 SLOAD SWAP1 DUP2 ISZERO MUL SWAP1 PUSH1 0x40 MLOAD PUSH1 0x0 PUSH1 0x40 MLOAD DUP1 DUP4 SUB DUP2 DUP6 DUP9 DUP9 CALL SWAP4 POP POP POP POP ISZERO DUP1 ISZERO PUSH2 0x1635 JUMPI RETURNDATASIZE PUSH1 0x0 DUP1 RETURNDATACOPY RETURNDATASIZE PUSH1 0x0 REVERT JUMPDEST POP JUMPDEST PUSH1 0x9 PUSH1 0xD PUSH1 0x0 PUSH2 0x100 EXP DUP2 SLOAD DUP2 PUSH1 0xFF MUL NOT AND SWAP1 DUP4 PUSH1 0x9 DUP2 GT ISZERO PUSH2 0x165D JUMPI PUSH2 0x165C PUSH2 0x20AF JUMP JUMPDEST JUMPDEST MUL OR SWAP1 SSTORE POP PUSH32 0x5B6A2B2DE4FA5FF7A980E48D8FE9471FF3EC4EEEF693A29DAE080E6A5A9C786F DUP3 DUP3 PUSH1 0x40 MLOAD PUSH2 0x1693 SWAP3 SWAP2 SWAP1 PUSH2 0x2655 JUMP JUMPDEST PUSH1 0x40 MLOAD DUP1 SWAP2 SUB SWAP1 LOG1 POP POP JUMP JUMPDEST PUSH1 0x3 PUSH1 0x0 SWAP1 SLOAD SWAP1 PUSH2 0x100 EXP SWAP1 DIV PUSH20 0xFFFFFFFFFFFFFFFFFFFFFFFFFFFFFFFFFFFFFFFF AND PUSH20 0xFFFFFFFFFFFFFFFFFFFFFFFFFFFFFFFFFFFFFFFF AND CALLER PUSH20 0xFFFFFFFFFFFFFFFFFFFFFFFFFFFFFFFFFFFFFFFF AND EQ PUSH2 0x16F9 JUMPI PUSH1 0x0 DUP1 REVERT JUMPDEST PUSH1 0x3 PUSH1 0x9 DUP2 GT ISZERO PUSH2 0x170D JUMPI PUSH2 0x170C PUSH2 0x20AF JUMP JUMPDEST JUMPDEST PUSH1 0xD PUSH1 0x0 SWAP1 SLOAD SWAP1 PUSH2 0x100 EXP SWAP1 DIV PUSH1 0xFF AND PUSH1 0x9 DUP2 GT ISZERO PUSH2 0x172F JUMPI PUSH2 0x172E PUSH2 0x20AF JUMP JUMPDEST JUMPDEST EQ PUSH2 0x1739 JUMPI PUSH1 0x0 DUP1 REVERT JUMPDEST PUSH1 0x9 SLOAD PUSH1 0x8 SLOAD PUSH2 0x1749 SWAP2 SWAP1 PUSH2 0x267E JUMP JUMPDEST CALLVALUE EQ PUSH2 0x1754 JUMPI PUSH1 0x0 DUP1 REVERT JUMPDEST PUSH1 0x4 PUSH1 0xD PUSH1 0x0 PUSH2 0x100 EXP DUP2 SLOAD DUP2 PUSH1 0xFF MUL NOT AND SWAP1 DUP4 PUSH1 0x9 DUP2 GT ISZERO PUSH2 0x177A JUMPI PUSH2 0x1779 PUSH2 0x20AF JUMP JUMPDEST JUMPDEST MUL OR SWAP1 SSTORE POP PUSH32 0xE37B4D92BFB3A0F51B4632930020AB1670830E1C71576288D9B33F4671F09BB9 CALLER CALLVALUE PUSH1 0x40 MLOAD PUSH2 0x17B0 SWAP3 SWAP2 SWAP1 PUSH2 0x26B2 JUMP JUMPDEST PUSH1 0x40 MLOAD DUP1 SWAP2 SUB SWAP1 LOG1 JUMP JUMPDEST PUSH1 0x60 PUSH1 0x0 PUSH2 0x17C8 DUP9 DUP9 PUSH2 0xF10 JUMP JUMPDEST SWAP1 POP PUSH1 0x0 DUP7 DUP3 EQ PUSH2 0x19EA JUMPI DUP7 PUSH1 0x40 MLOAD PUSH1 0x20 ADD PUSH2 0x17E4 SWAP2 SWAP1 PUSH2 0x1DC3 JUMP JUMPDEST PUSH1 0x40 MLOAD PUSH1 0x20 DUP2 DUP4 SUB SUB DUP2 MSTORE SWAP1 PUSH1 0x40 MSTORE DUP1 MLOAD SWAP1 PUSH1 0x20 ADD KECCAK256 SWAP1 POP PUSH1 0x0 JUMPDEST DUP6 DUP2 LT ISZERO PUSH2 0x185F JUMPI DUP2 DUP6 DUP3 DUP2 MLOAD DUP2 LT PUSH2 0x181B JUMPI PUSH2 0x181A PUSH2 0x224D JUMP JUMPDEST JUMPDEST PUSH1 0x20 MUL PUSH1 0x20 ADD ADD MLOAD PUSH1 0x40 MLOAD PUSH1 0x20 ADD PUSH2 0x1834 SWAP3 SWAP2 SWAP1 PUSH2 0x227C JUMP JUMPDEST PUSH1 0x40 MLOAD PUSH1 0x20 DUP2 DUP4 SUB SUB DUP2 MSTORE SWAP1 PUSH1 0x40 MSTORE DUP1 MLOAD SWAP1 PUSH1 0x20 ADD KECCAK256 SWAP2 POP DUP1 DUP1 PUSH2 0x1857 SWAP1 PUSH2 0x22D4 JUMP JUMPDEST SWAP2 POP POP PUSH2 0x17FF JUMP JUMPDEST POP DUP6 DUP2 SUB PUSH2 0x1917 JUMPI CALLER PUSH20 0xFFFFFFFFFFFFFFFFFFFFFFFFFFFFFFFFFFFFFFFF AND PUSH2 0x8FC PUSH1 0xA SWAP1 DUP2 ISZERO MUL SWAP1 PUSH1 0x40 MLOAD PUSH1 0x0 PUSH1 0x40 MLOAD DUP1 DUP4 SUB DUP2 DUP6 DUP9 DUP9 CALL SWAP4 POP POP POP POP ISZERO DUP1 ISZERO PUSH2 0x18AE JUMPI RETURNDATASIZE PUSH1 0x0 DUP1 RETURNDATACOPY RETURNDATASIZE PUSH1 0x0 REVERT JUMPDEST POP PUSH1 0x9 PUSH1 0xD PUSH1 0x0 PUSH2 0x100 EXP DUP2 SLOAD DUP2 PUSH1 0xFF MUL NOT AND SWAP1 DUP4 PUSH1 0x9 DUP2 GT ISZERO PUSH2 0x18D5 JUMPI PUSH2 0x18D4 PUSH2 0x20AF JUMP JUMPDEST JUMPDEST MUL OR SWAP1 SSTORE POP PUSH32 0x6975F323332C2D66D668C2BE6E73EF7173309D6252480FE9FE18895D4E7B93D3 PUSH1 0x1 PUSH1 0x40 MLOAD PUSH2 0x190A SWAP2 SWAP1 PUSH2 0x252B JUMP JUMPDEST PUSH1 0x40 MLOAD DUP1 SWAP2 SUB SWAP1 LOG1 PUSH2 0x19E5 JUMP JUMPDEST PUSH1 0x1 PUSH1 0x0 SWAP1 SLOAD SWAP1 PUSH2 0x100 EXP SWAP1 DIV PUSH20 0xFFFFFFFFFFFFFFFFFFFFFFFFFFFFFFFFFFFFFFFF AND PUSH20 0xFFFFFFFFFFFFFFFFFFFFFFFFFFFFFFFFFFFFFFFF AND PUSH2 0x8FC PUSH1 0xA SWAP1 DUP2 ISZERO MUL SWAP1 PUSH1 0x40 MLOAD PUSH1 0x0 PUSH1 0x40 MLOAD DUP1 DUP4 SUB DUP2 DUP6 DUP9 DUP9 CALL SWAP4 POP POP POP POP ISZERO DUP1 ISZERO PUSH2 0x1980 JUMPI RETURNDATASIZE PUSH1 0x0 DUP1 RETURNDATACOPY RETURNDATASIZE PUSH1 0x0 REVERT JUMPDEST POP PUSH1 0x9 PUSH1 0xD PUSH1 0x0 PUSH2 0x100 EXP DUP2 SLOAD DUP2 PUSH1 0xFF MUL NOT AND SWAP1 DUP4 PUSH1 0x9 DUP2 GT ISZERO PUSH2 0x19A7 JUMPI PUSH2 0x19A6 PUSH2 0x20AF JUMP JUMPDEST JUMPDEST MUL OR SWAP1 SSTORE POP PUSH32 0x6975F323332C2D66D668C2BE6E73EF7173309D6252480FE9FE18895D4E7B93D3 PUSH1 0x2 PUSH1 0x40 MLOAD PUSH2 0x19DC SWAP2 SWAP1 PUSH2 0x2581 JUMP JUMPDEST PUSH1 0x40 MLOAD DUP1 SWAP2 SUB SWAP1 LOG1 JUMPDEST PUSH2 0x1A23 JUMP JUMPDEST PUSH32 0x6975F323332C2D66D668C2BE6E73EF7173309D6252480FE9FE18895D4E7B93D3 PUSH1 0x3 PUSH1 0x40 MLOAD PUSH2 0x1A1A SWAP2 SWAP1 PUSH2 0x25D7 JUMP JUMPDEST PUSH1 0x40 MLOAD DUP1 SWAP2 SUB SWAP1 LOG1 JUMPDEST POP POP SWAP7 SWAP6 POP POP POP POP POP POP JUMP JUMPDEST PUSH1 0x0 PUSH1 0x40 MLOAD SWAP1 POP SWAP1 JUMP JUMPDEST PUSH1 0x0 DUP1 REVERT JUMPDEST PUSH1 0x0 DUP1 REVERT JUMPDEST PUSH1 0x0 DUP2 SWAP1 POP SWAP2 SWAP1 POP JUMP JUMPDEST PUSH2 0x1A56 DUP2 PUSH2 0x1A43 JUMP JUMPDEST DUP2 EQ PUSH2 0x1A61 JUMPI PUSH1 0x0 DUP1 REVERT JUMPDEST POP JUMP JUMPDEST PUSH1 0x0 DUP2 CALLDATALOAD SWAP1 POP PUSH2 0x1A73 DUP2 PUSH2 0x1A4D JUMP JUMPDEST SWAP3 SWAP2 POP POP JUMP JUMPDEST PUSH1 0x0 DUP1 REVERT JUMPDEST PUSH1 0x0 PUSH1 0x1F NOT PUSH1 0x1F DUP4 ADD AND SWAP1 POP SWAP2 SWAP1 POP JUMP JUMPDEST PUSH32 0x4E487B7100000000000000000000000000000000000000000000000000000000 PUSH1 0x0 MSTORE PUSH1 0x41 PUSH1 0x4 MSTORE PUSH1 0x24 PUSH1 0x0 REVERT JUMPDEST PUSH2 0x1AC7 DUP3 PUSH2 0x1A7E JUMP JUMPDEST DUP2 ADD DUP2 DUP2 LT PUSH8 0xFFFFFFFFFFFFFFFF DUP3 GT OR ISZERO PUSH2 0x1AE6 JUMPI PUSH2 0x1AE5 PUSH2 0x1A8F JUMP JUMPDEST JUMPDEST DUP1 PUSH1 0x40 MSTORE POP POP POP JUMP JUMPDEST PUSH1 0x0 PUSH2 0x1AF9 PUSH2 0x1A2F JUMP JUMPDEST SWAP1 POP PUSH2 0x1B05 DUP3 DUP3 PUSH2 0x1ABE JUMP JUMPDEST SWAP2 SWAP1 POP JUMP JUMPDEST PUSH1 0x0 PUSH8 0xFFFFFFFFFFFFFFFF DUP3 GT ISZERO PUSH2 0x1B25 JUMPI PUSH2 0x1B24 PUSH2 0x1A8F JUMP JUMPDEST JUMPDEST PUSH1 0x20 DUP3 MUL SWAP1 POP PUSH1 0x20 DUP2 ADD SWAP1 POP SWAP2 SWAP1 POP JUMP JUMPDEST PUSH1 0x0 DUP1 REVERT JUMPDEST PUSH1 0x0 PUSH2 0x1B4E PUSH2 0x1B49 DUP5 PUSH2 0x1B0A JUMP JUMPDEST PUSH2 0x1AEF JUMP JUMPDEST SWAP1 POP DUP1 DUP4 DUP3 MSTORE PUSH1 0x20 DUP3 ADD SWAP1 POP PUSH1 0x20 DUP5 MUL DUP4 ADD DUP6 DUP2 GT ISZERO PUSH2 0x1B71 JUMPI PUSH2 0x1B70 PUSH2 0x1B36 JUMP JUMPDEST JUMPDEST DUP4 JUMPDEST DUP2 DUP2 LT ISZERO PUSH2 0x1B9A JUMPI DUP1 PUSH2 0x1B86 DUP9 DUP3 PUSH2 0x1A64 JUMP JUMPDEST DUP5 MSTORE PUSH1 0x20 DUP5 ADD SWAP4 POP POP PUSH1 0x20 DUP2 ADD SWAP1 POP PUSH2 0x1B73 JUMP JUMPDEST POP POP POP SWAP4 SWAP3 POP POP POP JUMP JUMPDEST PUSH1 0x0 DUP3 PUSH1 0x1F DUP4 ADD SLT PUSH2 0x1BB9 JUMPI PUSH2 0x1BB8 PUSH2 0x1A79 JUMP JUMPDEST JUMPDEST DUP2 CALLDATALOAD PUSH2 0x1BC9 DUP5 DUP3 PUSH1 0x20 DUP7 ADD PUSH2 0x1B3B JUMP JUMPDEST SWAP2 POP POP SWAP3 SWAP2 POP POP JUMP JUMPDEST PUSH1 0x0 DUP1 PUSH1 0x0 PUSH1 0x60 DUP5 DUP7 SUB SLT ISZERO PUSH2 0x1BEB JUMPI PUSH2 0x1BEA PUSH2 0x1A39 JUMP JUMPDEST JUMPDEST PUSH1 0x0 PUSH2 0x1BF9 DUP7 DUP3 DUP8 ADD PUSH2 0x1A64 JUMP JUMPDEST SWAP4 POP POP PUSH1 0x20 PUSH2 0x1C0A DUP7 DUP3 DUP8 ADD PUSH2 0x1A64 JUMP JUMPDEST SWAP3 POP POP PUSH1 0x40 DUP5 ADD CALLDATALOAD PUSH8 0xFFFFFFFFFFFFFFFF DUP2 GT ISZERO PUSH2 0x1C2B JUMPI PUSH2 0x1C2A PUSH2 0x1A3E JUMP JUMPDEST JUMPDEST PUSH2 0x1C37 DUP7 DUP3 DUP8 ADD PUSH2 0x1BA4 JUMP JUMPDEST SWAP2 POP POP SWAP3 POP SWAP3 POP SWAP3 JUMP JUMPDEST PUSH1 0x0 DUP2 MLOAD SWAP1 POP SWAP2 SWAP1 POP JUMP JUMPDEST PUSH1 0x0 DUP3 DUP3 MSTORE PUSH1 0x20 DUP3 ADD SWAP1 POP SWAP3 SWAP2 POP POP JUMP JUMPDEST PUSH1 0x0 JUMPDEST DUP4 DUP2 LT ISZERO PUSH2 0x1C7B JUMPI DUP1 DUP3 ADD MLOAD DUP2 DUP5 ADD MSTORE PUSH1 0x20 DUP2 ADD SWAP1 POP PUSH2 0x1C60 JUMP JUMPDEST PUSH1 0x0 DUP5 DUP5 ADD MSTORE POP POP POP POP JUMP JUMPDEST PUSH1 0x0 PUSH2 0x1C92 DUP3 PUSH2 0x1C41 JUMP JUMPDEST PUSH2 0x1C9C DUP2 DUP6 PUSH2 0x1C4C JUMP JUMPDEST SWAP4 POP PUSH2 0x1CAC DUP2 DUP6 PUSH1 0x20 DUP7 ADD PUSH2 0x1C5D JUMP JUMPDEST PUSH2 0x1CB5 DUP2 PUSH2 0x1A7E JUMP JUMPDEST DUP5 ADD SWAP2 POP POP SWAP3 SWAP2 POP POP JUMP JUMPDEST PUSH1 0x0 PUSH1 0x20 DUP3 ADD SWAP1 POP DUP2 DUP2 SUB PUSH1 0x0 DUP4 ADD MSTORE PUSH2 0x1CDA DUP2 DUP5 PUSH2 0x1C87 JUMP JUMPDEST SWAP1 POP SWAP3 SWAP2 POP POP JUMP JUMPDEST PUSH1 0x0 DUP2 SWAP1 POP SWAP2 SWAP1 POP JUMP JUMPDEST PUSH2 0x1CF5 DUP2 PUSH2 0x1CE2 JUMP JUMPDEST DUP2 EQ PUSH2 0x1D00 JUMPI PUSH1 0x0 DUP1 REVERT JUMPDEST POP JUMP JUMPDEST PUSH1 0x0 DUP2 CALLDATALOAD SWAP1 POP PUSH2 0x1D12 DUP2 PUSH2 0x1CEC JUMP JUMPDEST SWAP3 SWAP2 POP POP JUMP JUMPDEST PUSH1 0x0 DUP1 PUSH1 0x40 DUP4 DUP6 SUB SLT ISZERO PUSH2 0x1D2F JUMPI PUSH2 0x1D2E PUSH2 0x1A39 JUMP JUMPDEST JUMPDEST PUSH1 0x0 PUSH2 0x1D3D DUP6 DUP3 DUP7 ADD PUSH2 0x1A64 JUMP JUMPDEST SWAP3 POP POP PUSH1 0x20 PUSH2 0x1D4E DUP6 DUP3 DUP7 ADD PUSH2 0x1D03 JUMP JUMPDEST SWAP2 POP POP SWAP3 POP SWAP3 SWAP1 POP JUMP JUMPDEST PUSH1 0x0 PUSH20 0xFFFFFFFFFFFFFFFFFFFFFFFFFFFFFFFFFFFFFFFF DUP3 AND SWAP1 POP SWAP2 SWAP1 POP JUMP JUMPDEST PUSH1 0x0 PUSH2 0x1D83 DUP3 PUSH2 0x1D58 JUMP JUMPDEST SWAP1 POP SWAP2 SWAP1 POP JUMP JUMPDEST PUSH2 0x1D93 DUP2 PUSH2 0x1D78 JUMP JUMPDEST DUP3 MSTORE POP POP JUMP JUMPDEST PUSH1 0x0 PUSH1 0x20 DUP3 ADD SWAP1 POP PUSH2 0x1DAE PUSH1 0x0 DUP4 ADD DUP5 PUSH2 0x1D8A JUMP JUMPDEST SWAP3 SWAP2 POP POP JUMP JUMPDEST PUSH2 0x1DBD DUP2 PUSH2 0x1A43 JUMP JUMPDEST DUP3 MSTORE POP POP JUMP JUMPDEST PUSH1 0x0 PUSH1 0x20 DUP3 ADD SWAP1 POP PUSH2 0x1DD8 PUSH1 0x0 DUP4 ADD DUP5 PUSH2 0x1DB4 JUMP JUMPDEST SWAP3 SWAP2 POP POP JUMP JUMPDEST PUSH1 0x0 DUP1 PUSH1 0x40 DUP4 DUP6 SUB SLT ISZERO PUSH2 0x1DF5 JUMPI PUSH2 0x1DF4 PUSH2 0x1A39 JUMP JUMPDEST JUMPDEST PUSH1 0x0 PUSH2 0x1E03 DUP6 DUP3 DUP7 ADD PUSH2 0x1D03 JUMP JUMPDEST SWAP3 POP POP PUSH1 0x20 PUSH2 0x1E14 DUP6 DUP3 DUP7 ADD PUSH2 0x1A64 JUMP JUMPDEST SWAP2 POP POP SWAP3 POP SWAP3 SWAP1 POP JUMP JUMPDEST PUSH1 0x0 DUP1 REVERT JUMPDEST PUSH1 0x0 PUSH8 0xFFFFFFFFFFFFFFFF DUP3 GT ISZERO PUSH2 0x1E3E JUMPI PUSH2 0x1E3D PUSH2 0x1A8F JUMP JUMPDEST JUMPDEST PUSH2 0x1E47 DUP3 PUSH2 0x1A7E JUMP JUMPDEST SWAP1 POP PUSH1 0x20 DUP2 ADD SWAP1 POP SWAP2 SWAP1 POP JUMP JUMPDEST DUP3 DUP2 DUP4 CALLDATACOPY PUSH1 0x0 DUP4 DUP4 ADD MSTORE POP POP POP JUMP JUMPDEST PUSH1 0x0 PUSH2 0x1E76 PUSH2 0x1E71 DUP5 PUSH2 0x1E23 JUMP JUMPDEST PUSH2 0x1AEF JUMP JUMPDEST SWAP1 POP DUP3 DUP2 MSTORE PUSH1 0x20 DUP2 ADD DUP5 DUP5 DUP5 ADD GT ISZERO PUSH2 0x1E92 JUMPI PUSH2 0x1E91 PUSH2 0x1E1E JUMP JUMPDEST JUMPDEST PUSH2 0x1E9D DUP5 DUP3 DUP6 PUSH2 0x1E54 JUMP JUMPDEST POP SWAP4 SWAP3 POP POP POP JUMP JUMPDEST PUSH1 0x0 DUP3 PUSH1 0x1F DUP4 ADD SLT PUSH2 0x1EBA JUMPI PUSH2 0x1EB9 PUSH2 0x1A79 JUMP JUMPDEST JUMPDEST DUP2 CALLDATALOAD PUSH2 0x1ECA DUP5 DUP3 PUSH1 0x20 DUP7 ADD PUSH2 0x1E63 JUMP JUMPDEST SWAP2 POP POP SWAP3 SWAP2 POP POP JUMP JUMPDEST PUSH1 0x0 PUSH1 0x20 DUP3 DUP5 SUB SLT ISZERO PUSH2 0x1EE9 JUMPI PUSH2 0x1EE8 PUSH2 0x1A39 JUMP JUMPDEST JUMPDEST PUSH1 0x0 DUP3 ADD CALLDATALOAD PUSH8 0xFFFFFFFFFFFFFFFF DUP2 GT ISZERO PUSH2 0x1F07 JUMPI PUSH2 0x1F06 PUSH2 0x1A3E JUMP JUMPDEST JUMPDEST PUSH2 0x1F13 DUP5 DUP3 DUP6 ADD PUSH2 0x1EA5 JUMP JUMPDEST SWAP2 POP POP SWAP3 SWAP2 POP POP JUMP JUMPDEST PUSH1 0x0 PUSH1 0x20 DUP3 DUP5 SUB SLT ISZERO PUSH2 0x1F32 JUMPI PUSH2 0x1F31 PUSH2 0x1A39 JUMP JUMPDEST JUMPDEST PUSH1 0x0 PUSH2 0x1F40 DUP5 DUP3 DUP6 ADD PUSH2 0x1A64 JUMP JUMPDEST SWAP2 POP POP SWAP3 SWAP2 POP POP JUMP JUMPDEST PUSH1 0x0 DUP1 PUSH1 0x40 DUP4 DUP6 SUB SLT ISZERO PUSH2 0x1F60 JUMPI PUSH2 0x1F5F PUSH2 0x1A39 JUMP JUMPDEST JUMPDEST PUSH1 0x0 PUSH2 0x1F6E DUP6 DUP3 DUP7 ADD PUSH2 0x1A64 JUMP JUMPDEST SWAP3 POP POP PUSH1 0x20 PUSH2 0x1F7F DUP6 DUP3 DUP7 ADD PUSH2 0x1A64 JUMP JUMPDEST SWAP2 POP POP SWAP3 POP SWAP3 SWAP1 POP JUMP JUMPDEST PUSH2 0x1F92 DUP2 PUSH2 0x1CE2 JUMP JUMPDEST DUP3 MSTORE POP POP JUMP JUMPDEST PUSH1 0x0 PUSH1 0x20 DUP3 ADD SWAP1 POP PUSH2 0x1FAD PUSH1 0x0 DUP4 ADD DUP5 PUSH2 0x1F89 JUMP JUMPDEST SWAP3 SWAP2 POP POP JUMP JUMPDEST PUSH1 0x0 DUP1 PUSH1 0x0 DUP1 PUSH1 0x0 DUP1 PUSH1 0xC0 DUP8 DUP10 SUB SLT ISZERO PUSH2 0x1FD0 JUMPI PUSH2 0x1FCF PUSH2 0x1A39 JUMP JUMPDEST JUMPDEST PUSH1 0x0 PUSH2 0x1FDE DUP10 DUP3 DUP11 ADD PUSH2 0x1A64 JUMP JUMPDEST SWAP7 POP POP PUSH1 0x20 PUSH2 0x1FEF DUP10 DUP3 DUP11 ADD PUSH2 0x1A64 JUMP JUMPDEST SWAP6 POP POP PUSH1 0x40 PUSH2 0x2000 DUP10 DUP3 DUP11 ADD PUSH2 0x1A64 JUMP JUMPDEST SWAP5 POP POP PUSH1 0x60 PUSH2 0x2011 DUP10 DUP3 DUP11 ADD PUSH2 0x1A64 JUMP JUMPDEST SWAP4 POP POP PUSH1 0x80 PUSH2 0x2022 DUP10 DUP3 DUP11 ADD PUSH2 0x1D03 JUMP JUMPDEST SWAP3 POP POP PUSH1 0xA0 DUP8 ADD CALLDATALOAD PUSH8 0xFFFFFFFFFFFFFFFF DUP2 GT ISZERO PUSH2 0x2043 JUMPI PUSH2 0x2042 PUSH2 0x1A3E JUMP JUMPDEST JUMPDEST PUSH2 0x204F DUP10 DUP3 DUP11 ADD PUSH2 0x1BA4 JUMP JUMPDEST SWAP2 POP POP SWAP3 SWAP6 POP SWAP3 SWAP6 POP SWAP3 SWAP6 JUMP JUMPDEST PUSH1 0x0 DUP1 PUSH1 0x0 PUSH1 0x60 DUP5 DUP7 SUB SLT ISZERO PUSH2 0x2075 JUMPI PUSH2 0x2074 PUSH2 0x1A39 JUMP JUMPDEST JUMPDEST PUSH1 0x0 PUSH2 0x2083 DUP7 DUP3 DUP8 ADD PUSH2 0x1A64 JUMP JUMPDEST SWAP4 POP POP PUSH1 0x20 PUSH2 0x2094 DUP7 DUP3 DUP8 ADD PUSH2 0x1D03 JUMP JUMPDEST SWAP3 POP POP PUSH1 0x40 PUSH2 0x20A5 DUP7 DUP3 DUP8 ADD PUSH2 0x1D03 JUMP JUMPDEST SWAP2 POP POP SWAP3 POP SWAP3 POP SWAP3 JUMP JUMPDEST PUSH32 0x4E487B7100000000000000000000000000000000000000000000000000000000 PUSH1 0x0 MSTORE PUSH1 0x21 PUSH1 0x4 MSTORE PUSH1 0x24 PUSH1 0x0 REVERT JUMPDEST PUSH1 0xA DUP2 LT PUSH2 0x20EF JUMPI PUSH2 0x20EE PUSH2 0x20AF JUMP JUMPDEST JUMPDEST POP JUMP JUMPDEST PUSH1 0x0 DUP2 SWAP1 POP PUSH2 0x2100 DUP3 PUSH2 0x20DE JUMP JUMPDEST SWAP2 SWAP1 POP JUMP JUMPDEST PUSH1 0x0 PUSH2 0x2110 DUP3 PUSH2 0x20F2 JUMP JUMPDEST SWAP1 POP SWAP2 SWAP1 POP JUMP JUMPDEST PUSH2 0x2120 DUP2 PUSH2 0x2105 JUMP JUMPDEST DUP3 MSTORE POP POP JUMP JUMPDEST PUSH1 0x0 PUSH1 0x20 DUP3 ADD SWAP1 POP PUSH2 0x213B PUSH1 0x0 DUP4 ADD DUP5 PUSH2 0x2117 JUMP JUMPDEST SWAP3 SWAP2 POP POP JUMP JUMPDEST PUSH2 0x214A DUP2 PUSH2 0x1D78 JUMP JUMPDEST DUP2 EQ PUSH2 0x2155 JUMPI PUSH1 0x0 DUP1 REVERT JUMPDEST POP JUMP JUMPDEST PUSH1 0x0 DUP2 CALLDATALOAD SWAP1 POP PUSH2 0x2167 DUP2 PUSH2 0x2141 JUMP JUMPDEST SWAP3 SWAP2 POP POP JUMP JUMPDEST PUSH1 0x0 DUP1 PUSH1 0x40 DUP4 DUP6 SUB SLT ISZERO PUSH2 0x2184 JUMPI PUSH2 0x2183 PUSH2 0x1A39 JUMP JUMPDEST JUMPDEST PUSH1 0x0 PUSH2 0x2192 DUP6 DUP3 DUP7 ADD PUSH2 0x2158 JUMP JUMPDEST SWAP3 POP POP PUSH1 0x20 PUSH2 0x21A3 DUP6 DUP3 DUP7 ADD PUSH2 0x2158 JUMP JUMPDEST SWAP2 POP POP SWAP3 POP SWAP3 SWAP1 POP JUMP JUMPDEST PUSH1 0x0 DUP2 MLOAD SWAP1 POP SWAP2 SWAP1 POP JUMP JUMPDEST PUSH1 0x0 DUP2 SWAP1 POP SWAP3 SWAP2 POP POP JUMP JUMPDEST PUSH1 0x0 PUSH2 0x21CE DUP3 PUSH2 0x21AD JUMP JUMPDEST PUSH2 0x21D8 DUP2 DUP6 PUSH2 0x21B8 JUMP JUMPDEST SWAP4 POP PUSH2 0x21E8 DUP2 DUP6 PUSH1 0x20 DUP7 ADD PUSH2 0x1C5D JUMP JUMPDEST DUP1 DUP5 ADD SWAP2 POP POP SWAP3 SWAP2 POP POP JUMP JUMPDEST PUSH1 0x0 PUSH2 0x2200 DUP3 DUP5 PUSH2 0x21C3 JUMP JUMPDEST SWAP2 POP DUP2 SWAP1 POP SWAP3 SWAP2 POP POP JUMP JUMPDEST PUSH1 0x0 DUP2 MLOAD SWAP1 POP PUSH2 0x221A DUP2 PUSH2 0x1A4D JUMP JUMPDEST SWAP3 SWAP2 POP POP JUMP JUMPDEST PUSH1 0x0 PUSH1 0x20 DUP3 DUP5 SUB SLT ISZERO PUSH2 0x2236 JUMPI PUSH2 0x2235 PUSH2 0x1A39 JUMP JUMPDEST JUMPDEST PUSH1 0x0 PUSH2 0x2244 DUP5 DUP3 DUP6 ADD PUSH2 0x220B JUMP JUMPDEST SWAP2 POP POP SWAP3 SWAP2 POP POP JUMP JUMPDEST PUSH32 0x4E487B7100000000000000000000000000000000000000000000000000000000 PUSH1 0x0 MSTORE PUSH1 0x32 PUSH1 0x4 MSTORE PUSH1 0x24 PUSH1 0x0 REVERT JUMPDEST PUSH1 0x0 PUSH1 0x40 DUP3 ADD SWAP1 POP PUSH2 0x2291 PUSH1 0x0 DUP4 ADD DUP6 PUSH2 0x1DB4 JUMP JUMPDEST PUSH2 0x229E PUSH1 0x20 DUP4 ADD DUP5 PUSH2 0x1DB4 JUMP JUMPDEST SWAP4 SWAP3 POP POP POP JUMP JUMPDEST PUSH32 0x4E487B7100000000000000000000000000000000000000000000000000000000 PUSH1 0x0 MSTORE PUSH1 0x11 PUSH1 0x4 MSTORE PUSH1 0x24 PUSH1 0x0 REVERT JUMPDEST PUSH1 0x0 PUSH2 0x22DF DUP3 PUSH2 0x1CE2 JUMP JUMPDEST SWAP2 POP PUSH32 0xFFFFFFFFFFFFFFFFFFFFFFFFFFFFFFFFFFFFFFFFFFFFFFFFFFFFFFFFFFFFFFFF DUP3 SUB PUSH2 0x2311 JUMPI PUSH2 0x2310 PUSH2 0x22A5 JUMP JUMPDEST JUMPDEST PUSH1 0x1 DUP3 ADD SWAP1 POP SWAP2 SWAP1 POP JUMP JUMPDEST PUSH1 0x0 PUSH2 0x2327 DUP3 PUSH2 0x1CE2 JUMP JUMPDEST SWAP2 POP PUSH2 0x2332 DUP4 PUSH2 0x1CE2 JUMP JUMPDEST SWAP3 POP DUP3 DUP3 ADD SWAP1 POP DUP1 DUP3 GT ISZERO PUSH2 0x234A JUMPI PUSH2 0x2349 PUSH2 0x22A5 JUMP JUMPDEST JUMPDEST SWAP3 SWAP2 POP POP JUMP JUMPDEST PUSH32 0x526573706F6E64652074696D65206973206F7665722000000000000000000000 PUSH1 0x0 DUP3 ADD MSTORE POP JUMP JUMPDEST PUSH1 0x0 PUSH2 0x2386 PUSH1 0x16 DUP4 PUSH2 0x1C4C JUMP JUMPDEST SWAP2 POP PUSH2 0x2391 DUP3 PUSH2 0x2350 JUMP JUMPDEST PUSH1 0x20 DUP3 ADD SWAP1 POP SWAP2 SWAP1 POP JUMP JUMPDEST PUSH1 0x0 PUSH1 0x20 DUP3 ADD SWAP1 POP DUP2 DUP2 SUB PUSH1 0x0 DUP4 ADD MSTORE PUSH2 0x23B5 DUP2 PUSH2 0x2379 JUMP JUMPDEST SWAP1 POP SWAP2 SWAP1 POP JUMP JUMPDEST PUSH1 0x0 PUSH1 0x40 DUP3 ADD SWAP1 POP PUSH2 0x23D1 PUSH1 0x0 DUP4 ADD DUP6 PUSH2 0x1DB4 JUMP JUMPDEST PUSH2 0x23DE PUSH1 0x20 DUP4 ADD DUP5 PUSH2 0x1F89 JUMP JUMPDEST SWAP4 SWAP3 POP POP POP JUMP JUMPDEST PUSH32 0x4F7065726174696F6E2074696D65206973206E6F74206F766572207965740000 PUSH1 0x0 DUP3 ADD MSTORE POP JUMP JUMPDEST PUSH1 0x0 PUSH2 0x241B PUSH1 0x1E DUP4 PUSH2 0x1C4C JUMP JUMPDEST SWAP2 POP PUSH2 0x2426 DUP3 PUSH2 0x23E5 JUMP JUMPDEST PUSH1 0x20 DUP3 ADD SWAP1 POP SWAP2 SWAP1 POP JUMP JUMPDEST PUSH1 0x0 PUSH1 0x20 DUP3 ADD SWAP1 POP DUP2 DUP2 SUB PUSH1 0x0 DUP4 ADD MSTORE PUSH2 0x244A DUP2 PUSH2 0x240E JUMP JUMPDEST SWAP1 POP SWAP2 SWAP1 POP JUMP JUMPDEST PUSH1 0x0 PUSH1 0x40 DUP3 ADD SWAP1 POP PUSH2 0x2466 PUSH1 0x0 DUP4 ADD DUP6 PUSH2 0x1F89 JUMP JUMPDEST PUSH2 0x2473 PUSH1 0x20 DUP4 ADD DUP5 PUSH2 0x1DB4 JUMP JUMPDEST SWAP4 SWAP3 POP POP POP JUMP JUMPDEST PUSH1 0x0 PUSH1 0x40 DUP3 ADD SWAP1 POP PUSH2 0x248F PUSH1 0x0 DUP4 ADD DUP6 PUSH2 0x1D8A JUMP JUMPDEST DUP2 DUP2 SUB PUSH1 0x20 DUP4 ADD MSTORE PUSH2 0x24A1 DUP2 DUP5 PUSH2 0x1C87 JUMP JUMPDEST SWAP1 POP SWAP4 SWAP3 POP POP POP JUMP JUMPDEST PUSH1 0x0 DUP2 SWAP1 POP SWAP2 SWAP1 POP JUMP JUMPDEST PUSH2 0x24C5 PUSH2 0x24C0 DUP3 PUSH2 0x1A43 JUMP JUMPDEST PUSH2 0x24AA JUMP JUMPDEST DUP3 MSTORE POP POP JUMP JUMPDEST PUSH1 0x0 PUSH2 0x24D7 DUP3 DUP5 PUSH2 0x24B4 JUMP JUMPDEST PUSH1 0x20 DUP3 ADD SWAP2 POP DUP2 SWAP1 POP SWAP3 SWAP2 POP POP JUMP JUMPDEST PUSH1 0x0 DUP2 SWAP1 POP SWAP2 SWAP1 POP JUMP JUMPDEST PUSH1 0x0 DUP2 SWAP1 POP SWAP2 SWAP1 POP JUMP JUMPDEST PUSH1 0x0 PUSH2 0x2515 PUSH2 0x2510 PUSH2 0x250B DUP5 PUSH2 0x24E6 JUMP JUMPDEST PUSH2 0x24F0 JUMP JUMPDEST PUSH2 0x1CE2 JUMP JUMPDEST SWAP1 POP SWAP2 SWAP1 POP JUMP JUMPDEST PUSH2 0x2525 DUP2 PUSH2 0x24FA JUMP JUMPDEST DUP3 MSTORE POP POP JUMP JUMPDEST PUSH1 0x0 PUSH1 0x20 DUP3 ADD SWAP1 POP PUSH2 0x2540 PUSH1 0x0 DUP4 ADD DUP5 PUSH2 0x251C JUMP JUMPDEST SWAP3 SWAP2 POP POP JUMP JUMPDEST PUSH1 0x0 DUP2 SWAP1 POP SWAP2 SWAP1 POP JUMP JUMPDEST PUSH1 0x0 PUSH2 0x256B PUSH2 0x2566 PUSH2 0x2561 DUP5 PUSH2 0x2546 JUMP JUMPDEST PUSH2 0x24F0 JUMP JUMPDEST PUSH2 0x1CE2 JUMP JUMPDEST SWAP1 POP SWAP2 SWAP1 POP JUMP JUMPDEST PUSH2 0x257B DUP2 PUSH2 0x2550 JUMP JUMPDEST DUP3 MSTORE POP POP JUMP JUMPDEST PUSH1 0x0 PUSH1 0x20 DUP3 ADD SWAP1 POP PUSH2 0x2596 PUSH1 0x0 DUP4 ADD DUP5 PUSH2 0x2572 JUMP JUMPDEST SWAP3 SWAP2 POP POP JUMP JUMPDEST PUSH1 0x0 DUP2 SWAP1 POP SWAP2 SWAP1 POP JUMP JUMPDEST PUSH1 0x0 PUSH2 0x25C1 PUSH2 0x25BC PUSH2 0x25B7 DUP5 PUSH2 0x259C JUMP JUMPDEST PUSH2 0x24F0 JUMP JUMPDEST PUSH2 0x1CE2 JUMP JUMPDEST SWAP1 POP SWAP2 SWAP1 POP JUMP JUMPDEST PUSH2 0x25D1 DUP2 PUSH2 0x25A6 JUMP JUMPDEST DUP3 MSTORE POP POP JUMP JUMPDEST PUSH1 0x0 PUSH1 0x20 DUP3 ADD SWAP1 POP PUSH2 0x25EC PUSH1 0x0 DUP4 ADD DUP5 PUSH2 0x25C8 JUMP JUMPDEST SWAP3 SWAP2 POP POP JUMP JUMPDEST PUSH1 0x0 PUSH1 0x60 DUP3 ADD SWAP1 POP PUSH2 0x2607 PUSH1 0x0 DUP4 ADD DUP7 PUSH2 0x1DB4 JUMP JUMPDEST PUSH2 0x2614 PUSH1 0x20 DUP4 ADD DUP6 PUSH2 0x1F89 JUMP JUMPDEST PUSH2 0x2621 PUSH1 0x40 DUP4 ADD DUP5 PUSH2 0x1F89 JUMP JUMPDEST SWAP5 SWAP4 POP POP POP POP JUMP JUMPDEST PUSH1 0x0 PUSH2 0x2635 DUP3 DUP6 PUSH2 0x24B4 JUMP JUMPDEST PUSH1 0x20 DUP3 ADD SWAP2 POP PUSH2 0x2645 DUP3 DUP5 PUSH2 0x24B4 JUMP JUMPDEST PUSH1 0x20 DUP3 ADD SWAP2 POP DUP2 SWAP1 POP SWAP4 SWAP3 POP POP POP JUMP JUMPDEST PUSH1 0x0 PUSH1 0x40 DUP3 ADD SWAP1 POP PUSH2 0x266A PUSH1 0x0 DUP4 ADD DUP6 PUSH2 0x1D8A JUMP JUMPDEST PUSH2 0x2677 PUSH1 0x20 DUP4 ADD DUP5 PUSH2 0x1D8A JUMP JUMPDEST SWAP4 SWAP3 POP POP POP JUMP JUMPDEST PUSH1 0x0 PUSH2 0x2689 DUP3 PUSH2 0x1CE2 JUMP JUMPDEST SWAP2 POP PUSH2 0x2694 DUP4 PUSH2 0x1CE2 JUMP JUMPDEST SWAP3 POP DUP3 DUP3 SUB SWAP1 POP DUP2 DUP2 GT ISZERO PUSH2 0x26AC JUMPI PUSH2 0x26AB PUSH2 0x22A5 JUMP JUMPDEST JUMPDEST SWAP3 SWAP2 POP POP JUMP JUMPDEST PUSH1 0x0 PUSH1 0x40 DUP3 ADD SWAP1 POP PUSH2 0x26C7 PUSH1 0x0 DUP4 ADD DUP6 PUSH2 0x1D8A JUMP JUMPDEST PUSH2 0x26D4 PUSH1 0x20 DUP4 ADD DUP5 PUSH2 0x1F89 JUMP JUMPDEST SWAP4 SWAP3 POP POP POP JUMP INVALID LOG2 PUSH5 0x6970667358 0x22 SLT KECCAK256 PUSH2 0xAED MOD 0xA7 PUSH10 0xF0208CE6CE48CCF7AB73 0xD5 EXP PUSH8 0x2BAAFCD276B38CBF 0xC4 GAS ISZERO 0xAC 0x5C PUSH5 0x736F6C6343 STOP ADDMOD SLT STOP CALLER "
				},
				"gasEstimates": {
					"creation": {
						"codeDepositCost": "2000200",
						"executionCost": "126329",
						"totalCost": "2126529"
					},
					"external": {
						"RaiseOnChainArbitration(bytes32,bytes32,bytes32[])": "infinite",
						"RaiseOnChainArbitrationForTest(bytes32,bytes32,bytes32,bytes32,uint256,bytes32[])": "infinite",
						"RaiseOnChainArbitrationForTestwithkeccak256(bytes32,bytes32,bytes32,bytes32,uint256,bytes32[])": "infinite",
						"arbitrator()": "2582",
						"buyer()": "2559",
						"buyerRefund()": "infinite",
						"challenge(bytes32,uint256,uint256)": "infinite",
						"commitData(uint256,bytes32)": "infinite",
						"dataId()": "2496",
						"delta_1()": "2474",
						"delta_2()": "2519",
						"depth_2()": "2540",
						"hmac(bytes32,bytes32)": "infinite",
						"initiationArbitration(string)": "infinite",
						"kc()": "2518",
						"mk()": "2475",
						"opreationtime()": "2497",
						"p()": "2519",
						"p1()": "2474",
						"payleft()": "infinite",
						"releaseMasterkey(bytes32)": "infinite",
						"response(bytes32,uint256)": "infinite",
						"seller()": "2605",
						"sha2562(bytes32,bytes32)": "infinite",
						"state()": "2671",
						"test256(bytes32)": "infinite",
						"timeLimit()": "2518",
						"verdict(address,address)": "infinite"
					}
				},
				"methodIdentifiers": {
					"RaiseOnChainArbitration(bytes32,bytes32,bytes32[])": "07c5fbe5",
					"RaiseOnChainArbitrationForTest(bytes32,bytes32,bytes32,bytes32,uint256,bytes32[])": "899a69a7",
					"RaiseOnChainArbitrationForTestwithkeccak256(bytes32,bytes32,bytes32,bytes32,uint256,bytes32[])": "f9f7ee1e",
					"arbitrator()": "6cc6cde1",
					"buyer()": "7150d8ae",
					"buyerRefund()": "3502e066",
					"challenge(bytes32,uint256,uint256)": "b93a86ce",
					"commitData(uint256,bytes32)": "50339559",
					"dataId()": "c8a663ec",
					"delta_1()": "a2fc30af",
					"delta_2()": "4bbf6642",
					"depth_2()": "80aa2dae",
					"hmac(bytes32,bytes32)": "78192063",
					"initiationArbitration(string)": "5da47f32",
					"kc()": "e6299631",
					"mk()": "2f81b0a0",
					"opreationtime()": "9ae67252",
					"p()": "9ae8886a",
					"p1()": "c2a2747b",
					"payleft()": "f4c1f07b",
					"releaseMasterkey(bytes32)": "706a0160",
					"response(bytes32,uint256)": "07e4312e",
					"seller()": "08551a53",
					"sha2562(bytes32,bytes32)": "ee17b807",
					"state()": "c19d93fb",
					"test256(bytes32)": "7a1a456a",
					"timeLimit()": "c08d1fe5",
					"verdict(address,address)": "f258d51e"
				}
			},
			"storageLayout": {
				"storage": [
					{
						"astId": 4,
						"contract": "trading4test.sol:trading",
						"label": "dataId",
						"offset": 0,
						"slot": "0",
						"type": "t_uint256"
					},
					{
						"astId": 6,
						"contract": "trading4test.sol:trading",
						"label": "seller",
						"offset": 0,
						"slot": "1",
						"type": "t_address"
					},
					{
						"astId": 8,
						"contract": "trading4test.sol:trading",
						"label": "arbitrator",
						"offset": 0,
						"slot": "2",
						"type": "t_address"
					},
					{
						"astId": 10,
						"contract": "trading4test.sol:trading",
						"label": "buyer",
						"offset": 0,
						"slot": "3",
						"type": "t_address"
					},
					{
						"astId": 12,
						"contract": "trading4test.sol:trading",
						"label": "delta_1",
						"offset": 0,
						"slot": "4",
						"type": "t_bytes32"
					},
					{
						"astId": 14,
						"contract": "trading4test.sol:trading",
						"label": "delta_2",
						"offset": 0,
						"slot": "5",
						"type": "t_bytes32"
					},
					{
						"astId": 16,
						"contract": "trading4test.sol:trading",
						"label": "depth_2",
						"offset": 0,
						"slot": "6",
						"type": "t_uint256"
					},
					{
						"astId": 18,
						"contract": "trading4test.sol:trading",
						"label": "mk",
						"offset": 0,
						"slot": "7",
						"type": "t_bytes32"
					},
					{
						"astId": 20,
						"contract": "trading4test.sol:trading",
						"label": "p",
						"offset": 0,
						"slot": "8",
						"type": "t_uint256"
					},
					{
						"astId": 22,
						"contract": "trading4test.sol:trading",
						"label": "p1",
						"offset": 0,
						"slot": "9",
						"type": "t_uint256"
					},
					{
						"astId": 24,
						"contract": "trading4test.sol:trading",
						"label": "kc",
						"offset": 0,
						"slot": "10",
						"type": "t_bytes32"
					},
					{
						"astId": 26,
						"contract": "trading4test.sol:trading",
						"label": "opreationtime",
						"offset": 0,
						"slot": "11",
						"type": "t_uint256"
					},
					{
						"astId": 29,
						"contract": "trading4test.sol:trading",
						"label": "timeLimit",
						"offset": 0,
						"slot": "12",
						"type": "t_uint256"
					},
					{
						"astId": 32,
						"contract": "trading4test.sol:trading",
						"label": "state",
						"offset": 0,
						"slot": "13",
						"type": "t_enum(State)43"
					}
				],
				"types": {
					"t_address": {
						"encoding": "inplace",
						"label": "address",
						"numberOfBytes": "20"
					},
					"t_bytes32": {
						"encoding": "inplace",
						"label": "bytes32",
						"numberOfBytes": "32"
					},
					"t_enum(State)43": {
						"encoding": "inplace",
						"label": "enum trading.State",
						"numberOfBytes": "1"
					},
					"t_uint256": {
						"encoding": "inplace",
						"label": "uint256",
						"numberOfBytes": "32"
					}
				}
			},
			"userdoc": {
				"kind": "user",
				"methods": {},
				"version": 1
			}
		}
	}
}