{
	"FairFileSale.sol": {
		"fileSale": {
			"abi": [
				{
					"constant": false,
					"inputs": [
						{
							"name": "_Zm",
							"type": "bytes32"
						},
						{
							"name": "_proofZm",
							"type": "bytes32[14]"
						}
					],
					"name": "complainAboutRoot",
					"outputs": [],
					"payable": false,
					"stateMutability": "nonpayable",
					"type": "function"
				},
				{
					"constant": true,
					"inputs": [
						{
							"name": "_index",
							"type": "uint256"
						},
						{
							"name": "_value",
							"type": "bytes32"
						},
						{
							"name": "_proof",
							"type": "bytes32[14]"
						}
					],
					"name": "vrfy",
					"outputs": [
						{
							"name": "",
							"type": "bool"
						}
					],
					"payable": false,
					"stateMutability": "view",
					"type": "function"
				},
				{
					"constant": false,
					"inputs": [],
					"name": "accept",
					"outputs": [],
					"payable": true,
					"stateMutability": "payable",
					"type": "function"
				},
				{
					"constant": true,
					"inputs": [],
					"name": "key",
					"outputs": [
						{
							"name": "",
							"type": "bytes32"
						}
					],
					"payable": false,
					"stateMutability": "view",
					"type": "function"
				},
				{
					"constant": false,
					"inputs": [],
					"name": "refund",
					"outputs": [],
					"payable": false,
					"stateMutability": "nonpayable",
					"type": "function"
				},
				{
					"constant": true,
					"inputs": [],
					"name": "timeout",
					"outputs": [
						{
							"name": "",
							"type": "uint256"
						}
					],
					"payable": false,
					"stateMutability": "view",
					"type": "function"
				},
				{
					"constant": false,
					"inputs": [
						{
							"name": "_indexOut",
							"type": "uint256"
						},
						{
							"name": "_indexIn",
							"type": "uint256"
						},
						{
							"name": "_Zout",
							"type": "bytes32"
						},
						{
							"name": "_Zin1",
							"type": "bytes32"
						},
						{
							"name": "_Zin2",
							"type": "bytes32"
						},
						{
							"name": "_proofZout",
							"type": "bytes32[14]"
						},
						{
							"name": "_proofZin",
							"type": "bytes32[14]"
						}
					],
					"name": "complainAboutNode",
					"outputs": [],
					"payable": false,
					"stateMutability": "nonpayable",
					"type": "function"
				},
				{
					"constant": true,
					"inputs": [
						{
							"name": "_index",
							"type": "uint256"
						},
						{
							"name": "_ciphertext",
							"type": "bytes32"
						}
					],
					"name": "cryptSmall",
					"outputs": [
						{
							"name": "",
							"type": "bytes32"
						}
					],
					"payable": false,
					"stateMutability": "view",
					"type": "function"
				},
				{
					"constant": true,
					"inputs": [
						{
							"name": "_index",
							"type": "uint256"
						},
						{
							"name": "_ciphertext",
							"type": "bytes32[2]"
						}
					],
					"name": "cryptLarge",
					"outputs": [
						{
							"name": "",
							"type": "bytes32[2]"
						}
					],
					"payable": false,
					"stateMutability": "view",
					"type": "function"
				},
				{
					"constant": false,
					"inputs": [
						{
							"name": "_receiver",
							"type": "address"
						},
						{
							"name": "_price",
							"type": "uint256"
						},
						{
							"name": "_keyCommit",
							"type": "bytes32"
						},
						{
							"name": "_ciphertextRoot",
							"type": "bytes32"
						},
						{
							"name": "_fileRoot",
							"type": "bytes32"
						}
					],
					"name": "ininitialize",
					"outputs": [],
					"payable": false,
					"stateMutability": "nonpayable",
					"type": "function"
				},
				{
					"constant": true,
					"inputs": [],
					"name": "phase",
					"outputs": [
						{
							"name": "",
							"type": "uint8"
						}
					],
					"payable": false,
					"stateMutability": "view",
					"type": "function"
				},
				{
					"constant": false,
					"inputs": [],
					"name": "noComplain",
					"outputs": [],
					"payable": false,
					"stateMutability": "nonpayable",
					"type": "function"
				},
				{
					"constant": false,
					"inputs": [
						{
							"name": "_key",
							"type": "bytes32"
						}
					],
					"name": "revealKey",
					"outputs": [],
					"payable": false,
					"stateMutability": "nonpayable",
					"type": "function"
				},
				{
					"constant": false,
					"inputs": [
						{
							"name": "_indexOut",
							"type": "uint256"
						},
						{
							"name": "_indexIn",
							"type": "uint256"
						},
						{
							"name": "_Zout",
							"type": "bytes32"
						},
						{
							"name": "_Zin1",
							"type": "bytes32[2]"
						},
						{
							"name": "_Zin2",
							"type": "bytes32[2]"
						},
						{
							"name": "_proofZout",
							"type": "bytes32[14]"
						},
						{
							"name": "_proofZin",
							"type": "bytes32[14]"
						}
					],
					"name": "complainAboutLeaf",
					"outputs": [],
					"payable": false,
					"stateMutability": "nonpayable",
					"type": "function"
				}
			],
			"devdoc": {
				"methods": {}
			},
			"evm": {
				"assembly": "    /* \"FairFileSale.sol\":30:5098  contract fileSale {\r... */\n  mstore(0x40, 0x80)\n    /* \"FairFileSale.sol\":244:257  stage.created */\n  0x0\n    /* \"FairFileSale.sol\":223:257  stage public phase = stage.created */\n  dup1\n  exp(0x100, 0x0)\n  dup2\n  sload\n  dup2\n  0xff\n  mul\n  not\n  and\n  swap1\n  dup4\n  0x4\n  dup2\n  gt\n  iszero\n  tag_1\n  jumpi\n  invalid\ntag_1:\n  mul\n  or\n  swap1\n  sstore\n  pop\n    /* \"FairFileSale.sol\":349:352  100 */\n  0x64\n    /* \"FairFileSale.sol\":336:352  uint price = 100 */\n  0x4\n  sstore\n    /* \"FairFileSale.sol\":30:5098  contract fileSale {\r... */\n  callvalue\n    /* \"--CODEGEN--\":8:17   */\n  dup1\n    /* \"--CODEGEN--\":5:7   */\n  iszero\n  tag_2\n  jumpi\n    /* \"--CODEGEN--\":30:31   */\n  0x0\n    /* \"--CODEGEN--\":27:28   */\n  dup1\n    /* \"--CODEGEN--\":20:32   */\n  revert\n    /* \"--CODEGEN--\":5:7   */\ntag_2:\n    /* \"FairFileSale.sol\":30:5098  contract fileSale {\r... */\n  pop\n  dataSize(sub_0)\n  dup1\n  dataOffset(sub_0)\n  0x0\n  codecopy\n  0x0\n  return\nstop\n\nsub_0: assembly {\n        /* \"FairFileSale.sol\":30:5098  contract fileSale {\r... */\n      mstore(0x40, 0x80)\n      jumpi(tag_1, lt(calldatasize, 0x4))\n      calldataload(0x0)\n      0x100000000000000000000000000000000000000000000000000000000\n      swap1\n      div\n      0xffffffff\n      and\n      dup1\n      0x108e9892\n      eq\n      tag_2\n      jumpi\n      dup1\n      0x14602a1a\n      eq\n      tag_3\n      jumpi\n      dup1\n      0x2852b71c\n      eq\n      tag_4\n      jumpi\n      dup1\n      0x3943380c\n      eq\n      tag_5\n      jumpi\n      dup1\n      0x590e1ae3\n      eq\n      tag_6\n      jumpi\n      dup1\n      0x70dea79a\n      eq\n      tag_7\n      jumpi\n      dup1\n      0x7161061b\n      eq\n      tag_8\n      jumpi\n      dup1\n      0x80b14028\n      eq\n      tag_9\n      jumpi\n      dup1\n      0x9bbaad80\n      eq\n      tag_10\n      jumpi\n      dup1\n      0xb0c0acbd\n      eq\n      tag_11\n      jumpi\n      dup1\n      0xb1c9fe6e\n      eq\n      tag_12\n      jumpi\n      dup1\n      0xb899cd3f\n      eq\n      tag_13\n      jumpi\n      dup1\n      0xd6547236\n      eq\n      tag_14\n      jumpi\n      dup1\n      0xec3db29e\n      eq\n      tag_15\n      jumpi\n    tag_1:\n      0x0\n      dup1\n      revert\n        /* \"FairFileSale.sol\":1907:2217  function complainAboutRoot (bytes32 _Zm, bytes32[depth] _proofZm) allowed( receiver, stage.keyRevealed) public {\r... */\n    tag_2:\n      callvalue\n        /* \"--CODEGEN--\":8:17   */\n      dup1\n        /* \"--CODEGEN--\":5:7   */\n      iszero\n      tag_16\n      jumpi\n        /* \"--CODEGEN--\":30:31   */\n      0x0\n        /* \"--CODEGEN--\":27:28   */\n      dup1\n        /* \"--CODEGEN--\":20:32   */\n      revert\n        /* \"--CODEGEN--\":5:7   */\n    tag_16:\n        /* \"FairFileSale.sol\":1907:2217  function complainAboutRoot (bytes32 _Zm, bytes32[depth] _proofZm) allowed( receiver, stage.keyRevealed) public {\r... */\n      pop\n      tag_17\n      0x4\n      dup1\n      calldatasize\n      sub\n      dup2\n      add\n      swap1\n      dup1\n      dup1\n      calldataload\n      not(0x0)\n      and\n      swap1\n      0x20\n      add\n      swap1\n      swap3\n      swap2\n      swap1\n      dup1\n      0x1c0\n      add\n      swap1\n      0xe\n      dup1\n      0x20\n      mul\n      mload(0x40)\n      swap1\n      dup2\n      add\n      0x40\n      mstore\n      dup1\n      swap3\n      swap2\n      swap1\n      dup3\n      mul(0x20, 0xe)\n      dup1\n      dup3\n      dup5\n      calldatacopy\n      dup3\n      add\n      swap2\n      pop\n      pop\n      pop\n      pop\n      pop\n      swap2\n      swap3\n      swap2\n      swap3\n      swap1\n      pop\n      pop\n      pop\n      jump(tag_18)\n    tag_17:\n      stop\n        /* \"FairFileSale.sol\":4721:5095  function vrfy(uint _index, bytes32 _value, bytes32[depth] _proof) public view returns (bool){\r... */\n    tag_3:\n      callvalue\n        /* \"--CODEGEN--\":8:17   */\n      dup1\n        /* \"--CODEGEN--\":5:7   */\n      iszero\n      tag_19\n      jumpi\n        /* \"--CODEGEN--\":30:31   */\n      0x0\n        /* \"--CODEGEN--\":27:28   */\n      dup1\n        /* \"--CODEGEN--\":20:32   */\n      revert\n        /* \"--CODEGEN--\":5:7   */\n    tag_19:\n        /* \"FairFileSale.sol\":4721:5095  function vrfy(uint _index, bytes32 _value, bytes32[depth] _proof) public view returns (bool){\r... */\n      pop\n      tag_20\n      0x4\n      dup1\n      calldatasize\n      sub\n      dup2\n      add\n      swap1\n      dup1\n      dup1\n      calldataload\n      swap1\n      0x20\n      add\n      swap1\n      swap3\n      swap2\n      swap1\n      dup1\n      calldataload\n      not(0x0)\n      and\n      swap1\n      0x20\n      add\n      swap1\n      swap3\n      swap2\n      swap1\n      dup1\n      0x1c0\n      add\n      swap1\n      0xe\n      dup1\n      0x20\n      mul\n      mload(0x40)\n      swap1\n      dup2\n      add\n      0x40\n      mstore\n      dup1\n      swap3\n      swap2\n      swap1\n      dup3\n      mul(0x20, 0xe)\n      dup1\n      dup3\n      dup5\n      calldatacopy\n      dup3\n      add\n      swap2\n      pop\n      pop\n      pop\n      pop\n      pop\n      swap2\n      swap3\n      swap2\n      swap3\n      swap1\n      pop\n      pop\n      pop\n      jump(tag_21)\n    tag_20:\n      mload(0x40)\n      dup1\n      dup3\n      iszero\n      iszero\n      iszero\n      iszero\n      dup2\n      mstore\n      0x20\n      add\n      swap2\n      pop\n      pop\n      mload(0x40)\n      dup1\n      swap2\n      sub\n      swap1\n      return\n        /* \"FairFileSale.sol\":1369:1511  function accept () allowed(receiver, stage.initialized) payable public {\r... */\n    tag_4:\n      tag_22\n      jump(tag_23)\n    tag_22:\n      stop\n        /* \"FairFileSale.sol\":452:470  bytes32 public key */\n    tag_5:\n      callvalue\n        /* \"--CODEGEN--\":8:17   */\n      dup1\n        /* \"--CODEGEN--\":5:7   */\n      iszero\n      tag_24\n      jumpi\n        /* \"--CODEGEN--\":30:31   */\n      0x0\n        /* \"--CODEGEN--\":27:28   */\n      dup1\n        /* \"--CODEGEN--\":20:32   */\n      revert\n        /* \"--CODEGEN--\":5:7   */\n    tag_24:\n        /* \"FairFileSale.sol\":452:470  bytes32 public key */\n      pop\n      tag_25\n      jump(tag_26)\n    tag_25:\n      mload(0x40)\n      dup1\n      dup3\n      not(0x0)\n      and\n      not(0x0)\n      and\n      dup2\n      mstore\n      0x20\n      add\n      swap2\n      pop\n      pop\n      mload(0x40)\n      dup1\n      swap2\n      sub\n      swap1\n      return\n        /* \"FairFileSale.sol\":3720:4054  function refund () public {\r... */\n    tag_6:\n      callvalue\n        /* \"--CODEGEN--\":8:17   */\n      dup1\n        /* \"--CODEGEN--\":5:7   */\n      iszero\n      tag_27\n      jumpi\n        /* \"--CODEGEN--\":30:31   */\n      0x0\n        /* \"--CODEGEN--\":27:28   */\n      dup1\n        /* \"--CODEGEN--\":20:32   */\n      revert\n        /* \"--CODEGEN--\":5:7   */\n    tag_27:\n        /* \"FairFileSale.sol\":3720:4054  function refund () public {\r... */\n      pop\n      tag_28\n      jump(tag_29)\n    tag_28:\n      stop\n        /* \"FairFileSale.sol\":264:283  uint public timeout */\n    tag_7:\n      callvalue\n        /* \"--CODEGEN--\":8:17   */\n      dup1\n        /* \"--CODEGEN--\":5:7   */\n      iszero\n      tag_30\n      jumpi\n        /* \"--CODEGEN--\":30:31   */\n      0x0\n        /* \"--CODEGEN--\":27:28   */\n      dup1\n        /* \"--CODEGEN--\":20:32   */\n      revert\n        /* \"--CODEGEN--\":5:7   */\n    tag_30:\n        /* \"FairFileSale.sol\":264:283  uint public timeout */\n      pop\n      tag_31\n      jump(tag_32)\n    tag_31:\n      mload(0x40)\n      dup1\n      dup3\n      dup2\n      mstore\n      0x20\n      add\n      swap2\n      pop\n      pop\n      mload(0x40)\n      dup1\n      swap2\n      sub\n      swap1\n      return\n        /* \"FairFileSale.sol\":3009:3630  function complainAboutNode (uint _indexOut, uint _indexIn,\r... */\n    tag_8:\n      callvalue\n        /* \"--CODEGEN--\":8:17   */\n      dup1\n        /* \"--CODEGEN--\":5:7   */\n      iszero\n      tag_33\n      jumpi\n        /* \"--CODEGEN--\":30:31   */\n      0x0\n        /* \"--CODEGEN--\":27:28   */\n      dup1\n        /* \"--CODEGEN--\":20:32   */\n      revert\n        /* \"--CODEGEN--\":5:7   */\n    tag_33:\n        /* \"FairFileSale.sol\":3009:3630  function complainAboutNode (uint _indexOut, uint _indexIn,\r... */\n      pop\n      tag_34\n      0x4\n      dup1\n      calldatasize\n      sub\n      dup2\n      add\n      swap1\n      dup1\n      dup1\n      calldataload\n      swap1\n      0x20\n      add\n      swap1\n      swap3\n      swap2\n      swap1\n      dup1\n      calldataload\n      swap1\n      0x20\n      add\n      swap1\n      swap3\n      swap2\n      swap1\n      dup1\n      calldataload\n      not(0x0)\n      and\n      swap1\n      0x20\n      add\n      swap1\n      swap3\n      swap2\n      swap1\n      dup1\n      calldataload\n      not(0x0)\n      and\n      swap1\n      0x20\n      add\n      swap1\n      swap3\n      swap2\n      swap1\n      dup1\n      calldataload\n      not(0x0)\n      and\n      swap1\n      0x20\n      add\n      swap1\n      swap3\n      swap2\n      swap1\n      dup1\n      0x1c0\n      add\n      swap1\n      0xe\n      dup1\n      0x20\n      mul\n      mload(0x40)\n      swap1\n      dup2\n      add\n      0x40\n      mstore\n      dup1\n      swap3\n      swap2\n      swap1\n      dup3\n      mul(0x20, 0xe)\n      dup1\n      dup3\n      dup5\n      calldatacopy\n      dup3\n      add\n      swap2\n      pop\n      pop\n      pop\n      pop\n      pop\n      swap2\n      swap3\n      swap2\n      swap3\n      swap1\n      dup1\n      0x1c0\n      add\n      swap1\n      0xe\n      dup1\n      0x20\n      mul\n      mload(0x40)\n      swap1\n      dup2\n      add\n      0x40\n      mstore\n      dup1\n      swap3\n      swap2\n      swap1\n      dup3\n      mul(0x20, 0xe)\n      dup1\n      dup3\n      dup5\n      calldatacopy\n      dup3\n      add\n      swap2\n      pop\n      pop\n      pop\n      pop\n      pop\n      swap2\n      swap3\n      swap2\n      swap3\n      swap1\n      pop\n      pop\n      pop\n      jump(tag_35)\n    tag_34:\n      stop\n        /* \"FairFileSale.sol\":4517:4665  function cryptSmall (uint _index, bytes32 _ciphertext) public view returns (bytes32){\r... */\n    tag_9:\n      callvalue\n        /* \"--CODEGEN--\":8:17   */\n      dup1\n        /* \"--CODEGEN--\":5:7   */\n      iszero\n      tag_36\n      jumpi\n        /* \"--CODEGEN--\":30:31   */\n      0x0\n        /* \"--CODEGEN--\":27:28   */\n      dup1\n        /* \"--CODEGEN--\":20:32   */\n      revert\n        /* \"--CODEGEN--\":5:7   */\n    tag_36:\n        /* \"FairFileSale.sol\":4517:4665  function cryptSmall (uint _index, bytes32 _ciphertext) public view returns (bytes32){\r... */\n      pop\n      tag_37\n      0x4\n      dup1\n      calldatasize\n      sub\n      dup2\n      add\n      swap1\n      dup1\n      dup1\n      calldataload\n      swap1\n      0x20\n      add\n      swap1\n      swap3\n      swap2\n      swap1\n      dup1\n      calldataload\n      not(0x0)\n      and\n      swap1\n      0x20\n      add\n      swap1\n      swap3\n      swap2\n      swap1\n      pop\n      pop\n      pop\n      jump(tag_38)\n    tag_37:\n      mload(0x40)\n      dup1\n      dup3\n      not(0x0)\n      and\n      not(0x0)\n      and\n      dup2\n      mstore\n      0x20\n      add\n      swap2\n      pop\n      pop\n      mload(0x40)\n      dup1\n      swap2\n      sub\n      swap1\n      return\n        /* \"FairFileSale.sol\":4134:4455  function cryptLarge (uint _index, bytes32[length] _ciphertext) public view returns (bytes32[length]){\r... */\n    tag_10:\n      callvalue\n        /* \"--CODEGEN--\":8:17   */\n      dup1\n        /* \"--CODEGEN--\":5:7   */\n      iszero\n      tag_39\n      jumpi\n        /* \"--CODEGEN--\":30:31   */\n      0x0\n        /* \"--CODEGEN--\":27:28   */\n      dup1\n        /* \"--CODEGEN--\":20:32   */\n      revert\n        /* \"--CODEGEN--\":5:7   */\n    tag_39:\n        /* \"FairFileSale.sol\":4134:4455  function cryptLarge (uint _index, bytes32[length] _ciphertext) public view returns (bytes32[length]){\r... */\n      pop\n      tag_40\n      0x4\n      dup1\n      calldatasize\n      sub\n      dup2\n      add\n      swap1\n      dup1\n      dup1\n      calldataload\n      swap1\n      0x20\n      add\n      swap1\n      swap3\n      swap2\n      swap1\n      dup1\n      0x40\n      add\n      swap1\n      0x2\n      dup1\n      0x20\n      mul\n      mload(0x40)\n      swap1\n      dup2\n      add\n      0x40\n      mstore\n      dup1\n      swap3\n      swap2\n      swap1\n      dup3\n      mul(0x20, 0x2)\n      dup1\n      dup3\n      dup5\n      calldatacopy\n      dup3\n      add\n      swap2\n      pop\n      pop\n      pop\n      pop\n      pop\n      swap2\n      swap3\n      swap2\n      swap3\n      swap1\n      pop\n      pop\n      pop\n      jump(tag_41)\n    tag_40:\n      mload(0x40)\n      dup1\n      dup3\n      mul(0x20, 0x2)\n      dup1\n      dup4\n      dup4\n        /* \"--CODEGEN--\":23:24   */\n      0x0\n        /* \"--CODEGEN--\":8:108   */\n    tag_42:\n        /* \"--CODEGEN--\":33:36   */\n      dup4\n        /* \"--CODEGEN--\":30:31   */\n      dup2\n        /* \"--CODEGEN--\":27:37   */\n      lt\n        /* \"--CODEGEN--\":8:108   */\n      iszero\n      tag_43\n      jumpi\n        /* \"--CODEGEN--\":99:100   */\n      dup1\n        /* \"--CODEGEN--\":94:97   */\n      dup3\n        /* \"--CODEGEN--\":90:101   */\n      add\n        /* \"--CODEGEN--\":84:102   */\n      mload\n        /* \"--CODEGEN--\":80:81   */\n      dup2\n        /* \"--CODEGEN--\":75:78   */\n      dup5\n        /* \"--CODEGEN--\":71:82   */\n      add\n        /* \"--CODEGEN--\":64:103   */\n      mstore\n        /* \"--CODEGEN--\":52:54   */\n      0x20\n        /* \"--CODEGEN--\":49:50   */\n      dup2\n        /* \"--CODEGEN--\":45:55   */\n      add\n        /* \"--CODEGEN--\":40:55   */\n      swap1\n      pop\n        /* \"--CODEGEN--\":8:108   */\n      jump(tag_42)\n    tag_43:\n        /* \"--CODEGEN--\":12:26   */\n      pop\n        /* \"FairFileSale.sol\":4134:4455  function cryptLarge (uint _index, bytes32[length] _ciphertext) public view returns (bytes32[length]){\r... */\n      pop\n      pop\n      pop\n      swap1\n      pop\n      add\n      swap2\n      pop\n      pop\n      mload(0x40)\n      dup1\n      swap2\n      sub\n      swap1\n      return\n        /* \"FairFileSale.sol\":942:1337  function ininitialize (address _receiver, uint _price, bytes32 _keyCommit, bytes32 _ciphertextRoot, bytes32 _fileRoot) public {\r... */\n    tag_11:\n      callvalue\n        /* \"--CODEGEN--\":8:17   */\n      dup1\n        /* \"--CODEGEN--\":5:7   */\n      iszero\n      tag_45\n      jumpi\n        /* \"--CODEGEN--\":30:31   */\n      0x0\n        /* \"--CODEGEN--\":27:28   */\n      dup1\n        /* \"--CODEGEN--\":20:32   */\n      revert\n        /* \"--CODEGEN--\":5:7   */\n    tag_45:\n        /* \"FairFileSale.sol\":942:1337  function ininitialize (address _receiver, uint _price, bytes32 _keyCommit, bytes32 _ciphertextRoot, bytes32 _fileRoot) public {\r... */\n      pop\n      tag_46\n      0x4\n      dup1\n      calldatasize\n      sub\n      dup2\n      add\n      swap1\n      dup1\n      dup1\n      calldataload\n      0xffffffffffffffffffffffffffffffffffffffff\n      and\n      swap1\n      0x20\n      add\n      swap1\n      swap3\n      swap2\n      swap1\n      dup1\n      calldataload\n      swap1\n      0x20\n      add\n      swap1\n      swap3\n      swap2\n      swap1\n      dup1\n      calldataload\n      not(0x0)\n      and\n      swap1\n      0x20\n      add\n      swap1\n      swap3\n      swap2\n      swap1\n      dup1\n      calldataload\n      not(0x0)\n      and\n      swap1\n      0x20\n      add\n      swap1\n      swap3\n      swap2\n      swap1\n      dup1\n      calldataload\n      not(0x0)\n      and\n      swap1\n      0x20\n      add\n      swap1\n      swap3\n      swap2\n      swap1\n      pop\n      pop\n      pop\n      jump(tag_47)\n    tag_46:\n      stop\n        /* \"FairFileSale.sol\":223:257  stage public phase = stage.created */\n    tag_12:\n      callvalue\n        /* \"--CODEGEN--\":8:17   */\n      dup1\n        /* \"--CODEGEN--\":5:7   */\n      iszero\n      tag_48\n      jumpi\n        /* \"--CODEGEN--\":30:31   */\n      0x0\n        /* \"--CODEGEN--\":27:28   */\n      dup1\n        /* \"--CODEGEN--\":20:32   */\n      revert\n        /* \"--CODEGEN--\":5:7   */\n    tag_48:\n        /* \"FairFileSale.sol\":223:257  stage public phase = stage.created */\n      pop\n      tag_49\n      jump(tag_50)\n    tag_49:\n      mload(0x40)\n      dup1\n      dup3\n      0x4\n      dup2\n      gt\n      iszero\n      tag_51\n      jumpi\n      invalid\n    tag_51:\n      0xff\n      and\n      dup2\n      mstore\n      0x20\n      add\n      swap2\n      pop\n      pop\n      mload(0x40)\n      dup1\n      swap2\n      sub\n      swap1\n      return\n        /* \"FairFileSale.sol\":1778:1848  function noComplain () public {\r... */\n    tag_13:\n      callvalue\n        /* \"--CODEGEN--\":8:17   */\n      dup1\n        /* \"--CODEGEN--\":5:7   */\n      iszero\n      tag_52\n      jumpi\n        /* \"--CODEGEN--\":30:31   */\n      0x0\n        /* \"--CODEGEN--\":27:28   */\n      dup1\n        /* \"--CODEGEN--\":20:32   */\n      revert\n        /* \"--CODEGEN--\":5:7   */\n    tag_52:\n        /* \"FairFileSale.sol\":1778:1848  function noComplain () public {\r... */\n      pop\n      tag_53\n      jump(tag_54)\n    tag_53:\n      stop\n        /* \"FairFileSale.sol\":1552:1717  function revealKey (bytes32 _key) allowed(sender, stage.accepted) public {\r... */\n    tag_14:\n      callvalue\n        /* \"--CODEGEN--\":8:17   */\n      dup1\n        /* \"--CODEGEN--\":5:7   */\n      iszero\n      tag_55\n      jumpi\n        /* \"--CODEGEN--\":30:31   */\n      0x0\n        /* \"--CODEGEN--\":27:28   */\n      dup1\n        /* \"--CODEGEN--\":20:32   */\n      revert\n        /* \"--CODEGEN--\":5:7   */\n    tag_55:\n        /* \"FairFileSale.sol\":1552:1717  function revealKey (bytes32 _key) allowed(sender, stage.accepted) public {\r... */\n      pop\n      tag_56\n      0x4\n      dup1\n      calldatasize\n      sub\n      dup2\n      add\n      swap1\n      dup1\n      dup1\n      calldataload\n      not(0x0)\n      and\n      swap1\n      0x20\n      add\n      swap1\n      swap3\n      swap2\n      swap1\n      pop\n      pop\n      pop\n      jump(tag_57)\n    tag_56:\n      stop\n        /* \"FairFileSale.sol\":2284:2942  function complainAboutLeaf (uint _indexOut, uint _indexIn,\r... */\n    tag_15:\n      callvalue\n        /* \"--CODEGEN--\":8:17   */\n      dup1\n        /* \"--CODEGEN--\":5:7   */\n      iszero\n      tag_58\n      jumpi\n        /* \"--CODEGEN--\":30:31   */\n      0x0\n        /* \"--CODEGEN--\":27:28   */\n      dup1\n        /* \"--CODEGEN--\":20:32   */\n      revert\n        /* \"--CODEGEN--\":5:7   */\n    tag_58:\n        /* \"FairFileSale.sol\":2284:2942  function complainAboutLeaf (uint _indexOut, uint _indexIn,\r... */\n      pop\n      tag_59\n      0x4\n      dup1\n      calldatasize\n      sub\n      dup2\n      add\n      swap1\n      dup1\n      dup1\n      calldataload\n      swap1\n      0x20\n      add\n      swap1\n      swap3\n      swap2\n      swap1\n      dup1\n      calldataload\n      swap1\n      0x20\n      add\n      swap1\n      swap3\n      swap2\n      swap1\n      dup1\n      calldataload\n      not(0x0)\n      and\n      swap1\n      0x20\n      add\n      swap1\n      swap3\n      swap2\n      swap1\n      dup1\n      0x40\n      add\n      swap1\n      0x2\n      dup1\n      0x20\n      mul\n      mload(0x40)\n      swap1\n      dup2\n      add\n      0x40\n      mstore\n      dup1\n      swap3\n      swap2\n      swap1\n      dup3\n      mul(0x20, 0x2)\n      dup1\n      dup3\n      dup5\n      calldatacopy\n      dup3\n      add\n      swap2\n      pop\n      pop\n      pop\n      pop\n      pop\n      swap2\n      swap3\n      swap2\n      swap3\n      swap1\n      dup1\n      0x40\n      add\n      swap1\n      0x2\n      dup1\n      0x20\n      mul\n      mload(0x40)\n      swap1\n      dup2\n      add\n      0x40\n      mstore\n      dup1\n      swap3\n      swap2\n      swap1\n      dup3\n      mul(0x20, 0x2)\n      dup1\n      dup3\n      dup5\n      calldatacopy\n      dup3\n      add\n      swap2\n      pop\n      pop\n      pop\n      pop\n      pop\n      swap2\n      swap3\n      swap2\n      swap3\n      swap1\n      dup1\n      0x1c0\n      add\n      swap1\n      0xe\n      dup1\n      0x20\n      mul\n      mload(0x40)\n      swap1\n      dup2\n      add\n      0x40\n      mstore\n      dup1\n      swap3\n      swap2\n      swap1\n      dup3\n      mul(0x20, 0xe)\n      dup1\n      dup3\n      dup5\n      calldatacopy\n      dup3\n      add\n      swap2\n      pop\n      pop\n      pop\n      pop\n      pop\n      swap2\n      swap3\n      swap2\n      swap3\n      swap1\n      dup1\n      0x1c0\n      add\n      swap1\n      0xe\n      dup1\n      0x20\n      mul\n      mload(0x40)\n      swap1\n      dup2\n      add\n      0x40\n      mstore\n      dup1\n      swap3\n      swap2\n      swap1\n      dup3\n      mul(0x20, 0xe)\n      dup1\n      dup3\n      dup5\n      calldatacopy\n      dup3\n      add\n      swap2\n      pop\n      pop\n      pop\n      pop\n      pop\n      swap2\n      swap3\n      swap2\n      swap3\n      swap1\n      pop\n      pop\n      pop\n      jump(tag_60)\n    tag_59:\n      stop\n        /* \"FairFileSale.sol\":1907:2217  function complainAboutRoot (bytes32 _Zm, bytes32[depth] _proofZm) allowed( receiver, stage.keyRevealed) public {\r... */\n    tag_18:\n        /* \"FairFileSale.sol\":1982:1990  receiver */\n      0x3\n      0x0\n      swap1\n      sload\n      swap1\n      0x100\n      exp\n      swap1\n      div\n      0xffffffffffffffffffffffffffffffffffffffff\n      and\n        /* \"FairFileSale.sol\":1992:2009  stage.keyRevealed */\n      0x3\n        /* \"FairFileSale.sol\":652:653  s */\n      dup1\n        /* \"FairFileSale.sol\":643:653  phase == s */\n      0x4\n      dup2\n      gt\n      iszero\n      tag_62\n      jumpi\n      invalid\n    tag_62:\n        /* \"FairFileSale.sol\":643:648  phase */\n      0x0\n      dup1\n      swap1\n      sload\n      swap1\n      0x100\n      exp\n      swap1\n      div\n      0xff\n      and\n        /* \"FairFileSale.sol\":643:653  phase == s */\n      0x4\n      dup2\n      gt\n      iszero\n      tag_63\n      jumpi\n      invalid\n    tag_63:\n      eq\n        /* \"FairFileSale.sol\":635:654  require(phase == s) */\n      iszero\n      iszero\n      tag_64\n      jumpi\n      0x0\n      dup1\n      revert\n    tag_64:\n        /* \"FairFileSale.sol\":679:686  timeout */\n      sload(0x1)\n        /* \"FairFileSale.sol\":673:676  now */\n      timestamp\n        /* \"FairFileSale.sol\":673:686  now < timeout */\n      lt\n        /* \"FairFileSale.sol\":665:687  require(now < timeout) */\n      iszero\n      iszero\n      tag_65\n      jumpi\n      0x0\n      dup1\n      revert\n    tag_65:\n        /* \"FairFileSale.sol\":720:721  p */\n      dup2\n        /* \"FairFileSale.sol\":706:721  msg.sender == p */\n      0xffffffffffffffffffffffffffffffffffffffff\n      and\n        /* \"FairFileSale.sol\":706:716  msg.sender */\n      caller\n        /* \"FairFileSale.sol\":706:721  msg.sender == p */\n      0xffffffffffffffffffffffffffffffffffffffff\n      and\n      eq\n        /* \"FairFileSale.sol\":698:722  require(msg.sender == p) */\n      iszero\n      iszero\n      tag_66\n      jumpi\n      0x0\n      dup1\n      revert\n    tag_66:\n        /* \"FairFileSale.sol\":2040:2068  vrfy(2*(n-1), _Zm, _proofZm) */\n      tag_68\n        /* \"FairFileSale.sol\":2050:2051  1 */\n      0x1\n        /* \"FairFileSale.sol\":137:142  16384 */\n      0x4000\n        /* \"FairFileSale.sol\":2048:2051  n-1 */\n      sub\n        /* \"FairFileSale.sol\":2045:2046  2 */\n      0x2\n        /* \"FairFileSale.sol\":2045:2052  2*(n-1) */\n      mul\n        /* \"FairFileSale.sol\":2054:2057  _Zm */\n      dup6\n        /* \"FairFileSale.sol\":2059:2067  _proofZm */\n      dup6\n        /* \"FairFileSale.sol\":2040:2044  vrfy */\n      tag_21\n        /* \"FairFileSale.sol\":2040:2068  vrfy(2*(n-1), _Zm, _proofZm) */\n      jump\t// in\n    tag_68:\n        /* \"FairFileSale.sol\":2031:2069  require (vrfy(2*(n-1), _Zm, _proofZm)) */\n      iszero\n      iszero\n      tag_69\n      jumpi\n      0x0\n      dup1\n      revert\n    tag_69:\n        /* \"FairFileSale.sol\":2112:2120  fileRoot */\n      sload(0x7)\n        /* \"FairFileSale.sol\":2084:2120  cryptSmall(2*(n-1), _Zm) != fileRoot */\n      not(0x0)\n      and\n        /* \"FairFileSale.sol\":2084:2108  cryptSmall(2*(n-1), _Zm) */\n      tag_70\n        /* \"FairFileSale.sol\":2100:2101  1 */\n      0x1\n        /* \"FairFileSale.sol\":137:142  16384 */\n      0x4000\n        /* \"FairFileSale.sol\":2098:2101  n-1 */\n      sub\n        /* \"FairFileSale.sol\":2095:2096  2 */\n      0x2\n        /* \"FairFileSale.sol\":2095:2102  2*(n-1) */\n      mul\n        /* \"FairFileSale.sol\":2104:2107  _Zm */\n      dup7\n        /* \"FairFileSale.sol\":2084:2094  cryptSmall */\n      tag_38\n        /* \"FairFileSale.sol\":2084:2108  cryptSmall(2*(n-1), _Zm) */\n      jump\t// in\n    tag_70:\n        /* \"FairFileSale.sol\":2084:2120  cryptSmall(2*(n-1), _Zm) != fileRoot */\n      not(0x0)\n      and\n      eq\n      iszero\n        /* \"FairFileSale.sol\":2080:2210  if (cryptSmall(2*(n-1), _Zm) != fileRoot){\r... */\n      iszero\n      tag_71\n      jumpi\n        /* \"FairFileSale.sol\":2136:2144  receiver */\n      0x3\n      0x0\n      swap1\n      sload\n      swap1\n      0x100\n      exp\n      swap1\n      pop\n      pop\n        /* \"FairFileSale.sol\":2185:2198  stage.created */\n      0x0\n        /* \"FairFileSale.sol\":2177:2182  phase */\n      dup1\n      0x0\n        /* \"FairFileSale.sol\":2177:2198  phase = stage.created */\n      0x100\n      exp\n      dup2\n      sload\n      dup2\n      0xff\n      mul\n      not\n      and\n      swap1\n      dup4\n      0x4\n      dup2\n      gt\n      iszero\n      tag_72\n      jumpi\n      invalid\n    tag_72:\n      mul\n      or\n      swap1\n      sstore\n      pop\n        /* \"FairFileSale.sol\":2080:2210  if (cryptSmall(2*(n-1), _Zm) != fileRoot){\r... */\n    tag_71:\n        /* \"FairFileSale.sol\":1907:2217  function complainAboutRoot (bytes32 _Zm, bytes32[depth] _proofZm) allowed( receiver, stage.keyRevealed) public {\r... */\n      pop\n      pop\n      pop\n      pop\n      jump\t// out\n        /* \"FairFileSale.sol\":4721:5095  function vrfy(uint _index, bytes32 _value, bytes32[depth] _proof) public view returns (bool){\r... */\n    tag_21:\n        /* \"FairFileSale.sol\":4808:4812  bool */\n      0x0\n        /* \"FairFileSale.sol\":4831:4837  uint i */\n      dup1\n        /* \"FairFileSale.sol\":4840:4841  0 */\n      0x0\n        /* \"FairFileSale.sol\":4831:4841  uint i = 0 */\n      swap1\n      pop\n        /* \"FairFileSale.sol\":4826:5044  for (uint i = 0; i < 3; i++){\r... */\n    tag_74:\n        /* \"FairFileSale.sol\":4847:4848  3 */\n      0x3\n        /* \"FairFileSale.sol\":4843:4844  i */\n      dup2\n        /* \"FairFileSale.sol\":4843:4848  i < 3 */\n      lt\n        /* \"FairFileSale.sol\":4826:5044  for (uint i = 0; i < 3; i++){\r... */\n      iszero\n      tag_75\n      jumpi\n        /* \"FairFileSale.sol\":4895:4896  1 */\n      0x1\n        /* \"FairFileSale.sol\":4890:4891  i */\n      dup2\n        /* \"FairFileSale.sol\":4886:4887  i */\n      dup3\n        /* \"FairFileSale.sol\":4883:4884  1 */\n      0x1\n        /* \"FairFileSale.sol\":4883:4887  1<<i */\n      swap1\n      0x2\n      exp\n      mul\n        /* \"FairFileSale.sol\":4874:4880  _index */\n      dup8\n        /* \"FairFileSale.sol\":4874:4887  _index & 1<<i */\n      and\n        /* \"FairFileSale.sol\":4873:4891  (_index & 1<<i)>>i */\n      swap1\n      0x2\n      exp\n      swap1\n      div\n        /* \"FairFileSale.sol\":4873:4896  (_index & 1<<i)>>i == 1 */\n      eq\n        /* \"FairFileSale.sol\":4869:5032  if ((_index & 1<<i)>>i == 1)\r... */\n      iszero\n      tag_77\n      jumpi\n        /* \"FairFileSale.sol\":4934:4940  _proof */\n      dup3\n        /* \"FairFileSale.sol\":4944:4945  i */\n      dup2\n        /* \"FairFileSale.sol\":4941:4942  3 */\n      0x3\n        /* \"FairFileSale.sol\":4941:4945  3 -i */\n      sub\n        /* \"FairFileSale.sol\":4934:4946  _proof[3 -i] */\n      0xe\n      dup2\n      lt\n      iszero\n      iszero\n      tag_78\n      jumpi\n      invalid\n    tag_78:\n      0x20\n      mul\n      add\n      mload\n        /* \"FairFileSale.sol\":4948:4954  _value */\n      dup5\n        /* \"FairFileSale.sol\":4924:4955  keccak256(_proof[3 -i], _value) */\n      mload(0x40)\n      dup1\n      dup4\n      not(0x0)\n      and\n      not(0x0)\n      and\n      dup2\n      mstore\n      0x20\n      add\n      dup3\n      not(0x0)\n      and\n      not(0x0)\n      and\n      dup2\n      mstore\n      0x20\n      add\n      swap3\n      pop\n      pop\n      pop\n      mload(0x40)\n      dup1\n      swap2\n      sub\n      swap1\n      keccak256\n        /* \"FairFileSale.sol\":4915:4955  _value = keccak256(_proof[3 -i], _value) */\n      swap4\n      pop\n        /* \"FairFileSale.sol\":4869:5032  if ((_index & 1<<i)>>i == 1)\r... */\n      jump(tag_79)\n    tag_77:\n        /* \"FairFileSale.sol\":5011:5017  _value */\n      dup4\n        /* \"FairFileSale.sol\":5019:5025  _proof */\n      dup4\n        /* \"FairFileSale.sol\":5029:5030  i */\n      dup3\n        /* \"FairFileSale.sol\":5026:5027  3 */\n      0x3\n        /* \"FairFileSale.sol\":5026:5030  3 -i */\n      sub\n        /* \"FairFileSale.sol\":5019:5031  _proof[3 -i] */\n      0xe\n      dup2\n      lt\n      iszero\n      iszero\n      tag_80\n      jumpi\n      invalid\n    tag_80:\n      0x20\n      mul\n      add\n      mload\n        /* \"FairFileSale.sol\":5001:5032  keccak256(_value, _proof[3 -i]) */\n      mload(0x40)\n      dup1\n      dup4\n      not(0x0)\n      and\n      not(0x0)\n      and\n      dup2\n      mstore\n      0x20\n      add\n      dup3\n      not(0x0)\n      and\n      not(0x0)\n      and\n      dup2\n      mstore\n      0x20\n      add\n      swap3\n      pop\n      pop\n      pop\n      mload(0x40)\n      dup1\n      swap2\n      sub\n      swap1\n      keccak256\n        /* \"FairFileSale.sol\":4992:5032  _value = keccak256(_value, _proof[3 -i]) */\n      swap4\n      pop\n        /* \"FairFileSale.sol\":4869:5032  if ((_index & 1<<i)>>i == 1)\r... */\n    tag_79:\n        /* \"FairFileSale.sol\":4850:4853  i++ */\n      dup1\n      dup1\n      0x1\n      add\n      swap2\n      pop\n      pop\n        /* \"FairFileSale.sol\":4826:5044  for (uint i = 0; i < 3; i++){\r... */\n      jump(tag_74)\n    tag_75:\n        /* \"FairFileSale.sol\":5072:5086  ciphertextRoot */\n      sload(0x6)\n        /* \"FairFileSale.sol\":5062:5086  _value == ciphertextRoot */\n      not(0x0)\n      and\n        /* \"FairFileSale.sol\":5062:5068  _value */\n      dup5\n        /* \"FairFileSale.sol\":5062:5086  _value == ciphertextRoot */\n      not(0x0)\n      and\n      eq\n        /* \"FairFileSale.sol\":5054:5087  return (_value == ciphertextRoot) */\n      swap2\n      pop\n        /* \"FairFileSale.sol\":4721:5095  function vrfy(uint _index, bytes32 _value, bytes32[depth] _proof) public view returns (bool){\r... */\n      pop\n      swap4\n      swap3\n      pop\n      pop\n      pop\n      jump\t// out\n        /* \"FairFileSale.sol\":1369:1511  function accept () allowed(receiver, stage.initialized) payable public {\r... */\n    tag_23:\n        /* \"FairFileSale.sol\":1396:1404  receiver */\n      0x3\n      0x0\n      swap1\n      sload\n      swap1\n      0x100\n      exp\n      swap1\n      div\n      0xffffffffffffffffffffffffffffffffffffffff\n      and\n        /* \"FairFileSale.sol\":1406:1423  stage.initialized */\n      0x1\n        /* \"FairFileSale.sol\":652:653  s */\n      dup1\n        /* \"FairFileSale.sol\":643:653  phase == s */\n      0x4\n      dup2\n      gt\n      iszero\n      tag_82\n      jumpi\n      invalid\n    tag_82:\n        /* \"FairFileSale.sol\":643:648  phase */\n      0x0\n      dup1\n      swap1\n      sload\n      swap1\n      0x100\n      exp\n      swap1\n      div\n      0xff\n      and\n        /* \"FairFileSale.sol\":643:653  phase == s */\n      0x4\n      dup2\n      gt\n      iszero\n      tag_83\n      jumpi\n      invalid\n    tag_83:\n      eq\n        /* \"FairFileSale.sol\":635:654  require(phase == s) */\n      iszero\n      iszero\n      tag_84\n      jumpi\n      0x0\n      dup1\n      revert\n    tag_84:\n        /* \"FairFileSale.sol\":679:686  timeout */\n      sload(0x1)\n        /* \"FairFileSale.sol\":673:676  now */\n      timestamp\n        /* \"FairFileSale.sol\":673:686  now < timeout */\n      lt\n        /* \"FairFileSale.sol\":665:687  require(now < timeout) */\n      iszero\n      iszero\n      tag_85\n      jumpi\n      0x0\n      dup1\n      revert\n    tag_85:\n        /* \"FairFileSale.sol\":720:721  p */\n      dup2\n        /* \"FairFileSale.sol\":706:721  msg.sender == p */\n      0xffffffffffffffffffffffffffffffffffffffff\n      and\n        /* \"FairFileSale.sol\":706:716  msg.sender */\n      caller\n        /* \"FairFileSale.sol\":706:721  msg.sender == p */\n      0xffffffffffffffffffffffffffffffffffffffff\n      and\n      eq\n        /* \"FairFileSale.sol\":698:722  require(msg.sender == p) */\n      iszero\n      iszero\n      tag_86\n      jumpi\n      0x0\n      dup1\n      revert\n    tag_86:\n        /* \"FairFileSale.sol\":1475:1480  price */\n      sload(0x4)\n        /* \"FairFileSale.sol\":1462:1471  msg.value */\n      callvalue\n        /* \"FairFileSale.sol\":1462:1480  msg.value >= price */\n      lt\n      iszero\n        /* \"FairFileSale.sol\":1453:1481  require (msg.value >= price) */\n      iszero\n      iszero\n      tag_88\n      jumpi\n      0x0\n      dup1\n      revert\n    tag_88:\n        /* \"FairFileSale.sol\":1492:1503  nextStage() */\n      tag_89\n        /* \"FairFileSale.sol\":1492:1501  nextStage */\n      tag_90\n        /* \"FairFileSale.sol\":1492:1503  nextStage() */\n      jump\t// in\n    tag_89:\n        /* \"FairFileSale.sol\":1369:1511  function accept () allowed(receiver, stage.initialized) payable public {\r... */\n      pop\n      pop\n      jump\t// out\n        /* \"FairFileSale.sol\":452:470  bytes32 public key */\n    tag_26:\n      sload(0x8)\n      dup2\n      jump\t// out\n        /* \"FairFileSale.sol\":3720:4054  function refund () public {\r... */\n    tag_29:\n        /* \"FairFileSale.sol\":3772:3779  timeout */\n      sload(0x1)\n        /* \"FairFileSale.sol\":3766:3769  now */\n      timestamp\n        /* \"FairFileSale.sol\":3766:3779  now > timeout */\n      gt\n        /* \"FairFileSale.sol\":3757:3780  require (now > timeout) */\n      iszero\n      iszero\n      tag_92\n      jumpi\n      0x0\n      dup1\n      revert\n    tag_92:\n        /* \"FairFileSale.sol\":3804:3818  stage.accepted */\n      0x2\n        /* \"FairFileSale.sol\":3795:3818  phase == stage.accepted */\n      0x4\n      dup2\n      gt\n      iszero\n      tag_93\n      jumpi\n      invalid\n    tag_93:\n        /* \"FairFileSale.sol\":3795:3800  phase */\n      0x0\n      dup1\n      swap1\n      sload\n      swap1\n      0x100\n      exp\n      swap1\n      div\n      0xff\n      and\n        /* \"FairFileSale.sol\":3795:3818  phase == stage.accepted */\n      0x4\n      dup2\n      gt\n      iszero\n      tag_94\n      jumpi\n      invalid\n    tag_94:\n      eq\n        /* \"FairFileSale.sol\":3791:4047  if (phase == stage.accepted) {\r... */\n      iszero\n      tag_95\n      jumpi\n        /* \"FairFileSale.sol\":3837:3845  receiver */\n      0x3\n      0x0\n      swap1\n      sload\n      swap1\n      0x100\n      exp\n      swap1\n      pop\n      pop\n        /* \"FairFileSale.sol\":3886:3899  stage.created */\n      0x0\n        /* \"FairFileSale.sol\":3878:3883  phase */\n      dup1\n      0x0\n        /* \"FairFileSale.sol\":3878:3899  phase = stage.created */\n      0x100\n      exp\n      dup2\n      sload\n      dup2\n      0xff\n      mul\n      not\n      and\n      swap1\n      dup4\n      0x4\n      dup2\n      gt\n      iszero\n      tag_96\n      jumpi\n      invalid\n    tag_96:\n      mul\n      or\n      swap1\n      sstore\n      pop\n        /* \"FairFileSale.sol\":3791:4047  if (phase == stage.accepted) {\r... */\n      jump(tag_97)\n    tag_95:\n        /* \"FairFileSale.sol\":3939:3956  stage.keyRevealed */\n      0x3\n        /* \"FairFileSale.sol\":3930:3956  phase >= stage.keyRevealed */\n      0x4\n      dup2\n      gt\n      iszero\n      tag_98\n      jumpi\n      invalid\n    tag_98:\n        /* \"FairFileSale.sol\":3930:3935  phase */\n      0x0\n      dup1\n      swap1\n      sload\n      swap1\n      0x100\n      exp\n      swap1\n      div\n      0xff\n      and\n        /* \"FairFileSale.sol\":3930:3956  phase >= stage.keyRevealed */\n      0x4\n      dup2\n      gt\n      iszero\n      tag_99\n      jumpi\n      invalid\n    tag_99:\n      lt\n      iszero\n        /* \"FairFileSale.sol\":3926:4047  if (phase >= stage.keyRevealed) {\r... */\n      iszero\n      tag_100\n      jumpi\n        /* \"FairFileSale.sol\":3975:3981  sender */\n      0x2\n      0x0\n      swap1\n      sload\n      swap1\n      0x100\n      exp\n      swap1\n      pop\n      pop\n        /* \"FairFileSale.sol\":4022:4035  stage.created */\n      0x0\n        /* \"FairFileSale.sol\":4014:4019  phase */\n      dup1\n      0x0\n        /* \"FairFileSale.sol\":4014:4035  phase = stage.created */\n      0x100\n      exp\n      dup2\n      sload\n      dup2\n      0xff\n      mul\n      not\n      and\n      swap1\n      dup4\n      0x4\n      dup2\n      gt\n      iszero\n      tag_101\n      jumpi\n      invalid\n    tag_101:\n      mul\n      or\n      swap1\n      sstore\n      pop\n        /* \"FairFileSale.sol\":3926:4047  if (phase >= stage.keyRevealed) {\r... */\n    tag_100:\n        /* \"FairFileSale.sol\":3791:4047  if (phase == stage.accepted) {\r... */\n    tag_97:\n        /* \"FairFileSale.sol\":3720:4054  function refund () public {\r... */\n      jump\t// out\n        /* \"FairFileSale.sol\":264:283  uint public timeout */\n    tag_32:\n      sload(0x1)\n      dup2\n      jump\t// out\n        /* \"FairFileSale.sol\":3009:3630  function complainAboutNode (uint _indexOut, uint _indexIn,\r... */\n    tag_35:\n        /* \"FairFileSale.sol\":3296:3308  bytes32 Xout */\n      0x0\n        /* \"FairFileSale.sol\":3192:3200  receiver */\n      0x3\n      0x0\n      swap1\n      sload\n      swap1\n      0x100\n      exp\n      swap1\n      div\n      0xffffffffffffffffffffffffffffffffffffffff\n      and\n        /* \"FairFileSale.sol\":3202:3219  stage.keyRevealed */\n      0x3\n        /* \"FairFileSale.sol\":652:653  s */\n      dup1\n        /* \"FairFileSale.sol\":643:653  phase == s */\n      0x4\n      dup2\n      gt\n      iszero\n      tag_103\n      jumpi\n      invalid\n    tag_103:\n        /* \"FairFileSale.sol\":643:648  phase */\n      0x0\n      dup1\n      swap1\n      sload\n      swap1\n      0x100\n      exp\n      swap1\n      div\n      0xff\n      and\n        /* \"FairFileSale.sol\":643:653  phase == s */\n      0x4\n      dup2\n      gt\n      iszero\n      tag_104\n      jumpi\n      invalid\n    tag_104:\n      eq\n        /* \"FairFileSale.sol\":635:654  require(phase == s) */\n      iszero\n      iszero\n      tag_105\n      jumpi\n      0x0\n      dup1\n      revert\n    tag_105:\n        /* \"FairFileSale.sol\":679:686  timeout */\n      sload(0x1)\n        /* \"FairFileSale.sol\":673:676  now */\n      timestamp\n        /* \"FairFileSale.sol\":673:686  now < timeout */\n      lt\n        /* \"FairFileSale.sol\":665:687  require(now < timeout) */\n      iszero\n      iszero\n      tag_106\n      jumpi\n      0x0\n      dup1\n      revert\n    tag_106:\n        /* \"FairFileSale.sol\":720:721  p */\n      dup2\n        /* \"FairFileSale.sol\":706:721  msg.sender == p */\n      0xffffffffffffffffffffffffffffffffffffffff\n      and\n        /* \"FairFileSale.sol\":706:716  msg.sender */\n      caller\n        /* \"FairFileSale.sol\":706:721  msg.sender == p */\n      0xffffffffffffffffffffffffffffffffffffffff\n      and\n      eq\n        /* \"FairFileSale.sol\":698:722  require(msg.sender == p) */\n      iszero\n      iszero\n      tag_107\n      jumpi\n      0x0\n      dup1\n      revert\n    tag_107:\n        /* \"FairFileSale.sol\":3250:3284  vrfy(_indexOut, _Zout, _proofZout) */\n      tag_109\n        /* \"FairFileSale.sol\":3255:3264  _indexOut */\n      dup11\n        /* \"FairFileSale.sol\":3266:3271  _Zout */\n      dup10\n        /* \"FairFileSale.sol\":3273:3283  _proofZout */\n      dup8\n        /* \"FairFileSale.sol\":3250:3254  vrfy */\n      tag_21\n        /* \"FairFileSale.sol\":3250:3284  vrfy(_indexOut, _Zout, _proofZout) */\n      jump\t// in\n    tag_109:\n        /* \"FairFileSale.sol\":3241:3285  require (vrfy(_indexOut, _Zout, _proofZout)) */\n      iszero\n      iszero\n      tag_110\n      jumpi\n      0x0\n      dup1\n      revert\n    tag_110:\n        /* \"FairFileSale.sol\":3311:3339  cryptSmall(_indexOut, _Zout) */\n      tag_111\n        /* \"FairFileSale.sol\":3322:3331  _indexOut */\n      dup11\n        /* \"FairFileSale.sol\":3333:3338  _Zout */\n      dup10\n        /* \"FairFileSale.sol\":3311:3321  cryptSmall */\n      tag_38\n        /* \"FairFileSale.sol\":3311:3339  cryptSmall(_indexOut, _Zout) */\n      jump\t// in\n    tag_111:\n        /* \"FairFileSale.sol\":3296:3339  bytes32 Xout = cryptSmall(_indexOut, _Zout) */\n      swap3\n      pop\n        /* \"FairFileSale.sol\":3361:3393  vrfy(_indexIn, _Zin1, _proofZin) */\n      tag_112\n        /* \"FairFileSale.sol\":3366:3374  _indexIn */\n      dup10\n        /* \"FairFileSale.sol\":3376:3381  _Zin1 */\n      dup9\n        /* \"FairFileSale.sol\":3383:3392  _proofZin */\n      dup7\n        /* \"FairFileSale.sol\":3361:3365  vrfy */\n      tag_21\n        /* \"FairFileSale.sol\":3361:3393  vrfy(_indexIn, _Zin1, _proofZin) */\n      jump\t// in\n    tag_112:\n        /* \"FairFileSale.sol\":3352:3394  require (vrfy(_indexIn, _Zin1, _proofZin)) */\n      iszero\n      iszero\n      tag_113\n      jumpi\n      0x0\n      dup1\n      revert\n    tag_113:\n        /* \"FairFileSale.sol\":3430:3435  _Zin2 */\n      dup6\n        /* \"FairFileSale.sol\":3414:3435  _proofZin[0] == _Zin2 */\n      not(0x0)\n      and\n        /* \"FairFileSale.sol\":3414:3423  _proofZin */\n      dup5\n        /* \"FairFileSale.sol\":3424:3425  0 */\n      0x0\n        /* \"FairFileSale.sol\":3414:3426  _proofZin[0] */\n      0xe\n      dup2\n      lt\n      iszero\n      iszero\n      tag_114\n      jumpi\n      invalid\n    tag_114:\n      0x20\n      mul\n      add\n      mload\n        /* \"FairFileSale.sol\":3414:3435  _proofZin[0] == _Zin2 */\n      not(0x0)\n      and\n      eq\n        /* \"FairFileSale.sol\":3405:3436  require (_proofZin[0] == _Zin2) */\n      iszero\n      iszero\n      tag_115\n      jumpi\n      0x0\n      dup1\n      revert\n    tag_115:\n        /* \"FairFileSale.sol\":3471:3498  cryptSmall(_indexIn, _Zin1) */\n      tag_116\n        /* \"FairFileSale.sol\":3482:3490  _indexIn */\n      dup10\n        /* \"FairFileSale.sol\":3492:3497  _Zin1 */\n      dup9\n        /* \"FairFileSale.sol\":3471:3481  cryptSmall */\n      tag_38\n        /* \"FairFileSale.sol\":3471:3498  cryptSmall(_indexIn, _Zin1) */\n      jump\t// in\n    tag_116:\n        /* \"FairFileSale.sol\":3500:3529  cryptSmall(_indexIn+1, _Zin2) */\n      tag_117\n        /* \"FairFileSale.sol\":3520:3521  1 */\n      0x1\n        /* \"FairFileSale.sol\":3511:3519  _indexIn */\n      dup12\n        /* \"FairFileSale.sol\":3511:3521  _indexIn+1 */\n      add\n        /* \"FairFileSale.sol\":3523:3528  _Zin2 */\n      dup9\n        /* \"FairFileSale.sol\":3500:3510  cryptSmall */\n      tag_38\n        /* \"FairFileSale.sol\":3500:3529  cryptSmall(_indexIn+1, _Zin2) */\n      jump\t// in\n    tag_117:\n        /* \"FairFileSale.sol\":3461:3530  keccak256(cryptSmall(_indexIn, _Zin1), cryptSmall(_indexIn+1, _Zin2)) */\n      mload(0x40)\n      dup1\n      dup4\n      not(0x0)\n      and\n      not(0x0)\n      and\n      dup2\n      mstore\n      0x20\n      add\n      dup3\n      not(0x0)\n      and\n      not(0x0)\n      and\n      dup2\n      mstore\n      0x20\n      add\n      swap3\n      pop\n      pop\n      pop\n      mload(0x40)\n      dup1\n      swap2\n      sub\n      swap1\n      keccak256\n        /* \"FairFileSale.sol\":3453:3530  Xout != keccak256(cryptSmall(_indexIn, _Zin1), cryptSmall(_indexIn+1, _Zin2)) */\n      not(0x0)\n      and\n        /* \"FairFileSale.sol\":3453:3457  Xout */\n      dup4\n        /* \"FairFileSale.sol\":3453:3530  Xout != keccak256(cryptSmall(_indexIn, _Zin1), cryptSmall(_indexIn+1, _Zin2)) */\n      not(0x0)\n      and\n      eq\n      iszero\n        /* \"FairFileSale.sol\":3449:3621  if (Xout != keccak256(cryptSmall(_indexIn, _Zin1), cryptSmall(_indexIn+1, _Zin2))) {\r... */\n      iszero\n      tag_118\n      jumpi\n        /* \"FairFileSale.sol\":3547:3555  receiver */\n      0x3\n      0x0\n      swap1\n      sload\n      swap1\n      0x100\n      exp\n      swap1\n      pop\n      pop\n        /* \"FairFileSale.sol\":3596:3609  stage.created */\n      0x0\n        /* \"FairFileSale.sol\":3588:3593  phase */\n      dup1\n      0x0\n        /* \"FairFileSale.sol\":3588:3609  phase = stage.created */\n      0x100\n      exp\n      dup2\n      sload\n      dup2\n      0xff\n      mul\n      not\n      and\n      swap1\n      dup4\n      0x4\n      dup2\n      gt\n      iszero\n      tag_119\n      jumpi\n      invalid\n    tag_119:\n      mul\n      or\n      swap1\n      sstore\n      pop\n        /* \"FairFileSale.sol\":3449:3621  if (Xout != keccak256(cryptSmall(_indexIn, _Zin1), cryptSmall(_indexIn+1, _Zin2))) {\r... */\n    tag_118:\n        /* \"FairFileSale.sol\":3009:3630  function complainAboutNode (uint _indexOut, uint _indexIn,\r... */\n      pop\n      pop\n      pop\n      pop\n      pop\n      pop\n      pop\n      pop\n      pop\n      pop\n      jump\t// out\n        /* \"FairFileSale.sol\":4517:4665  function cryptSmall (uint _index, bytes32 _ciphertext) public view returns (bytes32){\r... */\n    tag_38:\n        /* \"FairFileSale.sol\":4593:4600  bytes32 */\n      0x0\n        /* \"FairFileSale.sol\":4646:4657  _ciphertext */\n      dup2\n        /* \"FairFileSale.sol\":4631:4637  _index */\n      dup4\n        /* \"FairFileSale.sol\":4639:4642  key */\n      sload(0x8)\n        /* \"FairFileSale.sol\":4621:4643  keccak256(_index, key) */\n      mload(0x40)\n      dup1\n      dup4\n      dup2\n      mstore\n      0x20\n      add\n      dup3\n      not(0x0)\n      and\n      not(0x0)\n      and\n      dup2\n      mstore\n      0x20\n      add\n      swap3\n      pop\n      pop\n      pop\n      mload(0x40)\n      dup1\n      swap2\n      sub\n      swap1\n      keccak256\n        /* \"FairFileSale.sol\":4621:4657  keccak256(_index, key) ^ _ciphertext */\n      xor\n        /* \"FairFileSale.sol\":4614:4657  return keccak256(_index, key) ^ _ciphertext */\n      swap1\n      pop\n        /* \"FairFileSale.sol\":4517:4665  function cryptSmall (uint _index, bytes32 _ciphertext) public view returns (bytes32){\r... */\n      swap3\n      swap2\n      pop\n      pop\n      jump\t// out\n        /* \"FairFileSale.sol\":4134:4455  function cryptLarge (uint _index, bytes32[length] _ciphertext) public view returns (bytes32[length]){\r... */\n    tag_41:\n        /* \"FairFileSale.sol\":4218:4233  bytes32[length] */\n      tag_121\n      jump\t// in(tag_122)\n    tag_121:\n        /* \"FairFileSale.sol\":4285:4291  uint i */\n      0x0\n        /* \"FairFileSale.sol\":111:112  2 */\n      0x2\n        /* \"FairFileSale.sol\":4256:4262  _index */\n      dup5\n        /* \"FairFileSale.sol\":4256:4269  _index*length */\n      mul\n        /* \"FairFileSale.sol\":4247:4269  _index = _index*length */\n      swap4\n      pop\n        /* \"FairFileSale.sol\":4294:4295  0 */\n      0x0\n        /* \"FairFileSale.sol\":4285:4295  uint i = 0 */\n      swap1\n      pop\n        /* \"FairFileSale.sol\":4280:4419  for (uint i = 0; i < length; i++){\r... */\n    tag_124:\n        /* \"FairFileSale.sol\":111:112  2 */\n      0x2\n        /* \"FairFileSale.sol\":4297:4298  i */\n      dup2\n        /* \"FairFileSale.sol\":4297:4307  i < length */\n      lt\n        /* \"FairFileSale.sol\":4280:4419  for (uint i = 0; i < length; i++){\r... */\n      iszero\n      tag_125\n      jumpi\n        /* \"FairFileSale.sol\":4370:4381  _ciphertext */\n      dup3\n        /* \"FairFileSale.sol\":4382:4383  i */\n      dup2\n        /* \"FairFileSale.sol\":4370:4384  _ciphertext[i] */\n      0x2\n      dup2\n      lt\n      iszero\n      iszero\n      tag_127\n      jumpi\n      invalid\n    tag_127:\n      0x20\n      mul\n      add\n      mload\n        /* \"FairFileSale.sol\":4355:4361  _index */\n      dup5\n        /* \"FairFileSale.sol\":4363:4366  key */\n      sload(0x8)\n        /* \"FairFileSale.sol\":4345:4367  keccak256(_index, key) */\n      mload(0x40)\n      dup1\n      dup4\n      dup2\n      mstore\n      0x20\n      add\n      dup3\n      not(0x0)\n      and\n      not(0x0)\n      and\n      dup2\n      mstore\n      0x20\n      add\n      swap3\n      pop\n      pop\n      pop\n      mload(0x40)\n      dup1\n      swap2\n      sub\n      swap1\n      keccak256\n        /* \"FairFileSale.sol\":4345:4384  keccak256(_index, key) ^ _ciphertext[i] */\n      xor\n        /* \"FairFileSale.sol\":4328:4339  _ciphertext */\n      dup4\n        /* \"FairFileSale.sol\":4340:4341  i */\n      dup3\n        /* \"FairFileSale.sol\":4328:4342  _ciphertext[i] */\n      0x2\n      dup2\n      lt\n      iszero\n      iszero\n      tag_128\n      jumpi\n      invalid\n    tag_128:\n      0x20\n      mul\n      add\n        /* \"FairFileSale.sol\":4328:4384  _ciphertext[i] = keccak256(_index, key) ^ _ciphertext[i] */\n      swap1\n      not(0x0)\n      and\n      swap1\n      dup2\n      not(0x0)\n      and\n      dup2\n      mstore\n      pop\n      pop\n        /* \"FairFileSale.sol\":4399:4407  _index++ */\n      dup4\n      dup1\n      0x1\n      add\n      swap5\n      pop\n      pop\n        /* \"FairFileSale.sol\":4309:4312  i++ */\n      dup1\n      dup1\n      0x1\n      add\n      swap2\n      pop\n      pop\n        /* \"FairFileSale.sol\":4280:4419  for (uint i = 0; i < length; i++){\r... */\n      jump(tag_124)\n    tag_125:\n        /* \"FairFileSale.sol\":4436:4447  _ciphertext */\n      dup3\n        /* \"FairFileSale.sol\":4429:4447  return _ciphertext */\n      swap2\n      pop\n        /* \"FairFileSale.sol\":4134:4455  function cryptLarge (uint _index, bytes32[length] _ciphertext) public view returns (bytes32[length]){\r... */\n      pop\n      swap3\n      swap2\n      pop\n      pop\n      jump\t// out\n        /* \"FairFileSale.sol\":942:1337  function ininitialize (address _receiver, uint _price, bytes32 _keyCommit, bytes32 _ciphertextRoot, bytes32 _fileRoot) public {\r... */\n    tag_47:\n        /* \"FairFileSale.sol\":1098:1111  stage.created */\n      0x0\n        /* \"FairFileSale.sol\":1089:1111  phase == stage.created */\n      0x4\n      dup2\n      gt\n      iszero\n      tag_130\n      jumpi\n      invalid\n    tag_130:\n        /* \"FairFileSale.sol\":1089:1094  phase */\n      0x0\n      dup1\n      swap1\n      sload\n      swap1\n      0x100\n      exp\n      swap1\n      div\n      0xff\n      and\n        /* \"FairFileSale.sol\":1089:1111  phase == stage.created */\n      0x4\n      dup2\n      gt\n      iszero\n      tag_131\n      jumpi\n      invalid\n    tag_131:\n      eq\n        /* \"FairFileSale.sol\":1081:1112  require(phase == stage.created) */\n      iszero\n      iszero\n      tag_132\n      jumpi\n      0x0\n      dup1\n      revert\n    tag_132:\n        /* \"FairFileSale.sol\":1134:1143  _receiver */\n      dup5\n        /* \"FairFileSale.sol\":1123:1131  receiver */\n      0x3\n      0x0\n        /* \"FairFileSale.sol\":1123:1143  receiver = _receiver */\n      0x100\n      exp\n      dup2\n      sload\n      dup2\n      0xffffffffffffffffffffffffffffffffffffffff\n      mul\n      not\n      and\n      swap1\n      dup4\n      0xffffffffffffffffffffffffffffffffffffffff\n      and\n      mul\n      or\n      swap1\n      sstore\n      pop\n        /* \"FairFileSale.sol\":1163:1173  msg.sender */\n      caller\n        /* \"FairFileSale.sol\":1154:1160  sender */\n      0x2\n      0x0\n        /* \"FairFileSale.sol\":1154:1173  sender = msg.sender */\n      0x100\n      exp\n      dup2\n      sload\n      dup2\n      0xffffffffffffffffffffffffffffffffffffffff\n      mul\n      not\n      and\n      swap1\n      dup4\n      0xffffffffffffffffffffffffffffffffffffffff\n      and\n      mul\n      or\n      swap1\n      sstore\n      pop\n        /* \"FairFileSale.sol\":1192:1198  _price */\n      dup4\n        /* \"FairFileSale.sol\":1184:1189  price */\n      0x4\n        /* \"FairFileSale.sol\":1184:1198  price = _price */\n      dup2\n      swap1\n      sstore\n      pop\n        /* \"FairFileSale.sol\":1221:1231  _keyCommit */\n      dup3\n        /* \"FairFileSale.sol\":1209:1218  keyCommit */\n      0x5\n        /* \"FairFileSale.sol\":1209:1231  keyCommit = _keyCommit */\n      dup2\n      not(0x0)\n      and\n      swap1\n      sstore\n      pop\n        /* \"FairFileSale.sol\":1259:1274  _ciphertextRoot */\n      dup2\n        /* \"FairFileSale.sol\":1242:1256  ciphertextRoot */\n      0x6\n        /* \"FairFileSale.sol\":1242:1274  ciphertextRoot = _ciphertextRoot */\n      dup2\n      not(0x0)\n      and\n      swap1\n      sstore\n      pop\n        /* \"FairFileSale.sol\":1296:1305  _fileRoot */\n      dup1\n        /* \"FairFileSale.sol\":1285:1293  fileRoot */\n      0x7\n        /* \"FairFileSale.sol\":1285:1305  fileRoot = _fileRoot */\n      dup2\n      not(0x0)\n      and\n      swap1\n      sstore\n      pop\n        /* \"FairFileSale.sol\":1318:1329  nextStage() */\n      tag_133\n        /* \"FairFileSale.sol\":1318:1327  nextStage */\n      tag_90\n        /* \"FairFileSale.sol\":1318:1329  nextStage() */\n      jump\t// in\n    tag_133:\n        /* \"FairFileSale.sol\":942:1337  function ininitialize (address _receiver, uint _price, bytes32 _keyCommit, bytes32 _ciphertextRoot, bytes32 _fileRoot) public {\r... */\n      pop\n      pop\n      pop\n      pop\n      pop\n      jump\t// out\n        /* \"FairFileSale.sol\":223:257  stage public phase = stage.created */\n    tag_50:\n      0x0\n      dup1\n      swap1\n      sload\n      swap1\n      0x100\n      exp\n      swap1\n      div\n      0xff\n      and\n      dup2\n      jump\t// out\n        /* \"FairFileSale.sol\":1778:1848  function noComplain () public {\r... */\n    tag_54:\n        /* \"FairFileSale.sol\":1827:1840  stage.created */\n      0x0\n        /* \"FairFileSale.sol\":1819:1824  phase */\n      dup1\n      0x0\n        /* \"FairFileSale.sol\":1819:1840  phase = stage.created */\n      0x100\n      exp\n      dup2\n      sload\n      dup2\n      0xff\n      mul\n      not\n      and\n      swap1\n      dup4\n      0x4\n      dup2\n      gt\n      iszero\n      tag_135\n      jumpi\n      invalid\n    tag_135:\n      mul\n      or\n      swap1\n      sstore\n      pop\n        /* \"FairFileSale.sol\":1778:1848  function noComplain () public {\r... */\n      jump\t// out\n        /* \"FairFileSale.sol\":1552:1717  function revealKey (bytes32 _key) allowed(sender, stage.accepted) public {\r... */\n    tag_57:\n        /* \"FairFileSale.sol\":1594:1600  sender */\n      0x2\n      0x0\n      swap1\n      sload\n      swap1\n      0x100\n      exp\n      swap1\n      div\n      0xffffffffffffffffffffffffffffffffffffffff\n      and\n        /* \"FairFileSale.sol\":1602:1616  stage.accepted */\n      0x2\n        /* \"FairFileSale.sol\":652:653  s */\n      dup1\n        /* \"FairFileSale.sol\":643:653  phase == s */\n      0x4\n      dup2\n      gt\n      iszero\n      tag_137\n      jumpi\n      invalid\n    tag_137:\n        /* \"FairFileSale.sol\":643:648  phase */\n      0x0\n      dup1\n      swap1\n      sload\n      swap1\n      0x100\n      exp\n      swap1\n      div\n      0xff\n      and\n        /* \"FairFileSale.sol\":643:653  phase == s */\n      0x4\n      dup2\n      gt\n      iszero\n      tag_138\n      jumpi\n      invalid\n    tag_138:\n      eq\n        /* \"FairFileSale.sol\":635:654  require(phase == s) */\n      iszero\n      iszero\n      tag_139\n      jumpi\n      0x0\n      dup1\n      revert\n    tag_139:\n        /* \"FairFileSale.sol\":679:686  timeout */\n      sload(0x1)\n        /* \"FairFileSale.sol\":673:676  now */\n      timestamp\n        /* \"FairFileSale.sol\":673:686  now < timeout */\n      lt\n        /* \"FairFileSale.sol\":665:687  require(now < timeout) */\n      iszero\n      iszero\n      tag_140\n      jumpi\n      0x0\n      dup1\n      revert\n    tag_140:\n        /* \"FairFileSale.sol\":720:721  p */\n      dup2\n        /* \"FairFileSale.sol\":706:721  msg.sender == p */\n      0xffffffffffffffffffffffffffffffffffffffff\n      and\n        /* \"FairFileSale.sol\":706:716  msg.sender */\n      caller\n        /* \"FairFileSale.sol\":706:721  msg.sender == p */\n      0xffffffffffffffffffffffffffffffffffffffff\n      and\n      eq\n        /* \"FairFileSale.sol\":698:722  require(msg.sender == p) */\n      iszero\n      iszero\n      tag_141\n      jumpi\n      0x0\n      dup1\n      revert\n    tag_141:\n        /* \"FairFileSale.sol\":1661:1665  _key */\n      dup3\n        /* \"FairFileSale.sol\":1651:1666  keccak256(_key) */\n      mload(0x40)\n      dup1\n      dup3\n      not(0x0)\n      and\n      not(0x0)\n      and\n      dup2\n      mstore\n      0x20\n      add\n      swap2\n      pop\n      pop\n      mload(0x40)\n      dup1\n      swap2\n      sub\n      swap1\n      keccak256\n        /* \"FairFileSale.sol\":1638:1666  keyCommit == keccak256(_key) */\n      pop\n        /* \"FairFileSale.sol\":1683:1687  _key */\n      dup3\n        /* \"FairFileSale.sol\":1677:1680  key */\n      0x8\n        /* \"FairFileSale.sol\":1677:1687  key = _key */\n      dup2\n      not(0x0)\n      and\n      swap1\n      sstore\n      pop\n        /* \"FairFileSale.sol\":1698:1709  nextStage() */\n      tag_143\n        /* \"FairFileSale.sol\":1698:1707  nextStage */\n      tag_90\n        /* \"FairFileSale.sol\":1698:1709  nextStage() */\n      jump\t// in\n    tag_143:\n        /* \"FairFileSale.sol\":1552:1717  function revealKey (bytes32 _key) allowed(sender, stage.accepted) public {\r... */\n      pop\n      pop\n      pop\n      jump\t// out\n        /* \"FairFileSale.sol\":2284:2942  function complainAboutLeaf (uint _indexOut, uint _indexIn,\r... */\n    tag_60:\n        /* \"FairFileSale.sol\":2588:2600  bytes32 Xout */\n      0x0\n        /* \"FairFileSale.sol\":2484:2492  receiver */\n      0x3\n      0x0\n      swap1\n      sload\n      swap1\n      0x100\n      exp\n      swap1\n      div\n      0xffffffffffffffffffffffffffffffffffffffff\n      and\n        /* \"FairFileSale.sol\":2494:2511  stage.keyRevealed */\n      0x3\n        /* \"FairFileSale.sol\":652:653  s */\n      dup1\n        /* \"FairFileSale.sol\":643:653  phase == s */\n      0x4\n      dup2\n      gt\n      iszero\n      tag_145\n      jumpi\n      invalid\n    tag_145:\n        /* \"FairFileSale.sol\":643:648  phase */\n      0x0\n      dup1\n      swap1\n      sload\n      swap1\n      0x100\n      exp\n      swap1\n      div\n      0xff\n      and\n        /* \"FairFileSale.sol\":643:653  phase == s */\n      0x4\n      dup2\n      gt\n      iszero\n      tag_146\n      jumpi\n      invalid\n    tag_146:\n      eq\n        /* \"FairFileSale.sol\":635:654  require(phase == s) */\n      iszero\n      iszero\n      tag_147\n      jumpi\n      0x0\n      dup1\n      revert\n    tag_147:\n        /* \"FairFileSale.sol\":679:686  timeout */\n      sload(0x1)\n        /* \"FairFileSale.sol\":673:676  now */\n      timestamp\n        /* \"FairFileSale.sol\":673:686  now < timeout */\n      lt\n        /* \"FairFileSale.sol\":665:687  require(now < timeout) */\n      iszero\n      iszero\n      tag_148\n      jumpi\n      0x0\n      dup1\n      revert\n    tag_148:\n        /* \"FairFileSale.sol\":720:721  p */\n      dup2\n        /* \"FairFileSale.sol\":706:721  msg.sender == p */\n      0xffffffffffffffffffffffffffffffffffffffff\n      and\n        /* \"FairFileSale.sol\":706:716  msg.sender */\n      caller\n        /* \"FairFileSale.sol\":706:721  msg.sender == p */\n      0xffffffffffffffffffffffffffffffffffffffff\n      and\n      eq\n        /* \"FairFileSale.sol\":698:722  require(msg.sender == p) */\n      iszero\n      iszero\n      tag_149\n      jumpi\n      0x0\n      dup1\n      revert\n    tag_149:\n        /* \"FairFileSale.sol\":2542:2576  vrfy(_indexOut, _Zout, _proofZout) */\n      tag_151\n        /* \"FairFileSale.sol\":2547:2556  _indexOut */\n      dup11\n        /* \"FairFileSale.sol\":2558:2563  _Zout */\n      dup10\n        /* \"FairFileSale.sol\":2565:2575  _proofZout */\n      dup8\n        /* \"FairFileSale.sol\":2542:2546  vrfy */\n      tag_21\n        /* \"FairFileSale.sol\":2542:2576  vrfy(_indexOut, _Zout, _proofZout) */\n      jump\t// in\n    tag_151:\n        /* \"FairFileSale.sol\":2533:2577  require (vrfy(_indexOut, _Zout, _proofZout)) */\n      iszero\n      iszero\n      tag_152\n      jumpi\n      0x0\n      dup1\n      revert\n    tag_152:\n        /* \"FairFileSale.sol\":2603:2631  cryptSmall(_indexOut, _Zout) */\n      tag_153\n        /* \"FairFileSale.sol\":2614:2623  _indexOut */\n      dup11\n        /* \"FairFileSale.sol\":2625:2630  _Zout */\n      dup10\n        /* \"FairFileSale.sol\":2603:2613  cryptSmall */\n      tag_38\n        /* \"FairFileSale.sol\":2603:2631  cryptSmall(_indexOut, _Zout) */\n      jump\t// in\n    tag_153:\n        /* \"FairFileSale.sol\":2588:2631  bytes32 Xout = cryptSmall(_indexOut, _Zout) */\n      swap3\n      pop\n        /* \"FairFileSale.sol\":2653:2696  vrfy(_indexIn, keccak256(_Zin1), _proofZin) */\n      tag_154\n        /* \"FairFileSale.sol\":2658:2666  _indexIn */\n      dup10\n        /* \"FairFileSale.sol\":2678:2683  _Zin1 */\n      dup9\n        /* \"FairFileSale.sol\":2668:2684  keccak256(_Zin1) */\n      mload(0x40)\n      dup1\n      dup3\n      mul(0x20, 0x2)\n      dup1\n      dup4\n      dup4\n        /* \"--CODEGEN--\":23:24   */\n      0x0\n        /* \"--CODEGEN--\":8:108   */\n    tag_155:\n        /* \"--CODEGEN--\":33:36   */\n      dup4\n        /* \"--CODEGEN--\":30:31   */\n      dup2\n        /* \"--CODEGEN--\":27:37   */\n      lt\n        /* \"--CODEGEN--\":8:108   */\n      iszero\n      tag_156\n      jumpi\n        /* \"--CODEGEN--\":99:100   */\n      dup1\n        /* \"--CODEGEN--\":94:97   */\n      dup3\n        /* \"--CODEGEN--\":90:101   */\n      add\n        /* \"--CODEGEN--\":84:102   */\n      mload\n        /* \"--CODEGEN--\":80:81   */\n      dup2\n        /* \"--CODEGEN--\":75:78   */\n      dup5\n        /* \"--CODEGEN--\":71:82   */\n      add\n        /* \"--CODEGEN--\":64:103   */\n      mstore\n        /* \"--CODEGEN--\":52:54   */\n      0x20\n        /* \"--CODEGEN--\":49:50   */\n      dup2\n        /* \"--CODEGEN--\":45:55   */\n      add\n        /* \"--CODEGEN--\":40:55   */\n      swap1\n      pop\n        /* \"--CODEGEN--\":8:108   */\n      jump(tag_155)\n    tag_156:\n        /* \"--CODEGEN--\":12:26   */\n      pop\n        /* \"FairFileSale.sol\":2668:2684  keccak256(_Zin1) */\n      pop\n      pop\n      pop\n      swap1\n      pop\n      add\n      swap2\n      pop\n      pop\n      mload(0x40)\n      dup1\n      swap2\n      sub\n      swap1\n      keccak256\n        /* \"FairFileSale.sol\":2686:2695  _proofZin */\n      dup7\n        /* \"FairFileSale.sol\":2653:2657  vrfy */\n      tag_21\n        /* \"FairFileSale.sol\":2653:2696  vrfy(_indexIn, keccak256(_Zin1), _proofZin) */\n      jump\t// in\n    tag_154:\n        /* \"FairFileSale.sol\":2644:2697  require (vrfy(_indexIn, keccak256(_Zin1), _proofZin)) */\n      iszero\n      iszero\n      tag_158\n      jumpi\n      0x0\n      dup1\n      revert\n    tag_158:\n        /* \"FairFileSale.sol\":2743:2748  _Zin2 */\n      dup6\n        /* \"FairFileSale.sol\":2733:2749  keccak256(_Zin2) */\n      mload(0x40)\n      dup1\n      dup3\n      mul(0x20, 0x2)\n      dup1\n      dup4\n      dup4\n        /* \"--CODEGEN--\":23:24   */\n      0x0\n        /* \"--CODEGEN--\":8:108   */\n    tag_159:\n        /* \"--CODEGEN--\":33:36   */\n      dup4\n        /* \"--CODEGEN--\":30:31   */\n      dup2\n        /* \"--CODEGEN--\":27:37   */\n      lt\n        /* \"--CODEGEN--\":8:108   */\n      iszero\n      tag_160\n      jumpi\n        /* \"--CODEGEN--\":99:100   */\n      dup1\n        /* \"--CODEGEN--\":94:97   */\n      dup3\n        /* \"--CODEGEN--\":90:101   */\n      add\n        /* \"--CODEGEN--\":84:102   */\n      mload\n        /* \"--CODEGEN--\":80:81   */\n      dup2\n        /* \"--CODEGEN--\":75:78   */\n      dup5\n        /* \"--CODEGEN--\":71:82   */\n      add\n        /* \"--CODEGEN--\":64:103   */\n      mstore\n        /* \"--CODEGEN--\":52:54   */\n      0x20\n        /* \"--CODEGEN--\":49:50   */\n      dup2\n        /* \"--CODEGEN--\":45:55   */\n      add\n        /* \"--CODEGEN--\":40:55   */\n      swap1\n      pop\n        /* \"--CODEGEN--\":8:108   */\n      jump(tag_159)\n    tag_160:\n        /* \"--CODEGEN--\":12:26   */\n      pop\n        /* \"FairFileSale.sol\":2733:2749  keccak256(_Zin2) */\n      pop\n      pop\n      pop\n      swap1\n      pop\n      add\n      swap2\n      pop\n      pop\n      mload(0x40)\n      dup1\n      swap2\n      sub\n      swap1\n      keccak256\n        /* \"FairFileSale.sol\":2717:2749  _proofZin[0] == keccak256(_Zin2) */\n      not(0x0)\n      and\n        /* \"FairFileSale.sol\":2717:2726  _proofZin */\n      dup5\n        /* \"FairFileSale.sol\":2727:2728  0 */\n      0x0\n        /* \"FairFileSale.sol\":2717:2729  _proofZin[0] */\n      0xe\n      dup2\n      lt\n      iszero\n      iszero\n      tag_162\n      jumpi\n      invalid\n    tag_162:\n      0x20\n      mul\n      add\n      mload\n        /* \"FairFileSale.sol\":2717:2749  _proofZin[0] == keccak256(_Zin2) */\n      not(0x0)\n      and\n      eq\n        /* \"FairFileSale.sol\":2708:2750  require (_proofZin[0] == keccak256(_Zin2)) */\n      iszero\n      iszero\n      tag_163\n      jumpi\n      0x0\n      dup1\n      revert\n    tag_163:\n        /* \"FairFileSale.sol\":2785:2812  cryptLarge(_indexIn, _Zin1) */\n      tag_164\n        /* \"FairFileSale.sol\":2796:2804  _indexIn */\n      dup10\n        /* \"FairFileSale.sol\":2806:2811  _Zin1 */\n      dup9\n        /* \"FairFileSale.sol\":2785:2795  cryptLarge */\n      tag_41\n        /* \"FairFileSale.sol\":2785:2812  cryptLarge(_indexIn, _Zin1) */\n      jump\t// in\n    tag_164:\n        /* \"FairFileSale.sol\":2814:2843  cryptLarge(_indexIn+1, _Zin2) */\n      tag_165\n        /* \"FairFileSale.sol\":2834:2835  1 */\n      0x1\n        /* \"FairFileSale.sol\":2825:2833  _indexIn */\n      dup12\n        /* \"FairFileSale.sol\":2825:2835  _indexIn+1 */\n      add\n        /* \"FairFileSale.sol\":2837:2842  _Zin2 */\n      dup9\n        /* \"FairFileSale.sol\":2814:2824  cryptLarge */\n      tag_41\n        /* \"FairFileSale.sol\":2814:2843  cryptLarge(_indexIn+1, _Zin2) */\n      jump\t// in\n    tag_165:\n        /* \"FairFileSale.sol\":2775:2844  keccak256(cryptLarge(_indexIn, _Zin1), cryptLarge(_indexIn+1, _Zin2)) */\n      mload(0x40)\n      dup1\n      dup4\n      mul(0x20, 0x2)\n      dup1\n      dup4\n      dup4\n        /* \"--CODEGEN--\":23:24   */\n      0x0\n        /* \"--CODEGEN--\":8:108   */\n    tag_166:\n        /* \"--CODEGEN--\":33:36   */\n      dup4\n        /* \"--CODEGEN--\":30:31   */\n      dup2\n        /* \"--CODEGEN--\":27:37   */\n      lt\n        /* \"--CODEGEN--\":8:108   */\n      iszero\n      tag_167\n      jumpi\n        /* \"--CODEGEN--\":99:100   */\n      dup1\n        /* \"--CODEGEN--\":94:97   */\n      dup3\n        /* \"--CODEGEN--\":90:101   */\n      add\n        /* \"--CODEGEN--\":84:102   */\n      mload\n        /* \"--CODEGEN--\":80:81   */\n      dup2\n        /* \"--CODEGEN--\":75:78   */\n      dup5\n        /* \"--CODEGEN--\":71:82   */\n      add\n        /* \"--CODEGEN--\":64:103   */\n      mstore\n        /* \"--CODEGEN--\":52:54   */\n      0x20\n        /* \"--CODEGEN--\":49:50   */\n      dup2\n        /* \"--CODEGEN--\":45:55   */\n      add\n        /* \"--CODEGEN--\":40:55   */\n      swap1\n      pop\n        /* \"--CODEGEN--\":8:108   */\n      jump(tag_166)\n    tag_167:\n        /* \"--CODEGEN--\":12:26   */\n      pop\n        /* \"FairFileSale.sol\":2775:2844  keccak256(cryptLarge(_indexIn, _Zin1), cryptLarge(_indexIn+1, _Zin2)) */\n      pop\n      pop\n      pop\n      swap1\n      pop\n      add\n      dup3\n      mul(0x20, 0x2)\n      dup1\n      dup4\n      dup4\n        /* \"--CODEGEN--\":23:24   */\n      0x0\n        /* \"--CODEGEN--\":8:108   */\n    tag_169:\n        /* \"--CODEGEN--\":33:36   */\n      dup4\n        /* \"--CODEGEN--\":30:31   */\n      dup2\n        /* \"--CODEGEN--\":27:37   */\n      lt\n        /* \"--CODEGEN--\":8:108   */\n      iszero\n      tag_170\n      jumpi\n        /* \"--CODEGEN--\":99:100   */\n      dup1\n        /* \"--CODEGEN--\":94:97   */\n      dup3\n        /* \"--CODEGEN--\":90:101   */\n      add\n        /* \"--CODEGEN--\":84:102   */\n      mload\n        /* \"--CODEGEN--\":80:81   */\n      dup2\n        /* \"--CODEGEN--\":75:78   */\n      dup5\n        /* \"--CODEGEN--\":71:82   */\n      add\n        /* \"--CODEGEN--\":64:103   */\n      mstore\n        /* \"--CODEGEN--\":52:54   */\n      0x20\n        /* \"--CODEGEN--\":49:50   */\n      dup2\n        /* \"--CODEGEN--\":45:55   */\n      add\n        /* \"--CODEGEN--\":40:55   */\n      swap1\n      pop\n        /* \"--CODEGEN--\":8:108   */\n      jump(tag_169)\n    tag_170:\n        /* \"--CODEGEN--\":12:26   */\n      pop\n        /* \"FairFileSale.sol\":2775:2844  keccak256(cryptLarge(_indexIn, _Zin1), cryptLarge(_indexIn+1, _Zin2)) */\n      pop\n      pop\n      pop\n      swap1\n      pop\n      add\n      swap3\n      pop\n      pop\n      pop\n      mload(0x40)\n      dup1\n      swap2\n      sub\n      swap1\n      keccak256\n        /* \"FairFileSale.sol\":2767:2844  Xout != keccak256(cryptLarge(_indexIn, _Zin1), cryptLarge(_indexIn+1, _Zin2)) */\n      not(0x0)\n      and\n        /* \"FairFileSale.sol\":2767:2771  Xout */\n      dup4\n        /* \"FairFileSale.sol\":2767:2844  Xout != keccak256(cryptLarge(_indexIn, _Zin1), cryptLarge(_indexIn+1, _Zin2)) */\n      not(0x0)\n      and\n      eq\n      iszero\n        /* \"FairFileSale.sol\":2763:2935  if (Xout != keccak256(cryptLarge(_indexIn, _Zin1), cryptLarge(_indexIn+1, _Zin2))) {\r... */\n      iszero\n      tag_172\n      jumpi\n        /* \"FairFileSale.sol\":2861:2869  receiver */\n      0x3\n      0x0\n      swap1\n      sload\n      swap1\n      0x100\n      exp\n      swap1\n      pop\n      pop\n        /* \"FairFileSale.sol\":2910:2923  stage.created */\n      0x0\n        /* \"FairFileSale.sol\":2902:2907  phase */\n      dup1\n      0x0\n        /* \"FairFileSale.sol\":2902:2923  phase = stage.created */\n      0x100\n      exp\n      dup2\n      sload\n      dup2\n      0xff\n      mul\n      not\n      and\n      swap1\n      dup4\n      0x4\n      dup2\n      gt\n      iszero\n      tag_173\n      jumpi\n      invalid\n    tag_173:\n      mul\n      or\n      swap1\n      sstore\n      pop\n        /* \"FairFileSale.sol\":2763:2935  if (Xout != keccak256(cryptLarge(_indexIn, _Zin1), cryptLarge(_indexIn+1, _Zin2))) {\r... */\n    tag_172:\n        /* \"FairFileSale.sol\":2284:2942  function complainAboutLeaf (uint _indexOut, uint _indexIn,\r... */\n      pop\n      pop\n      pop\n      pop\n      pop\n      pop\n      pop\n      pop\n      pop\n      pop\n      jump\t// out\n        /* \"FairFileSale.sol\":775:891  function nextStage() internal {\r... */\n    tag_90:\n        /* \"FairFileSale.sol\":844:845  1 */\n      0x1\n        /* \"FairFileSale.sol\":835:840  phase */\n      0x0\n      dup1\n      swap1\n      sload\n      swap1\n      0x100\n      exp\n      swap1\n      div\n      0xff\n      and\n        /* \"FairFileSale.sol\":830:841  uint(phase) */\n      0x4\n      dup2\n      gt\n      iszero\n      tag_175\n      jumpi\n      invalid\n    tag_175:\n        /* \"FairFileSale.sol\":830:845  uint(phase) + 1 */\n      add\n        /* \"FairFileSale.sol\":824:846  stage(uint(phase) + 1) */\n      0x4\n      dup2\n      gt\n      iszero\n      tag_176\n      jumpi\n      invalid\n    tag_176:\n        /* \"FairFileSale.sol\":816:821  phase */\n      0x0\n      dup1\n        /* \"FairFileSale.sol\":816:846  phase = stage(uint(phase) + 1) */\n      0x100\n      exp\n      dup2\n      sload\n      dup2\n      0xff\n      mul\n      not\n      and\n      swap1\n      dup4\n      0x4\n      dup2\n      gt\n      iszero\n      tag_177\n      jumpi\n      invalid\n    tag_177:\n      mul\n      or\n      swap1\n      sstore\n      pop\n        /* \"FairFileSale.sol\":873:883  10 minutes */\n      0x258\n        /* \"FairFileSale.sol\":867:870  now */\n      timestamp\n        /* \"FairFileSale.sol\":867:883  now + 10 minutes */\n      add\n        /* \"FairFileSale.sol\":857:864  timeout */\n      0x1\n        /* \"FairFileSale.sol\":857:883  timeout = now + 10 minutes */\n      dup2\n      swap1\n      sstore\n      pop\n        /* \"FairFileSale.sol\":775:891  function nextStage() internal {\r... */\n      jump\t// out\n        /* \"FairFileSale.sol\":30:5098  contract fileSale {\r... */\n    tag_122:\n      0x40\n      dup1\n      mload\n      swap1\n      dup2\n      add\n      0x40\n      mstore\n      dup1\n      0x2\n      swap1\n        /* \"--CODEGEN--\":29:31   */\n      0x20\n        /* \"--CODEGEN--\":21:27   */\n      dup3\n        /* \"--CODEGEN--\":17:32   */\n      mul\n        /* \"--CODEGEN--\":117:121   */\n      dup1\n        /* \"--CODEGEN--\":105:115   */\n      codesize\n        /* \"--CODEGEN--\":97:103   */\n      dup4\n        /* \"--CODEGEN--\":88:122   */\n      codecopy\n        /* \"--CODEGEN--\":148:152   */\n      dup1\n        /* \"--CODEGEN--\":140:146   */\n      dup3\n        /* \"--CODEGEN--\":136:153   */\n      add\n        /* \"--CODEGEN--\":126:153   */\n      swap2\n      pop\n        /* \"--CODEGEN--\":0:157   */\n      pop\n        /* \"FairFileSale.sol\":30:5098  contract fileSale {\r... */\n      swap1\n      pop\n      pop\n      swap1\n      jump\t// out\n\n    auxdata: 0xa165627a7a72305820fecd7212508467881a941d9ad20dd9870164f94f7b1636ef0c267974176262cf0029\n}\n",
				"bytecode": {
					"linkReferences": {},
					"object": "608060405260008060006101000a81548160ff0219169083600481111561002257fe5b0217905550606460045534801561003857600080fd5b506110cd806100486000396000f3006080604052600436106100d0576000357c0100000000000000000000000000000000000000000000000000000000900463ffffffff168063108e9892146100d557806314602a1a146101365780632852b71c146101b95780633943380c146101c3578063590e1ae3146101f657806370dea79a1461020d5780637161061b1461023857806380b14028146102f95780639bbaad8014610350578063b0c0acbd146103e8578063b1c9fe6e1461045f578063b899cd3f14610498578063d6547236146104af578063ec3db29e146104e0575b600080fd5b3480156100e157600080fd5b506101346004803603810190808035600019169060200190929190806101c00190600e806020026040519081016040528092919082600e60200280828437820191505050505091929192905050506105e3565b005b34801561014257600080fd5b5061019f600480360381019080803590602001909291908035600019169060200190929190806101c00190600e806020026040519081016040528092919082600e60200280828437820191505050505091929192905050506106fe565b604051808215151515815260200191505060405180910390f35b6101c16107dc565b005b3480156101cf57600080fd5b506101d861089a565b60405180826000191660001916815260200191505060405180910390f35b34801561020257600080fd5b5061020b6108a0565b005b34801561021957600080fd5b50610222610976565b6040518082815260200191505060405180910390f35b34801561024457600080fd5b506102f76004803603810190808035906020019092919080359060200190929190803560001916906020019092919080356000191690602001909291908035600019169060200190929190806101c00190600e806020026040519081016040528092919082600e6020028082843782019150505050509192919290806101c00190600e806020026040519081016040528092919082600e602002808284378201915050505050919291929050505061097c565b005b34801561030557600080fd5b50610332600480360381019080803590602001909291908035600019169060200190929190505050610b11565b60405180826000191660001916815260200191505060405180910390f35b34801561035c57600080fd5b506103aa600480360381019080803590602001909291908060400190600280602002604051908101604052809291908260026020028082843782019150505050509192919290505050610b45565b6040518082600260200280838360005b838110156103d55780820151818401526020810190506103ba565b5050505090500191505060405180910390f35b3480156103f457600080fd5b5061045d600480360381019080803573ffffffffffffffffffffffffffffffffffffffff16906020019092919080359060200190929190803560001916906020019092919080356000191690602001909291908035600019169060200190929190505050610bdf565b005b34801561046b57600080fd5b50610474610ccb565b6040518082600481111561048457fe5b60ff16815260200191505060405180910390f35b3480156104a457600080fd5b506104ad610cdd565b005b3480156104bb57600080fd5b506104de6004803603810190808035600019169060200190929190505050610d02565b005b3480156104ec57600080fd5b506105e16004803603810190808035906020019092919080359060200190929190803560001916906020019092919080604001906002806020026040519081016040528092919082600260200280828437820191505050505091929192908060400190600280602002604051908101604052809291908260026020028082843782019150505050509192919290806101c00190600e806020026040519081016040528092919082600e6020028082843782019150505050509192919290806101c00190600e806020026040519081016040528092919082600e6020028082843782019150505050509192919290505050610dda565b005b600360009054906101000a900473ffffffffffffffffffffffffffffffffffffffff16600380600481111561061457fe5b6000809054906101000a900460ff16600481111561062e57fe5b14151561063a57600080fd5b6001544210151561064a57600080fd5b8173ffffffffffffffffffffffffffffffffffffffff163373ffffffffffffffffffffffffffffffffffffffff1614151561068457600080fd5b61069760016140000360020285856106fe565b15156106a257600080fd5b600754600019166106bb60016140000360020286610b11565b600019161415156106f857600360009054906101000a90505060008060006101000a81548160ff021916908360048111156106f257fe5b02179055505b50505050565b600080600090505b60038110156107c5576001818260019060020a0287169060020a90041415610772578281600303600e8110151561073957fe5b602002015184604051808360001916600019168152602001826000191660001916815260200192505050604051809103902093506107b8565b838382600303600e8110151561078457fe5b6020020151604051808360001916600019168152602001826000191660001916815260200192505050604051809103902093505b8080600101915050610706565b600654600019168460001916149150509392505050565b600360009054906101000a900473ffffffffffffffffffffffffffffffffffffffff16600180600481111561080d57fe5b6000809054906101000a900460ff16600481111561082757fe5b14151561083357600080fd5b6001544210151561084357600080fd5b8173ffffffffffffffffffffffffffffffffffffffff163373ffffffffffffffffffffffffffffffffffffffff1614151561087d57600080fd5b600454341015151561088e57600080fd5b610896611029565b5050565b60085481565b600154421115156108b057600080fd5b600260048111156108bd57fe5b6000809054906101000a900460ff1660048111156108d757fe5b141561091357600360009054906101000a90505060008060006101000a81548160ff0219169083600481111561090957fe5b0217905550610974565b6003600481111561092057fe5b6000809054906101000a900460ff16600481111561093a57fe5b10151561097357600260009054906101000a90505060008060006101000a81548160ff0219169083600481111561096d57fe5b02179055505b5b565b60015481565b6000600360009054906101000a900473ffffffffffffffffffffffffffffffffffffffff1660038060048111156109af57fe5b6000809054906101000a900460ff1660048111156109c957fe5b1415156109d557600080fd5b600154421015156109e557600080fd5b8173ffffffffffffffffffffffffffffffffffffffff163373ffffffffffffffffffffffffffffffffffffffff16141515610a1f57600080fd5b610a2a8a89876106fe565b1515610a3557600080fd5b610a3f8a89610b11565b9250610a4c8988866106fe565b1515610a5757600080fd5b8560001916846000600e81101515610a6b57fe5b602002015160001916141515610a8057600080fd5b610a8a8988610b11565b610a9760018b0188610b11565b6040518083600019166000191681526020018260001916600019168152602001925050506040518091039020600019168360001916141515610b0557600360009054906101000a90505060008060006101000a81548160ff02191690836004811115610aff57fe5b02179055505b50505050505050505050565b6000818360085460405180838152602001826000191660001916815260200192505050604051809103902018905092915050565b610b4d61107f565b6000600284029350600090505b6002811015610bd5578281600281101515610b7157fe5b602002015184600854604051808381526020018260001916600019168152602001925050506040518091039020188382600281101515610bad57fe5b6020020190600019169081600019168152505083806001019450508080600101915050610b5a565b8291505092915050565b60006004811115610bec57fe5b6000809054906101000a900460ff166004811115610c0657fe5b141515610c1257600080fd5b84600360006101000a81548173ffffffffffffffffffffffffffffffffffffffff021916908373ffffffffffffffffffffffffffffffffffffffff16021790555033600260006101000a81548173ffffffffffffffffffffffffffffffffffffffff021916908373ffffffffffffffffffffffffffffffffffffffff16021790555083600481905550826005816000191690555081600681600019169055508060078160001916905550610cc4611029565b5050505050565b6000809054906101000a900460ff1681565b60008060006101000a81548160ff02191690836004811115610cfb57fe5b0217905550565b600260009054906101000a900473ffffffffffffffffffffffffffffffffffffffff166002806004811115610d3357fe5b6000809054906101000a900460ff166004811115610d4d57fe5b141515610d5957600080fd5b60015442101515610d6957600080fd5b8173ffffffffffffffffffffffffffffffffffffffff163373ffffffffffffffffffffffffffffffffffffffff16141515610da357600080fd5b826040518082600019166000191681526020019150506040518091039020508260088160001916905550610dd5611029565b505050565b6000600360009054906101000a900473ffffffffffffffffffffffffffffffffffffffff166003806004811115610e0d57fe5b6000809054906101000a900460ff166004811115610e2757fe5b141515610e3357600080fd5b60015442101515610e4357600080fd5b8173ffffffffffffffffffffffffffffffffffffffff163373ffffffffffffffffffffffffffffffffffffffff16141515610e7d57600080fd5b610e888a89876106fe565b1515610e9357600080fd5b610e9d8a89610b11565b9250610ee789886040518082600260200280838360005b83811015610ecf578082015181840152602081019050610eb4565b505050509050019150506040518091039020866106fe565b1515610ef257600080fd5b856040518082600260200280838360005b83811015610f1e578082015181840152602081019050610f03565b50505050905001915050604051809103902060001916846000600e81101515610f4357fe5b602002015160001916141515610f5857600080fd5b610f628988610b45565b610f6f60018b0188610b45565b6040518083600260200280838360005b83811015610f9a578082015181840152602081019050610f7f565b5050505090500182600260200280838360005b83811015610fc8578082015181840152602081019050610fad565b5050505090500192505050604051809103902060001916836000191614151561101d57600360009054906101000a90505060008060006101000a81548160ff0219169083600481111561101757fe5b02179055505b50505050505050505050565b60016000809054906101000a900460ff16600481111561104557fe5b01600481111561105157fe5b6000806101000a81548160ff0219169083600481111561106d57fe5b02179055506102584201600181905550565b60408051908101604052806002906020820280388339808201915050905050905600a165627a7a72305820fecd7212508467881a941d9ad20dd9870164f94f7b1636ef0c267974176262cf0029",
					"opcodes": "PUSH1 0x80 PUSH1 0x40 MSTORE PUSH1 0x0 DUP1 PUSH1 0x0 PUSH2 0x100 EXP DUP2 SLOAD DUP2 PUSH1 0xFF MUL NOT AND SWAP1 DUP4 PUSH1 0x4 DUP2 GT ISZERO PUSH2 0x22 JUMPI INVALID JUMPDEST MUL OR SWAP1 SSTORE POP PUSH1 0x64 PUSH1 0x4 SSTORE CALLVALUE DUP1 ISZERO PUSH2 0x38 JUMPI PUSH1 0x0 DUP1 REVERT JUMPDEST POP PUSH2 0x10CD DUP1 PUSH2 0x48 PUSH1 0x0 CODECOPY PUSH1 0x0 RETURN STOP PUSH1 0x80 PUSH1 0x40 MSTORE PUSH1 0x4 CALLDATASIZE LT PUSH2 0xD0 JUMPI PUSH1 0x0 CALLDATALOAD PUSH29 0x100000000000000000000000000000000000000000000000000000000 SWAP1 DIV PUSH4 0xFFFFFFFF AND DUP1 PUSH4 0x108E9892 EQ PUSH2 0xD5 JUMPI DUP1 PUSH4 0x14602A1A EQ PUSH2 0x136 JUMPI DUP1 PUSH4 0x2852B71C EQ PUSH2 0x1B9 JUMPI DUP1 PUSH4 0x3943380C EQ PUSH2 0x1C3 JUMPI DUP1 PUSH4 0x590E1AE3 EQ PUSH2 0x1F6 JUMPI DUP1 PUSH4 0x70DEA79A EQ PUSH2 0x20D JUMPI DUP1 PUSH4 0x7161061B EQ PUSH2 0x238 JUMPI DUP1 PUSH4 0x80B14028 EQ PUSH2 0x2F9 JUMPI DUP1 PUSH4 0x9BBAAD80 EQ PUSH2 0x350 JUMPI DUP1 PUSH4 0xB0C0ACBD EQ PUSH2 0x3E8 JUMPI DUP1 PUSH4 0xB1C9FE6E EQ PUSH2 0x45F JUMPI DUP1 PUSH4 0xB899CD3F EQ PUSH2 0x498 JUMPI DUP1 PUSH4 0xD6547236 EQ PUSH2 0x4AF JUMPI DUP1 PUSH4 0xEC3DB29E EQ PUSH2 0x4E0 JUMPI JUMPDEST PUSH1 0x0 DUP1 REVERT JUMPDEST CALLVALUE DUP1 ISZERO PUSH2 0xE1 JUMPI PUSH1 0x0 DUP1 REVERT JUMPDEST POP PUSH2 0x134 PUSH1 0x4 DUP1 CALLDATASIZE SUB DUP2 ADD SWAP1 DUP1 DUP1 CALLDATALOAD PUSH1 0x0 NOT AND SWAP1 PUSH1 0x20 ADD SWAP1 SWAP3 SWAP2 SWAP1 DUP1 PUSH2 0x1C0 ADD SWAP1 PUSH1 0xE DUP1 PUSH1 0x20 MUL PUSH1 0x40 MLOAD SWAP1 DUP2 ADD PUSH1 0x40 MSTORE DUP1 SWAP3 SWAP2 SWAP1 DUP3 PUSH1 0xE PUSH1 0x20 MUL DUP1 DUP3 DUP5 CALLDATACOPY DUP3 ADD SWAP2 POP POP POP POP POP SWAP2 SWAP3 SWAP2 SWAP3 SWAP1 POP POP POP PUSH2 0x5E3 JUMP JUMPDEST STOP JUMPDEST CALLVALUE DUP1 ISZERO PUSH2 0x142 JUMPI PUSH1 0x0 DUP1 REVERT JUMPDEST POP PUSH2 0x19F PUSH1 0x4 DUP1 CALLDATASIZE SUB DUP2 ADD SWAP1 DUP1 DUP1 CALLDATALOAD SWAP1 PUSH1 0x20 ADD SWAP1 SWAP3 SWAP2 SWAP1 DUP1 CALLDATALOAD PUSH1 0x0 NOT AND SWAP1 PUSH1 0x20 ADD SWAP1 SWAP3 SWAP2 SWAP1 DUP1 PUSH2 0x1C0 ADD SWAP1 PUSH1 0xE DUP1 PUSH1 0x20 MUL PUSH1 0x40 MLOAD SWAP1 DUP2 ADD PUSH1 0x40 MSTORE DUP1 SWAP3 SWAP2 SWAP1 DUP3 PUSH1 0xE PUSH1 0x20 MUL DUP1 DUP3 DUP5 CALLDATACOPY DUP3 ADD SWAP2 POP POP POP POP POP SWAP2 SWAP3 SWAP2 SWAP3 SWAP1 POP POP POP PUSH2 0x6FE JUMP JUMPDEST PUSH1 0x40 MLOAD DUP1 DUP3 ISZERO ISZERO ISZERO ISZERO DUP2 MSTORE PUSH1 0x20 ADD SWAP2 POP POP PUSH1 0x40 MLOAD DUP1 SWAP2 SUB SWAP1 RETURN JUMPDEST PUSH2 0x1C1 PUSH2 0x7DC JUMP JUMPDEST STOP JUMPDEST CALLVALUE DUP1 ISZERO PUSH2 0x1CF JUMPI PUSH1 0x0 DUP1 REVERT JUMPDEST POP PUSH2 0x1D8 PUSH2 0x89A JUMP JUMPDEST PUSH1 0x40 MLOAD DUP1 DUP3 PUSH1 0x0 NOT AND PUSH1 0x0 NOT AND DUP2 MSTORE PUSH1 0x20 ADD SWAP2 POP POP PUSH1 0x40 MLOAD DUP1 SWAP2 SUB SWAP1 RETURN JUMPDEST CALLVALUE DUP1 ISZERO PUSH2 0x202 JUMPI PUSH1 0x0 DUP1 REVERT JUMPDEST POP PUSH2 0x20B PUSH2 0x8A0 JUMP JUMPDEST STOP JUMPDEST CALLVALUE DUP1 ISZERO PUSH2 0x219 JUMPI PUSH1 0x0 DUP1 REVERT JUMPDEST POP PUSH2 0x222 PUSH2 0x976 JUMP JUMPDEST PUSH1 0x40 MLOAD DUP1 DUP3 DUP2 MSTORE PUSH1 0x20 ADD SWAP2 POP POP PUSH1 0x40 MLOAD DUP1 SWAP2 SUB SWAP1 RETURN JUMPDEST CALLVALUE DUP1 ISZERO PUSH2 0x244 JUMPI PUSH1 0x0 DUP1 REVERT JUMPDEST POP PUSH2 0x2F7 PUSH1 0x4 DUP1 CALLDATASIZE SUB DUP2 ADD SWAP1 DUP1 DUP1 CALLDATALOAD SWAP1 PUSH1 0x20 ADD SWAP1 SWAP3 SWAP2 SWAP1 DUP1 CALLDATALOAD SWAP1 PUSH1 0x20 ADD SWAP1 SWAP3 SWAP2 SWAP1 DUP1 CALLDATALOAD PUSH1 0x0 NOT AND SWAP1 PUSH1 0x20 ADD SWAP1 SWAP3 SWAP2 SWAP1 DUP1 CALLDATALOAD PUSH1 0x0 NOT AND SWAP1 PUSH1 0x20 ADD SWAP1 SWAP3 SWAP2 SWAP1 DUP1 CALLDATALOAD PUSH1 0x0 NOT AND SWAP1 PUSH1 0x20 ADD SWAP1 SWAP3 SWAP2 SWAP1 DUP1 PUSH2 0x1C0 ADD SWAP1 PUSH1 0xE DUP1 PUSH1 0x20 MUL PUSH1 0x40 MLOAD SWAP1 DUP2 ADD PUSH1 0x40 MSTORE DUP1 SWAP3 SWAP2 SWAP1 DUP3 PUSH1 0xE PUSH1 0x20 MUL DUP1 DUP3 DUP5 CALLDATACOPY DUP3 ADD SWAP2 POP POP POP POP POP SWAP2 SWAP3 SWAP2 SWAP3 SWAP1 DUP1 PUSH2 0x1C0 ADD SWAP1 PUSH1 0xE DUP1 PUSH1 0x20 MUL PUSH1 0x40 MLOAD SWAP1 DUP2 ADD PUSH1 0x40 MSTORE DUP1 SWAP3 SWAP2 SWAP1 DUP3 PUSH1 0xE PUSH1 0x20 MUL DUP1 DUP3 DUP5 CALLDATACOPY DUP3 ADD SWAP2 POP POP POP POP POP SWAP2 SWAP3 SWAP2 SWAP3 SWAP1 POP POP POP PUSH2 0x97C JUMP JUMPDEST STOP JUMPDEST CALLVALUE DUP1 ISZERO PUSH2 0x305 JUMPI PUSH1 0x0 DUP1 REVERT JUMPDEST POP PUSH2 0x332 PUSH1 0x4 DUP1 CALLDATASIZE SUB DUP2 ADD SWAP1 DUP1 DUP1 CALLDATALOAD SWAP1 PUSH1 0x20 ADD SWAP1 SWAP3 SWAP2 SWAP1 DUP1 CALLDATALOAD PUSH1 0x0 NOT AND SWAP1 PUSH1 0x20 ADD SWAP1 SWAP3 SWAP2 SWAP1 POP POP POP PUSH2 0xB11 JUMP JUMPDEST PUSH1 0x40 MLOAD DUP1 DUP3 PUSH1 0x0 NOT AND PUSH1 0x0 NOT AND DUP2 MSTORE PUSH1 0x20 ADD SWAP2 POP POP PUSH1 0x40 MLOAD DUP1 SWAP2 SUB SWAP1 RETURN JUMPDEST CALLVALUE DUP1 ISZERO PUSH2 0x35C JUMPI PUSH1 0x0 DUP1 REVERT JUMPDEST POP PUSH2 0x3AA PUSH1 0x4 DUP1 CALLDATASIZE SUB DUP2 ADD SWAP1 DUP1 DUP1 CALLDATALOAD SWAP1 PUSH1 0x20 ADD SWAP1 SWAP3 SWAP2 SWAP1 DUP1 PUSH1 0x40 ADD SWAP1 PUSH1 0x2 DUP1 PUSH1 0x20 MUL PUSH1 0x40 MLOAD SWAP1 DUP2 ADD PUSH1 0x40 MSTORE DUP1 SWAP3 SWAP2 SWAP1 DUP3 PUSH1 0x2 PUSH1 0x20 MUL DUP1 DUP3 DUP5 CALLDATACOPY DUP3 ADD SWAP2 POP POP POP POP POP SWAP2 SWAP3 SWAP2 SWAP3 SWAP1 POP POP POP PUSH2 0xB45 JUMP JUMPDEST PUSH1 0x40 MLOAD DUP1 DUP3 PUSH1 0x2 PUSH1 0x20 MUL DUP1 DUP4 DUP4 PUSH1 0x0 JUMPDEST DUP4 DUP2 LT ISZERO PUSH2 0x3D5 JUMPI DUP1 DUP3 ADD MLOAD DUP2 DUP5 ADD MSTORE PUSH1 0x20 DUP2 ADD SWAP1 POP PUSH2 0x3BA JUMP JUMPDEST POP POP POP POP SWAP1 POP ADD SWAP2 POP POP PUSH1 0x40 MLOAD DUP1 SWAP2 SUB SWAP1 RETURN JUMPDEST CALLVALUE DUP1 ISZERO PUSH2 0x3F4 JUMPI PUSH1 0x0 DUP1 REVERT JUMPDEST POP PUSH2 0x45D PUSH1 0x4 DUP1 CALLDATASIZE SUB DUP2 ADD SWAP1 DUP1 DUP1 CALLDATALOAD PUSH20 0xFFFFFFFFFFFFFFFFFFFFFFFFFFFFFFFFFFFFFFFF AND SWAP1 PUSH1 0x20 ADD SWAP1 SWAP3 SWAP2 SWAP1 DUP1 CALLDATALOAD SWAP1 PUSH1 0x20 ADD SWAP1 SWAP3 SWAP2 SWAP1 DUP1 CALLDATALOAD PUSH1 0x0 NOT AND SWAP1 PUSH1 0x20 ADD SWAP1 SWAP3 SWAP2 SWAP1 DUP1 CALLDATALOAD PUSH1 0x0 NOT AND SWAP1 PUSH1 0x20 ADD SWAP1 SWAP3 SWAP2 SWAP1 DUP1 CALLDATALOAD PUSH1 0x0 NOT AND SWAP1 PUSH1 0x20 ADD SWAP1 SWAP3 SWAP2 SWAP1 POP POP POP PUSH2 0xBDF JUMP JUMPDEST STOP JUMPDEST CALLVALUE DUP1 ISZERO PUSH2 0x46B JUMPI PUSH1 0x0 DUP1 REVERT JUMPDEST POP PUSH2 0x474 PUSH2 0xCCB JUMP JUMPDEST PUSH1 0x40 MLOAD DUP1 DUP3 PUSH1 0x4 DUP2 GT ISZERO PUSH2 0x484 JUMPI INVALID JUMPDEST PUSH1 0xFF AND DUP2 MSTORE PUSH1 0x20 ADD SWAP2 POP POP PUSH1 0x40 MLOAD DUP1 SWAP2 SUB SWAP1 RETURN JUMPDEST CALLVALUE DUP1 ISZERO PUSH2 0x4A4 JUMPI PUSH1 0x0 DUP1 REVERT JUMPDEST POP PUSH2 0x4AD PUSH2 0xCDD JUMP JUMPDEST STOP JUMPDEST CALLVALUE DUP1 ISZERO PUSH2 0x4BB JUMPI PUSH1 0x0 DUP1 REVERT JUMPDEST POP PUSH2 0x4DE PUSH1 0x4 DUP1 CALLDATASIZE SUB DUP2 ADD SWAP1 DUP1 DUP1 CALLDATALOAD PUSH1 0x0 NOT AND SWAP1 PUSH1 0x20 ADD SWAP1 SWAP3 SWAP2 SWAP1 POP POP POP PUSH2 0xD02 JUMP JUMPDEST STOP JUMPDEST CALLVALUE DUP1 ISZERO PUSH2 0x4EC JUMPI PUSH1 0x0 DUP1 REVERT JUMPDEST POP PUSH2 0x5E1 PUSH1 0x4 DUP1 CALLDATASIZE SUB DUP2 ADD SWAP1 DUP1 DUP1 CALLDATALOAD SWAP1 PUSH1 0x20 ADD SWAP1 SWAP3 SWAP2 SWAP1 DUP1 CALLDATALOAD SWAP1 PUSH1 0x20 ADD SWAP1 SWAP3 SWAP2 SWAP1 DUP1 CALLDATALOAD PUSH1 0x0 NOT AND SWAP1 PUSH1 0x20 ADD SWAP1 SWAP3 SWAP2 SWAP1 DUP1 PUSH1 0x40 ADD SWAP1 PUSH1 0x2 DUP1 PUSH1 0x20 MUL PUSH1 0x40 MLOAD SWAP1 DUP2 ADD PUSH1 0x40 MSTORE DUP1 SWAP3 SWAP2 SWAP1 DUP3 PUSH1 0x2 PUSH1 0x20 MUL DUP1 DUP3 DUP5 CALLDATACOPY DUP3 ADD SWAP2 POP POP POP POP POP SWAP2 SWAP3 SWAP2 SWAP3 SWAP1 DUP1 PUSH1 0x40 ADD SWAP1 PUSH1 0x2 DUP1 PUSH1 0x20 MUL PUSH1 0x40 MLOAD SWAP1 DUP2 ADD PUSH1 0x40 MSTORE DUP1 SWAP3 SWAP2 SWAP1 DUP3 PUSH1 0x2 PUSH1 0x20 MUL DUP1 DUP3 DUP5 CALLDATACOPY DUP3 ADD SWAP2 POP POP POP POP POP SWAP2 SWAP3 SWAP2 SWAP3 SWAP1 DUP1 PUSH2 0x1C0 ADD SWAP1 PUSH1 0xE DUP1 PUSH1 0x20 MUL PUSH1 0x40 MLOAD SWAP1 DUP2 ADD PUSH1 0x40 MSTORE DUP1 SWAP3 SWAP2 SWAP1 DUP3 PUSH1 0xE PUSH1 0x20 MUL DUP1 DUP3 DUP5 CALLDATACOPY DUP3 ADD SWAP2 POP POP POP POP POP SWAP2 SWAP3 SWAP2 SWAP3 SWAP1 DUP1 PUSH2 0x1C0 ADD SWAP1 PUSH1 0xE DUP1 PUSH1 0x20 MUL PUSH1 0x40 MLOAD SWAP1 DUP2 ADD PUSH1 0x40 MSTORE DUP1 SWAP3 SWAP2 SWAP1 DUP3 PUSH1 0xE PUSH1 0x20 MUL DUP1 DUP3 DUP5 CALLDATACOPY DUP3 ADD SWAP2 POP POP POP POP POP SWAP2 SWAP3 SWAP2 SWAP3 SWAP1 POP POP POP PUSH2 0xDDA JUMP JUMPDEST STOP JUMPDEST PUSH1 0x3 PUSH1 0x0 SWAP1 SLOAD SWAP1 PUSH2 0x100 EXP SWAP1 DIV PUSH20 0xFFFFFFFFFFFFFFFFFFFFFFFFFFFFFFFFFFFFFFFF AND PUSH1 0x3 DUP1 PUSH1 0x4 DUP2 GT ISZERO PUSH2 0x614 JUMPI INVALID JUMPDEST PUSH1 0x0 DUP1 SWAP1 SLOAD SWAP1 PUSH2 0x100 EXP SWAP1 DIV PUSH1 0xFF AND PUSH1 0x4 DUP2 GT ISZERO PUSH2 0x62E JUMPI INVALID JUMPDEST EQ ISZERO ISZERO PUSH2 0x63A JUMPI PUSH1 0x0 DUP1 REVERT JUMPDEST PUSH1 0x1 SLOAD TIMESTAMP LT ISZERO ISZERO PUSH2 0x64A JUMPI PUSH1 0x0 DUP1 REVERT JUMPDEST DUP2 PUSH20 0xFFFFFFFFFFFFFFFFFFFFFFFFFFFFFFFFFFFFFFFF AND CALLER PUSH20 0xFFFFFFFFFFFFFFFFFFFFFFFFFFFFFFFFFFFFFFFF AND EQ ISZERO ISZERO PUSH2 0x684 JUMPI PUSH1 0x0 DUP1 REVERT JUMPDEST PUSH2 0x697 PUSH1 0x1 PUSH2 0x4000 SUB PUSH1 0x2 MUL DUP6 DUP6 PUSH2 0x6FE JUMP JUMPDEST ISZERO ISZERO PUSH2 0x6A2 JUMPI PUSH1 0x0 DUP1 REVERT JUMPDEST PUSH1 0x7 SLOAD PUSH1 0x0 NOT AND PUSH2 0x6BB PUSH1 0x1 PUSH2 0x4000 SUB PUSH1 0x2 MUL DUP7 PUSH2 0xB11 JUMP JUMPDEST PUSH1 0x0 NOT AND EQ ISZERO ISZERO PUSH2 0x6F8 JUMPI PUSH1 0x3 PUSH1 0x0 SWAP1 SLOAD SWAP1 PUSH2 0x100 EXP SWAP1 POP POP PUSH1 0x0 DUP1 PUSH1 0x0 PUSH2 0x100 EXP DUP2 SLOAD DUP2 PUSH1 0xFF MUL NOT AND SWAP1 DUP4 PUSH1 0x4 DUP2 GT ISZERO PUSH2 0x6F2 JUMPI INVALID JUMPDEST MUL OR SWAP1 SSTORE POP JUMPDEST POP POP POP POP JUMP JUMPDEST PUSH1 0x0 DUP1 PUSH1 0x0 SWAP1 POP JUMPDEST PUSH1 0x3 DUP2 LT ISZERO PUSH2 0x7C5 JUMPI PUSH1 0x1 DUP2 DUP3 PUSH1 0x1 SWAP1 PUSH1 0x2 EXP MUL DUP8 AND SWAP1 PUSH1 0x2 EXP SWAP1 DIV EQ ISZERO PUSH2 0x772 JUMPI DUP3 DUP2 PUSH1 0x3 SUB PUSH1 0xE DUP2 LT ISZERO ISZERO PUSH2 0x739 JUMPI INVALID JUMPDEST PUSH1 0x20 MUL ADD MLOAD DUP5 PUSH1 0x40 MLOAD DUP1 DUP4 PUSH1 0x0 NOT AND PUSH1 0x0 NOT AND DUP2 MSTORE PUSH1 0x20 ADD DUP3 PUSH1 0x0 NOT AND PUSH1 0x0 NOT AND DUP2 MSTORE PUSH1 0x20 ADD SWAP3 POP POP POP PUSH1 0x40 MLOAD DUP1 SWAP2 SUB SWAP1 KECCAK256 SWAP4 POP PUSH2 0x7B8 JUMP JUMPDEST DUP4 DUP4 DUP3 PUSH1 0x3 SUB PUSH1 0xE DUP2 LT ISZERO ISZERO PUSH2 0x784 JUMPI INVALID JUMPDEST PUSH1 0x20 MUL ADD MLOAD PUSH1 0x40 MLOAD DUP1 DUP4 PUSH1 0x0 NOT AND PUSH1 0x0 NOT AND DUP2 MSTORE PUSH1 0x20 ADD DUP3 PUSH1 0x0 NOT AND PUSH1 0x0 NOT AND DUP2 MSTORE PUSH1 0x20 ADD SWAP3 POP POP POP PUSH1 0x40 MLOAD DUP1 SWAP2 SUB SWAP1 KECCAK256 SWAP4 POP JUMPDEST DUP1 DUP1 PUSH1 0x1 ADD SWAP2 POP POP PUSH2 0x706 JUMP JUMPDEST PUSH1 0x6 SLOAD PUSH1 0x0 NOT AND DUP5 PUSH1 0x0 NOT AND EQ SWAP2 POP POP SWAP4 SWAP3 POP POP POP JUMP JUMPDEST PUSH1 0x3 PUSH1 0x0 SWAP1 SLOAD SWAP1 PUSH2 0x100 EXP SWAP1 DIV PUSH20 0xFFFFFFFFFFFFFFFFFFFFFFFFFFFFFFFFFFFFFFFF AND PUSH1 0x1 DUP1 PUSH1 0x4 DUP2 GT ISZERO PUSH2 0x80D JUMPI INVALID JUMPDEST PUSH1 0x0 DUP1 SWAP1 SLOAD SWAP1 PUSH2 0x100 EXP SWAP1 DIV PUSH1 0xFF AND PUSH1 0x4 DUP2 GT ISZERO PUSH2 0x827 JUMPI INVALID JUMPDEST EQ ISZERO ISZERO PUSH2 0x833 JUMPI PUSH1 0x0 DUP1 REVERT JUMPDEST PUSH1 0x1 SLOAD TIMESTAMP LT ISZERO ISZERO PUSH2 0x843 JUMPI PUSH1 0x0 DUP1 REVERT JUMPDEST DUP2 PUSH20 0xFFFFFFFFFFFFFFFFFFFFFFFFFFFFFFFFFFFFFFFF AND CALLER PUSH20 0xFFFFFFFFFFFFFFFFFFFFFFFFFFFFFFFFFFFFFFFF AND EQ ISZERO ISZERO PUSH2 0x87D JUMPI PUSH1 0x0 DUP1 REVERT JUMPDEST PUSH1 0x4 SLOAD CALLVALUE LT ISZERO ISZERO ISZERO PUSH2 0x88E JUMPI PUSH1 0x0 DUP1 REVERT JUMPDEST PUSH2 0x896 PUSH2 0x1029 JUMP JUMPDEST POP POP JUMP JUMPDEST PUSH1 0x8 SLOAD DUP2 JUMP JUMPDEST PUSH1 0x1 SLOAD TIMESTAMP GT ISZERO ISZERO PUSH2 0x8B0 JUMPI PUSH1 0x0 DUP1 REVERT JUMPDEST PUSH1 0x2 PUSH1 0x4 DUP2 GT ISZERO PUSH2 0x8BD JUMPI INVALID JUMPDEST PUSH1 0x0 DUP1 SWAP1 SLOAD SWAP1 PUSH2 0x100 EXP SWAP1 DIV PUSH1 0xFF AND PUSH1 0x4 DUP2 GT ISZERO PUSH2 0x8D7 JUMPI INVALID JUMPDEST EQ ISZERO PUSH2 0x913 JUMPI PUSH1 0x3 PUSH1 0x0 SWAP1 SLOAD SWAP1 PUSH2 0x100 EXP SWAP1 POP POP PUSH1 0x0 DUP1 PUSH1 0x0 PUSH2 0x100 EXP DUP2 SLOAD DUP2 PUSH1 0xFF MUL NOT AND SWAP1 DUP4 PUSH1 0x4 DUP2 GT ISZERO PUSH2 0x909 JUMPI INVALID JUMPDEST MUL OR SWAP1 SSTORE POP PUSH2 0x974 JUMP JUMPDEST PUSH1 0x3 PUSH1 0x4 DUP2 GT ISZERO PUSH2 0x920 JUMPI INVALID JUMPDEST PUSH1 0x0 DUP1 SWAP1 SLOAD SWAP1 PUSH2 0x100 EXP SWAP1 DIV PUSH1 0xFF AND PUSH1 0x4 DUP2 GT ISZERO PUSH2 0x93A JUMPI INVALID JUMPDEST LT ISZERO ISZERO PUSH2 0x973 JUMPI PUSH1 0x2 PUSH1 0x0 SWAP1 SLOAD SWAP1 PUSH2 0x100 EXP SWAP1 POP POP PUSH1 0x0 DUP1 PUSH1 0x0 PUSH2 0x100 EXP DUP2 SLOAD DUP2 PUSH1 0xFF MUL NOT AND SWAP1 DUP4 PUSH1 0x4 DUP2 GT ISZERO PUSH2 0x96D JUMPI INVALID JUMPDEST MUL OR SWAP1 SSTORE POP JUMPDEST JUMPDEST JUMP JUMPDEST PUSH1 0x1 SLOAD DUP2 JUMP JUMPDEST PUSH1 0x0 PUSH1 0x3 PUSH1 0x0 SWAP1 SLOAD SWAP1 PUSH2 0x100 EXP SWAP1 DIV PUSH20 0xFFFFFFFFFFFFFFFFFFFFFFFFFFFFFFFFFFFFFFFF AND PUSH1 0x3 DUP1 PUSH1 0x4 DUP2 GT ISZERO PUSH2 0x9AF JUMPI INVALID JUMPDEST PUSH1 0x0 DUP1 SWAP1 SLOAD SWAP1 PUSH2 0x100 EXP SWAP1 DIV PUSH1 0xFF AND PUSH1 0x4 DUP2 GT ISZERO PUSH2 0x9C9 JUMPI INVALID JUMPDEST EQ ISZERO ISZERO PUSH2 0x9D5 JUMPI PUSH1 0x0 DUP1 REVERT JUMPDEST PUSH1 0x1 SLOAD TIMESTAMP LT ISZERO ISZERO PUSH2 0x9E5 JUMPI PUSH1 0x0 DUP1 REVERT JUMPDEST DUP2 PUSH20 0xFFFFFFFFFFFFFFFFFFFFFFFFFFFFFFFFFFFFFFFF AND CALLER PUSH20 0xFFFFFFFFFFFFFFFFFFFFFFFFFFFFFFFFFFFFFFFF AND EQ ISZERO ISZERO PUSH2 0xA1F JUMPI PUSH1 0x0 DUP1 REVERT JUMPDEST PUSH2 0xA2A DUP11 DUP10 DUP8 PUSH2 0x6FE JUMP JUMPDEST ISZERO ISZERO PUSH2 0xA35 JUMPI PUSH1 0x0 DUP1 REVERT JUMPDEST PUSH2 0xA3F DUP11 DUP10 PUSH2 0xB11 JUMP JUMPDEST SWAP3 POP PUSH2 0xA4C DUP10 DUP9 DUP7 PUSH2 0x6FE JUMP JUMPDEST ISZERO ISZERO PUSH2 0xA57 JUMPI PUSH1 0x0 DUP1 REVERT JUMPDEST DUP6 PUSH1 0x0 NOT AND DUP5 PUSH1 0x0 PUSH1 0xE DUP2 LT ISZERO ISZERO PUSH2 0xA6B JUMPI INVALID JUMPDEST PUSH1 0x20 MUL ADD MLOAD PUSH1 0x0 NOT AND EQ ISZERO ISZERO PUSH2 0xA80 JUMPI PUSH1 0x0 DUP1 REVERT JUMPDEST PUSH2 0xA8A DUP10 DUP9 PUSH2 0xB11 JUMP JUMPDEST PUSH2 0xA97 PUSH1 0x1 DUP12 ADD DUP9 PUSH2 0xB11 JUMP JUMPDEST PUSH1 0x40 MLOAD DUP1 DUP4 PUSH1 0x0 NOT AND PUSH1 0x0 NOT AND DUP2 MSTORE PUSH1 0x20 ADD DUP3 PUSH1 0x0 NOT AND PUSH1 0x0 NOT AND DUP2 MSTORE PUSH1 0x20 ADD SWAP3 POP POP POP PUSH1 0x40 MLOAD DUP1 SWAP2 SUB SWAP1 KECCAK256 PUSH1 0x0 NOT AND DUP4 PUSH1 0x0 NOT AND EQ ISZERO ISZERO PUSH2 0xB05 JUMPI PUSH1 0x3 PUSH1 0x0 SWAP1 SLOAD SWAP1 PUSH2 0x100 EXP SWAP1 POP POP PUSH1 0x0 DUP1 PUSH1 0x0 PUSH2 0x100 EXP DUP2 SLOAD DUP2 PUSH1 0xFF MUL NOT AND SWAP1 DUP4 PUSH1 0x4 DUP2 GT ISZERO PUSH2 0xAFF JUMPI INVALID JUMPDEST MUL OR SWAP1 SSTORE POP JUMPDEST POP POP POP POP POP POP POP POP POP POP JUMP JUMPDEST PUSH1 0x0 DUP2 DUP4 PUSH1 0x8 SLOAD PUSH1 0x40 MLOAD DUP1 DUP4 DUP2 MSTORE PUSH1 0x20 ADD DUP3 PUSH1 0x0 NOT AND PUSH1 0x0 NOT AND DUP2 MSTORE PUSH1 0x20 ADD SWAP3 POP POP POP PUSH1 0x40 MLOAD DUP1 SWAP2 SUB SWAP1 KECCAK256 XOR SWAP1 POP SWAP3 SWAP2 POP POP JUMP JUMPDEST PUSH2 0xB4D PUSH2 0x107F JUMP JUMPDEST PUSH1 0x0 PUSH1 0x2 DUP5 MUL SWAP4 POP PUSH1 0x0 SWAP1 POP JUMPDEST PUSH1 0x2 DUP2 LT ISZERO PUSH2 0xBD5 JUMPI DUP3 DUP2 PUSH1 0x2 DUP2 LT ISZERO ISZERO PUSH2 0xB71 JUMPI INVALID JUMPDEST PUSH1 0x20 MUL ADD MLOAD DUP5 PUSH1 0x8 SLOAD PUSH1 0x40 MLOAD DUP1 DUP4 DUP2 MSTORE PUSH1 0x20 ADD DUP3 PUSH1 0x0 NOT AND PUSH1 0x0 NOT AND DUP2 MSTORE PUSH1 0x20 ADD SWAP3 POP POP POP PUSH1 0x40 MLOAD DUP1 SWAP2 SUB SWAP1 KECCAK256 XOR DUP4 DUP3 PUSH1 0x2 DUP2 LT ISZERO ISZERO PUSH2 0xBAD JUMPI INVALID JUMPDEST PUSH1 0x20 MUL ADD SWAP1 PUSH1 0x0 NOT AND SWAP1 DUP2 PUSH1 0x0 NOT AND DUP2 MSTORE POP POP DUP4 DUP1 PUSH1 0x1 ADD SWAP5 POP POP DUP1 DUP1 PUSH1 0x1 ADD SWAP2 POP POP PUSH2 0xB5A JUMP JUMPDEST DUP3 SWAP2 POP POP SWAP3 SWAP2 POP POP JUMP JUMPDEST PUSH1 0x0 PUSH1 0x4 DUP2 GT ISZERO PUSH2 0xBEC JUMPI INVALID JUMPDEST PUSH1 0x0 DUP1 SWAP1 SLOAD SWAP1 PUSH2 0x100 EXP SWAP1 DIV PUSH1 0xFF AND PUSH1 0x4 DUP2 GT ISZERO PUSH2 0xC06 JUMPI INVALID JUMPDEST EQ ISZERO ISZERO PUSH2 0xC12 JUMPI PUSH1 0x0 DUP1 REVERT JUMPDEST DUP5 PUSH1 0x3 PUSH1 0x0 PUSH2 0x100 EXP DUP2 SLOAD DUP2 PUSH20 0xFFFFFFFFFFFFFFFFFFFFFFFFFFFFFFFFFFFFFFFF MUL NOT AND SWAP1 DUP4 PUSH20 0xFFFFFFFFFFFFFFFFFFFFFFFFFFFFFFFFFFFFFFFF AND MUL OR SWAP1 SSTORE POP CALLER PUSH1 0x2 PUSH1 0x0 PUSH2 0x100 EXP DUP2 SLOAD DUP2 PUSH20 0xFFFFFFFFFFFFFFFFFFFFFFFFFFFFFFFFFFFFFFFF MUL NOT AND SWAP1 DUP4 PUSH20 0xFFFFFFFFFFFFFFFFFFFFFFFFFFFFFFFFFFFFFFFF AND MUL OR SWAP1 SSTORE POP DUP4 PUSH1 0x4 DUP2 SWAP1 SSTORE POP DUP3 PUSH1 0x5 DUP2 PUSH1 0x0 NOT AND SWAP1 SSTORE POP DUP2 PUSH1 0x6 DUP2 PUSH1 0x0 NOT AND SWAP1 SSTORE POP DUP1 PUSH1 0x7 DUP2 PUSH1 0x0 NOT AND SWAP1 SSTORE POP PUSH2 0xCC4 PUSH2 0x1029 JUMP JUMPDEST POP POP POP POP POP JUMP JUMPDEST PUSH1 0x0 DUP1 SWAP1 SLOAD SWAP1 PUSH2 0x100 EXP SWAP1 DIV PUSH1 0xFF AND DUP2 JUMP JUMPDEST PUSH1 0x0 DUP1 PUSH1 0x0 PUSH2 0x100 EXP DUP2 SLOAD DUP2 PUSH1 0xFF MUL NOT AND SWAP1 DUP4 PUSH1 0x4 DUP2 GT ISZERO PUSH2 0xCFB JUMPI INVALID JUMPDEST MUL OR SWAP1 SSTORE POP JUMP JUMPDEST PUSH1 0x2 PUSH1 0x0 SWAP1 SLOAD SWAP1 PUSH2 0x100 EXP SWAP1 DIV PUSH20 0xFFFFFFFFFFFFFFFFFFFFFFFFFFFFFFFFFFFFFFFF AND PUSH1 0x2 DUP1 PUSH1 0x4 DUP2 GT ISZERO PUSH2 0xD33 JUMPI INVALID JUMPDEST PUSH1 0x0 DUP1 SWAP1 SLOAD SWAP1 PUSH2 0x100 EXP SWAP1 DIV PUSH1 0xFF AND PUSH1 0x4 DUP2 GT ISZERO PUSH2 0xD4D JUMPI INVALID JUMPDEST EQ ISZERO ISZERO PUSH2 0xD59 JUMPI PUSH1 0x0 DUP1 REVERT JUMPDEST PUSH1 0x1 SLOAD TIMESTAMP LT ISZERO ISZERO PUSH2 0xD69 JUMPI PUSH1 0x0 DUP1 REVERT JUMPDEST DUP2 PUSH20 0xFFFFFFFFFFFFFFFFFFFFFFFFFFFFFFFFFFFFFFFF AND CALLER PUSH20 0xFFFFFFFFFFFFFFFFFFFFFFFFFFFFFFFFFFFFFFFF AND EQ ISZERO ISZERO PUSH2 0xDA3 JUMPI PUSH1 0x0 DUP1 REVERT JUMPDEST DUP3 PUSH1 0x40 MLOAD DUP1 DUP3 PUSH1 0x0 NOT AND PUSH1 0x0 NOT AND DUP2 MSTORE PUSH1 0x20 ADD SWAP2 POP POP PUSH1 0x40 MLOAD DUP1 SWAP2 SUB SWAP1 KECCAK256 POP DUP3 PUSH1 0x8 DUP2 PUSH1 0x0 NOT AND SWAP1 SSTORE POP PUSH2 0xDD5 PUSH2 0x1029 JUMP JUMPDEST POP POP POP JUMP JUMPDEST PUSH1 0x0 PUSH1 0x3 PUSH1 0x0 SWAP1 SLOAD SWAP1 PUSH2 0x100 EXP SWAP1 DIV PUSH20 0xFFFFFFFFFFFFFFFFFFFFFFFFFFFFFFFFFFFFFFFF AND PUSH1 0x3 DUP1 PUSH1 0x4 DUP2 GT ISZERO PUSH2 0xE0D JUMPI INVALID JUMPDEST PUSH1 0x0 DUP1 SWAP1 SLOAD SWAP1 PUSH2 0x100 EXP SWAP1 DIV PUSH1 0xFF AND PUSH1 0x4 DUP2 GT ISZERO PUSH2 0xE27 JUMPI INVALID JUMPDEST EQ ISZERO ISZERO PUSH2 0xE33 JUMPI PUSH1 0x0 DUP1 REVERT JUMPDEST PUSH1 0x1 SLOAD TIMESTAMP LT ISZERO ISZERO PUSH2 0xE43 JUMPI PUSH1 0x0 DUP1 REVERT JUMPDEST DUP2 PUSH20 0xFFFFFFFFFFFFFFFFFFFFFFFFFFFFFFFFFFFFFFFF AND CALLER PUSH20 0xFFFFFFFFFFFFFFFFFFFFFFFFFFFFFFFFFFFFFFFF AND EQ ISZERO ISZERO PUSH2 0xE7D JUMPI PUSH1 0x0 DUP1 REVERT JUMPDEST PUSH2 0xE88 DUP11 DUP10 DUP8 PUSH2 0x6FE JUMP JUMPDEST ISZERO ISZERO PUSH2 0xE93 JUMPI PUSH1 0x0 DUP1 REVERT JUMPDEST PUSH2 0xE9D DUP11 DUP10 PUSH2 0xB11 JUMP JUMPDEST SWAP3 POP PUSH2 0xEE7 DUP10 DUP9 PUSH1 0x40 MLOAD DUP1 DUP3 PUSH1 0x2 PUSH1 0x20 MUL DUP1 DUP4 DUP4 PUSH1 0x0 JUMPDEST DUP4 DUP2 LT ISZERO PUSH2 0xECF JUMPI DUP1 DUP3 ADD MLOAD DUP2 DUP5 ADD MSTORE PUSH1 0x20 DUP2 ADD SWAP1 POP PUSH2 0xEB4 JUMP JUMPDEST POP POP POP POP SWAP1 POP ADD SWAP2 POP POP PUSH1 0x40 MLOAD DUP1 SWAP2 SUB SWAP1 KECCAK256 DUP7 PUSH2 0x6FE JUMP JUMPDEST ISZERO ISZERO PUSH2 0xEF2 JUMPI PUSH1 0x0 DUP1 REVERT JUMPDEST DUP6 PUSH1 0x40 MLOAD DUP1 DUP3 PUSH1 0x2 PUSH1 0x20 MUL DUP1 DUP4 DUP4 PUSH1 0x0 JUMPDEST DUP4 DUP2 LT ISZERO PUSH2 0xF1E JUMPI DUP1 DUP3 ADD MLOAD DUP2 DUP5 ADD MSTORE PUSH1 0x20 DUP2 ADD SWAP1 POP PUSH2 0xF03 JUMP JUMPDEST POP POP POP POP SWAP1 POP ADD SWAP2 POP POP PUSH1 0x40 MLOAD DUP1 SWAP2 SUB SWAP1 KECCAK256 PUSH1 0x0 NOT AND DUP5 PUSH1 0x0 PUSH1 0xE DUP2 LT ISZERO ISZERO PUSH2 0xF43 JUMPI INVALID JUMPDEST PUSH1 0x20 MUL ADD MLOAD PUSH1 0x0 NOT AND EQ ISZERO ISZERO PUSH2 0xF58 JUMPI PUSH1 0x0 DUP1 REVERT JUMPDEST PUSH2 0xF62 DUP10 DUP9 PUSH2 0xB45 JUMP JUMPDEST PUSH2 0xF6F PUSH1 0x1 DUP12 ADD DUP9 PUSH2 0xB45 JUMP JUMPDEST PUSH1 0x40 MLOAD DUP1 DUP4 PUSH1 0x2 PUSH1 0x20 MUL DUP1 DUP4 DUP4 PUSH1 0x0 JUMPDEST DUP4 DUP2 LT ISZERO PUSH2 0xF9A JUMPI DUP1 DUP3 ADD MLOAD DUP2 DUP5 ADD MSTORE PUSH1 0x20 DUP2 ADD SWAP1 POP PUSH2 0xF7F JUMP JUMPDEST POP POP POP POP SWAP1 POP ADD DUP3 PUSH1 0x2 PUSH1 0x20 MUL DUP1 DUP4 DUP4 PUSH1 0x0 JUMPDEST DUP4 DUP2 LT ISZERO PUSH2 0xFC8 JUMPI DUP1 DUP3 ADD MLOAD DUP2 DUP5 ADD MSTORE PUSH1 0x20 DUP2 ADD SWAP1 POP PUSH2 0xFAD JUMP JUMPDEST POP POP POP POP SWAP1 POP ADD SWAP3 POP POP POP PUSH1 0x40 MLOAD DUP1 SWAP2 SUB SWAP1 KECCAK256 PUSH1 0x0 NOT AND DUP4 PUSH1 0x0 NOT AND EQ ISZERO ISZERO PUSH2 0x101D JUMPI PUSH1 0x3 PUSH1 0x0 SWAP1 SLOAD SWAP1 PUSH2 0x100 EXP SWAP1 POP POP PUSH1 0x0 DUP1 PUSH1 0x0 PUSH2 0x100 EXP DUP2 SLOAD DUP2 PUSH1 0xFF MUL NOT AND SWAP1 DUP4 PUSH1 0x4 DUP2 GT ISZERO PUSH2 0x1017 JUMPI INVALID JUMPDEST MUL OR SWAP1 SSTORE POP JUMPDEST POP POP POP POP POP POP POP POP POP POP JUMP JUMPDEST PUSH1 0x1 PUSH1 0x0 DUP1 SWAP1 SLOAD SWAP1 PUSH2 0x100 EXP SWAP1 DIV PUSH1 0xFF AND PUSH1 0x4 DUP2 GT ISZERO PUSH2 0x1045 JUMPI INVALID JUMPDEST ADD PUSH1 0x4 DUP2 GT ISZERO PUSH2 0x1051 JUMPI INVALID JUMPDEST PUSH1 0x0 DUP1 PUSH2 0x100 EXP DUP2 SLOAD DUP2 PUSH1 0xFF MUL NOT AND SWAP1 DUP4 PUSH1 0x4 DUP2 GT ISZERO PUSH2 0x106D JUMPI INVALID JUMPDEST MUL OR SWAP1 SSTORE POP PUSH2 0x258 TIMESTAMP ADD PUSH1 0x1 DUP2 SWAP1 SSTORE POP JUMP JUMPDEST PUSH1 0x40 DUP1 MLOAD SWAP1 DUP2 ADD PUSH1 0x40 MSTORE DUP1 PUSH1 0x2 SWAP1 PUSH1 0x20 DUP3 MUL DUP1 CODESIZE DUP4 CODECOPY DUP1 DUP3 ADD SWAP2 POP POP SWAP1 POP POP SWAP1 JUMP STOP LOG1 PUSH6 0x627A7A723058 KECCAK256 INVALID 0xcd PUSH19 0x12508467881A941D9AD20DD9870164F94F7B16 CALLDATASIZE 0xef 0xc 0x26 PUSH26 0x74176262CF002900000000000000000000000000000000000000 "
				},
				"gasEstimates": {
					"creation": {
						"codeDepositCost": "860200",
						"executionCost": "41189",
						"totalCost": "901389"
					},
					"external": {
						"accept()": "41839",
						"complainAboutLeaf(uint256,uint256,bytes32,bytes32[2],bytes32[2],bytes32[14],bytes32[14])": "infinite",
						"complainAboutNode(uint256,uint256,bytes32,bytes32,bytes32,bytes32[14],bytes32[14])": "infinite",
						"complainAboutRoot(bytes32,bytes32[14])": "infinite",
						"cryptLarge(uint256,bytes32[2])": "infinite",
						"cryptSmall(uint256,bytes32)": "811",
						"ininitialize(address,uint256,bytes32,bytes32,bytes32)": "162095",
						"key()": "478",
						"noComplain()": "20662",
						"phase()": "682",
						"refund()": "21600",
						"revealKey(bytes32)": "62056",
						"timeout()": "504",
						"vrfy(uint256,bytes32,bytes32[14])": "infinite"
					},
					"internal": {
						"nextStage()": "40609"
					}
				},
				"methodIdentifiers": {
					"accept()": "2852b71c",
					"complainAboutLeaf(uint256,uint256,bytes32,bytes32[2],bytes32[2],bytes32[14],bytes32[14])": "ec3db29e",
					"complainAboutNode(uint256,uint256,bytes32,bytes32,bytes32,bytes32[14],bytes32[14])": "7161061b",
					"complainAboutRoot(bytes32,bytes32[14])": "108e9892",
					"cryptLarge(uint256,bytes32[2])": "9bbaad80",
					"cryptSmall(uint256,bytes32)": "80b14028",
					"ininitialize(address,uint256,bytes32,bytes32,bytes32)": "b0c0acbd",
					"key()": "3943380c",
					"noComplain()": "b899cd3f",
					"phase()": "b1c9fe6e",
					"refund()": "590e1ae3",
					"revealKey(bytes32)": "d6547236",
					"timeout()": "70dea79a",
					"vrfy(uint256,bytes32,bytes32[14])": "14602a1a"
				}
			},
			"userdoc": {
				"methods": {}
			}
		}
	}
}